:100000000B308A00F92B0000FF00030E8301A100D2
:100010000A08A0008A010408A2007708A300780853
:10002000A4007908A5007A08A60003170D08031399
:10003000A70003170F080313A80003170C080313E6
:10004000A90003170E080313AA00831383128B1E43
:100050002B280B194C28220884002308F7002408B9
:10006000F8002508F9002608FA00270803178D0074
:100070000313280803178F000313290803178C00A4
:1000800003132A0803178E00031320088A00210E89
:100090008300FF0E7F0E09008A110A124F280130DB
:1000A000AC070318AD0A2D08003C03186028FF3A7E
:1000B000031D5E282C08813C03186028AD01AC01AB
:1000C000AD08031D6C282E082C0203186C2883161B
:1000D000051083120514702883160510831205106D
:1000E000AD08031D7C282F082C0203187C288316DA
:1000F000851083128514802883168510831285103D
:100100000B118A110A122B284B385F3CBA12301798
:100110003233A025E92F781D25182E1966004B32A1
:100120005F3CBA1230173233A029452AD02749271D
:10013000541D30002021C9224E2B452749224F0053
:10014000413CBA1230173233A020791D25182E19E0
:100150006600473CBA1230173233A023791D2518A8
:100160002E196600CA308400831300080319C528BD
:100170000630F800F701F70BBB28F80BBA287B30E4
:10018000F700F70BC128800BB82808008316510E22
:10019000F039F7000F30831208057704880000005B
:1001A00008140230F700F70BD328D62800000810F7
:1001B00008000808F700080E0F39F8000800831639
:1001C000081088100811831288100F308316080554
:1001D000F038880083120815000008140000D920A8
:1001E00078088316D1008312081000000814F8283C
:1001F000F9280000D92078088316D000831208104F
:100200000F30831608058800510EF700F030F7050F
:1002100077085004F8007808D000D01F1129831205
:10022000E5284E1816298312881083164E1C1B29A8
:10023000831288148316000083120811000008102E
:1002400083164F0ED0000F30D0055008D100831216
:10025000C62083164F080F39D000D1008312C62064
:10026000080028308316BD000C30BE000130BF00EE
:100270000630C00083120810881008110F30831652
:10028000080588000810881008110F30CA00831272
:10029000B22001308316BC003C08033C031C5C29DF
:1002A0000330D1008312C62005308316CA008312A2
:1002B000B2208316BC0A4C290230D1008312C6201A
:1002C00005308316CA008312B2208316BC013C0895
:1002D000033C031C7929BD303C07840083130008CC
:1002E000C100CE014108CF008312DF208316BC0A73
:1002F000672983128A150A12492C83160108C73907
:100300000838810083128B16C0308B04E6308100E0
:100310008A150A124C2C0830F8000430F700F70B4D
:100320008F298711AB112B08831687000330F70044
:10033000F70B9829C50D83120712031CA5292B164C
:100340002B0883168700A92983122B122B088316EA
:10035000870000008312AB152B08831687008312D9
:10036000871DB029F80B8D290430F700F70BB6294B
:100370008711AB112B0883168700000083122B1600
:100380002B08831687000330F700F70BC5290330CD
:10039000F700F70BC9298312AB152B0883168700CA
:1003A0008312871DD129F8010330F700F70BD629F6
:1003B000071A78148711AB112B0883168700831254
:1003C00007122B122B0883168700831208002B16A6
:1003D0002B08831687000430F700F70BED298312F2
:1003E000AB152B08831687000330F700F70BF629AF
:1003F000831207122B122B08831687000430F70094
:10040000F70B002A83128711AB112B088316870084
:10041000D030C50083128B2183163C08C50083129F
:100420008B2183163D08C50083128B212B122B08CC
:100430008316870000008312AB152B0883168700F4
:100440008312871D212A0430F700F70B252A282A5A
:1004500000002B162B08831687000430F700F70BDB
:100460002F2A831208006B308316BC00BD01831253
:10047000E72164308316CA008312B2201930831634
:10048000BC000730BD008312E72164308316CA0028
:100490008312B2208A150A124F2C83164B0B512A55
:1004A000542A4030CC00552ACC0101304A02CC07F6
:1004B0004C088038CD00CE014D08CF008312DF20DC
:1004C000080083164908073A83120319712A0B3A68
:1004D0000319782A063A0319842A023A03198C2A46
:1004E000932A01308316CA00CB0083124D229A2A28
:1004F0008316CE010130CF008312DF200230831635
:10050000CA008312B2209A2A01308316CA00023030
:10051000CB0083124D229A2A8316CE011030CF00D1
:100520008312DF209A2A01308316CE004908CF00BB
:100530008312DF2008000B088316BC0083128B1384
:10054000831603178C170C14000000000313BC1F44
:10055000AC2A83128B178316831203170C087F397A
:1005600003190D2B83160313BC00831203170D0808
:1005700083160313BD00831203170F08831603139A
:10058000BE003C08C9008312612283163D08831215
:1005900003178D00831603133E08831203178F0081
:1005A00003130B088316BF0083128B1383160317E4
:1005B0008C170C14000000000313BF1FE22A8312E3
:1005C0008B178316831203170C0D0E0D7F39031939
:1005D0000D2B83160313BC00831203170D0883161B
:1005E0000313BD00831203170F0883160313BE0005
:1005F0003C08C9008312612283163D088312031749
:100600008D00831603133E08831203178F008D0A93
:1006100003198F0A03139B2A031703138A150A125F
:10062000582C0B088316BD0083128B1383160317F7
:100630008C170C14000000000313BD1F222B831223
:100640008B17831603185B2B831203170C087F3953
:1006500083160313BD00831203170D0883160313BB
:10066000BE00831203170F0883160313BF003D0853
:10067000C9008312612283163E08831203178D007E
:10068000831603133F08831203178F0003130B080D
:100690008316C00083128B13831603178C170C1458
:1006A000000000000313C01F582B83128B17831602
:1006B000BC0B5B2B892B831203170C0D0E0D7F399E
:1006C00083160313BD00831203170D08831603134B
:1006D000BE00831203170F0883160313BF003D08E3
:1006E000C9008312612283163E08831203178D000E
:1006F000831603133F08831203178F008D0A031913
:100700008F0A031083160313BC0B872B892B8312CC
:10071000112B83120800831649080319FC2BD10002
:100720004D080319FC2BD10703189D2B7F30D102F4
:10073000031CFC2B0319FC2BA12B8130D1070318C0
:10074000FC2B5108F700F801F901FA014A08D5001D
:10075000D5174B08D4004C08D3001830D100D20173
:10076000531CCA2B5008FA07031CBC2BF90A031DA3
:10077000BC2BF80A0319D2174F08F907031CC32B27
:10078000F80A0319D2174E08CB00CB174B08F8070D
:100790000318D217D20DF80CF90CFA0CD50CD40CA6
:1007A000D30C0310D10BAF2B0130F7070318FC2B30
:1007B000F81BE12BD50DFA0DF90DF80DF703031910
:1007C000FC2BD51FF22BFA0A031DF22BF90A031D8D
:1007D000F22BF80A031DF22BF80CF90CFA0CF70AAD
:1007E0000319FC2B4A08D2004E08D206D21FFA2B5E
:1007F000F817002CF813002CF701F801F901FA01A1
:10080000831208008318072CD13084008313F7016A
:10081000F801F901FA018316D101D201D301D40103
:1008200050084F044E044D040319462C2030D500C7
:100830000310C90DCA0DCB0DCC0DD10DD20DD30DAA
:10084000D40D50085402031D2F2C4F085302031DD2
:100850002F2C4E085202031D2F2C4D085102031C51
:10086000402C4D08D1024E08031C4E0FD2024F08F7
:10087000031C4F0FD3025008031C500FD402031463
:10088000F70DF80DF90DFA0DD50B182C5108800055
:10089000840A52088000840A53088000840A54089D
:1008A00080008312080004088316C1004008C300BA
:1008B0000319752C3F08CC003E08CB003D08CA0048
:1008C0003C08C900D001CF012030CE008230CD00DD
:1008D00083128B237A088316BF007908BE0078083C
:1008E000BD007708BC00C30B5A2C3F08CC003E0863
:1008F000CB003D08CA003C08C9004908B63CC90005
:10090000FA014A08CD00CA170310CA0CCB0CCC0C54
:10091000FA0CF90CF80CF70CC90B842CCD1F9B2C8E
:10092000F709F809F909FA09F70A0319F80A031986
:10093000F90A0319FA0A7A08BF007908BE00780894
:10094000BD007708BC00BF1FB22CC103C116BC0993
:10095000BD09BE09BF09BC0A0319BD0A0319BE0AB5
:100960000319BF0A3B30C8009A30C700CA30C6001E
:10097000C5010A30C30040080319C10A8314BC3002
:10098000840083133F08CC003E08CB003D08CA001A
:100990003C08C9004808D0004708CF004608CE00F0
:1009A0004508CD00831202247808F708031DEF2CB8
:1009B0008316400A4302031DDF2C8312EF2C4108EB
:1009C0000319F22C0F3943020319E82C03182A2DBE
:1009D000C11B2A2D411BF22C2030242D83122030E4
:1009E0008316C105C11E022DC1124008031DC1039B
:1009F0007708C1002D30C900831261228316410897
:100A0000F700C10140084302031D122D7708C10001
:100A10002E30C9008312612283164108F70020306E
:100A2000C10500303030C11E242DC1124008031D05
:100A3000C1037708C1002D30C900831261228316DB
:100A40004108F700C1013030F7077708C900831269
:100A50006122831683104808CC004708CB00460863
:100A6000CA004508C900D001CF01CE010A30CD002F
:100A7000831202247A088316C8007908C700780810
:100A8000C6007708C500C30BBE2C831208000130D6
:100A90008316CA00CB0083124D22843003178D00C9
:100AA00000308F000310053083160313BC0083123F
:100AB0001123C930840059088316BF0083125808D7
:100AC0008316BE00831257088316BD008312560892
:100AD0008316BC000230C0008312532489300317F0
:100AE0008D0000308F000310063083160313BC0006
:100AF00083121123C93084005D088316BF0083125E
:100B00005C088316BE0083125B088316BD00831247
:100B10005A088316BC000230C000831253240130EF
:100B20008316CA000230CB0083124D228F30031788
:100B30008D0000308F000310053083160313BC00B6
:100B400083121123C930840061088316BF00831209
:100B500060088316BE0083125F088316BD008312EF
:100B60005E088316BC000230C00083125324943008
:100B700003178D0000308F0003100B308316031312
:100B8000BC00831211238A150A12682C2B162B081D
:100B9000831687000430F700F70BCC2D8312AB15BA
:100BA0002B08831687000330F700F70BD52D83122F
:100BB00007122B122B08831687000430F700F70B5F
:100BC000DF2D83128711AB112B0883168700D030DD
:100BD000C50083128B2183164308C50083128B2125
:100BE0002B162B08831687000430F700F70BF62D21
:100BF0008312AB152B08831687000330F700F70B21
:100C0000FF2D8312871D022E07122B122B0883162D
:100C100087000430F700F70B0B2E83128711AB11FE
:100C20002B0883168700D130C50083128B21F70172
:100C300008308316C6007708C70083122B162B08CE
:100C4000831687000330F700F70B242E8312AB15B1
:100C50002B08831687008312871D2C2E071A031476
:100C6000071E0310F80D0430F700F70B352EAB11FB
:100C70002B0883168700831287118316C60B1D2E3F
:100C800083122B162B08831687000330F700F70B0F
:100C9000472E83120712831647080319542E831216
:100CA0002B122B088316870000008312AB152B082C
:100CB000831687008312871D5B2E0430F700F70B25
:100CC0005F2E8711AB112B08831687000330F700C6
:100CD000F70B682E831207122B122B08831687003E
:100CE0007808C40083122B122B088316870000009B
:100CF0008312AB152B08831687008312871D7E2E67
:100D00000430F700F70B822E852E00002B162B08DF
:100D1000831687000430F700F70B8C2E4408F80088
:100D2000831208008E30F70083164508F800440847
:100D3000F900FA01C51FA12EF809F909F90A0319EA
:100D4000F80AF808031DAE2E7908F800F9010830FA
:100D5000F702F808031DAE2EF701B72E0310F81B9B
:100D6000B52EF90DF80DF703AE2EC51FF81383123B
:100D700008008316480803197F2FD4004C08031974
:100D80007F2FD402031CC92E7F30D40703187F2F76
:100D9000CF2E8130D402031C7F2F03197F2F5408DC
:100DA000F700F801F901FA01D3014908D200D2177E
:100DB0004A08D1004B08D0001930D4004F08D002A7
:100DC0000318F22E0130D1020318F22ED2020318BA
:100DD000F22ED3020318F22ED30AD20AD10A4F08F8
:100DE000D007242F4E08D10203180D2F0130D20254
:100DF00003180D2FD30203180D2FD30AD20A4E0861
:100E0000D1074F08D007031C242FD10A031D242F1C
:100E1000D20A031D242FD30A242F4D088038D20272
:100E20000318232F0130D3020318232FD30A4D08B0
:100E30008038D2074E08D107031C012FD20A031DA8
:100E4000012FD30A012F7A14D40B272F322F03102E
:100E5000D00DD10DD20DD30D0310FA0DF90DF80DF3
:100E6000D50DDE2E551C3A2F0310F80CF90CFA0C98
:100E7000D50C3D2FF70303197F2FD51B662F0310C9
:100E8000D00DD10DD20DD30D4F08D0020318522F23
:100E90000130D1020318522FD2020318522FD3026D
:100EA000031C752F4E08D10203185D2F0130D202AA
:100EB00003185D2FD302031C752F4D088038D20212
:100EC0000318662F0130D302031C752FFA0A031D85
:100ED000752FF90A031D752FF80A031D752FF70AE0
:100EE00003197F2FF80CF90CFA0C4908D4004D08AF
:100EF000D406D41F7D2FF817832FF813832FF70103
:100F0000F801F901FA01831208003B308316C3008F
:100F10008312C62578088316C2003C30C3008312B2
:100F2000C62578088316C3004208BD004308BC00EC
:100F30003D08C5003C08C400831292267A08831637
:100F4000C7007908C6007808C5007708C4004708BC
:100F5000CB004608CA004508C9004408C800CF01B4
:100F6000CE01CD018D30CC008312B9267A088316CC
:100F7000C1007908C0007808BF007708BE003E08AD
:100F8000F7003F08F8004008F9004108FA00831212
:100F90008A150A126B2C8316BE013C08BD00C001E5
:100FA000BF01C201B430C100C4010B30C300C6018F
:100FB0003030C5008A15831278238A117808AE0074
:100FC0008A150A12872F8316BE013C08BD00C00196
:100FD000BF01C201B430C100C4010B30C300C6015F
:100FE0003030C5008A15831278238A117808AF0043
:0C0FF0008A150A12952F8A150A129F2FED
:101000003D308316C3008A118312C6258A157808DD
:101010008316C2003E30C3008A118312C6258A158A
:1010200078088316C3004208BD004308BC003D0891
:10103000C5003C08C4008A11831292268A157A08DA
:101040008316C7007908C6007808C5007708C40071
:101050004708CB004608CA004508C9004408C80034
:10106000CF01CE01CD018D30CC008A118312B9267B
:101070008A157A088316C1007908C0007808BF0075
:101080007708BE003E08F7003F08F8004008F90066
:101090004108FA0083128A150A12752C3F30831614
:1010A000C3008A118312C6258A1578088316C200E8
:1010B0004030C3008A118312C6258A15780883162A
:1010C000C3004208BD004308BC003D08C5003C0801
:1010D000C4008A11831292268A157A088316C700E3
:1010E0007908C6007808C5007708C4004708CB0017
:1010F0004608CA004508C9004408C800CF01CE010F
:10110000CD018D30CC008A118312B9268A157A0858
:101110008316C1007908C0007808BF007708BE00B8
:101120003E08F7003F08F8004008F9004108FA00BF
:1011300083128A150A127E2C43308316C3008A114B
:101140008312C6258A1578088316C2004430C3006E
:101150008A118312C6258A1578088316C3004208AF
:10116000BD004308BC003D08C5003C08C4008A110E
:10117000831292268A157A088316C7007908C6005A
:101180007808C5007708C4004708CB004608CA00A5
:101190004508C9004408C800CF01CE010330CD0086
:1011A0008630CC008A118312B9268A157A088316F4
:1011B000C1007908C0007808BF007708BE003E086B
:1011C000F7003F08F8004008F9004108FA008312D0
:1011D0008A150A12872C45308316C3008A118312A0
:1011E000C6258A1578088316C2004630C3008A11C6
:1011F0008312C6258A1578088316C3004208BD00ED
:101200004308BC003D08C5003C08C4008A11831295
:1012100092268A157A088316C7007908C6007808CE
:10122000C5007708C4004708CB004608CA00450837
:10123000C9004408C800CF01CE010330CD0086307C
:10124000CC008A118312B9268A157A088316C10048
:101250007908C0007808BF007708BE003E08F70094
:101260003F08F8004008F9004108FA0083128A1587
:101270000A12902C47308316C3008A118312C625A8
:101280008A1578088316C2004830C3008A11831279
:10129000C6258A1578088316C3004208BD00430896
:1012A000BC003D08C5003C08C4008A118312922688
:1012B0008A157A088316C7007908C6007808C50021
:1012C0007708C4004708CB004608CA004508C90093
:1012D0004408C800CF01CE010330CD008630CC00D9
:1012E0008A118312B9268A157A088316C1007908F3
:1012F000C0007808BF007708BE003E08F7003F082E
:10130000F8004008F9004108FA0083128A150A1211
:10131000992C8030831C8F298316CF068312831665
:10132000D401D5014B08D3004F08D3064A0803194E
:101330007D2AD200F7004E080319862AD20203192B
:10134000222A031CE0294F08D800D8175008D700DC
:101350005108D600D5010310D80CD70CD60CD50CEB
:10136000D20BAA29D31FB72954149A2A5410521009
:101370005416CD3084008313AF2A5412D31BCA29CC
:10138000521CD529D80CD70CD60CD50CF70A03194A
:10139000952AD529D81BD8290310D50DD60DD70DE0
:1013A000D80DF7030319952ACA295417422A541352
:1013B0004B08D300D31FDE29D8178E2AD8138E2AC4
:1013C0004E08D200F7004A08D2024B08D800D817BE
:1013D0004C08D7004D08D600D5010310D80CD70C07
:1013E000D60CD50CD20BEC29D31FF929D4149A2A88
:1013F000D4105210D416D13084008313AF2AD412E3
:10140000D31B0C2A521C172AD80CD70CD60CD50C7F
:10141000F70A0319952A172AD81B1A2A0310D50D83
:10142000D60DD70DD80DF7030319952A0C2AD4171A
:10143000422AD4134F08D300D31F202AD8178E2A4C
:10144000D8138E2A4F08D800D8175008D700510853
:10145000D600D31F2F2AD81354159A2A5411D50118
:101460005210CD3084008313AF2AD31B582A4B0867
:10147000D300521C422AD80CD70CD60CD50CF70A34
:101480000319952AD51F532AD60A031D532AD70AB2
:10149000031D532AD80A031D532AD80CD70CD60C87
:1014A000F70A0319952A541BD729D41B192A772A1E
:1014B0008030D806D81F602A9A2A4F08D3006D2A98
:1014C0004B08D300D808031D6D2AD708031D6D2AC9
:1014D000D608031D6D2AF7018E2AD81B772A031020
:1014E000D50DD60DD70DD80DF70B6D2A952AD31F24
:1014F0007B2AD8178E2AD8138E2A4E08F7004F0859
:10150000D8005008D7005108D6008E2A4A08F700A4
:101510004B08D8004C08D7004D08D6005808F800F2
:101520005708F9005608FA00CD2AF701F801F90129
:10153000FA01CD2AD501D609D709D809D509D50A86
:10154000031DA82AD60A031DA82AD70A0319D80AF8
:101550005418B629D418F82954192E2A5D2A0008DF
:10156000D607031CB92AD70A031DB92AD80A0319BA
:10157000521484030008D707031CC12AD80A031990
:10158000521484030008801F803AD80703185214AD
:10159000541ABD29D41AFF29352A83120800413074
:1015A0008316C3008A118312C6258A15780883160C
:1015B000C2004230C3008A118312C6258A157808FA
:1015C0008316C3004208BD004308BC003D08C500A7
:1015D0003C08C4008A11831292268A157A08831661
:1015E000CB007908CA007808C9007708C800CF0185
:1015F000CE012A30CD008730CC008A118312B92663
:101600008A157A088316C7007908C6007808C500CD
:101610007708C400C9010408C8004910831B491495
:1016200083104708CD004608CC004508CB0044088D
:10163000CA00B830D1001E30D0001230CF00843044
:10164000CE00831289218316480884008313491829
:1016500083177A08C1007908C0007808BF007708AE
:10166000BE003E08F7003F08F8004008F9004108B6
:10167000FA0083128A150A12A22C831083163F08DF
:10168000CD003E08CC003D08CB003C08CA00D1018B
:10169000D001CF017E30CE00831289217A088316D3
:1016A000C3007908C2007808C1007708C0008E30F6
:1016B000F7004008F7024108F9004208F800F9175E
:1016C000F70803196E2B0310F908031D6A2BF8089D
:1016D00003196E2BF90CF80CF70B632BC11F752B3C
:1016E000F809F909F80A0319F90A780883120800B9
:1016F00083163F083D02C7003E08C8004008031C8F
:10170000400FC80243084502F7004608FA004408A3
:10171000031C440FFA027708C9007A08CA00480877
:10172000CC004708CB004A08CE004908CD00103055
:10173000CF00F701FA01CC0CCB0C031CA52B4D08F4
:10174000F7070318FA0A4E08FA07FA0CF70CF90C17
:10175000F80CCF0B9B2B7908C8007808C7003F080E
:101760004102F7004208FA004008031C400FFA0249
:101770007708C9007A08CA004808CC004708CB009F
:101780004A08CE004908CD00F801F901F701FA0135
:101790004E08031DCE2B4D080319E82B1030CF0047
:1017A0000310CB0DCC0DF70DFA0D4E087A02031D78
:1017B000DB2B4D087702031CE42B4D08F702031CBA
:1017C000FA034E08FA020314F80DF90DCF0BD02BD3
:1017D0007908C8007808C70043084707F800480898
:1017E000FA0044080318440FFA077A08F900831234
:1017F000080003081F398300FF30AB00AD01AC01C6
:10180000D901D801D7017F30D600CD30DD00CC30F2
:10181000DC004C30DB007B30DA00CD30E100CC3036
:10182000E0004C30DF007A30DE00E501E401E30146
:101830007F30E200CD30E900CC30E8004C30E700EA
:101840007B30E600CD30ED00CC30EC004C30EB00CE
:101850007A30EA00FE01FD01FC01FB018316A301C1
:10186000A201A101A001A701A601A501A401AB014C
:10187000AA01A901A8011F149F141F159F11073069
:101880009C00831300308800FC3085008A1183128D
:1018900031298A158A117D298A158A11332A8A15D8
:1018A0009A3003178D0000308F008A1103139B2A92
:1018B0008A1504308316BC00FA30CA008A118312DC
:1018C000B2208A158316BC0B5C2C8A118312472D1B
:1018D0008A158A11852F8A157A08BB007908BA0003
:1018E0007808B9007708B80000287A08BF0079089E
:1018F000BE007808BD007708BC004E287A08C300F7
:101900007908C2007808C1007708C0009C287A08CE
:10191000C7007908C6007808C5007708C400EB281E
:101920007A08CB007908CA007808C9007708C8008F
:101930003A297A08CF007908CE007808CD007708D8
:10194000CC00CF2A7A08D3007908D2007808D100D9
:101950007708D00001308316CA00CB008A118312A9
:101960004D228A1541308316C9008A1183126122E3
:101970008A1578308316C9008A11831261228A156C
:101980003A308316C9008A11831261228A15C93040
:1019900084003B088316BF0083123A088316BE00FA
:1019A000831239088316BD00831238088316BC00E1
:1019B0000230C0008A11831253248A15A430031701
:1019C0008D0000308F000310043083160313BC0019
:1019D0008A11831211238A15C93084003F088316A7
:1019E000BF0083123E088316BE0083123D08831693
:1019F000BD0083123C088316BC000230C0008A116F
:101A0000831253248A1501308316CA000230CB009A
:101A10008A1183124D228A1547308316C9008A1114
:101A2000831261228A1578308316C9008A118312C5
:101A300061228A153A308316C9008A118312612205
:101A40008A15C930840047088316BF0083124608F0
:101A50008316BE00831245088316BD008312440816
:101A60008316BC000230C0008A11831253248A15E9
:101A7000AD3003178D0000308F0003100430831643
:101A80000313BC008A11831211238A15C930840004
:101A90004B088316BF0083124A088316BE008312C8
:101AA00049088316BD00831248088316BC00023023
:101AB000C0008A11831253248A1583148316CD0122
:101AC000CC01CB01CA01831247088316D1008312CF
:101AD00046088316D000831245088316CF00831270
:101AE00044088316CE00831289217A08F100790810
:101AF000F0007808EF007708EE0083148316CD011C
:101B0000CC01CB01CA0183124B088316D10083128A
:101B10004A088316D000831249088316CF00831227
:101B200048088316CE00831289217A08F5007908C7
:101B3000F4007808F3007708F20083108316270872
:101B4000CD002608CC002508CB002408CA00710867
:101B5000D1007008D00083126F088316CF00831263
:101B60006E088316CE00831289217A088316A70097
:101B70007908A6007808A5007708A40083102B0830
:101B8000CD002A08CC002908CB002808CA00750817
:101B9000D1007408D0007308CF007208CE00831201
:101BA00089217A088316AB007908AA007808A90071
:101BB0007708A80083147108CD007008CC00831248
:101BC0006F088316CB0083126E088316CA007E0846
:101BD000D1007D08D0007C08CF007B08CE008312A6
:101BE00089217A088316B7007908B6007808B5000D
:101BF0007708B40083147508CD007408CC0073080E
:101C0000CB007208CA002308D1002208D0002108A6
:101C1000CF002008CE00831289217A088316BB00EA
:101C20007908BA007808B9007708B8008312590813
:101C30008316CC00831258088316CB0083125708F2
:101C40008316CA00831256088316C9007108D00093
:101C50007008CF0083126F088316CE0083126E08BF
:101C60008316CD008A1183128B238A157A08831676
:101C7000BF007908BE007808BD007708BC00831259
:101C80005D088316CC0083125C088316CB00831298
:101C90005B088316CA0083125A088316C9002708F6
:101CA000D0002608CF002508CE002408CD008A11D8
:101CB00083128B238A15831083163F08CD003E08BC
:101CC000CC003D08CB003C08CA007A08D100790856
:101CD000D0007808CF007708CE00831289217A08D7
:101CE0008316BF007908BE007808BD007708BC00E5
:101CF000831261088316CC00831260088316CB0020
:101D000083125F088316CA0083125E088316C90017
:101D10003708D0003608CF003508CE003408CD0093
:101D20008A1183128B238A15831083163F08CD00F6
:101D30003E08CC003D08CB003C08CA007A08D10020
:101D40007908D0007808CF007708CE008312892167
:101D50007A088316AF007908AE007808AD007708DE
:101D6000AC00831265088316CC00831264088316C6
:101D7000CB00831263088316CA008312620883169D
:101D8000C9007508D0007408CF007308CE0072082F
:101D9000CD008A1183128B238A157A088316BF001F
:101DA0007908BE007808BD007708BC008312690876
:101DB0008316CC00831268088316CB008312670851
:101DC0008316CA00831266088316C9002B08D00048
:101DD0002A08CF002908CE002808CD008A118312D6
:101DE0008B238A15831083163F08CD003E08CC0054
:101DF0003D08CB003C08CA007A08D1007908D00021
:101E00007808CF007708CE00831289217A088316DC
:101E1000BF007908BE007808BD007708BC008312B7
:101E20006D088316CC0083126C088316CB008312D6
:101E30006B088316CA0083126A088316C9003B0820
:101E4000D0003A08CF003908CE003808CD008A11FA
:101E500083128B238A15831083163F08CD003E081A
:101E6000CC003D08CB003C08CA007A08D1007908B4
:101E7000D0007808CF007708CE00831289217A0835
:101E80008316B3007908B2007808B1007708B00073
:101E90007108FE007008FD0083126F08FC006E08D8
:101EA000FB0075088316A3007408A2007308A10044
:101EB0007208A0002F08BF002E08BE002D08BD002C
:101EC0002C08BC0083123D235A307807D4008316B7
:101ED0003308BF003208BE003108BD003008BC0026
:101EE00083123D2378085A3CD5005408B43C0318AB
:101EF0007B2FB430D4005508B43C0318812FB43084
:101F0000D50054088316BC008A118312CB2F8A1582
:101F1000C8308316CA008A118312B2208A15550868
:101F20008316BC008A118312E32F8A15C8308316EA
:101F3000CA008A118312B2208A158A11FB2F8A15D2
:101F400004308316BC00FA30CA008A118312B22012
:0E1F50008A158316BC0BA32F8312692C630025
:02400E003A3F37
:00000001FF
;PIC16F877A
;CRC=D3CF  CREATED="10-nov.-24 21:47"
