:1000000010308A0000280000FF00030E8301A100C9
:100010000A08A0008A010408A2007708A300780853
:10002000A4007908A5007A08A60003170D08031399
:10003000A70003170F080313A80003170C080313E6
:10004000A90003170E080313AA00831383128B1E43
:100050002B280B194C28220884002308F7002408B9
:10006000F8002508F9002608FA00270803178D0074
:100070000313280803178F000313290803178C00A4
:1000800003132A0803178E00031320088A00210E89
:100090008300FF0E7F0E09008A110A124F280130DB
:1000A000AC070318AD0A2D08003C03186028FF3A7E
:1000B000031D5E282C08813C03186028AD01AC01AB
:1000C000AD08031D6C282E082C0203186C2883161B
:1000D000051083120514702883160510831205106D
:1000E000AD08031D7C282F082C0203187C288316DA
:1000F000851083128514802883168510831285103D
:100100000B118A110A122B288C25701DA0122E1992
:1001100066008C25691DA0122E1966008C25641DB1
:10012000A0122E1966008C29653AF0376937741DC4
:10013000A0122E1966000C2AE936651DA012640073
:10014000C2244527D622CE24C42700008C20781D47
:100150002532A020791D25320000B530840083139C
:1001600000080319C0280630F800F701F70BB6287D
:10017000F80BB5287B30F700F70BBC28800BB328B1
:10018000080083163C0EF039F7000F308312080583
:1001900077048800000008140230F700F70BCE281F
:1001A000D1280000081008000808F700080E0F39D1
:1001B000F8000800831608108810081183128810B0
:1001C0000F3083160805F0388800831208150000E8
:1001D00008140000D42078088316BC00831208108D
:1001E00000000814F328F4280000D42078088316AF
:1001F000BB00831208100F308316080588003C0EE0
:10020000F700F030F70577083B04F8007808BB00EA
:10021000BB1F0C298312E02839181129831288107A
:100220008316391C16298312881483160000831242
:1002300008110000081083163A0EBB000F30BB05F2
:100240003B08BC008312C12083163A080F39BB005B
:10025000BC008312C120080028308316A7000C3090
:10026000A8000130A9000630AA00831208108810E7
:1002700008110F308316080588000810881008112F
:100280000F30B5008312AD2001308316A60026087A
:10029000033C031C57290330BC008312C1200530E6
:1002A0008316B5008312AD208316A60A47290230B3
:1002B000BC008312C12005308316B5008312AD2027
:1002C0008316A6012608033C031C7429A7302607C1
:1002D000840083130008AB00B9012B08BA00831215
:1002E000DA208316A60A622983128A110A16462882
:1002F0000830F8000430F700F70B7C298711AB11A8
:100300002B08831687000330F700F70B8529AF0D04
:1003100083120712031C92292B162B0883168700C1
:10032000962983122B122B08831687000000831254
:10033000AB152B08831687008312871D9D29F80BA8
:100340007A290430F700F70BA3298711AB112B088A
:1003500083168700000083122B162B088316870054
:100360000330F700F70BB2290330F700F70BB6297B
:100370008312AB152B08831687008312871DBE29B5
:10038000F8010330F700F70BC329071A7814871117
:10039000AB112B0883168700831207122B122B0830
:1003A00083168700831208002B162B0883168700FC
:1003B0000430F700F70BDA298312AB152B088316EC
:1003C00087000330F700F70BE329831207122B1283
:1003D0002B08831687000430F700F70BED298312F2
:1003E0008711AB112B0883168700D030AF00831222
:1003F000782183162608AF008312782183162708F8
:10040000AF00831278212B122B088316870000007F
:100410008312AB152B08831687008312871D0E2AC3
:100420000430F700F70B122A152A00002B162B08B0
:10043000831687000430F700F70B1C2A831208008C
:100440006B308316A600A7018312D4216430831673
:10045000B5008312AD2019308316A6000730A7001F
:100460008312D42164308316B5008312AD208A1123
:100470000A16492883160108C739083881008312F3
:100480008B16C0308B04E63081008A110A164C2886
:100490008316360B4C2A4F2A4030B700502AB7013A
:1004A00001303502B70737088038B800B90138087D
:1004B000BA008312DA20080083163408073A831240
:1004C00003196C2A0B3A0319732A063A03197F2A77
:1004D000023A0319872A8E2A01308316B500B60026
:1004E00083124822952A8316B9010130BA0083127B
:1004F000DA2002308316B5008312AD20952A013030
:100500008316B5000230B60083124822952A83165E
:10051000B9011030BA008312DA20952A013083160F
:10052000B9003408BA008312DA2008000B088316D9
:10053000A60083128B13831603178C170C1400006C
:1005400000000313A61FA72A83128B17831683129A
:1005500003170C087F390319082B83160313A60011
:10056000831203170D0883160313A70083120317C2
:100570000F0883160313A8002608B40083125C2218
:1005800083162708831203178D0083160313280888
:10059000831203178F0003130B088316A90083121D
:1005A0008B13831603178C170C1400000000031321
:1005B000A91FDD2A83128B178316831203170C0DD4
:1005C0000E0D7F390319082B83160313A60083121F
:1005D00003170D0883160313A700831203170F08D0
:1005E00083160313A8002608B40083125C22831626
:1005F0002708831203178D0083160313280883121C
:1006000003178F008D0A03198F0A0313962A031705
:1006100003138A110A1655280B088316A8008312A3
:100620008B13831603178C170C14000000000313A0
:10063000A81F1D2B83128B1783160318562B8312AA
:1006400003170C087F3983160313A80083120317BE
:100650000D0883160313A900831203170F088316CE
:100660000313AA002808B40083125C228316290809
:10067000831203178D00831603132A0883120317AE
:100680008F0003130B088316AB0083128B138316A2
:1006900003178C170C14000000000313AB1F532B1F
:1006A00083128B178316A70B562B842B83120317E9
:1006B0000C0D0E0D7F3983160313A8008312031748
:1006C0000D0883160313A900831203170F0883165E
:1006D0000313AA002808B40083125C228316290899
:1006E000831203178D00831603132A08831203173E
:1006F0008F008D0A03198F0A031083160313A70BAB
:10070000822B842B83120C2B83120800831648083B
:100710000319F72BD0004C080319F72BD007031847
:10072000982B7F30D002031CF72B0319F72B9C2B3F
:100730008130D0070318F72B5008F700F801F901B2
:10074000FA014908D400D4174A08D3004B08D20054
:100750001830D000D101521CC52B4F08FA07031CDA
:10076000B72BF90A031DB72BF80A0319D1174E0846
:10077000F907031CBE2BF80A0319D1174D08CA004C
:10078000CA174A08F8070318D117D10DF80CF90C4D
:10079000FA0CD40CD30CD20C0310D00BAA2B0130C2
:1007A000F7070318F72BF81BDC2BD40DFA0DF90D06
:1007B000F80DF7030319F72BD41FED2BFA0A031DCD
:1007C000ED2BF90A031DED2BF80A031DED2BF80C98
:1007D000F90CFA0CF70A0319F72B4908D1004D0858
:1007E000D106D11FF52BF817FB2BF813FB2BF701C4
:1007F000F801F901FA01831208008318022CBC30B9
:1008000084008313F701F801F901FA018316BC0192
:10081000BD01BE01BF013B083A0439043804031985
:10082000412C2030C0000310B40DB50DB60DB70D2E
:10083000BC0DBD0DBE0DBF0D3B083F02031D2A2C94
:100840003A083E02031D2A2C39083D02031D2A2CBA
:1008500038083C02031C3B2C3808BC023908031C36
:10086000390FBD023A08031C3A0FBE023B08031CB5
:100870003B0FBF020314F70DF80DF90DFA0DC00B75
:10088000132C3C088000840A3D088000840A3E083E
:100890008000840A3F088000831208000408831641
:1008A000AC002B08AE000319702C2A08CB002908D5
:1008B000CA002808C9002708C800CF01CE0120308F
:1008C000CD008230CC00831286237A088316AA00DA
:1008D0007908A9007808A8007708A700AE0B552C66
:1008E0002A08B7002908B6002808B5002708B40070
:1008F0003408B63CB400FA013508B800B517031047
:10090000B50CB60CB70CFA0CF90CF80CF70CB40BD0
:100910007F2CB81F962CF709F809F909FA09F70A8C
:100920000319F80A0319F90A0319FA0A7A08AA003E
:100930007908A9007808A8007708A700AA1FAD2C9D
:10094000AC03AC16A709A809A909AA09A70A0319A3
:10095000A80A0319A90A0319AA0A3B30B3009A305E
:10096000B200CA30B100B0010A30AE002B08031942
:10097000AC0A8314A730840083132A08B70029081F
:10098000B6002808B5002708B4003308BB003208B9
:10099000BA003108B9003008B8008312FD23780886
:1009A000F708031DEA2C83162B0A2E02031DDA2CEE
:1009B0008312EA2C2C080319ED2C0F392E0203198F
:1009C000E32C0318252DAC1B252D2C1BED2C2030E2
:1009D0001F2D831220308316AC05AC1EFD2CAC12EB
:1009E0002B08031DAC037708AC002D30B400831234
:1009F0005C2283162C08F700AC012B082E02031D85
:100A00000D2D7708AC002E30B40083125C228316C3
:100A10002C08F7002030AC0500303030AC1E1F2D04
:100A2000AC122B08031DAC037708AC002D30B400CA
:100A300083125C2283162C08F700AC013030F707D4
:100A40007708B40083125C22831683103308B70042
:100A50003208B6003108B5003008B400BB01BA0155
:100A6000B9010A30B8008312FD237A088316B30057
:100A70007908B2007808B1007708B000AE0BB92C45
:100A80008312080083162E08F8012D0203184B2D3F
:100A90002D08F700572DF7010830AF00AD0DF70D09
:100AA0002E0877020318F700F80DAF0B4E2D8312B6
:100AB000080020308316281E3030A9002708F700D0
:100AC000A71F6A2DF709F70A7708A7002D30A9009C
:100AD000A81728142708AD006430AE008312422501
:100AE00077088316A70030307807AA002708AD00E2
:100AF0000A30AE0083124225303077078316AC00EF
:100B000030307807AB002908F70030302A0203198B
:100B10008D2DA814A81B2815A12D2908AA00203066
:100B2000A90030302B020319992D2814A81BA814F2
:100B3000A12D031D2814031DA12D2A08AB00203070
:100B4000AA002819A82DA818AD2D2818B22DB72D48
:100B50002908B40083125C2283162A08B400831289
:100B60005C2283162B08B40083125C2283162C08A7
:100B7000B40083125C2208008030831CC22D8316CF
:100B8000D30683128316D801D9014F08D700530822
:100B9000D7064E080319B02ED600F70052080319E5
:100BA000B92ED6020319552E031C132E5308DC0050
:100BB000DC175408DB005508DA00D9010310DC0CFF
:100BC000DB0CDA0CD90CD60BDD2DD71FEA2D58140F
:100BD000CD2E581056105816D13084008313E22EB3
:100BE0005812D71BFD2D561C082EDC0CDB0CDA0C22
:100BF000D90CF70A0319C82E082EDC1B0B2E031084
:100C0000D90DDA0DDB0DDC0DF7030319C82EFD2D10
:100C10005817752E58134F08D700D71F112EDC1701
:100C2000C12EDC13C12E5208D600F7004E08D602A2
:100C30004F08DC00DC175008DB005108DA00D9014E
:100C40000310DC0CDB0CDA0CD90CD60B1F2ED71FD3
:100C50002C2ED814CD2ED8105610D816D53084008E
:100C60008313E22ED812D71B3F2E561C4A2EDC0CC3
:100C7000DB0CDA0CD90CF70A0319C82E4A2EDC1B40
:100C80004D2E0310D90DDA0DDB0DDC0DF703031922
:100C9000C82E3F2ED817752ED8135308D700D71F4C
:100CA000532EDC17C12EDC13C12E5308DC00DC17D9
:100CB0005408DB005508DA00D71F622EDC135815E4
:100CC000CD2E5811D9015610D13084008313E22E55
:100CD000D71B8B2E4F08D700561C752EDC0CDB0C57
:100CE000DA0CD90CF70A0319C82ED91F862EDA0A96
:100CF000031D862EDB0A031D862EDC0A031D862EAD
:100D0000DC0CDB0CDA0CF70A0319C82E581B0A2E70
:100D1000D81B4C2EAA2E8030DC06DC1F932ECD2E45
:100D20005308D700A02E4F08D700DC08031DA02EC3
:100D3000DB08031DA02EDA08031DA02EF701C12E2B
:100D4000DC1BAA2E0310D90DDA0DDB0DDC0DF70B21
:100D5000A02EC82ED71FAE2EDC17C12EDC13C12E3D
:100D60005208F7005308DC005408DB005508DA008D
:100D7000C12E4E08F7004F08DC005008DB00510878
:100D8000DA005C08F8005B08F9005A08FA00002F46
:100D9000F701F801F901FA01002FD901DA09DB099D
:100DA000DC09D909D90A031DDB2EDA0A031DDB2E63
:100DB000DB0A0319DC0A5818E92DD8182B2E58190C
:100DC000612E902E0008DA07031CEC2EDB0A031DAF
:100DD000EC2EDC0A0319561484030008DB07031CFD
:100DE000F42EDC0A0319561484030008801F803A8D
:100DF000DC0703185614581AF02DD81A322E682E14
:100E0000831208002B162B08831687000430F70086
:100E1000F70B082F8312AB152B08831687000330BE
:100E2000F700F70B112F831207122B122B088316D2
:100E300087000430F700F70B1B2F83128711AB11CB
:100E40002B0883168700D030AF00831278218316D9
:100E50002D08AF00831278212B162B0883168700EC
:100E60000430F700F70B322F8312AB152B088316D3
:100E700087000330F700F70B3B2F8312871D3E2FAF
:100E800007122B122B08831687000430F700F70B8C
:100E9000472F83128711AB112B0883168700D1309F
:100EA000AF0083127821F70108308316B00077086D
:100EB000B10083122B162B08831687000330F7002E
:100EC000F70B602F8312AB152B0883168700831254
:100ED000871D682F071A0314071E0310F80D04302E
:100EE000F700F70B712FAB112B08831687008312C5
:100EF00087118316B00B592F83122B162B088316DC
:100F000087000330F700F70B832F83120712831635
:100F100031080319902F83122B122B088316870098
:100F200000008312AB152B08831687008312871DE0
:100F3000972F0430F700F70B9B2F8711AB112B086D
:100F4000831687000330F700F70BA42F83120712D4
:100F50002B122B08831687007808AE0083122B1201
:100F60002B088316870000008312AB152B0883160D
:100F700087008312871DBA2F0430F700F70BBE2FAE
:100F8000C12F00002B162B08831687000430F700B2
:100F9000F70BC82F2E08F800831208008E30F700D8
:100FA00083162F08F8002E08F900FA01AF1FDD2F75
:100FB000F809F909F90A0319F80AF808031DEA2FD4
:100FC0007908F800F9010830F702F808031DEA2F44
:100FD000F701F32F0310F81BF12FF90DF80DF703AC
:0A0FE000EA2FAF1FF8138312080078
:101000008316A6010130B500B6008A11831248226A
:101010008A15C8308316B5008A118312AD208A154F
:101020008316A608031D3B288430831203178D0006
:1010300000308F000310053083160313A7008A11B8
:1010400083120C238A15893084003B088316AA007A
:1010500083123A088316A900831239088316A80060
:10106000831238088316A7000230AB008A1183125E
:101070004E248A158316260B6428893083120317A1
:101080008D0000308F000310053083160313A70076
:101090008A1183120C238A15893084003F08831635
:1010A000AA0083123E088316A90083123D08831606
:1010B000A80083123C088316A7000230AB008A11F7
:1010C00083124E248A1583162608023C031D8F289E
:1010D0008E30831203178D0000308F00031005300F
:1010E00083160313A7008A1183120C238A158930F3
:1010F000840043088316AA00831242088316A900BD
:10110000831241088316A800831240088316A700A3
:101110000230AB008A1183124E248A1583162608EA
:10112000033C031DBA289330831203178D0000304F
:101130008F0003100B3083160313A7008A1183124C
:101140000C238A158930840047088316AA0083126D
:1011500046088316A900831245088316A800831247
:1011600044088316A7000230AB008A1183124E2474
:101170008A1583162608043C031DD7289B3083124A
:1011800003178D0000308F00031007308316031300
:10119000A7008A1183120C238A1548088316A7001A
:1011A0001830A8008A11831259258A15831606144F
:1011B00083120618E72832308316B5008A1183128D
:1011C000AD208A15831606148312061C992A8316ED
:1011D0008615831286190C2932308316B5008A11C0
:1011E0008312AD208A1583168615831286190C2961
:1011F000013083162607A800AD000530AE008A1125
:10120000831242258A1577088316A600C830B500D8
:101210008A118312AD208A158316861483128618CC
:10122000D12932308316B5008A118312AD208A1578
:101230008316861483128618D1298316A608031DE7
:101240004729831083123B088316D10083123A0882
:101250008316D000831239088316CF008312380812
:101260008316CE00CD30D500CC30D4004C30D30026
:101270007B30D2008A118312BC258A157A08BB0004
:101280007908BA007808B9007708B8008316260BE9
:101290006F29831083123F088316D10083123E0802
:1012A0008316D00083123D088316CF0083123C08BA
:1012B0008316CE00CD30D500CC30D4004C30D300D6
:1012C0007B30D2008A118312BC258A157A08BF00B0
:1012D0007908BE007808BD007708BC008316260890
:1012E000023C031D99298310831243088316D10001
:1012F000831242088316D000831241088316CF0060
:10130000831240088316CE00CD30D500CC30D400F7
:101310004C30D3007B30D2008A118312BC258A1551
:101320007A08C3007908C2007808C1007708C000B5
:1013300083162608033C031DC32983108312470824
:101340008316D100831246088316D0008312450805
:101350008316CF00831244088316CE00CD30D5000B
:10136000CC30D4004C30D3007B30D2008A118312B1
:10137000BC258A157A08C7007908C6007808C50018
:101380007708C40083162608043C031DCB290A30C5
:101390008312C8078316C830B5008A118312AD20A6
:1013A0008A158316061583120619962A323083167B
:1013B000B5008A118312AD208A1583160615831293
:1013C0000619962A8316A608031D0C2A8314831275
:1013D0003B088316D10083123A088316D00083128B
:1013E00039088316CF00831238088316CE00CD301B
:1013F000D500CC30D4004C30D3007B30D2008A11E1
:101400008312BC258A157A08BB007908BA007808CF
:10141000B9007708B8008316260B342A8314831288
:101420003F088316D10083123E088316D000831232
:101430003D088316CF0083123C088316CE00CD30C2
:10144000D500CC30D4004C30D3007B30D2008A1190
:101450008312BC258A157A08BF007908BE00780877
:10146000BD007708BC0083162608023C031D5E2AD7
:101470008314831243088316D10083124208831613
:10148000D000831241088316CF00831240088316D0
:10149000CE00CD30D500CC30D4004C30D3007B30E2
:1014A000D2008A118312BC258A157A08C3007908F4
:1014B000C2007808C1007708C00083162608033CE4
:1014C000031D882A8314831247088316D1008312D0
:1014D00046088316D000831245088316CF00831276
:1014E00044088316CE00CD30D500CC30D4004C302B
:1014F000D3007B30D2008A118312BC258A157A086A
:10150000C7007908C6007808C5007708C4008316AC
:101510002608043C031D902A0A308312C802831651
:10152000C830B5008A118312AD208A1583160228AF
:1015300083128A110A165E28831632080319622B59
:10154000BE0036080319622BBE02031CAC2A7F3092
:10155000BE070318622BB22A8130BE02031C622B25
:101560000319622B3E08F700F801F901FA01BD01E9
:101570003308BC00BC173408BB003508BA0019306A
:10158000BE003908BA020318D52A0130BB0203187D
:10159000D52ABC020318D52ABD020318D52ABD0AD4
:1015A000BC0ABB0A3908BA07072B3808BB02031864
:1015B000F02A0130BC020318F02ABD020318F02AF9
:1015C000BD0ABC0A3808BB073908BA07031C072B39
:1015D000BB0A031D072BBC0A031D072BBD0A072BE3
:1015E00037088038BC020318062B0130BD020318EF
:1015F000062BBD0A37088038BC073808BB07031C18
:10160000E42ABC0A031DE42ABD0AE42A7A14BE0BAC
:101610000A2B152B0310BA0DBB0DBC0DBD0D03100D
:10162000FA0DF90DF80DBF0DC12A3F1C1D2B03103B
:10163000F80CF90CFA0CBF0C202BF7030319622BE2
:10164000BF1B492B0310BA0DBB0DBC0DBD0D3908D6
:10165000BA020318352B0130BB020318352BBC022C
:101660000318352BBD02031C582B3808BB02031886
:10167000402B0130BC020318402BBD02031C582B29
:1016800037088038BC020318492B0130BD02031C07
:10169000582BFA0A031D582BF90A031D582BF80A78
:1016A000031D582BF70A0319622BF80CF90CFA0CDE
:1016B0003308BE003708BE06BE1F602BF817662B26
:1016C000F813662BF701F801F901FA0183120800FB
:1016D0003B308316AD008A11831202278A157808E1
:1016E0008316AC003C30AD008A11831202278A15A4
:1016F00078088316AD002C08A7002D08A60027083F
:10170000AF002608AE008A118312CE278A157A0808
:101710008316B1007908B0007808AF007708AE00F2
:101720003108B5003008B4002F08B3002E08B2000D
:10173000B901B801B7018D30B60083129C227A0836
:101740008316AB007908AA007808A9007708A800DA
:101750002808F7002908F8002A08F9002B08FA00E1
:1017600083128A110A166A283D308316AD008A1149
:10177000831202278A1578088316AC003E30AD002C
:101780008A11831202278A1578088316AD002C0867
:10179000A7002D08A6002708AF002608AE008A1172
:1017A0008312CE278A157A088316B1007908B00013
:1017B0007808AF007708AE003108B5003008B400F3
:1017C0002F08B3002E08B200B901B801B7018D305F
:1017D000B60083129C227A088316AB007908AA000F
:1017E0007808A9007708A8002808F7002908F80059
:1017F0002A08F9002B08FA0083128A110A167728A2
:101800008E30F70083162608F7022708F90028080B
:10181000F800F917F7080319182C0310F908031D2D
:10182000142CF8080319182CF90CF80CF70B0D2CD4
:10183000A71F1F2CF809F909F80A0319F90A8312DE
:1018400008008E30F70083162708F8002608F900F4
:10185000FA01F808031D362C7908F800F901083060
:10186000F702F808031D362CF7013E2C0310F81B75
:101870003D2CF90DF80DF703362CF81383120800F0
:1018800083163108CB003008CA002F08C9002E0883
:10189000C8002908CF002808CE002708CD00260858
:1018A000CC008A11831286238A157A088316BD001C
:1018B0007908BC007808BB007708BA002B08FA004A
:1018C0002A08840083132B188317CD010408CC0049
:1018D0004D10831B4D1483100008CE00840A0008AD
:1018E000CF00840A0008D000840A0008D10029082B
:1018F000D5002808D4002708D3002608D2008A1172
:101900008312BC258A1583164C08840083134D1856
:10191000831777088000840A78088000840A790891
:101920008000840A7A0880002A08840083132B1818
:1019300083170008F700840A0008F800840A0008EA
:10194000F900840A0008FA003508CB003408CA0000
:101950003308C9003208C8007A08CF007908CE00E1
:101960007808CD007708CC008A11831286238A1567
:101970007A088316C1007908C0007808BF0077088C
:10198000BE002C08840083132D1883170008F7006D
:10199000840A0008F800840A0008F900840A000894
:1019A000FA00C7010408C6004710831B47148314BC
:1019B0002908D1002808D0002708CF002608CE002B
:1019C0007A08D5007908D4007808D3007708D200C7
:1019D0008A118312BC258A15831646088400831356
:1019E000471883173908CB003808CA003708C900E0
:1019F0003608C8007A08CF007908CE007808CD00F4
:101A00007708CC008A11831286238A157A088316F8
:101A1000C5007908C4007808C3007708C2002C0804
:101A2000840083132D18831726088000840A270852
:101A30008000840A28088000840A29088000831016
:101A40003D08D1003C08D0003B08CF003A08CE004A
:101A50004108D5004008D4003F08D3003E08D2001A
:101A60008A118312BC258A157A088316C900790861
:101A7000C8007808C7007708C60083104908D1005D
:101A80004808D0004708CF004608CE004508D500DA
:101A90004408D4004308D3004208D2008A118312BC
:101AA000BC258A150800831629082702B1002808DA
:101AB000B2002A08031C2A0FB2022D082F02F700D9
:101AC0003008FA002E08031C2E0FFA027708B30024
:101AD0007A08B4003208B6003108B5003408B800FE
:101AE0003308B7001030B900F701FA01B60CB50C95
:101AF000031C802D3708F7070318FA0A3808FA077D
:101B0000FA0CF70CF90CF80CB90B762D7908B20029
:101B10007808B10029082B02F7002C08FA002A08DF
:101B2000031C2A0FFA027708B3007A08B4003208BF
:101B3000B6003108B5003408B8003308B700F80122
:101B4000F901F701FA013808031DA92D3708031917
:101B5000C32D1030B9000310B50DB60DF70DFA0DF9
:101B600038087A02031DB62D37087702031CBF2DF3
:101B70003708F702031CFA033808FA020314F80DB9
:101B8000F90DB90BAB2D7908B2007808B1002D081A
:101B90003107F8003208FA002E0803182E0FFA0752
:101BA0007A08F900831208008316A8012608A70006
:101BB000AA01A901AC01B430AB00AE010B30AD00FD
:101BC000B0013030AF00831253257808AE00080012
:101BD0008316A8012608A700AA01A901AC01B43008
:101BE000AB00AE010B30AD00B0013030AF0083125E
:101BF00053257808AF00080083163508BC00390863
:101C0000BC06BC1F082E03110310B51B03143B2E8A
:101C10003508BC003808BD003408BD020319162E73
:101C2000BC1F3B2E0308013A83003B2E3908BD0040
:101C30003508BD020319222EBC1F3B2E0308013AB2
:101C400083003B2E3A08BD003608BD0203192E2E34
:101C5000BC1F3B2E0308013A83003B2E3B08BD000E
:101C60003708BD0203193A2EBC1F3B2E0308013A68
:101C700083003B2E03108312080083162808F70008
:101C80002908F8002A08F9002B08FA00F8137A0846
:101C9000B3007908B2007808B1007708B0003308C3
:101CA000B7003208B6003108B5003008B40083121E
:101CB0004C088316BB0083124B088316BA008312AC
:101CC0004A088316B900831249088316B8008312A4
:101CD000FC25031CE72E8316B701B601B501B4013C
:101CE0002B08BB002A08BA002908B9002808B80048
:101CF0008312FC25031CB22E83162708FA0026083F
:101D00008400831327188317B7010408B60037101F
:101D1000831B371483100008CE00840A0008CF000C
:101D2000840A0008D000840A0008D100D501D4013B
:101D3000D3017F30D2008A118312BC258A15831605
:101D40003608840083133718831777088000840AC5
:101D500078088000840A79088000840A7A08800064
:101D6000E62E831283162708FA00260884008313C0
:101D700027188317B7010408B6003710831B3714E0
:101D800083140008CE00840A0008CF00840A0008EB
:101D9000D000840A0008D100D501D401D3017F30DE
:101DA000D2008A118312BC258A1583163608840056
:101DB00083133718831777088000840A7808800017
:101DC000840A79088000840A7A0880008312080057
:1020000003081F398300FF30AB00AD01AC01BB01F9
:10201000BA01B9017F30B800BF01BE01BD01BC01EA
:10202000C301C201C101C001C701C601C501C4018C
:10203000F430C800CC01CB012030CA008130C90087
:10204000CD30D000CC30CF004C30CE007C30CD0035
:102050005A30D100D200D601D501D401D301DA0122
:10206000D901D801D701DE01DD01DC01DB01E2018C
:10207000E101E001DF0183161F149F141F159F115A
:1020800007309C0083130A1283122C290A160A12A5
:10209000202A0A160A123A2A0A16A03003178D00BF
:1020A00000308F000A120313962A0A1683160614AC
:1020B0008312061867280A128A1500280A168A1140
:1020C000C8308316B5000A128312AD200A160A1210
:1020D0008A15682B0A168A117A08E6007908E50045
:1020E0007808E4007708E3000A128A15B42B0A1670
:1020F0008A117A08EA007908E9007808E800770888
:10210000E70066088316CB00831265088316CA00B1
:10211000831264088316C900831263088316C800FB
:10212000CF01CE014830CD008530CC000A12831299
:1021300086230A167A088316A9007908A800780869
:10214000A7007708A6000A128A15831200240A162F
:102150008A117808F5006A088316CB008312690893
:102160008316CA00831268088316C90083126708A1
:102170008316C800CF01CE014830CD008530CC0099
:102180000A12831286230A167A088316A900790890
:10219000A8007808A7007708A6000A128A158312FB
:1021A00000240A168A117808F60001308316B5005B
:1021B000B6000A12831248220A16A63003178D00B1
:1021C00000308F000310043083160313A7000A1297
:1021D00083120C230A1675088316A7001830A8006E
:1021E0000A12831259250A16A93003178D000030F0
:1021F0008F000310043083160313A7000A12831202
:102200000C230A1676088316A7001830A8000A12B5
:10221000831259250A168316A7017508A6000A120B
:102220008A15831221240A168A11831447088316FB
:10223000D100831246088316D00083124508831606
:10224000CF00831244088316CE007A08D50079089F
:10225000D4007808D3007708D2000A128312BC2574
:102260000A167A08F0007908EF007808EE0077087F
:10227000ED008316A7017608A6000A128A158312BC
:1022800021240A168A11831447088316D100831269
:1022900046088316D000831245088316CF008312A8
:1022A00044088316CE007A08D5007908D40078084F
:1022B000D3007708D2000A128312BC250A167A08C6
:1022C000F4007908F3007808F2007708F10070084C
:1022D0008316A90083126F088316A80083126E0864
:1022E0008316A70083126D088316A600AB01533036
:1022F000AA00AD015B30AC0083123B088316B1002D
:1023000083123A088316B000831239088316AF008F
:10231000831238088316AE0083123F088316B50077
:1023200083123E088316B40083123D088316B3005F
:1023300083123C088316B200831243088316B90047
:10234000831242088316B800831241088316B7002F
:10235000831240088316B6000A128A15831240249D
:102360000A168A117A08FE007908FD007808FC0038
:102370007708FB0074088316A9007308A800720888
:10238000A7007108A600AB015730AA00AD015F306D
:10239000AC0083123B088316B10083123A088316FF
:1023A000B000831239088316AF00831238088316F1
:1023B000AE0083123F088316B50083123E088316D1
:1023C000B40083123D088316B30083123C088316C1
:1023D000B200831243088316B900831242088316A1
:1023E000B800831241088316B70083124008831691
:1023F000B6000A128A15831240240A168A117A0836
:102400008316A3007908A2007808A1007708A0002D
:102410007E08A9007D08A8007C08A7007B08A6000C
:102420000A128A15831200240A168A1178085A3C67
:10243000EB0083162308A9002208A8002108A700A2
:102440002008A6000A128A15831200240A168A118F
:1024500078085A3CEC006B088316A6000A128A150D
:102460008312D4250A168A1148088316B5000A1269
:102470008312AD200A166C088316A6000A128A156C
:102480008312E8250A168A1148088316B5000A1235
:102490008312AD200A166D08F7006E08F8006F0869
:1024A000F9007008FA00F8137A088316A700790873
:1024B000A6007808A5007708A40083124C088316AC
:1024C000B70083124B088316B60083124A0883169E
:1024D000B500831249088316B4002708BB002608FC
:1024E000BA002508B9002408B8000A128A15831218
:1024F000FC250A168A110318AF2A7108F700720822
:10250000F8007308F9007408FA00F8137A088316C3
:10251000A7007908A6007808A5007708A400831210
:102520004C088316B70083124B088316B60083123B
:102530004A088316B500831249088316B400270899
:10254000BB002608BA002508B9002408B8000A1202
:102550008A158312FC250A168A11031C762B831612
:10256000A7016B30A6007008AB0083126F088316BA
:10257000AA0083126E088316A90083126D088316C1
:10258000A800831250088316AF0083124F088316E9
:10259000AE0083124E088316AD0083124D088316D9
:1025A000AC000A128A1583123D260A168A11831678
:1025B000A7016C30A6007408AB007308AA0072086B
:1025C000A9007108A800831250088316AF00831277
:1025D0004F088316AE0083124E088316AD00831297
:1025E0004D088316AC000A128A1583123D260A167E
:1025F0008A116B088316A6000A128A158312D42545
:102600000A168A1148088316B5000A128312AD20F3
:102610000A166C088316A6000A128A158312E8258A
:102620000A168A1148088316B5000A128312AD20D3
:102630000A168316A7017508A6000A128A158312C6
:1026400021240A168A11831447088316D1008312A5
:1026500046088316D000831245088316CF008312E4
:1026600044088316CE007A08D5007908D40078088B
:10267000D3007708D2000A128312BC250A167A0802
:10268000F0007908EF007808EE007708ED00831677
:10269000A7017608A6000A128A15831221240A16B9
:1026A0008A11831447088316D100831246088316C3
:1026B000D000831245088316CF0083124408831686
:1026C000CE007A08D5007908D4007808D3007708BE
:1026D000D2000A128312BC250A167A08F40079087F
:1026E000F3007808F2007708F1004B2A56286300BF
:02400E003A3F37
:00000001FF
;PIC16F877A
;CRC=FCB3  CREATED="18-nov.-24 16:55"
