:100000000D308A008E2D0000FF00030E8301A10039
:100010000A08A0008A010408A2007708A300780853
:10002000A4007908A5007A08A60003170D08031399
:10003000A70003170F080313A80003170C080313E6
:10004000A90003170E080313AA00831383128B1E43
:100050002B280B194C28220884002308F7002408B9
:10006000F8002508F9002608FA00270803178D0074
:100070000313280803178F000313290803178C00A4
:1000800003132A0803178E00031320088A00210E89
:100090008300FF0E7F0E09008A110A124F280130DB
:1000A000AC070318AD0A2D08003C03186028FF3A7E
:1000B000031D5E282C08813C03186028AD01AC01AB
:1000C000AD08031D6C282E082C0203186C2883161B
:1000D000051083120514702883160510831205106D
:1000E000AD08031D7C282F082C0203187C288316DA
:1000F000851083128514802883168510831285103D
:100100000B118A110A122B288C25701DA0122E1992
:1001100066008C25691DA0122E1966008C25641DB1
:10012000A0122E1966008C29653AF0376937741DC4
:10013000A0122E1966008C29E13670366510D43471
:10014000ED323A102532803FC2244527D622CE24F4
:10015000C42700008C20781D2532A020791D25326F
:1001600000018C296539F637311DA0126410A029D1
:100170006539F637321DA0126400AA30840083135B
:1001800000080319D0280630F800F701F70BC6283D
:10019000F80BC5287B30F700F70BCC28800BC32861
:1001A00008008316310EF039F7000F30831208056E
:1001B00077048800000008140230F700F70BDE28EF
:1001C000E1280000081008000808F700080E0F39A1
:1001D000F800080083160810881008118312881090
:1001E0000F3083160805F0388800831208150000C8
:1001F00008140000E42078088316B1008312081068
:1002000000000814032904290000E420780883165C
:10021000B000831208100F30831608058800310ED5
:10022000F700F030F70577083004F8007808B000E0
:10023000B01F1C298312F0282E1821298312881040
:1002400083162E1C2629831288148316000083121D
:1002500008110000081083162F0EB0000F30B005F3
:100260003008B1008312D12083162F080F39B00057
:10027000B1008312D12008002830FB000C30FC00B4
:100280000130FD000630FE000810881008110F3004
:100290008316080588000810881008110F30AA007E
:1002A0008312BD200130F5007508033C031C64294E
:1002B00003308316B1008312D12005308316AA00C3
:1002C0008312BD20F50A542902308316B10083122F
:1002D000D12005308316AA008312BD20F5017508D0
:1002E000033C031C81297B307507840083130008BD
:1002F000F6008316AE017608AF008312EA20F50AF5
:100300006F298A150A12C32D0830F8000430F7004F
:10031000F70B88298711AB112B0883168700033050
:10032000F700F70B9129A30D83120712031C9E29D6
:100330002B162B0883168700A22983122B122B0859
:100340008316870000008312AB152B0883168700E5
:100350008312871DA929F80B86290430F700F70BB3
:10036000AF298711AB112B08831687000000831279
:100370002B162B08831687000330F700F70BBE29D6
:100380000330F700F70BC2298312AB152B08831635
:1003900087008312871DCA29F8010330F700F70B85
:1003A000CF29071A78148711AB112B088316870001
:1003B000831207122B122B08831687008312080062
:1003C0002B162B08831687000430F700F70BE6295D
:1003D0008312AB152B08831687000330F700F70B49
:1003E000EF29831207122B122B0883168700043083
:1003F000F700F70BF92983128711AB112B0883162D
:100400008700D030A3008312842175088316A300CF
:100410008312842176088316A300831284212B1271
:100420002B088316870000008312AB152B08831658
:1004300087008312871D1A2A0430F700F70B1E2A43
:10044000212A00002B162B08831687000430F700A2
:10045000F70B282A831208006B30F500F601E02123
:1004600064308316AA008312BD201930F5000730CE
:10047000F600E02164308316AA008312BD208A159D
:100480000A12C62D83160108C73908388100831265
:100490008B16C0308B04E63081008A150A12C92DF4
:1004A00083162B0B542A572A4030AC00582AAC0133
:1004B00001302A02AC072C088038AD00AE012D08AF
:1004C000AF008312EA20080083162908073A831236
:1004D0000319742A0B3A03197B2A063A0319872A4F
:1004E000023A03198F2A962A01308316AA00AB001C
:1004F000831250229D2A8316AE010130AF00831271
:10050000EA2002308316AA008312BD209D2A013002
:100510008316AA000230AB00831250229D2A831654
:10052000AE011030AF008312EA209D2A01308316FD
:10053000AE002908AF008312EA2008000B08FB0078
:100540008B13831603178C170C1400000000FB1F7D
:10055000AE2A831203138B178316031783120C081A
:100560007F390319F02AFB000D08FC000F08FD007D
:100570007B0883160313A900831264227C080317E7
:100580008D007D088F0003130B08FE008B1383166C
:1005900003178C170C1400000000FE1FD42A8312CE
:1005A00003138B178316031783120C0D0E0D7F395F
:1005B0000319F02AFB000D08FC000F08FD007B0862
:1005C00083160313A900831264227C0803178D008D
:1005D0007D088F008D0A03198F0A03139E2A0317C3
:1005E00003138A150A12D22D0B088316A00083125A
:1005F0008B13831603178C170C14000000000313D1
:10060000A01F052B83128B17831603183E2B831212
:1006100003170C087F3983160313A00083120317F6
:100620000D0883160313A100831203170F08831606
:100630000313A2002008A900831264228316210854
:10064000831203178D0083160313220883120317E6
:100650008F0003130B088316A30083128B138316DA
:1006600003178C170C14000000000313A31F3B2B6F
:1006700083128B178316FB0B3E2B6C2B83120317F5
:100680000C0D0E0D7F3983160313A0008312031780
:100690000D0883160313A100831203170F08831696
:1006A0000313A2002008A9008312642283162108E4
:1006B000831203178D008316031322088312031776
:1006C0008F008D0A03198F0A0310FB0B682B6A2B0E
:1006D0000313F42A831603138312080083163E08BB
:1006E0000319DF2BC60042080319DF2BC6070318C6
:1006F000802B7F30C602031CDF2B0319DF2B842BDA
:100700008130C6070318DF2B4608F700F801F9010E
:10071000FA013F08CA00CA174008C9004108C800CA
:100720001830C600C701481CAD2B4508FA07031C4A
:100730009F2BF90A031D9F2BF80A0319C7174408BA
:10074000F907031CA62BF80A0319C7174308C000B2
:10075000C0174008F8070318C717C70DF80CF90CA5
:10076000FA0CCA0CC90CC80C0310C60B922B013032
:10077000F7070318DF2BF81BC42BCA0DFA0DF90D70
:10078000F80DF7030319DF2BCA1FD52BFA0A031D37
:10079000D52BF90A031DD52BF80A031DD52BF80C10
:1007A000F90CFA0CF70A0319DF2B3F08C7004308BE
:1007B000C706C71FDD2BF817E32BF813E32BF70150
:1007C000F801F901FA01831208008318EA2BB1300D
:1007D00084008313F701F801F901FA018316B101CE
:1007E000B201B301B40130082F042E042D04031903
:1007F000292C2030B5000310A90DAA0DAB0DAC0DAE
:10080000B10DB20DB30DB40D30083402031D122C1E
:100810002F083302031D122C2E083202031D122C46
:100820002D083102031C232C2D08B1022E08031CB5
:100830002E0FB2022F08031C2F0FB3023008031C27
:10084000300FB4020314F70DF80DF90DFA0DB50BC6
:10085000FB2B31088000840A32088000840A3308A8
:100860008000840A3408800083120800040883167C
:10087000A1002008A3000319582C7E08C1007D08A0
:10088000C0007C08BF007B08BE00C501C401203049
:10089000C3008230C20083126E237A08FE007908FA
:1008A000FD007808FC007708FB008316A30B3D2CA5
:1008B0007E08AC007D08AB007C08AA007B08A9007C
:1008C0002908B63CA900FA012A08AD00AA170310AE
:1008D000AA0CAB0CAC0CFA0CF90CF80CF70CA90B2D
:1008E000672CAD1F7E2CF709F809F909FA09F70AF8
:1008F0000319F80A0319F90A0319FA0A7A08FE001B
:100900007908FD007808FC007708FB00FE1F952C95
:10091000A103A116FB09FC09FD09FE09FB0A031945
:10092000FC0A0319FD0A0319FE0A3B30A8009A309D
:10093000A700CA30A600A5010A30A30020080319A9
:10094000A10A83147B30840083137E08AC007D08E9
:10095000AB007C08AA007B08A9002808B000270883
:10096000AF002608AE002508AD008312E523780805
:10097000F708031DD22C8316200A2302031DC22C64
:100980008312D22C21080319D52C0F392302031905
:10099000CB2C03180D2DA11B0D2D211BD52C203088
:1009A000072D831220308316A105A11EE52CA1126C
:1009B0002008031DA1037708A1002D30A900831290
:1009C000642283162108F700A10120082302031DD9
:1009D000F52C7708A1002E30A9008312642283161B
:1009E0002108F7002030A10500303030A11E072D6E
:1009F000A1122008031DA1037708A1002D30A90032
:100A00008312642283162108F700A1013030F70712
:100A10007708A90083126422831683102808AC008B
:100A20002708AB002608AA002508A900B001AF01DD
:100A3000AE010A30AD008312E5237A088316A800C0
:100A40007908A7007808A6007708A500A30BA12CB9
:100A50008312080083162508F80124020318332D99
:100A60002408F7003F2DF7010830A600A40DF70D6C
:100A7000250877020318F700F80DA60B362D831210
:100A8000080020307C1E30308316A0007B08F70061
:100A9000FB1F522DF709F70A7708FB002D30A00045
:100AA000FC177C147B08A4006430A50083122A255F
:100AB0007708FB00303078078316A1007B08A4007C
:100AC0000A30A50083122A25303077078316A30049
:100AD00030307807A2002008F700303021020319D7
:100AE000752DFC14FC1B7C15892D2008A1002030DD
:100AF000A000303022020319812D7C14FC1BFC1451
:100B0000892D031D7C14031D892D2108A20020308E
:100B1000A1007C19902DFC18952D7C189A2D9F2DE5
:100B20002008A9008312642283162108A9008312D9
:100B3000642283162208A9008312642283162308E4
:100B4000A9008312642208008030831CAA2D83161A
:100B5000C90683128316CE01CF014508CD0049088E
:100B6000CD0644080319982ECC00F7004808031955
:100B7000A12ECC0203193D2E031CFB2D4908D200E7
:100B8000D2174A08D1004B08D000CF010310D20C75
:100B9000D10CD00CCF0CCC0BC52DCD1FD22D4E14AB
:100BA000B52E4E104C104E16C73084008313CA2E3B
:100BB0004E12CD1BE52D4C1CF02DD20CD10CD00CBF
:100BC000CF0CF70A0319B02EF02DD21BF32D031012
:100BD000CF0DD00DD10DD20DF7030319B02EE52D99
:100BE0004E175D2E4E134508CD00CD1FF92DD2179F
:100BF000A92ED213A92E4808CC00F7004408CC0235
:100C00004508D200D2174608D1004708D000CF01CE
:100C10000310D20CD10CD00CCF0CCC0B072ECD1F57
:100C2000142ECE14B52ECE104C10CE16CB30840020
:100C30008313CA2ECE12CD1B272E4C1C322ED20C63
:100C4000D10CD00CCF0CF70A0319B02E322ED21BC8
:100C5000352E0310CF0DD00DD10DD20DF703031992
:100C6000B02E272ECE175D2ECE134908CD00CD1FF6
:100C70003B2ED217A92ED213A92E4908D200D21783
:100C80004A08D1004B08D000CD1F4A2ED2134E1572
:100C9000B52E4E11CF014C10C73084008313CA2EDD
:100CA000CD1B732E4508CD004C1C5D2ED20CD10CF3
:100CB000D00CCF0CF70A0319B02ECF1F6E2ED00A1E
:100CC000031D6E2ED10A031D6E2ED20A031D6E2E39
:100CD000D20CD10CD00CF70A0319B02E4E1BF22DFA
:100CE000CE1B342E922E8030D206D21F7B2EB52EF4
:100CF0004908CD00882E4508CD00D208031D882E56
:100D0000D108031D882ED008031D882EF701A92EB7
:100D1000D21B922E0310CF0DD00DD10DD20DF70B9B
:100D2000882EB02ECD1F962ED217A92ED213A92E03
:100D30004808F7004908D2004A08D1004B08D00003
:100D4000A92E4408F7004508D2004608D1004708FC
:100D5000D0005208F8005108F9005008FA00E82EB7
:100D6000F701F801F901FA01E82ECF01D009D10904
:100D7000D209CF09CF0A031DC32ED00A031DC32EEB
:100D8000D10A0319D20A4E18D12DCE18132E4E199E
:100D9000492E782E0008D007031CD42ED10A031D3B
:100DA000D42ED20A03194C1484030008D107031C63
:100DB000DC2ED20A03194C1484030008801F803AE9
:100DC000D20703184C144E1AD82DCE1A1A2E502EB4
:100DD000831208002B162B08831687000430F700B7
:100DE000F70BF02E8312AB152B0883168700033008
:100DF000F700F70BF92E831207122B122B0883161C
:100E000087000430F700F70B032F83128711AB1113
:100E10002B0883168700D030A30083128421831609
:100E20002108A300831284212B162B088316870028
:100E30000430F700F70B1A2F8312AB152B0883161B
:100E400087000330F700F70B232F8312871D262F0F
:100E500007122B122B08831687000430F700F70BBC
:100E60002F2F83128711AB112B0883168700D130E7
:100E7000A30083128421F70108308316A4007708A9
:100E8000A50083122B162B08831687000330F7006A
:100E9000F70B482F8312AB152B088316870083129C
:100EA000871D502F071A0314071E0310F80D043076
:100EB000F700F70B592FAB112B088316870083120D
:100EC00087118316A40B412F83122B162B08831630
:100ED00087000330F700F70B6B2F8312071283167E
:100EE00025080319782F83122B122B0883168700ED
:100EF00000008312AB152B08831687008312871D11
:100F00007F2F0430F700F70B832F8711AB112B08CD
:100F1000831687000330F700F70B8C2F831207121C
:100F20002B122B08831687007808A20083122B123D
:100F30002B088316870000008312AB152B0883163D
:100F400087008312871DA22F0430F700F70BA62F0E
:100F5000A92F00002B162B08831687000430F700FA
:100F6000F70BB02F2208F800831208008E30F7002C
:100F700083162308F8002208F900FA01A31FC52FE1
:100F8000F809F909F90A0319F80AF808031DD22F1C
:100F90007908F800F9010830F702F808031DD22F8C
:100FA000F701DB2F0310F81BD92FF90DF80DF7030C
:100FB000D22FA31FF813831208008E30F7007B088E
:100FC000F7027C08F9007D08F800F917F708031903
:100FD000F42F0310F908031DF02FF8080319F42F5C
:100FE000F90CF80CF70BE92FFC1FFB2FF809F90996
:080FF000F80A0319F90A0800D0
:10100000F50101308316AA00AB008A118312502229
:101010008A15F508031D2928843003178D00003038
:101020008F0003100530FB008A110313F4228A1588
:10103000893084003B08FE003A08FD003908FC00B6
:101040003808FB0002308316A0008A118312362470
:101050008A15750B4828893003178D0000308F00E2
:1010600003100530FB008A110313F4228A1589301E
:1010700084003F08FE003E08FD003D08FC003C08DF
:10108000FB0002308316A0008A11831236248A15D1
:101090007508023C031D69288E3003178D0000304F
:1010A0008F0003100530FB008A110313F4228A1508
:1010B000893084004308FE004208FD004108FC001E
:1010C0004008FB0002308316A0008A1183123624E8
:1010D0008A157508033C031D8A28933003178D0079
:1010E00000308F0003100B30FB008A110313F42231
:1010F0008A15893084004708FE004608FD0045082F
:10110000FC004408FB0002308316A0008A11831201
:1011100036248A157508043C031DA1289B3003174B
:101120008D0000308F0003100E30FB008A11031376
:10113000F4228A154808FB001830FC008A1141256A
:101140008A158316061483120618B22832308316C5
:10115000AA008A118312BD208A15831606148312F1
:10116000061C4E2A8316861583128619D72832301C
:101170008316AA008A118312BD208A15831686154C
:1011800083128619D72801307507FC008316A40046
:101190000530A5008A1183122A258A157708F500E3
:1011A000C8308316AA008A118312BD208A158316BF
:1011B000861483128618922932308316AA008A1167
:1011C0008312BD208A1583168614831286189229ED
:1011D000F508031D0F2983103B088316C7008312EF
:1011E0003A088316C600831239088316C500831295
:1011F00038088316C400CD30CB00CC30CA004C3048
:10120000C9007B30C8008A118312A4258A157A0888
:10121000BB007908BA007808B9007708B800750BE8
:10122000352983103F088316C70083123E088316B2
:10123000C60083123D088316C50083123C0883163E
:10124000C400CD30CB00CC30CA004C30C9007B305C
:10125000C8008A118312A4258A157A08BF0079086C
:10126000BE007808BD007708BC007508023C031D6D
:101270005D29831043088316C70083124208831632
:10128000C600831241088316C500831240088316E6
:10129000C400CD30CB00CC30CA004C30C9007B300C
:1012A000C8008A118312A4258A157A08C300790818
:1012B000C2007808C1007708C0007508033C031D10
:1012C0008529831047088316C700831246088316B2
:1012D000C600831245088316C5008312440883168E
:1012E000C400CD30CB00CC30CA004C30C9007B30BC
:1012F000C8008A118312A4258A157A08C7007908C4
:10130000C6007808C5007708C4007508043C031DB2
:101310008B290A30C807C8308316AA008A118312A5
:10132000BD208A1583160615831206194D2A323000
:101330008316AA008A118312BD208A15831606150A
:10134000831206194D2AF508031DCA2983143B0888
:101350008316C70083123A088316C6008312390821
:101360008316C500831238088316C400CD30CB0025
:10137000CC30CA004C30C9007B30C8008A118312BF
:10138000A4258A157A08BB007908BA007808B90044
:101390007708B800750BF02983143F088316C7003F
:1013A00083123E088316C60083123D088316C500CB
:1013B00083123C088316C400CD30CB00CC30CA0069
:1013C0004C30C9007B30C8008A118312A4258A15CD
:1013D0007A08BF007908BE007808BD007708BC0015
:1013E0007508023C031D182A831443088316C7009E
:1013F000831242088316C600831241088316C50073
:10140000831240088316C400CD30CB00CC30CA0014
:101410004C30C9007B30C8008A118312A4258A157C
:101420007A08C3007908C2007808C1007708C000B4
:101430007508033C031D402A831447088316C70020
:10144000831246088316C600831245088316C5001A
:10145000831244088316C400CD30CB00CC30CA00C0
:101460004C30C9007B30C8008A118312A4258A152C
:101470007A08C7007908C6007808C5007708C40054
:101480007508043C031D462A0A30C802C83083167A
:10149000AA008A118312BD208A1501288A150A1212
:1014A000D92D831626080319172BB2002A08031911
:1014B000172BB202031C612A7F30B2070318172BC7
:1014C000672A8130B202031C172B0319172B32082D
:1014D000F700F801F901FA01B1012708B000B017CF
:1014E0002808AF002908AE001930B2002D08AE025E
:1014F00003188A2A0130AF0203188A2AB00203189F
:101500008A2AB10203188A2AB10AB00AAF0A2D0842
:10151000AE07BC2A2C08AF020318A52A0130B0027E
:101520000318A52AB1020318A52AB10AB00A2C088B
:10153000AF072D08AE07031CBC2AAF0A031DBC2A47
:10154000B00A031DBC2AB10ABC2A2B088038B0029D
:101550000318BB2A0130B1020318BB2AB10A2B08B9
:101560008038B0072C08AF07031C992AB00A031D66
:10157000992AB10A992A7A14B20BBF2ACA2A0310EF
:10158000AE0DAF0DB00DB10D0310FA0DF90DF80D44
:10159000B30D762A331CD22A0310F80CF90CFA0C7E
:1015A000B30CD52AF7030319172BB31BFE2A03101C
:1015B000AE0DAF0DB00DB10D2D08AE020318EA2A25
:1015C0000130AF020318EA2AB0020318EA2AB10276
:1015D000031C0D2B2C08AF020318F52A0130B002B2
:1015E0000318F52AB102031C0D2B2B088038B0021A
:1015F0000318FE2A0130B102031C0D2BFA0A031D49
:101600000D2BF90A031D0D2BF80A031D0D2BF70AEC
:101610000319172BF80CF90CFA0C2708B2002B0849
:10162000B206B21F152BF8171B2BF8131B2BF70153
:10163000F801F901FA01831208003B308316A1007A
:101640008A118312EA268A1578088316A0003C3096
:10165000A1008A118312EA268A1578088316A10050
:101660002008F6002108F5007608A3007508A200FE
:101670008A118312B6278A157A088316A50079087D
:10168000A4007808A3007708A2002508A900240870
:10169000A8002308A7002208A600AD01AC01AB01F9
:1016A0008D30AA00831251227A08FE007908FD00CD
:1016B0007808FC007708FB007B08F7007C08F8003E
:1016C0007D08F9007E08FA008A150A12E12D3D30E6
:1016D0008316A1008A118312EA268A1578088316D8
:1016E000A0003E30A1008A118312EA268A157808EC
:1016F0008316A1002008F6002108F5007608A30053
:101700007508A2008A118312B6278A157A088316F3
:10171000A5007908A4007808A3007708A20025088E
:10172000A9002408A8002308A7002208A600AD01EC
:10173000AC01AB018D30AA00831251227A08FE0061
:101740007908FD007808FC007708FB007B08F700AB
:101750007C08F8007D08F9007E08FA008A150A1254
:10176000EA2D8E30F7007608F8007508F900FA01C6
:10177000F808031DC52B7908F800F9010830F702B5
:10178000F808031DC52BF701CD2B0310F81BCC2B3C
:10179000F90DF80DF703C52BF8130800831625087B
:1017A000C1002408C0002308BF002208BE007E0834
:1017B000C5007D08C4007C08C3007B08C2008A11F4
:1017C00083126E238A157A088316B1007908B00057
:1017D0007808AF007708AE007608FA007508840034
:1017E000831376188317C1010408C0004110831BBE
:1017F000411483100008C400840A0008C500840A4C
:101800000008C600840A0008C7007E08CB007D08D7
:10181000CA007C08C9007B08C8008A118312A4256D
:101820008A158316400884008313411883177708AC
:101830008000840A78088000840A79088000840A7D
:101840007A088000750884008313761883170008CF
:10185000F700840A0008F800840A0008F900840AE6
:101860000008FA002908C1002808C0002708BF00A6
:101870002608BE007A08C5007908C4007808C300AD
:101880007708C2008A1183126E238A157A0883169C
:10189000B5007908B4007808B3007708B2002008D2
:1018A00084008313211883170008F700840A0008B6
:1018B000F800840A0008F900840A0008FA00BB0155
:1018C0000408BA003B10831B3B1483147E08C70036
:1018D0007D08C6007C08C5007B08C4007A08CB00E0
:1018E0007908CA007808C9007708C8008A118312ED
:1018F000A4258A1583163A08840083133B1883179E
:101900002D08C1002C08C0002B08BF002A08BE000B
:101910007A08C5007908C4007808C3007708C200B7
:101920008A1183126E238A157A088316B900790802
:10193000B8007808B7007708B60020088400831341
:10194000211883177B088000840A7C088000840AA1
:101950007D088000840A7E08800083103108C7005B
:101960003008C6002F08C5002E08C4003508CB007B
:101970003408CA003308C9003208C8008A1183122B
:10198000A4258A157A088316BD007908BC0078085A
:10199000BB007708BA0083103D08C7003C08C600AA
:1019A0003B08C5003A08C4003908CB003808CA0013
:1019B0003708C9003608C8008A118312A4258A1581
:1019C00008007D087B028316A6007C08A7007E081D
:1019D000031C7E0FA70222082402F7002508FA0044
:1019E0002308031C230FFA027708A8007A08A9002D
:1019F0002708AB002608AA002908AD002808AC007B
:101A00001030AE00F701FA01AB0CAA0C031C0E2D2E
:101A10002C08F7070318FA0A2D08FA07FA0CF70C36
:101A2000F90CF80CAE0B042D7908A7007808A60075
:101A30007D082002F7002108FA007E08031C7E0FB3
:101A4000FA027708A8007A08A9002708AB00260840
:101A5000AA002908AD002808AC00F801F901F70137
:101A6000FA012D08031D372D2C080319512D1030B4
:101A7000AE000310AA0DAB0DF70DFA0D2D087A027A
:101A8000031D442D2C087702031C4D2D2C08F70252
:101A9000031CFA032D08FA020314F80DF90DAE0B1E
:101AA000392D7908A7007808A60022082607F80033
:101AB0002708FA0023080318230FFA077A08F90009
:101AC00083120800FC017508FB00FE01FD0183166E
:101AD000A101B430A000A3010B30A200A501303059
:101AE000A4008312E1247808AE008A150A126D2F33
:101AF000FC017508FB00FE01FD018316A101B43055
:101B0000A000A3010B30A200A5013030A400831275
:101B1000E1247808AF008A150A12772F03081F39CD
:101B20008300FF30AB00AD01AC01BB01BA01B901CC
:101B30007F30B800BF01BE01BD01BC01C301C201BD
:101B4000C101C001C701C601C501C401F430C8000C
:101B5000CC01CB01CA01C901D001CF01CE01CD0119
:101B6000D401D301D201D101D801D701D601D501C9
:101B700083161F149F141F159F1107309C00831399
:101B80008A1183123C298A158A112C2A8A158A11F6
:101B9000422A8A15A43003178D0000308F008A1165
:101BA00003139E2A8A158316061483120618E02D45
:101BB0000028C8308316AA008A118312BD208A1516
:101BC0001D2B7A08DC007908DB007808DA0077083A
:101BD000D900672B7A08E0007908DF007808DE007A
:101BE0007708DD005C088316C10083125B0883164A
:101BF000C00083125A088316BF0083125908831647
:101C0000BE00C501C4014830C3008530C2008A113E
:101C100083126E238A157A08FE007908FD00780881
:101C2000FC007708FB008A11DD278A157808E3009D
:101C300060088316C10083125F088316C0008312F8
:101C40005E088316BF0083125D088316BE00C501BF
:101C5000C4014830C3008530C2008A1183126E234C
:101C60008A157A08FE007908FD007808FC007708DC
:101C7000FB008A11DD278A157808E40001308316FD
:101C8000AA00AB008A11831250228A15AA300317CA
:101C90008D0000308F0003100430FB008A11031305
:101CA000F4228A156308FB001830FC008A114125D4
:101CB0008A15AD3003178D0000308F0003100430FB
:101CC000FB008A110313F4228A156408FB00183004
:101CD000FC008A1141258A15F6016308F500B1233D
:101CE000831447088316C700831246088316C6006C
:101CF000831245088316C500831244088316C40066
:101D00007A08CB007908CA007808C9007708C800AB
:101D10008A118312A4258A157A08E8007908E70059
:101D20007808E6007708E500F6016408F500B123BD
:101D3000831447088316C700831246088316C6001B
:101D4000831245088316C500831244088316C40015
:101D50007A08CB007908CA007808C9007708C8005B
:101D60008A118312A4258A157A08EC007908EB0001
:101D70007808EA007708E9006808FE006708FD00B7
:101D80006608FC006508FB00F6014930F500831683
:101D9000A1015130A00083123B088316A5008312D5
:101DA0003A088316A400831239088316A30083120D
:101DB00038088316A20083123F088316A9008312F5
:101DC0003E088316A80083123D088316A7008312DD
:101DD0003C088316A600831243088316AD008312C5
:101DE00042088316AC00831241088316AB008312AD
:101DF00040088316AA008312CE237A08F0007908DF
:101E0000EF007808EE007708ED006C08FE006B0824
:101E1000FD006A08FC006908FB00F6014D30F50082
:101E20008316A1015530A00083123B088316A5003C
:101E300083123A088316A400831239088316A3007C
:101E4000831238088316A20083123F088316A90064
:101E500083123E088316A80083123D088316A7004C
:101E600083123C088316A600831243088316AD0034
:101E7000831242088316AC00831241088316AB001C
:101E8000831240088316AA008312CE237A08F40036
:101E90007908F3007808F2007708F1007008FE0076
:101EA0006F08FD006E08FC006D08FB008A11DD273D
:101EB0008A1578085A3CE1007408FE007308FD009A
:101EC0007208FC007108FB008A11DD278A1578086A
:101ED0005A3CE2006108F500622D48088316AA000A
:101EE0008A118312BD208A156208F500782D4808F2
:101EF0008316AA008A118312BD208A150130831629
:101F0000AA000230AB008A11831250228A15B13028
:101F100003178D0000308F0003100930FB008A1179
:101F20000313F4228A156108FB001830FC008A11A3
:101F300041258A15B63003178D0000308F00031439
:101F40000A30FB008A110313F4228A156208FB0091
:0E1F50001830FC008A1141258A15D32D63003C
:02400E003A3F37
:00000001FF
;PIC16F877A
;CRC=25A8  CREATED="18-nov.-24 16:05"
