:1000000012308A004E2A0000FF00030E8301A10077
:100010000A08A0008A010408A2007708A300780853
:10002000A4007908A5007A08A60003170D08031399
:10003000A70003170F080313A80003170C080313E6
:10004000A90003170E080313AA00831383128B1E43
:100050002B280B194C28220884002308F7002408B9
:10006000F8002508F9002608FA00270803178D0074
:100070000313280803178F000313290803178C00A4
:1000800003132A0803178E00031320088A00210E89
:100090008300FF0E7F0E09008A110A124F280130DB
:1000A000AC070318AD0A2D08003C03186028FF3A7E
:1000B000031D5E282C08813C03186028AD01AC01AB
:1000C000AD08031D6C282E082C0203186C2883161B
:1000D000051083120514702883160510831205106D
:1000E000AD08031D7C282F082C0203187C288316DA
:1000F000851083128514802883168510831285103D
:100100000B118A110A122B288C20581DA012641082
:10011000A020791DA01264008C20781DA01264100C
:10012000A020591DA01264008C25701DA0122E194C
:1001300066008C25691DA0122E1966008C25641D91
:10014000A0122E1966008C29653AF0376937741DA4
:10015000A0122E1966000C2AE936651DA012640053
:10016000C2244527D622CE24C42700008C20781D27
:100170002532A020791D25320000BA308400831377
:1001800000080319D0280630F800F701F70BC6283D
:10019000F80BC5287B30F700F70BCC28800BC32861
:1001A00008008316410EF039F7000F30831208055E
:1001B00077048800000008140230F700F70BDE28EF
:1001C000E1280000081008000808F700080E0F39A1
:1001D000F800080083160810881008118312881090
:1001E0000F3083160805F0388800831208150000C8
:1001F00008140000E42078088316C1008312081058
:1002000000000814032904290000E420780883165C
:10021000C000831208100F30831608058800410EB5
:10022000F700F030F70577084004F8007808C000C0
:10023000C01F1C298312F0283E1821298312881020
:1002400083163E1C2629831288148316000083120D
:1002500008110000081083163F0EC0000F30C005C3
:100260004008C1008312D12083163F080F39C00017
:10027000C1008312D120080028308316A5000C305D
:10028000A6000130A7000630A800831208108810CD
:1002900008110F308316080588000810881008110F
:1002A0000F30BA008312BD2001308316A400240849
:1002B000033C031C67290330C1008312D1200530A1
:1002C0008316BA008312BD208316A40A5729023070
:1002D000C1008312D12005308316BA008312BD20DD
:1002E0008316A4012408033C031C8429A530240799
:1002F000840083130008A900BE012908BF008312EF
:10030000EA208316A40A722983128A110A16912AF6
:100310000830F8000430F700F70B8C298711AB1177
:100320002B08831687000330F700F70B9529BC0DC7
:1003300083120712031CA2292B162B088316870091
:10034000A62983122B122B08831687000000831224
:10035000AB152B08831687008312871DAD29F80B78
:100360008A290430F700F70BB3298711AB112B084A
:1003700083168700000083122B162B088316870034
:100380000330F700F70BC2290330F700F70BC6293B
:100390008312AB152B08831687008312871DCE2985
:1003A000F8010330F700F70BD329071A78148711E7
:1003B000AB112B0883168700831207122B122B0810
:1003C00083168700831208002B162B0883168700DC
:1003D0000430F700F70BEA298312AB152B088316BC
:1003E00087000330F700F70BF329831207122B1253
:1003F0002B08831687000430F700F70BFD298312C2
:100400008711AB112B0883168700D030BC008312F4
:10041000882183162408BC008312882183162508AE
:10042000BC00831288212B122B0883168700000042
:100430008312AB152B08831687008312871D1E2A93
:100440000430F700F70B222A252A00002B162B0870
:10045000831687000430F700F70B2C2A831208005C
:100460006B308316A400A5018312E4216430831647
:10047000BA008312BD2019308316A4000730A500EE
:100480008312E42164308316BA008312BD208A11DE
:100490000A16942A83160108C73908388100831286
:1004A0008B16C0308B04E63081008A110A16972A19
:1004B00083163B0B5C2A5F2A4030BC00602ABC01DB
:1004C00001303A02BC073C088038BD00BE013D083F
:1004D000BF008312EA20080083163908073A831206
:1004E00003197C2A0B3A0319832A063A03198F2A27
:1004F000023A0319972A9E2A01308316BA00BB00DC
:1005000083125822A52A8316BE010130BF00831230
:10051000EA2002308316BA008312BD20A52A0130DA
:100520008316BA000230BB0083125822A52A831614
:10053000BE011030BF008312EA20A52A01308316C5
:10054000BE003908BF008312EA2008000B0883169A
:10055000A40083128B13831603178C170C1400004E
:1005600000000313A41FB72A83128B17831683126C
:1005700003170C087F390319182B83160313A400E3
:10058000831203170D0883160313A50083120317A4
:100590000F0883160313A6002408B90083126C22E7
:1005A00083162508831203178D008316031326086C
:1005B000831203178F0003130B088316A7008312FF
:1005C0008B13831603178C170C1400000000031301
:1005D000A71FED2A83128B178316831203170C0DA6
:1005E0000E0D7F390319182B83160313A4008312F1
:1005F00003170D0883160313A500831203170F08B2
:1006000083160313A6002408B90083126C228316F4
:100610002508831203178D008316031326088312FF
:1006200003178F008D0A03198F0A0313A62A0317D5
:1006300003138A110A16A02A0B088316B40083122A
:100640008B13831603178C170C1400000000031380
:10065000B41F2D2B83128B1783160318662B83125E
:1006600003170C087F3983160313B4008312031792
:100670000D0883160313B500831203170F088316A2
:100680000313B6003408B90083126C2283163508B0
:10069000831203178D008316031336088312031782
:1006A0008F0003130B088316B70083128B13831676
:1006B00003178C170C14000000000313B71F632BE3
:1006C00083128B178316B30B662B942B831203179D
:1006D0000C0D0E0D7F3983160313B400831203171C
:1006E0000D0883160313B500831203170F08831632
:1006F0000313B6003408B90083126C228316350840
:10070000831203178D008316031336088312031711
:100710008F008D0A03198F0A031083160313B30B7E
:10072000922B942B83121C2B8312080083164608ED
:100730000319072CCE004A080319072CCE0703180B
:10074000A82B7F30CE02031C072C0319072CAC2BDF
:100750008130CE070318072C4E08F700F801F90185
:10076000FA014708D200D2174808D1004908D00042
:100770001830CE00CF01501CD52B4D08FA07031CB2
:10078000C72BF90A031DC72BF80A0319CF174C080A
:10079000F907031CCE2BF80A0319CF174B08C80022
:1007A000C8174808F8070318CF17CF0DF80CF90C35
:1007B000FA0CD20CD10CD00C0310CE0BBA2B01309A
:1007C000F7070318072CF81BEC2BD20DFA0DF90DC7
:1007D000F80DF7030319072CD21FFD2BFA0A031D8E
:1007E000FD2BF90A031DFD2BF80A031DFD2BF80C48
:1007F000F90CFA0CF70A0319072C4708CF004B082D
:10080000CF06CF1F052CF8170B2CF8130B2CF70174
:10081000F801F901FA01831208008318122CBA308A
:1008200084008313F701F801F901FA018316BA0174
:10083000BB01BC01BD013908380437043604031973
:10084000512C2030BE000310B20DB30DB40DB50D08
:10085000BA0DBB0DBC0DBD0D39083D02031D3A2C70
:1008600038083C02031D3A2C37083B02031D3A2C82
:1008700036083A02031C4B2C3608BA023708031C10
:10088000370FBB023808031C380FBC023908031CA1
:10089000390FBD020314F70DF80DF90DFA0DBE0B5B
:1008A000232C3A088000840A3B088000840A3C0814
:1008B0008000840A3D088000831208000408831623
:1008C000AA002908AC000319802C2808C9002708B1
:1008D000C8002608C7002508C600CD01CC0120307D
:1008E000CB008230CA00831296237A088316A800B0
:1008F0007908A7007808A6007708A500AC0B652C3E
:100900002808B5002708B4002608B3002508B2005F
:100910003208B63CB200FA013308B600B317031030
:10092000B30CB40CB50CFA0CF90CF80CF70CB20BB8
:100930008F2CB61FA62CF709F809F909FA09F70A4E
:100940000319F80A0319F90A0319FA0A7A08A80020
:100950007908A7007808A6007708A500A81FBD2C75
:10096000AA03AA16A509A609A709A809A50A031991
:10097000A60A0319A70A0319A80A3B30B1009A3046
:10098000B000CA30AF00AE010A30AC00290803192C
:10099000AA0A8314A530840083132808B500270809
:1009A000B4002608B3002508B2003108B9003008A9
:1009B000B8002F08B7002E08B60083120D2478085F
:1009C000F708031DFA2C8316290A2C02031DEA2CB2
:1009D0008312FA2C2A080319FD2C0F392C02031953
:1009E000F32C0318352DAA1B352D2A1BFD2C203086
:1009F0002F2D831220308316AA05AA1E0D2DAA12B0
:100A00002908031DAA037708AA002D30B900831214
:100A10006C2283162A08F700AA0129082C02031D5C
:100A20001D2D7708AA002E30B90083126C22831680
:100A30002A08F7002030AA0500303030AA1E2F2DDA
:100A4000AA122908031DAA037708AA002D30B900AD
:100A500083126C2283162A08F700AA013030F707A8
:100A60007708B90083126C22831683103108B50011
:100A70003008B4002F08B3002E08B200B901B80145
:100A8000B7010A30B60083120D247A088316B1002C
:100A90007908B0007808AF007708AE00AC0BC92C1D
:100AA0008312080083163A08F801390203185B2DF7
:100AB0003908F700672DF7010830BB00B90DF70DB5
:100AC0003A0877020318F700F80DBB0B5E2D83126E
:100AD000080020308316341E3030B5003308F7008C
:100AE000B31F7A2DF709F70A7708B3002D30B50048
:100AF000B41734143308B9006430BA008312522595
:100B000077088316B30030307807B6003308B90091
:100B10000A30BA0083125225303077078316B800A6
:100B200030307807B7003508F70030303602031947
:100B30009D2DB414B41B3415B12D3508B6002030EA
:100B4000B500303037020319A92D3414B41BB41486
:100B5000B12D031D3414031DB12D3608B70020300C
:100B6000B6003419B82DB418BD2D3418C22DC72DB8
:100B70003508B90083126C2283163608B900831237
:100B80006C2283163708B90083126C22831638084A
:100B9000B90083126C2208008030831CD22D83168A
:100BA000D10683128316D601D7014D08D50051080E
:100BB000D5064C080319C02ED400F70050080319BD
:100BC000C92ED4020319652E031C232E5108DA0006
:100BD000DA175208D9005308D800D7010310DA0CED
:100BE000D90CD80CD70CD40BED2DD51FFA2D5614DB
:100BF000DD2E561054105616CF3084008313F22E7B
:100C00005612D51B0D2E541C182EDA0CD90CD80CEC
:100C1000D70CF70A0319D82E182EDA1B1B2E031037
:100C2000D70DD80DD90DDA0DF7030319D82E0D2ED7
:100C30005617852E56134D08D500D51F212EDA17CD
:100C4000D12EDA13D12E5008D400F7004C08D4026C
:100C50004D08DA00DA174E08D9004F08D800D7013E
:100C60000310DA0CD90CD80CD70CD40B2F2ED51FAF
:100C70003C2ED614DD2ED6105410D616D330840058
:100C80008313F22ED612D51B4F2E541C5A2EDA0C7B
:100C9000D90CD80CD70CF70A0319D82E5A2EDA1B08
:100CA0005D2E0310D70DD80DD90DDA0DF7030319FA
:100CB000D82E4F2ED617852ED6135108D500D51F06
:100CC000632EDA17D12EDA13D12E5108DA00DA1793
:100CD0005208D9005308D800D51F722EDA135615C2
:100CE000DD2E5611D7015410CF3084008313F22E1D
:100CF000D51B9B2E4D08D500541C852EDA0CD90C23
:100D0000D80CD70CF70A0319D82ED71F962ED80A5D
:100D1000031D962ED90A031D962EDA0A031D962E60
:100D2000DA0CD90CD80CF70A0319D82E561B1A2E38
:100D3000D61B5C2EBA2E8030DA06DA1FA32EDD2EEB
:100D40005108D500B02E4D08D500DA08031DB02E8D
:100D5000D908031DB02ED808031DB02EF701D12EDF
:100D6000DA1BBA2E0310D70DD80DD90DDA0DF70BFB
:100D7000B02ED82ED51FBE2EDA17D12EDA13D12ED3
:100D80005008F7005108DA005208D9005308D8007B
:100D9000D12E4C08F7004D08DA004E08D9004F0854
:100DA000D8005A08F8005908F9005808FA00102F1E
:100DB000F701F801F901FA01102FD701D809D90973
:100DC000DA09D709D70A031DEB2ED80A031DEB2E2B
:100DD000D90A0319DA0A5618F92DD6183B2E5619D6
:100DE000712EA02E0008D807031CFC2ED90A031D63
:100DF000FC2EDA0A0319541484030008D907031CD3
:100E0000042FDA0A0319541484030008801F803A5F
:100E1000DA0703185414561A002ED61A422E782ECA
:100E2000831208002B162B08831687000430F70066
:100E3000F70B182F8312AB152B088316870003308E
:100E4000F700F70B212F831207122B122B088316A2
:100E500087000430F700F70B2B2F83128711AB119B
:100E60002B0883168700D030BC008312882183169C
:100E70003A08BC00831288212B162B0883168700A2
:100E80000430F700F70B422F8312AB152B088316A3
:100E900087000330F700F70B4B2F8312871D4E2F6F
:100EA00007122B122B08831687000430F700F70B6C
:100EB000572F83128711AB112B0883168700D1306F
:100EC000BC0083128821F70108308316BD00770823
:100ED000BE0083122B162B08831687000330F70001
:100EE000F70B702F8312AB152B0883168700831224
:100EF000871D782F071A0314071E0310F80D0430FE
:100F0000F700F70B812FAB112B0883168700831294
:100F100087118316BD0B692F83122B162B0883169E
:100F200087000330F700F70B932F83120712831605
:100F30003E080319A02F83122B122B08831687005B
:100F400000008312AB152B08831687008312871DC0
:100F5000A72F0430F700F70BAB2F8711AB112B082D
:100F6000831687000330F700F70BB42F83120712A4
:100F70002B122B08831687007808BB0083122B12D4
:100F80002B088316870000008312AB152B088316ED
:100F900087008312871DCA2F0430F700F70BCE2F6E
:100FA000D12F00002B162B08831687000430F70082
:100FB000F70BD82F3B08F800831208008E30F7009B
:100FC00083163308F7023408F9003508F800F917DA
:100FD000F7080319F62F0310F908031DF22FF8087C
:100FE0000319F62FF90CF80CF70BEB2FB41FFD2F9C
:0E0FF000F809F909F80A0319F90A8312080032
:101000008316A4010130BA00BB008A118312582252
:101010008A15C8308316BA008A118312BD208A153A
:101020008316A408031D3B289430831203178D00F8
:1010300000308F000310053083160313B3008A11AC
:1010400083121C238A15893084003B088316A8006C
:1010500083123A088316A700831239088316A60064
:10106000831238088316A5000230A9008A11831262
:101070005E248A158316240B642899308312031783
:101080008D0000308F000310053083160313B3006A
:101090008A1183121C238A15893084003F08831625
:1010A000A80083123E088316A70083123D0883160A
:1010B000A60083123C088316A5000230A9008A11FD
:1010C00083125E248A1583162408023C031D8F2890
:1010D0009E30831203178D0000308F0003100530FF
:1010E00083160313B3008A1183121C238A158930D7
:1010F000840043088316A800831242088316A700C1
:10110000831241088316A600831240088316A500A7
:101110000230A9008A1183125E248A1583162408DE
:10112000033C031DBA28A330831203178D0000303F
:101130008F0003100B3083160313B3008A11831240
:101140001C238A158930840047088316A80083125F
:1011500046088316A700831245088316A60083124B
:1011600044088316A5000230A9008A1183125E2468
:101170008A1583162408043C031DD728AB3083123C
:1011800003178D0000308F00031007308316031300
:10119000B3008A1183121C238A1548088316B300F2
:1011A0001830B4008A11831269258A158316061433
:1011B00083120618E72832308316BA008A11831288
:1011C000BD208A15831606148312061C992A8316DD
:1011D0008615831286190C2932308316BA008A11BB
:1011E0008312BD208A1583168615831286190C2951
:1011F000013083162407A600B9000530BA008A1111
:10120000831252258A1577088316A400C830BA00C5
:101210008A118312BD208A158316861483128618BC
:10122000D12932308316BA008A118312BD208A1563
:101230008316861483128618D1298316A408031DE9
:101240004729831083123B088316CF0083123A0884
:101250008316CE00831239088316CD008312380816
:101260008316CC00CD30D300CC30D2004C30D1002E
:101270007B30D0008A118312CC258A157A08BB00F6
:101280007908BA007808B9007708B8008316240BEB
:101290006F29831083123F088316CF0083123E0804
:1012A0008316CE0083123D088316CD0083123C08BE
:1012B0008316CC00CD30D300CC30D2004C30D100DE
:1012C0007B30D0008A118312CC258A157A08BF00A2
:1012D0007908BE007808BD007708BC008316240892
:1012E000023C031D99298310831243088316CF0003
:1012F000831242088316CE00831241088316CD0064
:10130000831240088316CC00CD30D300CC30D200FD
:101310004C30D1007B30D0008A118312CC258A1545
:101320007A08C3007908C2007808C1007708C000B5
:1013300083162408033C031DC32983108312470826
:101340008316CF00831246088316CE008312450809
:101350008316CD00831244088316CC00CD30D30011
:10136000CC30D2004C30D1007B30D0008A118312B7
:10137000CC258A157A08C7007908C6007808C50008
:101380007708C40083162408043C031DCB290A30C7
:101390008312C8078316C830BA008A118312BD2091
:1013A0008A158316061583120619962A323083167B
:1013B000BA008A118312BD208A158316061583127E
:1013C0000619962A8316A408031D0C2A8314831277
:1013D0003B088316CF0083123A088316CE0083128F
:1013E00039088316CD00831238088316CC00CD301F
:1013F000D300CC30D2004C30D1007B30D0008A11E9
:101400008312CC258A157A08BB007908BA007808BF
:10141000B9007708B8008316240B342A831483128A
:101420003F088316CF0083123E088316CE00831236
:101430003D088316CD0083123C088316CC00CD30C6
:10144000D300CC30D2004C30D1007B30D0008A1198
:101450008312CC258A157A08BF007908BE00780867
:10146000BD007708BC0083162408023C031D5E2AD9
:101470008314831243088316CF0083124208831615
:10148000CE00831241088316CD00831240088316D4
:10149000CC00CD30D300CC30D2004C30D1007B30EA
:1014A000D0008A118312CC258A157A08C3007908E6
:1014B000C2007808C1007708C00083162408033CE6
:1014C000031D882A8314831247088316CF008312D2
:1014D00046088316CE00831245088316CD0083127A
:1014E00044088316CC00CD30D300CC30D2004C3031
:1014F000D1007B30D0008A118312CC258A157A085E
:10150000C7007908C6007808C5007708C4008316AC
:101510002408043C031D902A0A308312C802831653
:10152000C830BA008A118312BD208A15831602289A
:1015300083128A110A16A92A8E30F70083163C08F6
:10154000F8003B08F900FA01BC1FAB2AF809F909B9
:10155000F90A0319F80AF808031DB82A7908F800EF
:10156000F9010830F702F808031DB82AF701C12A6B
:101570000310F81BBF2AF90DF80DF703B82ABC1F9A
:10158000F8138312080083163F080319892BCB0038
:1015900043080319892BCB02031CD32A7F30CB07C6
:1015A0000318892BD92A8130CB02031C892B0319FC
:1015B000892B4B08F700F801F901FA01CA0140082C
:1015C000C900C9174108C8004208C7001930CB003C
:1015D0004608C7020318FC2A0130C8020318FC2A77
:1015E000C9020318FC2ACA020318FC2ACA0AC90A3B
:1015F000C80A4608C7072E2B4508C8020318172B30
:101600000130C9020318172BCA020318172BCA0A84
:10161000C90A4508C8074608C707031C2E2BC80A75
:10162000031D2E2BC90A031D2E2BCA0A2E2B44087C
:101630008038C90203182D2B0130CA0203182D2B44
:10164000CA0A44088038C9074508C807031C0B2B81
:10165000C90A031D0B2BCA0A0B2B7A14CB0B312B97
:101660003C2B0310C70DC80DC90DCA0D0310FA0D90
:10167000F90DF80DCC0DE82A4C1C442B0310F80C86
:10168000F90CFA0CCC0C472BF7030319892BCC1B54
:10169000702B0310C70DC80DC90DCA0D4608C7022F
:1016A00003185C2B0130C80203185C2BC902031815
:1016B0005C2BCA02031C7F2B4508C8020318672B4A
:1016C0000130C9020318672BCA02031C7F2B440890
:1016D0008038C9020318702B0130CA02031C7F2B0B
:1016E000FA0A031D7F2BF90A031D7F2BF80A031D3D
:1016F0007F2BF70A0319892BF80CF90CFA0C400818
:10170000CB004408CB06CB1F872BF8178D2BF81383
:101710008D2BF701F801F901FA01831208003B3023
:101720008316BA008A11831212278A157808831645
:10173000B9003C30BA008A11831212278A15780842
:101740008316BA003908B4003A08B3003408BC0064
:101750003308BB0083129C227A088316BE007908E6
:10176000BD007808BC007708BB003E08C2003D08F9
:10177000C1003C08C0003B08BF00C601C501C40150
:101780008D30C3008312C3227A088316B80079080B
:10179000B7007808B6007708B5003508F7003608B6
:1017A000F8003708F9003808FA00831208003D30C5
:1017B0008316BA008A11831212278A1578088316B5
:1017C000B9003E30BA008A11831212278A157808B0
:1017D0008316BA003908B4003A08B3003408BC00D4
:1017E0003308BB0083129C227A088316BE00790856
:1017F000BD007808BC007708BB003E08C2003D0869
:10180000C1003C08C0003B08BF00C601C501C401BF
:101810008D30C3008312C3227A088316B80079087A
:10182000B7007808B6007708B5003508F700360825
:10183000F8003708F9003808FA00831208008E30E3
:10184000F70083163808F8003708F900FA01F8089D
:10185000031D342C7908F800F9010830F702F80864
:10186000031D342CF7013C2C0310F81B3B2CF90D05
:10187000F80DF703342CF8138312080083162F0891
:10188000C9002E08C8002D08C7002C08C60027086C
:10189000CD002608CC002508CB002408CA008A11F8
:1018A000831296238A157A088316BB007908BA003A
:1018B0007808B9007708B8002908FA0028088400D9
:1018C000831329188317CB010408CA004B10831B0C
:1018D0004B1483100008CC00840A0008CD00840A51
:1018E0000008CE00840A0008CF002708D30026088D
:1018F000D2002508D1002408D0008A118312CC25FB
:101900008A1583164A08840083134B1883177708B7
:101910008000840A78088000840A79088000840A9C
:101920007A08800028088400831329188317000888
:10193000F700840A0008F800840A0008F900840A05
:101940000008FA003308C9003208C8003108C7008F
:101950003008C6007A08CD007908CC007808CB00A2
:101960007708CA008A11831296238A157A0883168B
:10197000BF007908BE007808BD007708BC002A08BF
:10198000840083132B1883170008F700840A0008CB
:10199000F800840A0008F900840A0008FA00C5016A
:1019A0000408C4004510831B451483142708CF0086
:1019B0002608CE002508CD002408CC007A08D300E4
:1019C0007908D2007808D1007708D0008A118312F4
:1019D000CC258A1583164408840083134518831781
:1019E0003708C9003608C8003508C7003408C600E3
:1019F0007A08CD007908CC007808CB007708CA00B7
:101A00008A11831296238A157A088316C3007908EF
:101A1000C2007808C1007708C0002A088400831338
:101A20002B18831724088000840A25088000840A64
:101A300026088000840A2708800083103B08CF0016
:101A40003A08CE003908CD003808CC003F08D30052
:101A50003E08D2003D08D1003C08D0008A11831214
:101A6000CC258A157A088316C7007908C60078083D
:101A7000C5007708C40083104708CF004608CE0091
:101A80004508CD004408CC004308D3004208D200EA
:101A90004108D1004008D0008A118312CC258A1554
:101AA0000800831636083402BE003508BF00370828
:101AB000031C370FBF023A083C02F7003D08FA004A
:101AC0003B08031C3B0FFA027708C0007A08C100EC
:101AD0003F08C3003E08C2004108C5004008C400DA
:101AE0001030C600F701FA01C30CC20C031C7E2D96
:101AF0004408F7070318FA0A4508FA07FA0CF70C26
:101B0000F90CF80CC60B742D7908BF007808BE00DC
:101B100036083802F7003908FA003708031C370F77
:101B2000FA027708C0007A08C1003F08C3003E08E7
:101B3000C2004108C5004008C400F801F901F701DE
:101B4000FA014508031DA72D44080319C12D1030C3
:101B5000C6000310C20DC30DF70DFA0D45087A0239
:101B6000031DB42D44087702031CBD2D4408F70261
:101B7000031CFA034508FA020314F80DF90DC60B0D
:101B8000A92D7908BF007808BE003A083E07F80082
:101B90003F08FA003B0803183B0FFA077A08F900E0
:101BA000831208008316B5013308B400B701B601EB
:101BB000B901B430B800BB010B30BA00BD01303000
:101BC000BC00831251257808AE0008008316B501C9
:101BD0003308B400B701B601B901B430B800BB0195
:101BE0000B30BA00BD013030BC008312512578089B
:101BF000AF00080083163808BF003C08BF06BF1FAF
:101C0000062E03110310B81B0314392E3808BF0029
:101C10003B08C0003708C0020319142EBF1F392E1D
:101C20000308013A8300392E3C08C0003808C0027E
:101C30000319202EBF1F392E0308013A8300392EC5
:101C40003D08C0003908C00203192C2EBF1F392ED1
:101C50000308013A8300392E3E08C0003A08C0024A
:101C60000319382EBF1F392E0308013A8300392E7D
:061C7000031083120800BE
:1020000083162408B0002508B1003210B21032182F
:1020100028290A128A1583128F230A168A117A0830
:102020008316A9007908A8007808A7007708A600F9
:102030002908C9002808C8002708C7002608C600C4
:10204000CD01CC014830CB008530CA000A12831282
:1020500096230A167A088316B6007908B500780820
:10206000B4007708B3000A128312DE270A16780834
:102070008316AE008310831247088316CF008312A5
:1020800046088316CE00831245088316CD008312BE
:1020900044088316CC00D301D201D1018030D00096
:1020A0000A128312CC250A167A088316B60079081C
:1020B000B5007808B4007708B300B8012E08B7005F
:1020C0000A128A1583121F240A168A1183163608EB
:1020D000BA003508B9003408B8003308B7007A08E8
:1020E000BE007908BD007808BC007708BB000A1262
:1020F0008A158312FA250A168A11031C9028831662
:10210000B00A3008B3000A128A158312D2250A16C3
:102110008A1148088316BA000A128312BD200A16D3
:10212000831447088316CF00831246088316CE0017
:10213000831245088316CD00831244088316CC0011
:10214000D301D201D1018030D0000A128312CC25F4
:102150000A167A088316B6007908B5007808B40024
:102160007708B300B8012E08B7000A128A15831247
:102170001F240A168A117A088316BA007908B90052
:102180007808B8007708B7003608BE003508BD00EB
:102190003408BC003308BB000A128A158312FA25E2
:1021A0000A168A11031CE6288316B0033008B30010
:1021B0000A128A158312D2250A168A114808831634
:1021C000BA000A128312BD200A16E92883163214B7
:1021D000831201308316BA00BB000A128312582200
:1021E0000A16843003178D0000308F00031005306D
:1021F00083160313B3000A1283121C230A168316D4
:102200002E08B3001830B4000A12831269250A168A
:10221000873003178D0000308F00031406308316BB
:102220000313B3000A1283121C230A1683162F0805
:10223000B3001830B4000A12831269250A16C83098
:102240008316BA000A128312BD200A1683160728C5
:10225000B2184A2A0A128A158312D7230A168A113B
:102260007A088316AD007908AC007808AB007708CF
:10227000AA002D08C9002C08C8002B08C7002A088E
:10228000C600CD01CC014830CB008530CA000A120F
:10229000831296230A167A088316B6007908B500C9
:1022A0007808B4007708B3000A128312DE270A16F2
:1022B00078088316AF008310831247088316CF0077
:1022C000831246088316CE00831245088316CD007C
:1022D000831244088316CC00D301D201D10180308F
:1022E000D0000A128312CC250A167A088316B6008B
:1022F0007908B5007808B4007708B300B8012F0852
:10230000B7000A128A1583121F240A168A1183162F
:102310003608BA003508B9003408B8003308B700E9
:102320007A08BE007908BD007808BC007708BB00B9
:102330000A128A158312FA250A168A11031CB22979
:102340008316B10A3108B3000A128A158312E625F2
:102350000A168A1148088316BA000A128312BD2091
:102360000A160B2A831447088316CF0083124608E7
:102370008316CE00831245088316CD0083124408CD
:102380008316CC00D301D201D1018030D0000A12D3
:102390008312CC250A167A088316B6007908B50090
:1023A0007808B4007708B300B8012F08B7000A1204
:1023B0008A1583121F240A168A117A088316BA0016
:1023C0007908B9007808B8007708B7003608BE0069
:1023D0003508BD003408BC003308BB000A128A155A
:1023E0008312FA250A168A11031C082A8316B103E0
:1023F0003108B3000A128A158312E6250A168A11DB
:1024000048088316BA000A128312BD200A160B2A46
:102410008316B214831201308316BA00BB000A126D
:10242000831258220A168C3003178D0000308F005B
:102430000310053083160313B3000A1283121C2302
:102440000A1683162E08B3001830B4000A1283123D
:1024500069250A168F3003178D0000308F00031492
:10246000063083160313B3000A1283121C230A16C4
:1024700083162F08B3001830B4000A12831269259E
:102480000A16C8308316BA000A128312BD200A1633
:102490008316282983128A110A169B2C03081F39D8
:1024A0008300FF30AB00AD01AC01BB01BA01B90143
:1024B0007F30B800BF01BE01BD01BC01C301C20134
:1024C000C101C001C701C601C501C401F430C80083
:1024D000CC01CB012030CA008130C900CD30D00002
:1024E000CC30CF004C30CE007C30CD00D401D301B5
:1024F000D201D101D801D701D601D501DC01DB0120
:10250000DA01D901E001DF01DE01DD0183161F14CC
:102510009F141F159F1107309C0083130A1283120A
:102520003C290A160A12302A0A160A124A2A0A16E0
:10253000B03003178D0000308F000A120313A62A53
:102540000A168316061483120618B22A0A128A156E
:1025500000280A168A11C8308316BA000A1283129C
:10256000BD200A160A128A158F230A168A117A08C4
:10257000E4007908E3007808E2007708E1000A1235
:102580008A15D7230A168A117A08E8007908E70025
:102590007808E6007708E50064088316C90083120E
:1025A00063088316C800831262088316C70083126B
:1025B00061088316C600CD01CC014830CB008530C0
:1025C000CA000A12831296230A167A088316B600E6
:1025D0007908B5007808B4007708B3000A128312AE
:1025E000DE270A167808EB0068088316C9008312F4
:1025F00067088316C800831266088316C700831213
:1026000065088316C600CD01CC014830CB0085306B
:10261000CA000A12831296230A167A088316B60095
:102620007908B5007808B4007708B3000A1283125D
:10263000DE270A167808EC0001308316BA00BB00CA
:102640000A12831258220A16B63003178D00003082
:102650008F000310043083160313B3000A12831291
:102660001C230A166B088316B3001830B4000A1234
:10267000831269250A16B93003178D0000308F00C8
:102680000310043083160313B3000A1283121C23B1
:102690000A166C088316B3001830B4000A128312AD
:1026A00069250A168316B80183126B088316B700D2
:1026B0000A128A1583121F240A168A1183144708E6
:1026C0008316CF00831246088316CE008312450876
:1026D0008316CD00831244088316CC007A08D300F9
:1026E0007908D2007808D1007708D0000A12831246
:1026F000CC250A167A08F0007908EF007808EE0079
:102700007708ED008316B80183126C088316B700B2
:102710000A128A1583121F240A168A118314470885
:102720008316CF00831246088316CE008312450815
:102730008316CD00831244088316CC007A08D30098
:102740007908D2007808D1007708D0000A128312E5
:10275000CC250A167A08F4007908F3007808F2000C
:102760007708F10070088316A70083126F0883169C
:10277000A60083126E088316A50083126D088316C7
:10278000A400A9015130A800AB015930AA0083125E
:102790003B088316AF0083123A088316AE008312FB
:1027A00039088316AD00831238088316AC008312F3
:1027B0003F088316B30083123E088316B2008312CB
:1027C0003D088316B10083123C088316B0008312C3
:1027D00043088316B700831242088316B60083129B
:1027E00041088316B500831240088316B4000A120C
:1027F0008A1583123E240A168A117A08FE00790887
:10280000FD007808FC007708FB0074088316A70019
:102810007308A6007208A5007108A400A90155302C
:10282000A800AB015D30AA0083123B088316AF00FD
:1028300083123A088316AE00831239088316AD005E
:10284000831238088316AC0083123F088316B30046
:1028500083123E088316B20083123D088316B1002E
:1028600083123C088316B000831243088316B70016
:10287000831242088316B600831241088316B500FE
:10288000831240088316B4000A128A1583123E246C
:102890000A168A117A088316A3007908A20078081C
:1028A000A1007708A0007E08B6007D08B5007C086E
:1028B000B4007B08B3000A128312DE270A167808D8
:1028C0005A3CE90083162308B6002208B500210807
:1028D000B4002008B3000A128312DE270A16780813
:1028E0005A3CEA0069088316B3000A128A1583125B
:1028F000D2250A168A1148088316BA000A128312D2
:10290000BD200A166A088316B3000A128A158312BC
:10291000E6250A168A1148088316BA000A1283129D
:10292000BD200A1669088316A40083126A0883165C
:0A293000A50083120028A12A63000D
:02400E003A3F37
:00000001FF
;PIC16F877A
;CRC=83B7  CREATED="18-nov.-24 17:53"
