:1000000008308A0000280000FF00030E8301A100D1
:100010000A08A0008A010408A2007708A300780853
:10002000A4007908A5007A08A60003170D08031399
:10003000A70003170F080313A80003170C080313E6
:10004000A90003170E080313AA00831383128B1E43
:100050002B280B194C28220884002308F7002408B9
:10006000F8002508F9002608FA00270803178D0074
:100070000313280803178F000313290803178C00A4
:1000800003132A0803178E00031320088A00210E89
:100090008300FF0E7F0E09008A110A124F280130DB
:1000A000AC070318AD0A2D08003C03186028FF3A7E
:1000B000031D5E282C08813C03186028AD01AC01AB
:1000C000AD08031D6C282E082C0203186C2883161B
:1000D000051083120514702883160510831205106D
:1000E000AD08031D7C282F082C0203187C288316DA
:1000F000851083128514802883168510831285103D
:100100000B118A110A122B28C2244527D622CE248D
:10011000C42700008C20781D2532A020791D2532AF
:1001200000008C20781D2532A020791D2532000189
:100130008C20781D2532A020791D253200004B30FF
:100140008400831300080319B2280630F800F70171
:10015000F70BA828F80BA7287B30F700F70BAE2881
:10016000800BA5280800520EF039F7000F30080563
:1001700077048800000008140230F700F70BBE284F
:10018000C1280000081008000808F700080E0F3901
:10019000F8000800831608108810081183128810D0
:1001A0000F3083160805F038880083120815000008
:1001B00008140000C4207808D200081000000814B9
:1001C000E128E2280000C4207808D10008100F3090
:1001D0008316080588008312520EF700F030F705E9
:1001E00077085104F8007808D100D11BD0284F1CA3
:1001F00088104F1888140000081100000810500ED5
:10020000D1000F30D1055108D200B32050080F396A
:10021000D100D200B32008002830C5000C30C60041
:100220000130C7000630C8000810881008110F30D0
:100230008316080588000810881008110F308312F3
:10024000CB009F200130C4004408033C031C30292C
:100250000330D200B3200530CB009F20C40A2429EC
:100260000230D200B3200530CB009F20C4014408E7
:10027000033C031C472945304407840083130008CE
:10028000C900CF014908D000CA20C40A37298A15FD
:100290000A1212280830F8000430F700F70B4E2934
:1002A0008711AB112B08831687000330F700F70B7B
:1002B00057298312CD0D0712031C64292B162B0816
:1002C00083168700682983122B122B088316870058
:1002D00000008312AB152B08831687008312871D3D
:1002E0006F29F80B4C290430F700F70B752987119B
:1002F000AB112B0883168700000083122B162B08E6
:10030000831687000330F700F70B84290330F700CA
:10031000F70B88298312AB152B08831687008312ED
:10032000871D9029F8010330F700F70B9529071A6C
:1003300078148711AB112B088316870083120712DC
:100340002B122B0883168700831208002B162B080C
:10035000831687000430F700F70BAC298312AB1526
:100360002B08831687000330F700F70BB52983129B
:1003700007122B122B08831687000430F700F70BA7
:10038000BF2983128711AB112B0883168700D03049
:100390008312CD004A214408CD004A214508CD00F2
:1003A0004A212B122B088316870000008312AB15FD
:1003B0002B08831687008312871DDC290430F70081
:1003C000F70BE029E32900002B162B088316870082
:1003D0000430F700F70BEA29831208006B30C400E1
:1003E000C501A6216430CB009F201930C40007301E
:1003F000C500A6216430CB009F208A150A1215285B
:1004000083160108C7390838810083128B16C03063
:100410008B04E63081008A150A1218284C0B112A29
:10042000142A4030CD00152ACD0101304B02CD07F2
:100430004D088038CE00CF014E08D000CA200800F9
:100440004A08073A03192E2A0B3A0319332A063AA7
:1004500003193B2A023A0319412A462A0130CB00EC
:10046000CC000E224B2ACF010130D000CA2002302E
:10047000CB009F204B2A0130CB000230CC000E2253
:100480004B2ACF011030D000CA204B2A0130CF00B8
:100490004A08D000CA2008000B08C4008B1383163A
:1004A00003178C170C140000000083120313C41BE5
:1004B0008B1703170C087F390319A02A0313C400F4
:1004C00003170D080313C50003170F080313C60015
:1004D0004408CA002022450803178D00031346086C
:1004E00003178F0003130B08C7008B138316031722
:1004F0008C170C140000000083120313C71B8B170A
:1005000003170C0D0E0D7F390319A02A0313C40025
:1005100003170D080313C50003170F080313C600C4
:100520004408CA002022450803178D00031346081B
:1005300003178F008D0A03198F0A03134C2A031720
:1005400003138A150A1221282B162B0883168700FD
:100550000430F700F70BAA2A8312AB152B08831679
:1005600087000330F700F70BB32A831207122B1210
:100570002B08831687000430F700F70BBD2A83127F
:100580008711AB112B0883168700D0308312CD0062
:100590004A214B08CD004A212B162B0883168700D1
:1005A0000430F700F70BD22A8312AB152B08831601
:1005B00087000330F700F70BDB2A8312871DDE2A42
:1005C00007122B122B08831687000430F700F70B55
:1005D000E72A83128711AB112B0883168700D130CD
:1005E0008312CD004A21F7010830CE007708CF00F2
:1005F0002B162B08831687000330F700F70BFE2A13
:100600008312AB152B08831687008312871D062BD8
:10061000071A0314071E0310F80D0430F700F70B38
:100620000F2BAB112B088316870083128711CE0B7B
:10063000F82A2B162B08831687000330F700F70BD8
:100640001F2B831207124F0803192B2B2B122B0879
:100650008316870083120000AB152B0883168700D2
:100660008312871D312B0430F700F70B352B8711D0
:10067000AB112B08831687000330F700F70B3E2BD6
:10068000831207122B122B08831687007808831217
:10069000CC002B122B088316870000008312AB15A9
:1006A0002B08831687008312871D542B0430F70014
:1006B000F70B582B5B2B00002B162B08831687009B
:1006C0000430F700F70B622B83124C08F800080087
:1006D0008E30F7004D08F8004C08F900FA01CD1FE4
:1006E000762BF809F909F90A0319F80AF808031D25
:1006F000832B7908F800F9010830F702F808031D88
:10070000832BF7018C2B0310F81B8A2BF90DF80DA6
:10071000F703832BCD1FF813080050080319522C40
:10072000DC0054080319522CDC02031C9C2B7F3084
:10073000DC070318522CA22B8130DC02031C522C44
:100740000319522C5C08F700F801F901FA01DB01EA
:100750005108DA00DA175208D9005308D8001930C6
:10076000DC005708D8020318C52B0130D902031842
:10077000C52BDA020318C52BDB020318C52BDB0AD5
:10078000DA0AD90A5708D807F72B5608D9020318EE
:10079000E02B0130DA020318E02BDB020318E02B18
:1007A000DB0ADA0A5608D9075708D807031CF72BC3
:1007B000D90A031DF72BDA0A031DF72BDB0AF72BE7
:1007C00055088038DA020318F62B0130DB020318D3
:1007D000F62BDB0A55088038DA075608D907031CC0
:1007E000D42BDA0A031DD42BDB0AD42B7A14DC0BAE
:1007F000FA2B052C0310D80DD90DDA0DDB0D0310E3
:10080000FA0DF90DF80DDD0DB12B5D1C0D2C03104B
:10081000F80CF90CFA0CDD0C102CF7030319522C10
:10082000DD1B392C0310D80DD90DDA0DDB0D57085F
:10083000D8020318252C0130D9020318252CDA021E
:100840000318252CDB02031C482C5608D902031878
:10085000302C0130DA020318302CDB02031C482C48
:1008600055088038DA020318392C0130DB02031CEA
:10087000482CFA0A031D482CF90A031D482CF80AD3
:10088000031D482CF70A0319522CF80CF90CFA0C2A
:100890005108DC005508DC06DC1F502CF817562CDC
:1008A000F813562CF701F801F901FA0108003B3062
:1008B000CB00A4227808CA003C30CB00A4227808E0
:1008C000CB004A08C5007808C4004508CD0044089C
:1008D000CC0068237A08CF007908CE007808CD00D4
:1008E0007708CC007A08D3007908D2007808D100C4
:1008F0007708D000D701D601D5018D30D4008D23E3
:100900007A08C9007908C8007808C7007708C600C7
:100910004608F7004708F8004808F9004908FA00B7
:1009200008003D30CB00A4227808CA003E30CB003E
:10093000A4227808CB004A08C5007808C4004508FE
:10094000CD004408CC0068237A08CF007908CE0097
:100950007808CD007708CC007A08D3007908D20057
:100960007808D1007708D000D701D601D5018D30A5
:10097000D4008D237A08C9007908C8007808C70018
:100980007708C6004608F7004708F8004808F9004D
:100990004908FA000800440803193B2DCC00480818
:1009A00003193B2DCC070318DC2C7F30CC02031C31
:1009B0003B2D03193B2DE02C8130CC0703183B2D38
:1009C0004C08F700F801F901FA014508D000D017EA
:1009D0004608CF004708CE001830CC00CD014E1C91
:1009E000092D4B08FA07031CFB2CF90A031DFB2CED
:1009F000F80A0319CD174A08F907031C022DF80A53
:100A00000319CD174908C600C6174608F80703188A
:100A1000CD17CD0DF80CF90CFA0CD00CCF0CCE0C78
:100A20000310CC0BEE2C0130F70703183B2DF81BFD
:100A3000202DD00DFA0DF90DF80DF70303193B2DFC
:100A4000D01F312DFA0A031D312DF90A031D312D56
:100A5000F80A031D312DF80CF90CFA0CF70A0319EA
:100A60003B2D4508CD004908CD06CD1F392DF8177F
:100A70003F2DF8133F2DF701F801F901FA010800A5
:100A80008E30F7004408F7024508F9004608F800E0
:100A9000F917F7080319572D0310F908031D532DF3
:100AA000F8080319572DF90CF80CF70B4C2DC51F3E
:100AB0005E2DF809F909F80A0319F90A08000B086C
:100AC000C5008B13831603178C170C14000000004D
:100AD00083120313C51B8B170318962D03170C08DD
:100AE0007F390313C50003170D080313C60003174E
:100AF0000F080313C7004508CA0020224608031741
:100B00008D000313470803178F0003130B08C80059
:100B10008B13831603178C170C140000000083122C
:100B20000313C81B8B17C40B962DB52D03170C0D83
:100B30000E0D7F390313C50003170D080313C600FC
:100B400003170F080313C7004508CA0020224608F0
:100B500003178D000313470803178F008D0A03192D
:100B60008F0A03100313C40B5F2D08004B08F80114
:100B70004A020318BE2D4A08F700CA2DF7010830B3
:100B8000CC00CA0DF70D4B0877020318F700F80DDB
:100B9000CC0BC12D08002030451E3030C600440863
:100BA000F700C41FDB2DF709F70A7708C4002D30C2
:100BB000C600C51745144408CA006430CB00B625EA
:100BC0007708C40030307807C7004408CA000A30EC
:100BD000CB00B62530307707C90030307807C80021
:100BE0004608F700303047020319FA2DC514C51B1B
:100BF00045150E2E4608C7002030C600303048028A
:100C00000319062E4514C51BC5140E2E031D4514CD
:100C1000031D0E2E4708C8002030C7004519152EA9
:100C2000C518182E45181B2E1E2E4608CA00202255
:100C30004708CA0020224808CA0020224908CA00E2
:100C40002022080047084502CF004608D000480887
:100C5000031C480FD0024B084D02F7004E08FA0063
:100C60004C08031C4C0FFA027708D1007A08D20016
:100C70005008D4004F08D3005208D6005108D500C0
:100C80001030D700F701FA01D40CD30C031C4E2E00
:100C90005508F7070318FA0A5608FA07FA0CF70C72
:100CA000F90CF80CD70B442E7908D0007808CF0047
:100CB00047084902F7004A08FA004808031C480F91
:100CC000FA027708D1007A08D2005008D4004F0801
:100CD000D3005208D6005108D500F801F901F701F8
:100CE000FA015608031D772E55080319912E10306E
:100CF000D7000310D30DD40DF70DFA0D56087A0264
:100D0000031D842E55087702031C8D2E5508F7020B
:100D1000031CFA035608FA020314F80DF90DD70B59
:100D2000792E7908D0007808CF004B087807F800B2
:100D30007908FA004C0803184C0FFA077A08F900F2
:100D40000800C6014408C500C801C701CA01B43083
:100D5000C900CC010B30CB00CE013030CD002226B3
:100D60007808AE000800C6014408C500C801C701E4
:100D7000CA01B430C900CC010B30CB00CE013030F9
:0A0D8000CD0022267808AF0008001D
:1010000003081F398300FF30AB00AD01AC0183162C
:101010001F149F141F159F1107309C0083138A1102
:1010200083120C298A158A11EE298A158A11002A41
:101030008A15843003178D0000308F008A11031346
:101040004C2A8A158A1157248A157A08BB00790818
:10105000BA007808B9007708B8008A1191248A1577
:101060007A08BF007908BE007808BD007708BC0088
:101070003B08C7003A08C6003908C5003808C40054
:10108000CB01CA014830C9008530C8008A11CB2481
:101090008A157A08C7007908C6007808C50077085D
:1010A000C4008A1140258A157808C2003F08C7008D
:1010B0003E08C6003D08C5003C08C400CB01CA017B
:1010C0004830C9008530C8008A11CB248A157A08B7
:1010D000C7007908C6007808C5007708C4008A11DF
:1010E00040258A157808C3000130CB00CC008A1156
:1010F0000E228A158A3003178D0000308F000310EE
:1011000004300313C4008A115F258A154208C40005
:101110001830C5008A11CB258A158D3003178D0034
:1011200000308F00031004300313C4008A115F25C0
:101130008A154308C4001830C5008A11CB258A15CA
:101140004208023C0318A8285A304207C000AA28C7
:101150005A30C0004308023C0318B2285A304307F3
:10116000C100B4285A30C1004008C4008A11A12629
:101170008A150230C400FA30CB008A119F208A15EC
:10118000C40BBB284108C4008A11B3268A1502305B
:10119000C400FA30CB008A119F208A15C40BC928DD
:1011A0004208023C031838294208023C031CC003D1
:1011B0004008C4008A11A1268A153230CB008A115A
:1011C0009F208A158A1157248A157A08BB0079084E
:1011D000BA007808B9007708B8003B08C7003A0899
:1011E000C6003908C5003808C400CB01CA01483020
:1011F000C9008530C8008A11CB248A157A08C70037
:101200007908C6007808C5007708C4008A1140250F
:101210008A157808C2000130CB00CC008A110E225A
:101220008A15913003178D0000308F0003100430B1
:101230000313C4008A115F258A154208C4001830C0
:10124000C5008A11CB258A15943003178D00003014
:101250008F00031004300313C4008A115F258A1520
:101260004308C4001830C5008A11CB258A15D02840
:101270004308023C0318A0294308023C031CC10395
:101280004108C4008A11B3268A153230CB008A1176
:101290009F208A158A1191248A157A08BF0079083F
:1012A000BE007808BD007708BC003F08C7003E08B4
:1012B000C6003D08C5003C08C400CB01CA01483047
:1012C000C9008530C8008A11CB248A157A08C70066
:1012D0007908C6007808C5007708C4008A1140253F
:1012E0008A157808C3000130CB00CC008A110E2289
:1012F0008A15983003178D0000308F0003100430DA
:101300000313C4008A115F258A154208C4001830EF
:10131000C5008A11CB258A159B3003178D0000303C
:101320008F00031004300313C4008A115F258A154F
:101330004308C4001830C5008A11CB258A15382906
:0413400022286300FC
:02400E003A3F37
:00000001FF
;PIC16F877A
;CRC=94EB  CREATED="18-nov.-24 14:34"
