:100000000D308A00B82D0000FF00030E8301A1000F
:100010000A08A0008A010408A2007708A300780853
:10002000A4007908A5007A08A60003170D08031399
:10003000A70003170F080313A80003170C080313E6
:10004000A90003170E080313AA00831383120B1EC3
:100050002B288B1850288B1E2F280B195328220869
:1000600084002308F7002408F8002508F900260872
:10007000FA00270803178D000313280803178F00C1
:100080000313290803178C0003132A0803178E0093
:10009000031320088A00210E8300FF0E7F0E090043
:1000A0008A110A128B288A110A1256280130AC07CD
:1000B0000318AD0A2D08003C03186728FF3A031DFA
:1000C00065282C08813C03186728AD01AC01AD08F8
:1000D000031D73282E082C0203187328831605109D
:1000E0008312051477288316051083120510AD08B6
:1000F000031D83282F082C020318832883168510DC
:1001000083128514872883168510831285100B119E
:100110008A110A122F288B108A110A122F28C22442
:100120004527D622CE24C42700008C20781D2532F6
:10013000A020791D25320000A5308400831300081B
:100140000319AF280630F800F701F70BA528F80BC4
:10015000A4287B30F700F70BAB28800BA2280800FF
:1001600083162C0EF039F7000F3083120805770440
:100170008800000008140230F700F70BBD28C028E3
:100180000000081008000808F700080E0F39F800F2
:1001900008008316081088100811831288100F3089
:1001A00083160805F038880083120815000008142B
:1001B0000000C32078088316AC00831208100000EA
:1001C0000814E228E3280000C32078088316AB0057
:1001D000831208100F308316080588002C0EF700D4
:1001E000F030F70577082B04F8007808AB00AB1F58
:1001F000FB288312CF282918002983128810831620
:10020000291C052983128814831600008312081103
:100210000000081083162A0EAB000F30AB052B0828
:10022000AC008312B02083162A080F39AB00AC0053
:100230008312B020080028308316A0000C30A100E3
:100240000130A2000630A3008312081088100811A4
:100250000F308316080588000810881008110F3029
:10026000A50083129C200130FB007B08033C031C8B
:10027000452903308316AC008312B0200530831665
:10028000A50083129C20FB0A352902308316AC009E
:100290008312B02005308316A50083129C20FB0139
:1002A0007B08033C031C6229A0307B078400831376
:1002B0000008FC008316A9017C08AA008312C9204B
:1002C000FB0A50298A150A12192E0830F80004304A
:1002D000F700F70B69298711AB112B0883168700EC
:1002E0000330F700F70B7229A70D83120712031CC6
:1002F0007F292B162B0883168700832983122B1244
:100300002B088316870000008312AB152B08831679
:1003100087008312871D8A29F80B67290430F700AC
:10032000F70B90298711AB112B088316870000006B
:1003300083122B162B08831687000330F700F70B68
:100340009F290330F700F70BA3298312AB152B0865
:10035000831687008312871DAB29F8010330F7004D
:10036000F70BB029071A78148711AB112B088316E5
:100370008700831207122B122B0883168700831223
:1003800008002B162B08831687000430F700F70BA4
:10039000C7298312AB152B08831687000330F7009B
:1003A000F70BD029831207122B122B088316870014
:1003B0000430F700F70BDA2983128711AB112B08F1
:1003C00083168700D030A700831265217B0883162F
:1003D000A700831265217C088316A700831265217C
:1003E0002B122B088316870000008312AB152B08F5
:1003F000831687008312871DFB290430F700F70B53
:10040000FF29022A00002B162B08831687000430D0
:10041000F700F70B092A831208006B30FB00FC0180
:10042000C12164308316A50083129C201930FB0083
:100430000730FC00C12164308316A50083129C2084
:100440008A150A121C2E83160108C7390838810044
:1004500083128B16C0308B04E63081008A150A1295
:100460001F2E8316260B352A382A4030A700392A3A
:10047000A70101302502A70727088038A800A90195
:100480002808AA008312C920080083162408073A06
:1004900083120319552A0B3A03195C2A063A0319E9
:1004A000682A023A0319702A772A01308316A500B8
:1004B000A600831231227E2A8316A9010130AA00E8
:1004C0008312C92002308316A50083129C207E2A45
:1004D00001308316A5000230A600831231227E2A45
:1004E0008316A9011030AA008312C9207E2A013088
:1004F0008316A9002408AA008312C92008000B084B
:10050000FB008B13831603178C170C1400000000DC
:10051000FB1F8F2A831203138B1783160317831273
:100520000C087F390319D12AFB000D08FC000F08C5
:10053000FD007B0883160313A400831245227C0868
:1005400003178D007D088F0003130B08FE008B132B
:10055000831603178C170C1400000000FE1FB52A29
:10056000831203138B178316031783120C0D0E0DC2
:100570007F390319D12AFB000D08FC000F08FD008C
:100580007B0883160313A400831245227C080317FB
:100590008D007D088F008D0A03198F0A03137F2AAF
:1005A000031703138A150A122E2E2B162B088316F7
:1005B00087000430F700F70BDB2A8312AB152B08FA
:1005C000831687000330F700F70BE42A8312071223
:1005D0002B122B08831687000430F700F70BEE2A46
:1005E00083128711AB112B0883168700D030A70028
:1005F0008312652183162508A700831265212B1617
:100600002B08831687000430F700F70B052B8312A5
:10061000AB152B08831687000330F700F70B0E2B62
:100620008312871D112B07122B122B0883168700AC
:100630000430F700F70B1A2B83128711AB112B082C
:1006400083168700D130A70083126521F701083097
:100650008316A8007708A90083122B162B0883168F
:1006600087000330F700F70B332B8312AB152B08F1
:10067000831687008312871D3B2B071A0314071E5E
:100680000310F80D0430F700F70B442BAB112B08C7
:1006900083168700831287118316A80B2C2B8312D5
:1006A0002B162B08831687000330F700F70B562B09
:1006B00083120712831629080319632B83122B1246
:1006C0002B088316870000008312AB152B088316B6
:1006D00087008312871D6A2B0430F700F70B6E2BFF
:1006E0008711AB112B08831687000330F700F70B37
:1006F000772B831207122B122B088316870078089A
:10070000A60083122B122B08831687000000831289
:10071000AB152B08831687008312871D8D2B0430A1
:10072000F700F70B912B942B00002B162B08831648
:1007300087000430F700F70B9B2B2608F800831284
:1007400008008E30F70083162708F8002608F90005
:10075000FA01A71FB02BF809F909F90A0319F80AD9
:10076000F808031DBD2B7908F800F9010830F702DD
:10077000F808031DBD2BF701C62B0310F81BC42B73
:10078000F90DF80DF703BD2BA71FF813831208000E
:1007900083162A0803198E2CB6002E0803198E2CF6
:1007A000B602031CD82B7F30B60703188E2CDE2B25
:1007B0008130B602031C8E2C03198E2C3608F700EC
:1007C000F801F901FA01B5012B08B400B4172C089F
:1007D000B3002D08B2001930B6003108B202031878
:1007E000012C0130B3020318012CB4020318012CB0
:1007F000B5020318012CB50AB40AB30A3108B207CE
:10080000332C3008B30203181C2C0130B402031837
:100810001C2CB50203181C2CB50AB40A3008B30707
:100820003108B207031C332CB30A031D332CB40A5E
:10083000031D332CB50A332C2F088038B40203185B
:10084000322C0130B5020318322CB50A2F0880383B
:10085000B4073008B307031C102CB40A031D102C76
:10086000B50A102C7A14B60B362C412C0310B20D9D
:10087000B30DB40DB50D0310FA0DF90DF80DB70D4C
:10088000ED2B371C492C0310F80CF90CFA0CB70CA3
:100890004C2CF70303198E2CB71B752C0310B20DCB
:1008A000B30DB40DB50D3108B2020318612C01303F
:1008B000B3020318612CB4020318612CB502031CA7
:1008C000842C3008B30203186C2C0130B4020318D6
:1008D0006C2CB502031C842C2F088038B40203183A
:1008E000752C0130B502031C842CFA0A031D842CDC
:1008F000F90A031D842CF80A031D842CF70A031936
:100900008E2CF80CF90CFA0C2B08B6002F08B60642
:10091000B61F8C2CF817922CF813922CF701F801C3
:10092000F901FA01831208003B308316A5008312F7
:10093000D52278088316A4003C30A5008312D52266
:1009400078088316A5002408FC002508FB007C0815
:10095000A7007B08A6008312A1237A088316A900AA
:100960007908A8007808A7007708A6002908AD0034
:100970002808AC002708AB002608AA00B101B00186
:10098000AF018D30AE008312C8237A088316A3000E
:100990007908A2007808A1007708A0002008F700D5
:1009A0002108F8002208F9002308FA0083128A15AA
:1009B0000A12312E3D308316A5008312D522780805
:1009C0008316A4003E30A5008312D5227808831632
:1009D000A5002408FC002508FB007C08A7007B0874
:1009E000A6008312A1237A088316A9007908A8001B
:1009F0007808A7007708A6002908AD002808AC00F1
:100A00002708AB002608AA00B101B001AF018D3064
:100A1000AE008312C8237A088316A3007908A200C7
:100A20007808A1007708A0002008F7002108F80046
:100A30002208F9002308FA0083128A150A123C2EB4
:100A4000831638080319912DC0003C080319912D15
:100A5000C0070318322D7F30C002031C912D0319EB
:100A6000912D362D8130C0070318912D4008F700D5
:100A7000F801F901FA013908C400C4173A08C300A3
:100A80003B08C2001830C000C101421C5F2D3F0866
:100A9000FA07031C512DF90A031D512DF80A0319F9
:100AA000C1173E08F907031C582DF80A0319C1178E
:100AB0003D08BA00BA173A08F8070318C117C10D64
:100AC000F80CF90CFA0CC40CC30CC20C0310C00BCC
:100AD000442D0130F7070318912DF81B762DC40D16
:100AE000FA0DF90DF80DF7030319912DC41F872D89
:100AF000FA0A031D872DF90A031D872DF80A031D25
:100B0000872DF80CF90CFA0CF70A0319912D390806
:100B1000C1003D08C106C11F8F2DF817952DF81390
:100B2000952DF701F801F901FA01831208008E30C2
:100B3000F70083162408F7022508F9002608F800B4
:100B4000F917F7080319AF2D0310F908031DAB2D92
:100B5000F8080319AF2DF90CF80CF70BA42DA51FFD
:100B6000B62DF809F909F80A0319F90A83120800E1
:100B70000B088316A00083128B13831603178C17A0
:100B80000C14000000000313A01FC92D83128B1743
:100B900083160318022E831203170C087F3983165D
:100BA0000313A000831203170D0883160313A1007B
:100BB000831203170F0883160313A2002008A40052
:100BC0008312452283162108831203178D00831692
:100BD00003132208831203178F0003130B088316D5
:100BE000A30083128B13831603178C170C140000B9
:100BF00000000313A31FFF2D83128B178316FD0B19
:100C0000022E302E831203170C0D0E0D7F39831622
:100C10000313A000831203170D0883160313A1000A
:100C2000831203170F0883160313A2002008A400E1
:100C30008312452283162108831203178D00831621
:100C400003132208831203178F008D0A03198F0ADA
:100C50000310FD0B2C2E2E2E0313B82D8316031319
:100C60008312080083162508F801240203183B2E7E
:100C70002408F700472EF7010830A600A40DF70D51
:100C8000250877020318F700F80DA60B3E2E8312F5
:100C9000080020307E1E30308316A0007D08F7004B
:100CA000FD1F5A2EF709F70A7708FD002D30A00026
:100CB000FE177E147D08A4006430A500831232263E
:100CC0007708FD00303078078316A1007D08A40066
:100CD0000A30A50083123226303077078316A3002E
:100CE00030307807A2002008F700303021020319C5
:100CF0007D2EFE14FE1B7E15912E2008A1002030B3
:100D0000A000303022020319892E7E14FE1BFE142F
:100D1000912E031D7E14031D912E2108A200203068
:100D2000A1007E19982EFE189D2E7E18A22EA72EA9
:100D30002008A4008312452283162108A4008312F0
:100D4000452283162208A400831245228316230815
:100D5000A4008312452208008030831CB22E831623
:100D6000BD0683128316C201C3013908C1003D08C4
:100D7000C10638080319A02FC000F7003C0803196A
:100D8000A92FC0020319452F031C032F3D08C600DD
:100D9000C6173E08C5003F08C400C3010310C60CB7
:100DA000C50CC40CC30CC00BCD2EC11FDA2E4214CF
:100DB000BD2F421040104216BB3084008313D22F47
:100DC0004212C11BED2E401CF82EC60CC50CC40CE3
:100DD000C30CF70A0319B82FF82EC61BFB2E0310FD
:100DE000C30DC40DC50DC60DF7030319B82FED2EA5
:100DF0004217652F42133908C100C11F012FC617C2
:100E0000B12FC613B12F3C08C000F7003808C0024C
:100E10003908C600C6173A08C5003B08C400C3011C
:100E20000310C60CC50CC40CC30CC00B0F2FC11F84
:100E30001C2FC214BD2FC2104010C216BF30840038
:100E40008313D22FC212C11B2F2F401C3A2FC60C66
:100E5000C50CC40CC30CF70A0319B82F3A2FC61BD4
:100E60003D2F0310C30DC40DC50DC60DF7030319A7
:100E7000B82F2F2FC217652FC2133D08C100C11F05
:100E8000432FC617B12FC613B12F3D08C600C61792
:100E90003E08C5003F08C400C11F522FC6134215AB
:100EA000BD2F4211C3014010BB3084008313D22FE9
:100EB000C11B7B2F3908C100401C652FC60CC50C17
:100EC000C40CC30CF70A0319B82FC31F762FC40A2A
:100ED000031D762FC50A031D762FC60A031D762F24
:100EE000C60CC50CC40CF70A0319B82F421BFA2E06
:100EF000C21B3C2F9A2F8030C606C61F832FBD2FE2
:100F00003D08C100902F3908C100C608031D902F6D
:100F1000C508031D902FC408031D902FF701B12FA2
:100F2000C61B9A2F0310C30DC40DC50DC60DF70BBC
:100F3000902FB82FC11F9E2FC617B12FC613B12FE8
:100F40003C08F7003D08C6003E08C5003F08C40045
:100F5000B12F3808F7003908C6003A08C5003B0829
:100F6000C4004608F8004508F9004408FA00F02FCC
:100F7000F701F801F901FA01F02FC301C409C5090D
:100F8000C609C309C30A031DCB2FC40A031DCB2FF7
:100F9000C50A0319C60A4218D92EC2181B2F4219B6
:100FA000512F802F0008C407031CDC2FC50A031D26
:100FB000DC2FC60A0319401484030008C507031C6C
:100FC000E42FC60A0319401484030008801F803AE6
:100FD000C60703184014421AE02EC21A222F582FB7
:040FE0008312080070
:1010000083163908C0003D08C006C01F0C28031114
:101010000310B91B03143F283908C0003C08C10065
:101020003808C10203191A28C01F3F280308013AD3
:1010300083003F283D08C1003908C1020319262852
:10104000C01F3F280308013A83003F283E08C10023
:101050003A08C10203193228C01F3F280308013A89
:1010600083003F283F08C1003B08C10203193E2806
:10107000C01F3F280308013A83003F280310831252
:10108000080083163708BB003608BA003508B900D7
:101090003408B800BF01BE01BD01BC0183120020AD
:1010A000031C5E2883163408F7003508803AF800E0
:1010B0003608F9003708FA006728831283163408C7
:1010C000F7003508F8003608F9003708FA008312EF
:1010D0000800831628082602B0002708B100290856
:1010E000031C290FB1022C082E02F7002F08FA006A
:1010F0002D08031C2D0FFA027708B2007A08B300FE
:101100003108B5003008B4003308B7003208B60023
:101110001030B800F701FA01B50CB40C031C962886
:101120003608F7070318FA0A3708FA07FA0CF70C1B
:10113000F90CF80CB80B8C287908B1007808B000CD
:1011400028082A02F7002B08FA002908031C290F97
:10115000FA027708B2007A08B3003108B500300807
:10116000B4003308B7003208B600F801F901F701FE
:10117000FA013708031DBF2836080319D928103093
:10118000B8000310B40DB50DF70DFA0D37087A024B
:10119000031DCC2836087702031CD5283608F70231
:1011A000031CFA033708FA020314F80DF90DB80B03
:1011B000C1287908B1007808B0002C083007F80081
:1011C0003108FA002D0803182D0FFA077A08F900E4
:1011D000831208007E088316A7007D08A6007C08FD
:1011E000A5007B08A4008314831253088316BB0058
:1011F000831252088316BA00831251088316B9006D
:10120000831250088316B8002708BF002608BE00C6
:101210002508BD002408BC008A118312AC268A155B
:101220007A088316AB007908AA007808A900770825
:10123000A8002B08B7002A08B6002908B50028081E
:10124000B400831241207A088316B7007908B600EB
:101250007808B5007708B4003708BB003608BA0034
:101260003508B9003408B80083126B088316BF0034
:1012700083126A088316BE00831269088316BD00B4
:10128000831268088316BC0083120020031C4E29B9
:101290008316AB01AA01A901A801831283105F087C
:1012A0008316BB0083125E088316BA0083125D08A2
:1012B0008316B90083125C088316B8002B08BF00A0
:1012C0002A08BE002908BD002808BC008A11831224
:1012D000AC268A157A08DF007908DE007808DD0080
:1012E0007708DC00831483162B08BB002A08BA0099
:1012F0002908B9002808B80083125B088316BF00CC
:1013000083125A088316BE00831259088316BD0043
:10131000831258088316BC008A118312AC268A15E2
:101320007A088316AF007908AE007808AD00770818
:10133000AC0083123B088316BB0083123A08831665
:10134000BA00831239088316B9008312380883164D
:10135000B8002B08BF002A08BE002908BD002808D5
:10136000BC008A11831220258A157A088316B700DB
:101370007908B6007808B5007708B40083123F08F2
:101380008316BB0083123E088316BA0083123D0801
:101390008316B90083123C088316B80083125F08D5
:1013A0008316BF0083125E088316BE0083125D0899
:1013B0008316BD0083125C088316BC008A11831259
:1013C00020258A15831083163708BB003608BA001B
:1013D0003508B9003408B8007A08BF007908BE00A3
:1013E0007808BD007708BC008A118312AC268A15E4
:1013F0007A088316B7007908B6007808B500770830
:10140000B400831243088316BB008312420883167C
:10141000BA00831241088316B9008312400883166C
:10142000B8002F08BF002E08BE002D08BD002C08F4
:10143000BC008A11831220258A1583108316370871
:10144000BB003608BA003508B9003408B8007A087D
:10145000BF007908BE007808BD007708BC008A117B
:101460008312AC268A157A088316B3007908B20075
:101470007808B1007708B0002B088312DB008316D0
:101480002A088312DA00831629088312D9008316EA
:1014900028088312D80083163308BB003208BA002C
:1014A0003108B9003008B800BF01BE01BD01BC0160
:1014B00083120020031C622A8316B301B201B1011A
:1014C000B00183128316BB01BA013430B9008630F3
:1014D000B8003308BF003208BE003108BD00300834
:1014E000BC0083120020031C7D2A8316B301B201C5
:1014F0003430B1008630B000831283163008F70014
:101500003108F8003208F9003308FA007A08A3001D
:101510007908A2007808A1007708A0008312530878
:101520008316BB00831252088316BA008312510837
:101530008316B900831250088316B8007E08BF00D6
:101540007D08BE007C08BD007B08BC008312002023
:10155000031CDC2A83162308AD002208AC002108F6
:10156000AB002008AA00B101B0012030AF008230EA
:10157000AE008A118312C8238A1583148316BB0117
:10158000BA013430B9008530B8007A08BF00790854
:10159000BE007808BD007708BC008A118312AC2613
:1015A0008A157A088316A3007908A2007808A1009A
:1015B0007708A000292B83127E088316BB007D08C4
:1015C000BA007C08B9007B08B80083125308831660
:1015D000BF00831252088316BE008312510883167F
:1015E000BD00831250088316BC0083120020031C28
:1015F0002A2B83162308AD002208AC002108AB007B
:101600002008AA00B101B0012030AF008230AE0046
:101610008A118312C8238A1583108316BB01BA016D
:101620003430B9008530B8007A08BF007908BE00B0
:101630007808BD007708BC008A118312AC268A1591
:101640007A088316A3007908A2007808A100770819
:10165000A000831283162308A7002208A6002108F1
:10166000A5002008A4008A11831297258A157808FE
:101670008316A4002408A500A7012508A600A90137
:10168000A801AB01B430AA00AD010B30AC00AF0132
:101690003030AE00831269207808AE008A150A1235
:1016A000C42E7E088316A7007D08A6007C08A5002E
:1016B0007B08A4008314831257088316BB0083128F
:1016C00056088316BA00831255088316B900831290
:1016D00054088316B8002708BF002608BE00250856
:1016E000BD002408BC008A118312AC268A157A0832
:1016F0008316AB007908AA007808A9007708A8002B
:101700002B08B7002A08B6002908B5002808B4003D
:10171000831241207A088316B7007908B60078084A
:10172000B5007708B4003708BB003608BA003508A2
:10173000B9003408B80083126B088316BF00831207
:101740006A088316BE00831269088316BD008312DF
:1017500068088316BC0083120020031CB52B831677
:10176000AB01AA01A901A80183128310670883169F
:10177000BB00831266088316BA00831265088316BD
:10178000B900831264088316B8002B08BF002A082A
:10179000BE002908BD002808BC008A118312AC26AF
:1017A0008A157A08E7007908E6007808E5007708E6
:1017B000E400831483162B08BB002A08BA0029080A
:1017C000B9002808B800831263088316BF0083128B
:1017D00062088316BE00831261088316BD0083125F
:1017E00060088316BC008A118312AC268A157A0819
:1017F0008316AF007908AE007808AD007708AC001A
:10180000831247088316BB00831246088316BA006A
:10181000831245088316B900831244088316B80062
:101820002B08BF002A08BE002908BD002808BC00FC
:101830008A11831220258A157A088316B700790841
:10184000B6007808B5007708B40083124B088316F9
:10185000BB0083124A088316BA0083124908831614
:10186000B900831248088316B800831267088316EC
:10187000BF00831266088316BE00831265088316B4
:10188000BD00831264088316BC008A1183122025D0
:101890008A15831083163708BB003608BA0035084E
:1018A000B9003408B8007A08BF007908BE0078088B
:1018B000BD007708BC008A118312AC268A157A080D
:1018C0008316B7007908B6007808B5007708B40029
:1018D00083124F088316BB0083124E088316BA008A
:1018E00083124D088316B90083124C088316B80082
:1018F0002F08BF002E08BE002D08BD002C08BC001C
:101900008A11831220258A15831083163708BB009D
:101910003608BA003508B9003408B8007A08BF00A4
:101920007908BE007808BD007708BC008A118312D0
:10193000AC268A157A088316B3007908B2007808B5
:10194000B1007708B0002B088312E30083162A0841
:101950008312E200831629088312E1008316280807
:101960008312E00083163308BB003208BA00310846
:10197000B9003008B800BF01BE01BD01BC0183122F
:101980000020031CC92C8316B301B201B101B001C0
:1019900083128316BB01BA013430B9008630B80017
:1019A0003308BF003208BE003108BD003008BC005B
:1019B00083120020031CE42C8316B301B2013430DF
:1019C000B1008630B000831283163008F70031086A
:1019D000F8003208F9003308FA007A08A300790801
:1019E000A2007808A1007708A00083125708831688
:1019F000BB00831256088316BA008312550883165B
:101A0000B900831254088316B8007E08BF007D0811
:101A1000BE007C08BD007B08BC0083120020031CB4
:101A2000432D83162308AD002208AC002108AB002B
:101A30002008AA00B101B0012030AF008230AE0012
:101A40008A118312C8238A1583108316BB01BA0139
:101A50003430B9008530B8007A08BF007908BE007C
:101A60007808BD007708BC008A118312AC268A155D
:101A70007A088316A3007908A2007808A1007708E5
:101A8000A000902D83127E088316BB007D08BA004B
:101A90007C08B9007B08B800831257088316BF0082
:101AA000831256088316BE00831255088316BD00A4
:101AB000831254088316BC0083120020031C912D4E
:101AC00083162308AD002208AC002108AB002008D3
:101AD000AA00B101B0012030AF008230AE008A11FF
:101AE0008312C8238A1583148316BB01BA013430CC
:101AF000B9008530B8007A08BF007908BE007808C0
:101B0000BD007708BC008A118312AC268A157A08BA
:101B10008316A3007908A2007808A1007708A00026
:101B2000831283162308A7002208A6002108A50017
:101B30002008A4008A11831297258A157808831635
:101B4000A4002408A500A7012508A600A901A80152
:101B5000AB01B430AA00AD010B30AC00AF013030A6
:101B6000AE00831269207808AF008A150A12CD2EC4
:101B700003081F398300FF30AB00AD01AC01CD304D
:101B8000BB00CC30BA004C30B9007C30B800CD304E
:101B9000BF00CC30BE004C30BD007A30BC000A30F3
:101BA000C300D730C2002330C1007830C000CD3030
:101BB000C700CC30C6004C30C5007C30C400CD30EE
:101BC000CB00CC30CA004C30C9007A30C8000A3093
:101BD000CF00D730CE002330CD007830CC00D301F9
:101BE000D201D101D001D701D601D501D401DB0149
:101BF000DA01D901D801DF01DE01DD01DC01E301F9
:101C0000E201E101E001E701E601E501E401EB01A8
:101C1000EA01E9018030E800ED01EC0183161F14B0
:101C20009F141F159F1107309C0083138A11831284
:101C30001B298A158A110D2A8A158A11232A8A15C9
:101C40000B16C0308B04831601138F3083120317D9
:101C50008D0000308F008A1103137F2A8A158A11A4
:101C6000942C8A157A08F1007908F0007808EF00C2
:101C70007708EE008A11DA2C8A157A08F5007908BF
:101C8000F4007808F3007708F20001308316A5000D
:101C9000A6008A11831231228A1571088316BB00AF
:101CA0007008BA0083126F088316B90083126E0899
:101CB0008316B800BF01BE014830BD008530BC00AE
:101CC0008A11831220258A157A088316A7007908BD
:101CD000A6007808A5007708A4008A11831297252A
:101CE0008A157808FB0075088316BB007408BA00D3
:101CF0007308B9007208B800BF01BE014830BD00CA
:101D00008530BC008A11831220258A157A08831633
:101D1000A7007908A6007808A5007708A4008A1112
:101D2000831297258A157808FC00953003178D00DB
:101D300000308F0003100430FD008A110313B82512
:101D40008A157B08FD001830FE008A1149268A1585
:101D5000983003178D0000308F0003100430FD0011
:101D60008A110313B8258A157C08FD001830FE007F
:101D70008A1149268A157108FE007008FD006F0857
:101D8000FC006E08FB00EA287508FE007408FD00E0
:101D90007308FC007208FB00512BC8308316A500A5
:0C1DA0008A1183129C208A152F2E6300EC
:02400E003A3F37
:00000001FF
;PIC16F877A
;CRC=AC2C  CREATED="13-nov.-24 23:03"
