:100000000D308A00A92D0000FF00030E8301A1001E
:100010000A08A0008A010408A2007708A300780853
:10002000A4007908A5007A08A60003170D08031399
:10003000A70003170F080313A80003170C080313E6
:10004000A90003170E080313AA00831383128B1E43
:100050002B280B194C28220884002308F7002408B9
:10006000F8002508F9002608FA00270803178D0074
:100070000313280803178F000313290803178C00A4
:1000800003132A0803178E00031320088A00210E89
:100090008300FF0E7F0E09008A110A124F280130DB
:1000A000AC070318AD0A2D08003C03186028FF3A7E
:1000B000031D5E282C08813C03186028AD01AC01AB
:1000C000AD08031D6C282E082C0203186C2883161B
:1000D000051083120514702883160510831205106D
:1000E000AD08031D7C282F082C0203187C288316DA
:1000F000851083128514802883168510831285103D
:100100000B118A110A122B284B383A10251732335B
:100110000000CB343A102517323300014B323A102D
:10012000251732330001D3327438EF346E3A3A1067
:10013000251732330001D3306D38EC32202AE936EE
:10014000651DA0126400CF252829C219291020217D
:10015000E1316B145221B0140000C2244527D6228D
:10016000CE24C42700018C20781D2532A020791DC3
:1001700025320001D332723BEF183A10253220109D
:10018000D332723B6F193A1025320000AA30840036
:10019000831300080319D9280630F800F701F70B7C
:1001A000CF28F80BCE287B30F700F70BD528800B33
:1001B000CC2808008316310EF039F7000F30831277
:1001C000080577048800000008140230F700F70BD8
:1001D000E728EA280000081008000808F700080EC1
:1001E0000F39F800080083160810881008118312D0
:1001F00088100F3083160805F03888008312081520
:10020000000008140000ED2078088316B100831266
:100210000810000008140C290D290000ED207808B2
:100220008316B000831208100F308316080588006B
:10023000310EF700F030F70577083004F800780841
:10024000B000B01F25298312F9282E182A298312FD
:10025000881083162E1C2F29831288148316000001
:10026000831208110000081083162F0EB0000F3003
:10027000B0053008B1008312DA2083162F080F3939
:10028000B000B1008312DA2008002830FB000C30E7
:10029000FC000130FD000630FE0008108810081137
:1002A0000F308316080588000810881008110F30D9
:1002B000AA008312C6200130F5007508033C031C18
:1002C0006D2903308316B1008312DA2005308316BE
:1002D000AA008312C620F50A5D2902308316B100F8
:1002E0008312DA2005308316AA008312C620F50196
:1002F0007508033C031C8A297B307507840083132F
:100300000008F6008316AE017608AF008312F320D2
:10031000F50A78298A150A12DE2D0830F800043013
:10032000F700F70B91298711AB112B088316870073
:100330000330F700F70B9A29A30D83120712031C51
:10034000A7292B162B0883168700AB2983122B12A3
:100350002B088316870000008312AB152B08831629
:1003600087008312871DB229F80B8F290430F7000C
:10037000F70BB8298711AB112B08831687000000F3
:1003800083122B162B08831687000330F700F70B18
:10039000C7290330F700F70BCB298312AB152B08C5
:1003A000831687008312871DD329F8010330F700D5
:1003B000F70BD829071A78148711AB112B0883166D
:1003C0008700831207122B122B08831687008312D3
:1003D00008002B162B08831687000430F700F70B54
:1003E000EF298312AB152B08831687000330F70023
:1003F000F70BF829831207122B122B08831687009C
:100400000430F700F70B022A83128711AB112B0877
:1004100083168700D030A30083128D2175088316C0
:10042000A30083128D2176088316A30083128D21E9
:100430002B122B088316870000008312AB152B08A4
:10044000831687008312871D232A0430F700F70BD9
:10045000272A2A2A00002B162B088316870004302F
:10046000F700F70B312A831208006B30F500F60114
:10047000E92164308316AA008312C6201930F500E2
:100480000730F600E92164308316AA008312C620E3
:100490008A150A12E12D83160108C7390838810030
:1004A00083128B16C0308B04E63081008A150A1245
:1004B000E42D83162B0B5D2A602A4030AC00612AA4
:1004C000AC0101302A02AC072C088038AD00AE0127
:1004D0002D08AF008312F320080083162908073A7D
:1004E000831203197D2A0B3A0319842A063A031949
:1004F000902A023A0319982A9F2A01308316AA00EB
:10050000AB0083125922A62A8316AE010130AF0038
:100510008312F32002308316AA008312C620A62A73
:1005200001308316AA000230AB0083125922A62A9A
:100530008316AE011030AF008312F320A62A0130DB
:100540008316AE002908AF008312F32008000B08C1
:10055000FB008B13831603178C170C14000000008C
:10056000FB1FB72A831203138B17831603178312FB
:100570000C087F390319F92AFB000D08FC000F084D
:10058000FD007B0883160313A90083126D227C08EB
:1005900003178D007D088F0003130B08FE008B13DB
:1005A000831603178C170C1400000000FE1FDD2AB1
:1005B000831203138B178316031783120C0D0E0D72
:1005C0007F390319F92AFB000D08FC000F08FD0014
:1005D0007B0883160313A90083126D227C0803177E
:1005E0008D007D088F008D0A03198F0A0313A72A37
:1005F0000317031308000B088316A00083128B1344
:10060000831603178C170C14000000000313A01F9F
:100610000C2B83128B1783160318452B8312031799
:100620000C087F3983160313A000831203170D08EB
:1006300083160313A100831203170F0883160313F5
:10064000A2002008A90083126D22831621088312BC
:1006500003178D00831603132208831203178F00DC
:1006600003130B088316A30083128B13831603173F
:100670008C170C14000000000313A31F422B8312DD
:100680008B178316FB0B452B732B831203170C0D53
:100690000E0D7F3983160313A000831203170D0874
:1006A00083160313A100831203170F088316031385
:1006B000A2002008A90083126D228316210883124C
:1006C00003178D00831603132208831203178F006C
:1006D0008D0A03198F0A0310FB0B6F2B712B031369
:1006E000FB2A831603138312080083163E0803199E
:1006F000E62BC60042080319E62BC6070318872B12
:100700007F30C602031CE62B0319E62B8B2B8130AE
:10071000C6070318E62B4608F700F801F901FA01AD
:100720003F08CA00CA174008C9004108C80018306D
:10073000C600C701481CB42B4508FA07031CA62BAA
:10074000F90A031DA62BF80A0319C7174408F9076D
:10075000031CAD2BF80A0319C7174308C000C017C4
:100760004008F8070318C717C70DF80CF90CFA0C66
:10077000CA0CC90CC80C0310C60B992B0130F70723
:100780000318E62BF81BCB2BCA0DFA0DF90DF80D4B
:10079000F7030319E62BCA1FDC2BFA0A031DDC2B17
:1007A000F90A031DDC2BF80A031DDC2BF80CF90CED
:1007B000FA0CF70A0319E62B3F08C7004308C706DF
:1007C000C71FE42BF817EA2BF813EA2BF701F801FF
:1007D000F901FA01831208008318F12BB13084006B
:1007E0008313F701F801F901FA018316B101B2018F
:1007F000B301B40130082F042E042D040319302C4A
:100800002030B5000310A90DAA0DAB0DAC0DB10D34
:10081000B20DB30DB40D30083402031D192C2F088E
:100820003302031D192C2E083202031D192C2D082A
:100830003102031C2A2C2D08B1022E08031C2E0F96
:10084000B2022F08031C2F0FB3023008031C300F15
:10085000B4020314F70DF80DF90DFA0DB50B022CC7
:1008600031088000840A32088000840A330880003E
:10087000840A340880008312080004088316A1004B
:100880002008A30003195F2C7E08C1007D08C0006A
:100890007C08BF007B08BE00C501C4012030C30036
:1008A0008230C200831275237A08FE007908FD00A9
:1008B0007808FC007708FB008316A30B442C7E0805
:1008C000AC007D08AB007C08AA007B08A9002908C1
:1008D000B63CA900FA012A08AD00AA170310AA0C19
:1008E000AB0CAC0CFA0CF90CF80CF70CA90B6E2C39
:1008F000AD1F852CF709F809F909FA09F70A031958
:10090000F80A0319F90A0319FA0A7A08FE007908A5
:10091000FD007808FC007708FB00FE1F9C2CA1035B
:10092000A116FB09FC09FD09FE09FB0A0319FC0AD3
:100930000319FD0A0319FE0A3B30A8009A30A700EC
:10094000CA30A600A5010A30A30020080319A10A95
:1009500083147B30840083137E08AC007D08AB00D9
:100960007C08AA007B08A9002808B0002708AF006F
:100970002608AE002508AD008312EC237808F7089E
:10098000031DD92C8316200A2302031DC92C8312B0
:10099000D92C21080319DC2C0F3923020319D22C7E
:1009A0000318142DA11B142D211BDC2C20300E2D1F
:1009B000831220308316A105A11EEC2CA112200861
:1009C000031DA1037708A1002D30A90083126D2219
:1009D00083162108F700A10120082302031DFC2C27
:1009E0007708A1002E30A90083126D2283162108FA
:1009F000F7002030A10500303030A11E0E2DA112CD
:100A00002008031DA1037708A1002D30A90083123F
:100A10006D2283162108F700A1013030F70777080F
:100A2000A90083126D22831683102808AC002708C2
:100A3000AB002608AA002508A900B001AF01AE014D
:100A40000A30AD008312EC237A088316A8007908D7
:100A5000A7007808A6007708A500A30BA82C83128E
:100A6000080083162508F801240203183A2D2408EB
:100A7000F700462DF7010830A600A40DF70D250854
:100A800077020318F700F80DA60B3D2D831208001E
:100A900020307C1E30308316A0007B08F700FB1F3F
:100AA000592DF709F70A7708FB002D30A000FC1735
:100AB0007C147B08A4006430A500831231257708DC
:100AC000FB00303078078316A1007B08A4000A30B1
:100AD000A50083123125303077078316A30030300C
:100AE0007807A2002008F7003030210203197C2D7E
:100AF000FC14FC1B7C15902D2008A1002030A000C8
:100B0000303022020319882D7C14FC1BFC14902D1C
:100B1000031D7C14031D902D2108A2002030A1008C
:100B20007C19972DFC189C2D7C18A12DA62D200832
:100B3000A90083126D2283162108A90083126D2259
:100B400083162208A90083126D2283162308A900A8
:100B500083126D2208008030831CB12D8316C906D4
:100B600083128316CE01CF014508CD004908CD067A
:100B7000440803199F2ECC00F70048080319A82E3B
:100B8000CC020319442E031C022E4908D200D217AE
:100B90004A08D1004B08D000CF010310D20CD10C71
:100BA000D00CCF0CCC0BCC2DCD1FD92D4E14BC2E80
:100BB0004E104C104E16C73084008313D12E4E12A7
:100BC000CD1BEC2D4C1CF72DD20CD10CD00CCF0C26
:100BD000F70A0319B72EF72DD21BFA2D0310CF0DEC
:100BE000D00DD10DD20DF7030319B72EEC2D4E17F2
:100BF000642E4E134508CD00CD1F002ED217B02E07
:100C0000D213B02E4808CC00F7004408CC024508A7
:100C1000D200D2174608D1004708D000CF010310F8
:100C2000D20CD10CD00CCF0CCC0B0E2ECD1F1B2E0A
:100C3000CE14BC2ECE104C10CE16CB3084008313B5
:100C4000D12ECE12CD1B2E2E4C1C392ED20CD10CF7
:100C5000D00CCF0CF70A0319B72E392ED21B3C2E1D
:100C60000310CF0DD00DD10DD20DF7030319B72E00
:100C70002E2ECE17642ECE134908CD00CD1F422E46
:100C8000D217B02ED213B02E4908D200D2174A087C
:100C9000D1004B08D000CD1F512ED2134E15BC2EC3
:100CA0004E11CF014C10C73084008313D12ECD1BC1
:100CB0007A2E4508CD004C1C642ED20CD10CD00CE1
:100CC000CF0CF70A0319B72ECF1F752ED00A031DBC
:100CD000752ED10A031D752ED20A031D752ED20C56
:100CE000D10CD00CF70A0319B72E4E1BF92DCE1BD1
:100CF0003B2E992E8030D206D21F822EBC2E490860
:100D0000CD008F2E4508CD00D208031D8F2ED108AF
:100D1000031D8F2ED008031D8F2EF701B02ED21B7E
:100D2000992E0310CF0DD00DD10DD20DF70B8F2EB4
:100D3000B72ECD1F9D2ED217B02ED213B02E48083D
:100D4000F7004908D2004A08D1004B08D000B02E65
:100D50004408F7004508D2004608D1004708D000F3
:100D60005208F8005108F9005008FA00EF2EF70178
:100D7000F801F901FA01EF2ECF01D009D109D2090A
:100D8000CF09CF0A031DCA2ED00A031DCA2ED10ACD
:100D90000319D20A4E18D82DCE181A2E4E19502EDD
:100DA0007F2E0008D007031CDB2ED10A031DDB2E8B
:100DB000D20A03194C1484030008D107031CE32E44
:100DC000D20A03194C1484030008801F803AD2070A
:100DD00003184C144E1ADF2DCE1A212E572E8312D3
:100DE00008002B162B08831687000430F700F70B3A
:100DF000F72E8312AB152B08831687000330F700FC
:100E0000F70B002F831207122B122B088316870073
:100E10000430F700F70B0A2F83128711AB112B0850
:100E200083168700D030A30083128D2183162108FA
:100E3000A30083128D212B162B0883168700043004
:100E4000F700F70B212F8312AB152B0883168700B1
:100E50000330F700F70B2A2F8312871D2D2F07125F
:100E60002B122B08831687000430F700F70B362F60
:100E700083128711AB112B0883168700D130A30092
:100E800083128D21F70108308316A4007708A5008E
:100E900083122B162B08831687000330F700F70BFD
:100EA0004F2F8312AB152B08831687008312871DE3
:100EB000572F071A0314071E0310F80D0430F7000C
:100EC000F70B602FAB112B08831687008312871155
:100ED0008316A40B482F83122B162B08831687002A
:100EE0000330F700F70B722F8312071283162508C1
:100EF00003197F2F83122B122B0883168700000003
:100F00008312AB152B08831687008312871D862F4B
:100F10000430F700F70B8A2F8711AB112B088316CB
:100F200087000330F700F70B932F831207122B1261
:100F30002B08831687007808A20083122B122B0837
:100F40008316870000008312AB152B0883168700D9
:100F50008312871DA92F0430F700F70BAD2FB02F98
:100F600000002B162B08831687000430F700F70BC0
:100F7000B72F2208F800831208008E30F70083167E
:100F80002308F8002208F900FA01A31FCC2FF80962
:100F9000F909F90A0319F80AF808031DD92F790885
:100FA000F800F9010830F702F808031DD92FF701FE
:100FB000E22F0310F81BE02FF90DF80DF703D92FDE
:100FC000A31FF81383120800FC017508FB00FE0143
:100FD000FD018316A101B430A000A3010B30A200D3
:100FE000A5013030A4008A15831212258A117808D1
:080FF000AE008A150A12812FE0
:10100000F50101308316AA00AB008A118312592220
:101010008A15F508031D2928843003178D00003038
:101020008F0003100430FB008A110313FB228A1582
:10103000893084003B08FE003A08FD003908FC00B6
:101040003808FB0002308316A0008A1183123D2469
:101050008A15750B4828893003178D0000308F00E2
:1010600003100430FB008A110313FB228A15893018
:1010700084003F08FE003E08FD003D08FC003C08DF
:10108000FB0002308316A0008A1183123D248A15CA
:101090007508023C031D69288E3003178D0000304F
:1010A0008F0003100430FB008A110313FB228A1502
:1010B000893084004308FE004208FD004108FC001E
:1010C0004008FB0002308316A0008A1183123D24E1
:1010D0008A157508033C031D8A28933003178D0079
:1010E00000308F0003100A30FB008A110313FB222B
:1010F0008A15893084004708FE004608FD0045082F
:10110000FC004408FB0002308316A0008A11831201
:101110003D248A157508043C031DA1289B30031744
:101120008D0000308F0003100D30FB008A11031377
:10113000FB228A154808FB001830FC008A1148255C
:101140008A1501308316AA000230AB008A1183127F
:1011500059228A15A33003178D0000308F008A11A1
:101160000313A7228A158316061483120618C428AF
:1011700032308316AA008A118312C6208A1583167C
:1011800006148312061C602A83168615831286199C
:10119000E92832308316AA008A118312C6208A15E4
:1011A0008316861583128619E92801307507FC001D
:1011B0008316A4000530A5008A11831231258A15F3
:1011C0007708F500C8308316AA008A118312C6205A
:1011D0008A158316861483128618A4293230831642
:1011E000AA008A118312C6208A15831686148312D8
:1011F0008618A429F508031D212983103B088316AE
:10120000C70083123A088316C60083123908831672
:10121000C500831238088316C400CD30CB00CC3013
:10122000CA004C30C9007B30C8008A118312AB253C
:101230008A157A08BB007908BA007808B9007708DF
:10124000B800750B472983103F088316C700831227
:101250003E088316C60083123D088316C50083121C
:101260003C088316C400CD30CB00CC30CA004C30D3
:10127000C9007B30C8008A118312AB258A157A0811
:10128000BF007908BE007808BD007708BC0075086B
:10129000023C031D6F29831043088316C700831285
:1012A00042088316C600831241088316C5008312C4
:1012B00040088316C400CD30CB00CC30CA004C307F
:1012C000C9007B30C8008A118312AB258A157A08C1
:1012D000C3007908C2007808C1007708C00075080B
:1012E000033C031D9729831047088316C700831208
:1012F00046088316C600831245088316C50083126C
:1013000044088316C400CD30CB00CC30CA004C302A
:10131000C9007B30C8008A118312AB258A157A0870
:10132000C7007908C6007808C5007708C4007508AA
:10133000043C031D9D290A30C807C8308316AA0043
:101340008A118312C6208A15831606158312061980
:101350005F2A32308316AA008A118312C6208A15AA
:1013600083160615831206195F2AF508031DDC296A
:1013700083143B088316C70083123A088316C600FD
:10138000831239088316C500831238088316C400F7
:10139000CD30CB00CC30CA004C30C9007B30C80007
:1013A0008A118312AB258A157A08BB007908BA0026
:1013B0007808B9007708B800750B022A83143F0833
:1013C0008316C70083123E088316C60083123D08A9
:1013D0008316C50083123C088316C400CD30CB00B1
:1013E000CC30CA004C30C9007B30C8008A1183124F
:1013F000AB258A157A08BF007908BE007808BD00C1
:101400007708BC007508023C031D2A2A8314430890
:101410008316C700831242088316C6008312410850
:101420008316C500831240088316C400CD30CB005C
:10143000CC30CA004C30C9007B30C8008A118312FE
:10144000AB258A157A08C3007908C2007808C10064
:101450007708C0007508033C031D522A831447080F
:101460008316C700831246088316C60083124508F8
:101470008316C500831244088316C400CD30CB0008
:10148000CC30CA004C30C9007B30C8008A118312AE
:10149000AB258A157A08C7007908C6007808C50008
:1014A0007708C4007508043C031D582A0A30C80296
:1014B000C8308316AA008A118312C6208A15012813
:1014C0008A150A12F42D831626080319292BB20057
:1014D0002A080319292BB202031C732A7F30B20792
:1014E0000318292B792A8130B202031C292B0319F6
:1014F000292B3208F700F801F901FA01B101270898
:10150000B000B0172808AF002908AE001930B200AB
:101510002D08AE0203189C2A0130AF0203189C2A42
:10152000B00203189C2AB10203189C2AB10AB00A1F
:10153000AF0A2D08AE07CE2A2C08AF020318B72A2F
:101540000130B0020318B72AB1020318B72AB10A52
:10155000B00A2C08AF072D08AE07031CCE2AAF0A2D
:10156000031DCE2AB00A031DCE2AB10ACE2A2B08AB
:101570008038B0020318CD2A0130B1020318CD2AF9
:10158000B10A2B088038B0072C08AF07031CAB2A20
:10159000B00A031DAB2AB10AAB2A7A14B20BD12AC6
:1015A000DC2A0310AE0DAF0DB00DB10D0310FA0D16
:1015B000F90DF80DB30D882A331CE42A0310F80C3A
:1015C000F90CFA0CB30CE72AF7030319292BB31B08
:1015D000102B0310AE0DAF0DB00DB10D2D08AE02E6
:1015E0000318FC2A0130AF020318FC2AB0020318CA
:1015F000FC2AB102031C1F2B2C08AF020318072B77
:101600000130B0020318072BB102031C1F2B2B085B
:101610008038B0020318102B0130B102031C1F2BBD
:10162000FA0A031D1F2BF90A031D1F2BF80A031DBD
:101630001F2BF70A0319292BF80CF90CFA0C2708B1
:10164000B2002B08B206B21F272BF8172D2BF81368
:101650002D2BF701F801F901FA01831208003B3044
:101660008316A1008A118312F1268A157808831641
:10167000A0003C30A1008A118312F1268A15780857
:101680008316A1002008F6002108F5007608A300C3
:101690007508A2008A118312BD278A157A0883165D
:1016A000A5007908A4007808A3007708A2002508FF
:1016B000A9002408A8002308A7002208A600AD015D
:1016C000AC01AB018D30AA00831263227A08FE00C0
:1016D0007908FD007808FC007708FB007B08F7001C
:1016E0007C08F8007D08F9007E08FA008A150A12C5
:1016F000FC2D3D308316A1008A118312F1268A1534
:1017000078088316A0003E30A1008A118312F126CA
:101710008A1578088316A1002008F6002108F50034
:101720007608A3007508A2008A118312BD278A15C6
:101730007A088316A5007908A4007808A300770822
:10174000A2002508A9002408A8002308A700220851
:10175000A600AD01AC01AB018D30AA00831263225B
:101760007A08FE007908FD007808FC007708FB0085
:101770007B08F7007C08F8007D08F9007E08FA0075
:101780008A150A12052E8E30F7007B08F7027C08B6
:10179000F9007D08F800F917F7080319DA2B031090
:1017A000F908031DD62BF8080319DA2BF90CF80CED
:1017B000F70BCF2BFC1FE12BF809F909F80A0319E5
:1017C000F90A08008E30F7007608F8007508F9006D
:1017D000FA01F808031DF62B7908F800F901083022
:1017E000F702F808031DF62BF701FE2B0310F81B78
:1017F000FD2BF90DF80DF703F62BF81308008316EF
:101800002508C1002408C0002308BF002208BE002C
:101810007E08C5007D08C4007C08C3007B08C200A8
:101820008A11831275238A157A088316B100790804
:10183000B0007808AF007708AE007608FA007508A7
:101840008400831376188317C1010408C000411077
:10185000831B411483100008C400840A0008C500DB
:10186000840A0008C600840A0008C7007E08CB006E
:101870007D08CA007C08C9007B08C8008A11831251
:10188000AB258A15831640088400831341188317FB
:1018900077088000840A78088000840A790880002C
:1018A000840A7A08800075088400831376188317E9
:1018B0000008F700840A0008F800840A0008F9000C
:1018C000840A0008FA002908C1002808C000270877
:1018D000BF002608BE007A08C5007908C400780851
:1018E000C3007708C2008A11831275238A157A080B
:1018F0008316B5007908B4007808B3007708B20001
:10190000200884008313211883170008F700840A35
:101910000008F800840A0008F900840A0008FA00A8
:10192000BB010408BA003B10831B3B1483147E08E0
:10193000C7007D08C6007C08C5007B08C4007A0883
:10194000CB007908CA007808C9007708C8008A1156
:101950008312AB258A1583163A08840083133B183B
:1019600083172D08C1002C08C0002B08BF002A08CF
:10197000BE007A08C5007908C4007808C30077085B
:10198000C2008A11831275238A157A088316B9005A
:101990007908B8007808B7007708B60020088400F6
:1019A0008313211883177B088000840A7C08800039
:1019B000840A7D088000840A7E0880008310310834
:1019C000C7003008C6002F08C5002E08C40035081F
:1019D000CB003408CA003308C9003208C8008A1195
:1019E0008312AB258A157A088316BD007908BC00DE
:1019F0007808BB007708BA0083103D08C7003C0890
:101A0000C6003B08C5003A08C4003908CB003808B6
:101A1000CA003708C9003608C8008A118312AB25EE
:101A20008A1508007D087B028316A6007C08A700A3
:101A30007E08031C7E0FA70222082402F700250857
:101A4000FA002308031C230FFA027708A8007A087B
:101A5000A9002708AB002608AA002908AD0028081D
:101A6000AC001030AE00F701FA01AB0CAA0C031C5D
:101A70003F2D2C08F7070318FA0A2D08FA07FA0C6D
:101A8000F70CF90CF80CAE0B352D7908A700780887
:101A9000A6007D082002F7002108FA007E08031C3A
:101AA0007E0FFA027708A8007A08A9002708AB0081
:101AB0002608AA002908AD002808AC00F801F901A1
:101AC000F701FA012D08031D682D2C080319822D3A
:101AD0001030AE000310AA0DAB0DF70DFA0D2D0856
:101AE0007A02031D752D2C087702031C7E2D2C080D
:101AF000F702031CFA032D08FA020314F80DF90D7E
:101B0000AE0B6A2D7908A7007808A60022082607E0
:101B1000F8002708FA0023080318230FFA077A08A9
:101B2000F90083120800FC017508FB00FE01FD01AD
:101B30008316A101B430A000A3010B30A200A501BF
:101B40003030A400831212257808AF008A150A12DB
:101B50008C2F03081F398300FF30AB00AD01AC01AF
:101B6000BB01BA01B9017F30B800BF01BE01BD01A0
:101B7000BC01C301C201C101C001C701C601C50149
:101B8000C401F430C800CC01CB01CA01C901D001A5
:101B9000CF01CE01CD01D401D301D201D101D801B1
:101BA000D701D601D50183161F149F141F159F114D
:101BB00007309C0083138A11831245298A158A11E4
:101BC000352A8A158A114B2A8A15AD3003178D00E4
:101BD00000308F008A110313A7228A15831606147A
:101BE00083120618FB2D0028C8308316AA008A111C
:101BF0008312C6208A152F2B7A08DC007908DB00B7
:101C00007808DA007708D900792B7A08E00079089B
:101C1000DF007808DE007708DD005C088316C1006D
:101C200083125B088316C00083125A088316BF0014
:101C3000831259088316BE00C501C4014830C30091
:101C40008530C2008A11831275238A157A08FE0036
:101C50007908FD007808FC007708FB00C3237808AA
:101C6000E30060088316C10083125F088316C0007A
:101C700083125E088316BF0083125D088316BE00C0
:101C8000C501C4014830C3008530C2008A118312E7
:101C900075238A157A08FE007908FD007808FC0093
:101CA0007708FB00C3237808E40001308316AA00FC
:101CB000AB008A11831259228A15B33003178D00A5
:101CC00000308F0003100430FB008A110313FB2245
:101CD0008A156308FB001830FC008A1148258A1514
:101CE000B63003178D0000308F0003100430FB0066
:101CF0008A110313FB228A156408FB001830FC00CC
:101D00008A1148258A15F6016308F500E223831439
:101D100047088316C700831246088316C60083123D
:101D200045088316C500831244088316C4007A0848
:101D3000CB007908CA007808C9007708C8008A1162
:101D40008312AB258A157A08E8007908E70078083D
:101D5000E6007708E500F6016408F500E223831445
:101D600047088316C700831246088316C6008312ED
:101D700045088316C500831244088316C4007A08F8
:101D8000CB007908CA007808C9007708C8008A1112
:101D90008312AB258A157A08EC007908EB007808E5
:101DA000EA007708E9006808FE006708FD00660899
:101DB000FC006508FB00F6014930F5008316A1011F
:101DC0005130A00083123B088316A50083123A0805
:101DD0008316A400831239088316A30083123808DF
:101DE0008316A20083123F088316A90083123E08BF
:101DF0008316A80083123D088316A70083123C08AF
:101E00008316A600831243088316AD00831242088E
:101E10008316AC00831241088316AB00831240087E
:101E20008316AA008312FF237A08F0007908EF00D6
:101E30007808EE007708ED006C08FE006B08FD00E6
:101E40006A08FC006908FB00F6014D30F5008316B6
:101E5000A1015530A00083123B088316A500831210
:101E60003A088316A400831239088316A30083124C
:101E700038088316A20083123F088316A900831234
:101E80003E088316A80083123D088316A70083121C
:101E90003C088316A600831243088316AD00831204
:101EA00042088316AC00831241088316AB008312EC
:101EB00040088316AA008312FF237A08F4007908E9
:101EC000F3007808F2007708F1007008FE006F0850
:101ED000FD006E08FC006D08FB00C32378085A3C27
:101EE000E1007408FE007308FD007208FC00710830
:101EF000FB00C32378085A3CE2006108F5008A1110
:101F0000E42F8A1548088316AA008A118312C62076
:101F10008A156208F500932D48088316AA008A11D5
:101F20008312C6208A1501308316AA000230AB0046
:101F30008A11831259228A15BA3003178D00003096
:101F40008F0003100830FB008A110313FB228A154F
:101F50006108FB001830FC008A1148258A15BF3043
:101F600003178D0000308F0003100A30FB008A1128
:101F70000313FB228A156208FB001830FC008A114B
:081F800048258A15EE2D6300CF
:02400E003A3F37
:00000001FF
;PIC16F877A
;CRC=2389  CREATED="18-nov.-24 16:00"
