:1000000010308A0000280000FF00030E8301A100C9
:100010000A08A0008A010408A2007708A300780853
:10002000A4007908A5007A08A60003170D08031399
:10003000A70003170F080313A80003170C080313E6
:10004000A90003170E080313AA00831383128B1E43
:100050002B280B194C28220884002308F7002408B9
:10006000F8002508F9002608FA00270803178D0074
:100070000313280803178F000313290803178C00A4
:1000800003132A0803178E00031320088A00210E89
:100090008300FF0E7F0E09008A110A124F280130DB
:1000A000AC070318AD0A2D08003C03186028FF3A7E
:1000B000031D5E282C08813C03186028AD01AC01AB
:1000C000AD08031D6C282E082C0203186C2883161B
:1000D000051083120514702883160510831205106D
:1000E000AD08031D7C282F082C0203187C288316DA
:1000F000851083128514802883168510831285103D
:100100000B118A110A122B288C25701DA0122E1992
:1001100066008C25691DA0122E1966008C25641DB1
:10012000A0122E1966008C29653AF0376937741DC4
:10013000A0122E1966000C2AE936651DA012640073
:10014000C2244527D622CE24C42700008C20781D47
:100150002532A020791D253200018C296539F6371A
:10016000311DA0126410A0296539F637321DA01286
:100170006400B3308400831300080319CC280630D0
:10018000F800F701F70BC228F80BC1287B30F70005
:10019000F70BC828800BBF28080083163A0EF039E9
:1001A000F7000F3083120805770488000000081458
:1001B0000230F700F70BDA28DD28000008100800ED
:1001C0000808F700080E0F39F80008008316081019
:1001D00088100811831288100F3083160805F03834
:1001E000880083120815000008140000E020780839
:1001F0008316BA008312081000000814FF28002993
:100200000000E02078088316B900831208100F3030
:100210008316080588003A0EF700F030F7057708D6
:100220003904F8007808B900B91F18298312EC289E
:1002300037181D29831288108316371C2229831230
:10024000881483160000831208110000081083161A
:10025000380EB9000F30B9053908BA008312CD2025
:10026000831638080F39B900BA008312CD20080070
:1002700028308316A5000C30A6000130A7000630F8
:10028000A80083120810881008110F308316080583
:1002900088000810881008110F30B3008312B920AD
:1002A00001308316A4002408033C031C6329033097
:1002B000BA008312CD2005308316B3008312B92013
:1002C0008316A40A53290230BA008312CD200530C8
:1002D0008316B3008312B9208316A4012408033CBB
:1002E000031C8029A5302407840083130008A9007B
:1002F000B7012908B8008312E6208316A40A6E29E4
:1003000083128A110A1643280830F8000430F700D7
:10031000F70B88298711AB112B0883168700033050
:10032000F700F70B9129AD0D83120712031C9E29CC
:100330002B162B0883168700A22983122B122B0859
:100340008316870000008312AB152B0883168700E5
:100350008312871DA929F80B86290430F700F70BB3
:10036000AF298711AB112B08831687000000831279
:100370002B162B08831687000330F700F70BBE29D6
:100380000330F700F70BC2298312AB152B08831635
:1003900087008312871DCA29F8010330F700F70B85
:1003A000CF29071A78148711AB112B088316870001
:1003B000831207122B122B08831687008312080062
:1003C0002B162B08831687000430F700F70BE6295D
:1003D0008312AB152B08831687000330F700F70B49
:1003E000EF29831207122B122B0883168700043083
:1003F000F700F70BF92983128711AB112B0883162D
:100400008700D030AD008312842183162408AD000C
:100410008312842183162508AD00831284212B12B8
:100420002B088316870000008312AB152B08831658
:1004300087008312871D1A2A0430F700F70B1E2A43
:10044000212A00002B162B08831687000430F700A2
:10045000F70B282A831208006B308316A400A5012D
:100460008312E02164308316B3008312B92019305F
:100470008316A4000730A5008312E02164308316A0
:10048000B3008312B9208A110A1646288316010880
:10049000C7390838810083128B16C0308B04E630D0
:1004A00081008A110A1649288316340B582A5B2AC0
:1004B0004030B5005C2AB50101303302B50735087C
:1004C0008038B600B7013608B8008312E62008006D
:1004D00083163208073A83120319782A0B3A031954
:1004E0007F2A063A03198B2A023A0319932A9A2A79
:1004F00001308316B300B40083125422A12A83165C
:10050000B7010130B8008312E62002308316B30031
:100510008312B920A12A01308316B3000230B4003F
:1005200083125422A12A8316B7011030B800831217
:10053000E620A12A01308316B7003208B8008312E2
:10054000E62008000B088316A40083128B13831681
:1005500003178C170C14000000000313A41FB32A08
:1005600083128B178316831203170C087F39031924
:10057000142B83160313A400831203170D0883168C
:100580000313A500831203170F0883160313A60095
:100590002408B200831268228316250883120317E9
:1005A0008D00831603132608831203178F0003138D
:1005B0000B088316A70083128B13831603178C175F
:1005C0000C14000000000313A71FE92A83128B17E5
:1005D0008316831203170C0D0E0D7F390319142B8C
:1005E00083160313A400831203170D088316031345
:1005F000A500831203170F0883160313A60024080F
:10060000B2008312682283162508831203178D0017
:10061000831603132608831203178F008D0A03190C
:100620008F0A0313A22A031703138A110A165228EA
:100630000B088316A60083128B13831603178C17DF
:100640000C14000000000313A61F292B83128B1724
:1006500083160318622B831203170C087F39831645
:100660000313A600831203170D0883160313A700B4
:10067000831203170F0883160313A8002608B2007D
:100680008312682283162708831203178D008316AE
:1006900003132808831203178F0003130B08831614
:1006A000A90083128B13831603178C170C140000F8
:1006B00000000313A91F5F2B83128B178316A50B52
:1006C000622B902B831203170C0D0E0D7F398316AE
:1006D0000313A600831203170D0883160313A70044
:1006E000831203170F0883160313A8002608B2000D
:1006F0008312682283162708831203178D0083163E
:1007000003132808831203178F008D0A03198F0A19
:10071000031083160313A50B8E2B902B8312182B1B
:1007200083120800831646080319032CCE004A08DA
:100730000319032CCE070318A42B7F30CE02031C11
:10074000032C0319032CA82B8130CE070318032C8C
:100750004E08F700F801F901FA014708D200D21754
:100760004808D1004908D0001830CE00CF01501CF5
:10077000D12B4D08FA07031CC32BF90A031DC32B09
:10078000F80A0319CF174C08F907031CCA2BF80AFB
:100790000319CF174B08C800C8174808F8070318F3
:1007A000CF17CF0DF80CF90CFA0CD20CD10CD00CE1
:1007B0000310CE0BB62B0130F7070318032CF81BE0
:1007C000E82BD20DFA0DF90DF80DF7030319032CE0
:1007D000D21FF92BFA0A031DF92BF90A031DF92B75
:1007E000F80A031DF92BF80CF90CFA0CF70A031997
:1007F000032C4708CF004B08CF06CF1F012CF8175A
:10080000072CF813072CF701F801F901FA018312FC
:10081000080083180E2CBA3084008313F701F80106
:10082000F901FA018316BA01BB01BC01BD01390807
:1008300038043704360403194D2C2030BE00031051
:10084000B20DB30DB40DB50DBA0DBB0DBC0DBD0D84
:1008500039083D02031D362C38083C02031D362C96
:1008600037083B02031D362C36083A02031C472C7E
:100870003608BA023708031C370FBB023808031CBE
:10088000380FBC023908031C390FBD020314F70DE1
:10089000F80DF90DFA0DBE0B1F2C3A088000840AE2
:1008A0003B088000840A3C088000840A3D088000E0
:1008B0008312080004088316AA002908AC00031953
:1008C0007C2C2808C9002708C8002608C70025086E
:1008D000C600CD01CC012030CB008230CA0083128B
:1008E00092237A088316A8007908A7007808A60042
:1008F0007708A500AC0B612C2808B5002708B400C8
:100900002608B3002508B2003208B63CB200FA014E
:100910003308B600B3170310B30CB40CB50CFA0CC3
:10092000F90CF80CF70CB20B8B2CB61FA22CF709A4
:10093000F809F909FA09F70A0319F80A0319F90A73
:100940000319FA0A7A08A8007908A7007808A6000F
:100950007708A500A81FB92CAA03AA16A509A609FD
:10096000A709A809A50A0319A60A0319A70A0319C2
:10097000A80A3B30B1009A30B000CA30AF00AE01D7
:100980000A30AC0029080319AA0A8314A530840090
:1009900083132808B5002708B4002608B3002508EB
:1009A000B2003108B9003008B8002F08B7002E088F
:1009B000B600831209247808F708031DF62C831665
:1009C000290A2C02031DE62C8312F62C2A0803198F
:1009D000F92C0F392C020319EF2C0318312DAA1B07
:1009E000312D2A1BF92C20302B2D83122030831619
:1009F000AA05AA1E092DAA122908031DAA03770811
:100A0000AA002D30B2008312682283162A08F7004C
:100A1000AA0129082C02031D192D7708AA002E30DF
:100A2000B2008312682283162A08F7002030AA0534
:100A300000303030AA1E2B2DAA122908031DAA034C
:100A40007708AA002D30B2008312682283162A0884
:100A5000F700AA013030F7077708B2008312682246
:100A6000831683103108B5003008B4002F08B30096
:100A70002E08B200B901B801B7010A30B6008312DE
:100A800009247A088316B1007908B0007808AF000D
:100A90007708AE00AC0BC52C8312080083162C0817
:100AA000F8012B020318572D2B08F700632DF701CF
:100AB0000830AD00AB0DF70D2C0877020318F700D6
:100AC000F80DAD0B5A2D8312080020308316261E18
:100AD0003030A7002508F700A51F762DF709F70A83
:100AE0007708A5002D30A700A61726142508AB000F
:100AF0006430AC0083124E2577088316A500303091
:100B00007807A8002508AB000A30AC0083124E25F8
:100B1000303077078316AA0030307807A9002708FD
:100B2000F700303028020319992DA614A61B2615AC
:100B3000AD2D2708A8002030A70030302902031966
:100B4000A52D2614A61BA614AD2D031D2614031DCA
:100B5000AD2D2808A9002030A8002619B42DA6180C
:100B6000B92D2618BE2DC32D2708B2008312682286
:100B700083162808B2008312682283162908B2005F
:100B80008312682283162A08B200831268220800A2
:100B90008030831CCE2D8316D10683128316D60196
:100BA000D7014D08D5005108D5064C080319BC2EB5
:100BB000D400F70050080319C52ED4020319612E82
:100BC000031C1F2E5108DA00DA175208D900530807
:100BD000D800D7010310DA0CD90CD80CD70CD40BE1
:100BE000E92DD51FF62D5614D92E56105410561631
:100BF000CF3084008313EE2E5612D51B092E541CC1
:100C0000142EDA0CD90CD80CD70CF70A0319D42EF1
:100C1000142EDA1B172E0310D70DD80DD90DDA0DAF
:100C2000F7030319D42E092E5617812E56134D089B
:100C3000D500D51F1D2EDA17CD2EDA13CD2E500874
:100C4000D400F7004C08D4024D08DA00DA174E0839
:100C5000D9004F08D800D7010310DA0CD90CD80CF2
:100C6000D70CD40B2B2ED51F382ED614D92ED61038
:100C70005410D616D33084008313EE2ED612D51B13
:100C80004B2E541C562EDA0CD90CD80CD70CF70A64
:100C90000319D42E562EDA1B592E0310D70DD80D5A
:100CA000D90DDA0DF7030319D42E4B2ED617812E4A
:100CB000D6135108D500D51F5F2EDA17CD2EDA13C3
:100CC000CD2E5108DA00DA175208D9005308D8009F
:100CD000D51F6E2EDA135615D92E5611D701541082
:100CE000CF3084008313EE2ED51B972E4D08D500F0
:100CF000541C812EDA0CD90CD80CD70CF70A031926
:100D0000D42ED71F922ED80A031D922ED90A031D66
:100D1000922EDA0A031D922EDA0CD90CD80CF70A9F
:100D20000319D42E561B162ED61B582EB62E8030E5
:100D3000DA06DA1F9F2ED92E5108D500AC2E4D08A9
:100D4000D500DA08031DAC2ED908031DAC2ED80837
:100D5000031DAC2EF701CD2EDA1BB62E0310D70DD6
:100D6000D80DD90DDA0DF70BAC2ED42ED51FBA2E17
:100D7000DA17CD2EDA13CD2E5008F7005108DA001D
:100D80005208D9005308D800CD2E4C08F7004D0862
:100D9000DA004E08D9004F08D8005A08F800590860
:100DA000F9005808FA000C2FF701F801F901FA01CF
:100DB0000C2FD701D809D909DA09D709D70A031D99
:100DC000E72ED80A031DE72ED90A0319DA0A5618A6
:100DD000F52DD618372E56196D2E9C2E0008D807E3
:100DE000031CF82ED90A031DF82EDA0A031954142D
:100DF00084030008D907031C002FDA0A03195414CE
:100E000084030008801F803ADA0703185414561A26
:100E1000FC2DD61A3E2E742E831208002B162B089A
:100E2000831687000430F700F70B142F8312AB15DD
:100E30002B08831687000330F700F70B1D2F831252
:100E400007122B122B08831687000430F700F70BCC
:100E5000272F83128711AB112B0883168700D03000
:100E6000AD008312842183162B08AD0083128421E8
:100E70002B162B08831687000430F700F70B3E2F44
:100E80008312AB152B08831687000330F700F70B8E
:100E9000472F8312871D4A2F07122B122B08831608
:100EA00087000430F700F70B532F83128711AB1123
:100EB0002B0883168700D130AD0083128421F701FF
:100EC00008308316AE007708AF0083122B162B086C
:100ED000831687000330F700F70B6C2F8312AB15D6
:100EE0002B08831687008312871D742F071A03149B
:100EF000071E0310F80D0430F700F70B7D2FAB1120
:100F00002B0883168700831287118316AE0B652F7B
:100F100083122B162B08831687000330F700F70B7C
:100F20008F2F8312071283162F0803199C2F831209
:100F30002B122B088316870000008312AB152B0899
:100F4000831687008312871DA32F0430F700F70B49
:100F5000A72F8711AB112B08831687000330F700EA
:100F6000F70BB02F831207122B122B088316870062
:100F70007808AC0083122B122B0883168700000020
:100F80008312AB152B08831687008312871DC62F8B
:100F90000430F700F70BCA2FCD2F00002B162B08BB
:100FA000831687000430F700F70BD42F2C08F800C5
:100FB000831208008E30F70083162408F7022508F4
:100FC000F9002608F800F917F7080319F22F0310A3
:100FD000F908031DEE2FF8080319F22FF90CF80C8D
:100FE000F70BE72FA51FF92FF809F909F80A0319DC
:060FF000F90A831208005B
:101000008316A4010130B300B4008A118312542264
:101010008A15C8308316B3008A118312B9208A1545
:101020008316A408031D3B288430831203178D0008
:1010300000308F000310053083160313A5008A11BA
:10104000831218238A15893084003B088316A80070
:1010500083123A088316A700831239088316A60064
:10106000831238088316A5000230A9008A11831262
:101070005A248A158316240B642889308312031797
:101080008D0000308F000310053083160313A50078
:101090008A11831218238A15893084003F08831629
:1010A000A80083123E088316A70083123D0883160A
:1010B000A60083123C088316A5000230A9008A11FD
:1010C00083125A248A1583162408023C031D8F2894
:1010D0008E30831203178D0000308F00031005300F
:1010E00083160313A5008A11831218238A158930E9
:1010F000840043088316A800831242088316A700C1
:10110000831241088316A600831240088316A500A7
:101110000230A9008A1183125A248A1583162408E2
:10112000033C031DBA289330831203178D0000304F
:101130008F0003100B3083160313A5008A1183124E
:1011400018238A158930840047088316A800831263
:1011500046088316A700831245088316A60083124B
:1011600044088316A5000230A9008A1183125A246C
:101170008A1583162408043C031DD7289B3083124C
:1011800003178D0000308F00031007308316031300
:10119000A5008A11831218238A1548088316A50012
:1011A0001830A6008A11831265258A158316061445
:1011B00083120618E72832308316B3008A1183128F
:1011C000B9208A15831606148312061C992A8316E1
:1011D0008615831286190C2932308316B3008A11C2
:1011E0008312B9208A1583168615831286190C2955
:1011F000013083162407A600AB000530AC008A112D
:1012000083124E258A1577088316A400C830B300D0
:101210008A118312B9208A158316861483128618C0
:10122000D12932308316B3008A118312B9208A156E
:101230008316861483128618D1298316A408031DE9
:101240004729831083123B088316CF0083123A0884
:101250008316CE00831239088316CD008312380816
:101260008316CC00CD30D300CC30D2004C30D1002E
:101270007B30D0008A118312C8258A157A08BB00FA
:101280007908BA007808B9007708B8008316240BEB
:101290006F29831083123F088316CF0083123E0804
:1012A0008316CE0083123D088316CD0083123C08BE
:1012B0008316CC00CD30D300CC30D2004C30D100DE
:1012C0007B30D0008A118312C8258A157A08BF00A6
:1012D0007908BE007808BD007708BC008316240892
:1012E000023C031D99298310831243088316CF0003
:1012F000831242088316CE00831241088316CD0064
:10130000831240088316CC00CD30D300CC30D200FD
:101310004C30D1007B30D0008A118312C8258A1549
:101320007A08C3007908C2007808C1007708C000B5
:1013300083162408033C031DC32983108312470826
:101340008316CF00831246088316CE008312450809
:101350008316CD00831244088316CC00CD30D30011
:10136000CC30D2004C30D1007B30D0008A118312B7
:10137000C8258A157A08C7007908C6007808C5000C
:101380007708C40083162408043C031DCB290A30C7
:101390008312C8078316C830B3008A118312B9209C
:1013A0008A158316061583120619962A323083167B
:1013B000B3008A118312B9208A1583160615831289
:1013C0000619962A8316A408031D0C2A8314831277
:1013D0003B088316CF0083123A088316CE0083128F
:1013E00039088316CD00831238088316CC00CD301F
:1013F000D300CC30D2004C30D1007B30D0008A11E9
:101400008312C8258A157A08BB007908BA007808C3
:10141000B9007708B8008316240B342A831483128A
:101420003F088316CF0083123E088316CE00831236
:101430003D088316CD0083123C088316CC00CD30C6
:10144000D300CC30D2004C30D1007B30D0008A1198
:101450008312C8258A157A08BF007908BE0078086B
:10146000BD007708BC0083162408023C031D5E2AD9
:101470008314831243088316CF0083124208831615
:10148000CE00831241088316CD00831240088316D4
:10149000CC00CD30D300CC30D2004C30D1007B30EA
:1014A000D0008A118312C8258A157A08C3007908EA
:1014B000C2007808C1007708C00083162408033CE6
:1014C000031D882A8314831247088316CF008312D2
:1014D00046088316CE00831245088316CD0083127A
:1014E00044088316CC00CD30D300CC30D2004C3031
:1014F000D1007B30D0008A118312C8258A157A0862
:10150000C7007908C6007808C5007708C4008316AC
:101510002408043C031D902A0A308312C802831653
:10152000C830B3008A118312B9208A1583160228A5
:1015300083128A110A165B288E30F70083162D0855
:10154000F8002C08F900FA01AD1FAB2AF809F909D7
:10155000F90A0319F80AF808031DB82A7908F800EF
:10156000F9010830F702F808031DB82AF701C12A6B
:101570000310F81BBF2AF90DF80DF703B82AAD1FA9
:10158000F81383120800831630080319892BBC0056
:1015900034080319892BBC02031CD32A7F30BC07F3
:1015A0000318892BD92A8130BC02031C892B03190B
:1015B000892B3C08F700F801F901FA01BB01310859
:1015C000BA00BA173208B9003308B8001930BC00A5
:1015D0003708B8020318FC2A0130B9020318FC2AA4
:1015E000BA020318FC2ABB020318FC2ABB0ABA0A77
:1015F000B90A3708B8072E2B3608B9020318172B7B
:101600000130BA020318172BBB020318172BBB0AB1
:10161000BA0A3608B9073708B807031C2E2BB90ACF
:10162000031D2E2BBA0A031D2E2BBB0A2E2B3508A9
:101630008038BA0203182D2B0130BB0203182D2B62
:10164000BB0A35088038BA073608B907031C0B2BCC
:10165000BA0A031D0B2BBB0A0B2B7A14BC0B312BC4
:101660003C2B0310B80DB90DBA0DBB0D0310FA0DCC
:10167000F90DF80DBD0DE82A3D1C442B0310F80CA4
:10168000F90CFA0CBD0C472BF7030319892BBD1B72
:10169000702B0310B80DB90DBA0DBB0D3708B80289
:1016A00003185C2B0130B90203185C2BBA02031833
:1016B0005C2BBB02031C7F2B3608B9020318672B77
:1016C0000130BA020318672BBB02031C7F2B3508BD
:1016D0008038BA020318702B0130BB02031C7F2B29
:1016E000FA0A031D7F2BF90A031D7F2BF80A031D3D
:1016F0007F2BF70A0319892BF80CF90CFA0C310827
:10170000BC003508BC06BC1F872BF8178D2BF813BF
:101710008D2BF701F801F901FA01831208003B3023
:101720008316AB008A1183120E278A157808831658
:10173000AA003C30AB008A1183120E278A15780864
:101740008316AB002A08A5002B08A4002508AD00CD
:101750002408AC0083129C227A088316AF00790813
:10176000AE007808AD007708AC002F08B3002E0853
:10177000B2002D08B1002C08B000B701B601B501C8
:101780008D30B4008312C3227A088316A900790829
:10179000A8007808A7007708A6002608F700270801
:1017A000F8002808F9002908FA0083128A110A169D
:1017B00067283D308316AB008A1183120E278A15E5
:1017C00078088316AA003E30AB008A1183120E27D8
:1017D0008A1578088316AB002A08A5002B08A400F8
:1017E0002508AD002408AC0083129C227A088316D9
:1017F000AF007908AE007808AD007708AC002F087C
:10180000B3002E08B2002D08B1002C08B000B701BB
:10181000B601B5018D30B4008312C3227A08831655
:10182000A9007908A8007808A7007708A60026086C
:10183000F7002708F8002808F9002908FA008312A1
:101840008A110A1674288E30F70083162508F800CE
:101850002408F900FA01F808031D382C7908F8006B
:10186000F9010830F702F808031D382CF701402C65
:101870000310F81B3F2CF90DF80DF703382CF81363
:101880008312080083162F08C9002E08C8002D08EF
:10189000C7002C08C6002708CD002608CC00250864
:1018A000CB002408CA008A11831292238A157A0871
:1018B0008316BB007908BA007808B9007708B80029
:1018C0002908FA0028088400831329188317CB01FC
:1018D0000408CA004B10831B4B1483100008CC0073
:1018E000840A0008CD00840A0008CE00840A00089B
:1018F000CF002708D3002608D2002508D1002408ED
:10190000D0008A118312C8258A1583164A088400DC
:1019100083134B18831777088000840A78088000A7
:10192000840A79088000840A7A08800028088400E4
:101930008313291883170008F700840A0008F800A9
:10194000840A0008F900840A0008FA003308C90074
:101950003208C8003108C7003008C6007A08CD0038
:101960007908CC007808CB007708CA008A11831266
:1019700092238A157A088316BF007908BE0078087A
:10198000BD007708BC002A08840083132B18831736
:101990000008F700840A0008F800840A0008F9002B
:1019A000840A0008FA00C5010408C4004510831B1E
:1019B000451483142708CF002608CE002508CD0043
:1019C0002408CC007A08D3007908D2007808D10026
:1019D0007708D0008A118312C8258A158316440817
:1019E00084008313451883173708C9003608C800D8
:1019F0003508C7003408C6007A08CD007908CC0045
:101A00007808CB007708CA008A11831292238A15BE
:101A10007A088316C3007908C2007808C1007708E5
:101A2000C0002A08840083132B1883172408800021
:101A3000840A25088000840A26088000840A270872
:101A4000800083103B08CF003A08CE003908CD0053
:101A50003808CC003F08D3003E08D2003D08D10032
:101A60003C08D0008A118312C8258A157A0883168B
:101A7000C7007908C6007808C5007708C40083103D
:101A80004708CF004608CE004508CD004408CC00EA
:101A90004308D3004208D2004108D1004008D000DA
:101AA0008A118312C8258A15080083162408F700B6
:101AB0002508F8002608F9002708FA00F8137A0824
:101AC000B3007908B2007808B1007708B000330895
:101AD000B7003208B6003108B5003008B4008312F0
:101AE0004C088316BB0083124B088316BA0083127E
:101AF0004A088316B900831249088316B8003508CE
:101B0000BC003908BC06BC1F8A2D03110310B51B8D
:101B10000314BD2D3508BC003808BD003408BD02D3
:101B20000319982DBC1FBD2D0308013A8300BD2D5C
:101B30003908BD003508BD020319A42DBC1FBD2DF9
:101B40000308013A8300BD2D3A08BD003608BD02E6
:101B50000319B02DBC1FBD2D0308013A8300BD2D14
:101B60003B08BD003708BD020319BC2DBC1FBD2DAD
:101B70000308013A8300BD2D0310031CD52D2B084B
:101B8000C9002A08C8002908C7002808C6002F086D
:101B9000CD002E08CC002D08CB002C08CA008A11DD
:101BA000831292238A15DE2D83162808F700290850
:101BB000F8002A08F9002B08FA008312080083169F
:101BC00027082502AF002608B0002808031C280FAC
:101BD000B0022B082D02F7002E08FA002C08031C77
:101BE0002C0FFA027708B1007A08B2003008B4006E
:101BF0002F08B3003208B6003108B5001030B70026
:101C0000F701FA01B40CB30C031C0C2E3508F707CE
:101C10000318FA0A3608FA07FA0CF70CF90CF80C54
:101C2000B70B022E7908B0007808AF002708290208
:101C3000F7002A08FA002808031C280FFA02770880
:101C4000B1007A08B2003008B4002F08B30032089F
:101C5000B6003108B500F801F901F701FA013608BC
:101C6000031D352E350803194F2E1030B700031011
:101C7000B30DB40DF70DFA0D36087A02031D422E8E
:101C800035087702031C4B2E3508F702031CFA03B4
:101C90003608FA020314F80DF90DB70B372E790840
:101CA000B0007808AF002B082F07F8003008FA00C2
:101CB0002C0803182C0FFA077A08F9008312080081
:101CC0008316A6012408A500A801A701AA01B43023
:101CD000A900AC010B30AB00AE013030AD00831277
:101CE000DF257808AE008A110A168F2A8316A6010E
:101CF0002408A500A801A701AA01B430A900AC01DD
:101D00000B30AB00AE013030AD008312DF25780818
:081D1000AF008A110A169F2A98
:1020000003081F398300FF30AB00AD01AC01BB01F9
:10201000BA01B9017F30B800BF01BE01BD01BC01EA
:10202000C301C201C101C001C701C601C501C4018C
:10203000F430C800CC01CB012030CA008130C90087
:10204000CD30D000CC30CF004C30CE007C30CD0035
:10205000D401D301D201D101D801D701D601D501D4
:10206000DC01DB01DA01D901E001DF01DE01DD0184
:1020700083161F149F141F159F1107309C00831394
:102080000A12831238290A160A122C2A0A160A1270
:10209000462A0A16A03003178D0000308F000A125E
:1020A0000313A22A0A16831606148312061864283C
:1020B0000A128A1500280A168A11C8308316B3003E
:1020C0000A128312B9200A160A128A158F2B0A16D1
:1020D0008A117A08E4007908E3007808E2007708BA
:1020E000E1000A128A15D92B0A168A117A08E8002B
:1020F0007908E7007808E6007708E50064088316A9
:10210000C900831263088316C8008312620883160D
:10211000C700831261088316C600CD01CC01483088
:10212000CB008530CA000A12831292230A167A085D
:102130008316A7007908A6007808A5007708A400F0
:102140000A128312DA270A167808EB006808831649
:10215000C900831267088316C800831266088316B5
:10216000C700831265088316C600CD01CC01483034
:10217000CB008530CA000A12831292230A167A080D
:102180008316A7007908A6007808A5007708A400A0
:102190000A128312DA270A167808EC000130831637
:1021A000B300B4000A12831254220A16A630031791
:1021B0008D0000308F000310043083160313A50038
:1021C0000A12831218230A166B088316A50018300A
:1021D000A6000A12831265250A16A93003178D007E
:1021E00000308F000310043083160313A5000A1279
:1021F000831218230A166C088316A5001830A6004F
:102200000A12831265250A168316A50183126B082C
:102210008316A4000A128A15831223240A168A112F
:10222000831447088316CF00831246088316CE0016
:10223000831245088316CD00831244088316CC0010
:102240007A08D3007908D2007808D1007708D00046
:102250000A128312C8250A167A08F0007908EF00DE
:102260007808EE007708ED008316A50183126C084C
:102270008316A4000A128A15831223240A168A11CF
:10228000831447088316CF00831246088316CE00B6
:10229000831245088316CD00831244088316CC00B0
:1022A0007A08D3007908D2007808D1007708D000E6
:1022B0000A128312C8250A167A08F4007908F30076
:1022C0007808F2007708F10070088316A7008312DF
:1022D0006F088316A60083126E088316A50083126A
:1022E0006D088316A400A9015130A800AB01593034
:1022F000AA0083123B088316AF0083123A088316A4
:10230000AE00831239088316AD0083123808831695
:10231000AC0083123F088316B30083123E08831675
:10232000B20083123D088316B10083123C08831665
:10233000B000831243088316B70083124208831645
:10234000B600831241088316B50083124008831635
:10235000B4000A128A15831242240A168A117A08D6
:10236000FE007908FD007808FC007708FB0074087F
:102370008316A7007308A6007208A5007108A400C0
:10238000A9015530A800AB015D30AA0083123B08BB
:102390008316AF0083123A088316AE008312390801
:1023A0008316AD00831238088316AC0083123F08F1
:1023B0008316B30083123E088316B20083123D08D1
:1023C0008316B10083123C088316B00083124308C1
:1023D0008316B700831242088316B60083124108A1
:1023E0008316B500831240088316B4000A128A15BA
:1023F000831242240A168A117A088316A3007908E8
:10240000A2007808A1007708A0007008A700831236
:102410006F088316A60083126E088316A500831228
:102420006D088316A4007E08AB007D08AA007C0816
:10243000A9007B08A800831250088316AF008312FE
:102440004F088316AE0083124E088316AD00831228
:102450004D088316AC000A128A15831255250A16F8
:102460008A117A08FE007908FD007808FC007708D8
:10247000FB0074088316A7007308A6007208A50065
:102480007108A4002308AB002208AA002108A900B3
:102490002008A800831250088316AF0083124F084B
:1024A0008316AE0083124E088316AD0083124D08CA
:1024B0008316AC000A128A15831255250A168A1152
:1024C0007A088316A3007908A2007808A10077088B
:1024D000A0007E08A7007D08A6007C08A5007B0858
:1024E000A4000A128312DA270A1678085A3CE90077
:1024F00083162308A7002208A6002108A5002008AB
:10250000A4000A128312DA270A1678085A3CEA0055
:1025100069088316A4000A128A158312602E0A160F
:102520008A1148088316B3000A128312B9200A16CA
:102530006A088316A4000A128A158312762E0A16D8
:102540008A1148088316B3000A128312B9200A16AA
:1025500001308316B3000230B4000A1283125422F1
:102560000A16AD3003178D0000308F0003100930BC
:1025700083160313A5000A12831218230A1669088A
:102580008316A5001830A6000A12831265250A16C4
:10259000B23003178D0000308F0003140A30831609
:1025A0000313A5000A12831218230A166A08831659
:1025B000A5001830A6000A12831265250A160230FB
:1025C000F500FA308316B3000A128312B9200A16F6
:0825D000F50BE12A532863001A
:02400E003A3F37
:00000001FF
;PIC16F877A
;CRC=5AAE  CREATED="18-nov.-24 17:01"
