:1000000006308A00BB2E0000FF00030E8301A10012
:100010000A08A0008A010408A2007708A300780853
:10002000A4007908A5007A08A60003170D08031399
:10003000A70003170F080313A80003170C080313E6
:10004000A90003170E080313AA00831383128B1E43
:100050002B280B194C28220884002308F7002408B9
:10006000F8002508F9002608FA00270803178D0074
:100070000313280803178F000313290803178C00A4
:1000800003132A0803178E00031320088A00210E89
:100090008300FF0E7F0E09008A110A124F280130DB
:1000A000AC070318AD0A2D08003C03186028FF3A7E
:1000B000031D5E282C08813C03186028AD01AC01AB
:1000C000AD08031D6C282E082C0203186C2883161B
:1000D000051083120514702883160510831205106D
:1000E000AD08031D7C282F082C0203187C288316DA
:1000F000851083128514802883168510831285103D
:100100000B118A110A122B28C2244527D622CE248D
:10011000C42700008C20781D2532A020791D2532AF
:10012000000049308400831300080319A428063016
:10013000F800F701F70B9A28F80B99287B30F700A5
:10014000F70BA028800B97280800500EF039F70015
:100150000F30080577048800000008140230F7000B
:10016000F70BB028B3280000081008000808F700B3
:10017000080E0F39F80008008316081088100811BF
:10018000831288100F3083160805F0388800831218
:100190000815000008140000B6207808D0000810E8
:1001A00000000814D328D4280000B6207808CF0017
:1001B00008100F308316080588008312500EF700D0
:1001C000F030F70577084F04F8007808CF00CF1B10
:1001D000C2284D1C88104D1888140000081100001A
:1001E00008104E0ECF000F30CF054F08D000A520CD
:1001F0004E080F39CF00D000A52008002830C100DC
:100200000C30C2000130C3000630C4000810881052
:1002100008110F308316080588000810881008118F
:100220000F308312C90091200130C0004008033C08
:10023000031C22290330D000A5200530C9009120DD
:10024000C00A16290230D000A5200530C90091202F
:10025000C0014008033C031C392941304007840099
:1002600083130008C500CD014508CE00BC20C00A9C
:1002700029298A110A12CC2E0830F8000430F70020
:10028000F70B40298711AB112B0883168700033029
:10029000F700F70B49298312C90D0712031C5629D1
:1002A0002B162B08831687005A2983122B122B0832
:1002B0008316870000008312AB152B088316870076
:1002C0008312871D6129F80B3E290430F700F70BD4
:1002D00067298711AB112B08831687000000831252
:1002E0002B162B08831687000330F700F70B7629AF
:1002F0000330F700F70B7A298312AB152B0883160E
:1003000087008312871D8229F8010330F700F70B5D
:100310008729071A78148711AB112B0883168700D9
:10032000831207122B122B088316870083120800F2
:100330002B162B08831687000430F700F70B9E2935
:100340008312AB152B08831687000330F700F70BD9
:10035000A729831207122B122B088316870004305B
:10036000F700F70BB12983128711AB112B08831605
:100370008700D0308312C9003C214008C9003C21CD
:100380004108C9003C212B122B088316870000006E
:100390008312AB152B08831687008312871DCE2985
:1003A0000430F700F70BD229D52900002B162B08B3
:1003B000831687000430F700F70BDC29831208004E
:1003C0006B30C000C10198216430C9009120193000
:1003D000C0000730C10098216430C90091208A1103
:1003E0000A12CD2E83160108C739083881008312FE
:1003F0008B16C0308B04E63081008A110A12CE2E93
:100400004A0B032A062A4030CB00072ACB010130D1
:100410004902CB074B088038CC00CD014C08CE00F8
:10042000BC2008004808073A0319202A0B3A031990
:10043000252A063A03192D2A023A0319332A382AA3
:100440000130C900CA0000223D2ACD010130CE0092
:10045000BC200230C90091203D2A0130C900023081
:10046000CA0000223D2ACD011030CE00BC203D2A1A
:100470000130CD004808CE00BC2008000B08C000A9
:100480008B13831603178C170C14000000008312C3
:100490000313C01B8B1703170C087F390319922A0B
:1004A0000313C00003170D080313C10003170F083F
:1004B0000313C2004008C8001222410803178D0030
:1004C0000313420803178F0003130B08C3008B1399
:1004D000831603178C170C140000000083120313FB
:1004E000C31B8B1703170C0D0E0D7F390319922AAE
:1004F0000313C00003170D080313C10003170F08EF
:100500000313C2004008C8001222410803178D00DF
:100510000313420803178F008D0A03198F0A031370
:100520003E2A031703138A110A12D52E2B162B0805
:10053000831687000430F700F70B9C2A8312AB1553
:100540002B08831687000330F700F70BA52A8312C8
:1005500007122B122B08831687000430F700F70BC5
:10056000AF2A83128711AB112B0883168700D03076
:100570008312C9003C214708C9003C212B162B08D7
:10058000831687000430F700F70BC42A8312AB15DB
:100590002B08831687000330F700F70BCD2A831250
:1005A000871DD02A07122B122B08831687000430D0
:1005B000F700F70BD92A83128711AB112B0883168A
:1005C0008700D1308312C9003C21F7010830CA00EE
:1005D0007708CB002B162B08831687000330F70013
:1005E000F70BF02A8312AB152B08831687008312B2
:1005F000871DF82A071A0314071E0310F80D04308C
:10060000F700F70B012BAB112B0883168700831221
:100610008711CA0BEA2A2B162B0883168700033092
:10062000F700F70B112B831207124B0803191D2B30
:100630002B122B088316870083120000AB152B08A2
:10064000831687008312871D232B0430F700F70BD6
:10065000272B8711AB112B08831687000330F70077
:10066000F70B302B831207122B122B0883168700EF
:1006700078088312C8002B122B088316870000000D
:100680008312AB152B08831687008312871D462B18
:100690000430F700F70B4A2B4D2B00002B162B08CC
:1006A000831687000430F700F70B542B8312480899
:1006B000F80008008E30F7004908F8004808F900F3
:1006C000FA01C91F682BF809F909F90A0319F80A90
:1006D000F808031D752B7908F800F9010830F702B6
:1006E000F808031D752BF7017E2B0310F81B7C2BDC
:1006F000F90DF80DF703752BC91FF81308004C0806
:100700000319442CD80050080319442CD802031CA8
:100710008E2B7F30D8070318442C942B8130D802BD
:10072000031C442C0319442C5808F700F801F90164
:10073000FA01D7014D08D600D6174E08D5004F084C
:10074000D4001930D8005308D4020318B72B013055
:10075000D5020318B72BD6020318B72BD7020318FC
:10076000B72BD70AD60AD50A5308D407E92B520863
:10077000D5020318D22B0130D6020318D22BD70290
:100780000318D22BD70AD60A5208D5075308D40724
:10079000031CE92BD50A031DE92BD60A031DE92BFF
:1007A000D70AE92B51088038D6020318E82B01300C
:1007B000D7020318E82BD70A51088038D607520809
:1007C000D507031CC62BD60A031DC62BD70AC62B7A
:1007D0007A14D80BEC2BF72B0310D40DD50DD60DB6
:1007E000D70D0310FA0DF90DF80DD90DA32B591CD7
:1007F000FF2B0310F80CF90CFA0CD90C022CF703A0
:100800000319442CD91B2B2C0310D40DD50DD60D58
:10081000D70D5308D4020318172C0130D502031842
:10082000172CD6020318172CD702031C3A2C520897
:10083000D5020318222C0130D6020318222CD7022D
:10084000031C3A2C51088038D60203182B2C013097
:10085000D702031C3A2CFA0A031D3A2CF90A031D8D
:100860003A2CF80A031D3A2CF70A0319442CF80C09
:10087000F90CFA0C4D08D8005108D806D81F422CA4
:10088000F817482CF813482CF701F801F901FA0180
:1008900008003B30C70096227808C6003C30C700ED
:1008A00096227808C7004608C1007808C0004108B1
:1008B000C9004008C8005A237A08CB007908CA004A
:1008C0007808C9007708C8007A08CF007908CE00F8
:1008D0007808CD007708CC00D301D201D1018D304A
:1008E000D0007F237A08C5007908C4007808C300C7
:1008F0007708C2004208F7004308F8004408F900EE
:100900004508FA008A110A12D62E3D30C7009622F9
:100910007808C6003E30C70096227808C70046080F
:10092000C1007808C0004108C9004008C8005A2327
:100930007A08CB007908CA007808C9007708C8008F
:100940007A08CF007908CE007808CD007708CC006F
:10095000D301D201D1018D30D0007F237A08C500A8
:100960007908C4007808C3007708C2004208F7007D
:100970004308F8004408F9004508FA008A110A12F1
:10098000DF2E41080319312DC90045080319312D07
:10099000C9070318D22C7F30C902031C312D03195B
:1009A000312DD62C8130C9070318312D4908F700A5
:1009B000F801F901FA014208CD00CD174308CC0037
:1009C0004408CB001830C900CA014B1CFF2C480852
:1009D000FA07031CF12CF90A031DF12CF80A03197C
:1009E000CA174708F907031CF82CF80A0319CA1795
:1009F0004608C300C3174308F8070318CA17CA0DEF
:100A0000F80CF90CFA0CCD0CCC0CCB0C0310C90B68
:100A1000E42C0130F7070318312DF81B162DCD0DEE
:100A2000FA0DF90DF80DF7030319312DCD1F272D00
:100A3000FA0A031D272DF90A031D272DF80A031DA5
:100A4000272DF80CF90CFA0CF70A0319312D42087E
:100A5000CA004608CA06CA1F2F2DF817352DF813ED
:100A6000352DF701F801F901FA0108008E30F70081
:100A70004108F7024208F9004308F800F917F7089F
:100A800003194D2D0310F908031D492DF80803190A
:100A90004D2DF90CF80CF70B422DC21F542DF809FF
:100AA000F909F80A0319F90A08000B08C3008B13A7
:100AB000831603178C170C14000000008312031315
:100AC000C31B8B1703188C2D03170C087F390313D6
:100AD000C30003170D080313C40003170F08031303
:100AE000C5004308C8001222440803178D000313F1
:100AF000450803178F0003130B08C6008B138316DA
:100B000003178C170C140000000083120313C61B7C
:100B10008B17C20B8C2DAB2D03170C0D0E0D7F39CF
:100B20000313C30003170D080313C40003170F08B2
:100B30000313C5004308C8001222440803178D00A0
:100B40000313450803178F008D0A03198F0A03103A
:100B50000313C20B552D08004908F8014802031879
:100B6000B42D4808F700C02DF7010830CA00C80DA1
:100B7000F70D490877020318F700F80DCA0BB72DD7
:100B800008002030431E3030C4004208F700C21F66
:100B9000D12DF709F70A7708C2002D30C400C3171A
:100BA00043144208C8006430C900AC257708C2006D
:100BB00030307807C5004208C8000A30C900AC25AB
:100BC00030307707C70030307807C6004408F70098
:100BD000303045020319F02DC314C31B4315042EF6
:100BE0004408C5002030C400303046020319FC2DF3
:100BF0004314C31BC314042E031D4314031D042EEE
:100C00004508C6002030C50043190B2EC3180E2E10
:100C10004318112E142E4408C80012224508C8009B
:100C200012224608C80012224708C80012220800F3
:100C300043084102CB004208CC004408031C440F87
:100C4000CC0247084902F7004A08FA004808031C8A
:100C5000480FFA027708CD007A08CE004C08D00081
:100C60004B08CF004E08D2004D08D1001030D30001
:100C7000F701FA01D00CCF0C031C442E5108F707E2
:100C80000318FA0A5208FA07FA0CF70CF90CF80CD8
:100C9000D30B3A2E7908CC007808CB0043084502E4
:100CA000F7004608FA004408031C440FFA027708CC
:100CB000CD007A08CE004C08D0004B08CF004E087B
:100CC000D2004D08D100F801F901F701FA015208EC
:100CD000031D6D2E51080319872E1030D300031009
:100CE000CF0DD00DF70DFA0D52087A02031D7A2EA2
:100CF00051087702031C832E5108F702031CFA03E4
:100D00005208FA020314F80DF90DD30B6F2E79086F
:100D1000CC007808CB0047087807F8007908FA007B
:100D200048080318480FFA077A08F9000800C201BA
:100D30004008C100C401C301C601B430C500C801E8
:100D40000B30C700CA013030C90018267808AE0041
:100D50000800C2014008C100C401C301C601B4308B
:100D6000C500C8010B30C700CA013030C9001826C1
:100D70007808AF00080003081F398300FF30AB007C
:100D8000AD01AC0183161F149F141F159F1107306E
:100D90009C0083138312FE28E029F2298430031774
:100DA0008D0000308F0003133E2A492C7A08BB00C7
:100DB0007908BA007808B9007708B800852C7A0855
:100DC000BF007908BE007808BD007708BC0001307C
:100DD000C900CA0000223B08C4003A08C300390811
:100DE000C2003808C100C801C7014830C6008530BC
:100DF000C500C1247A08C4007908C3007808C2007D
:100E00007708C10036257808C0003F08C4003E08B6
:100E1000C3003D08C2003C08C100C801C7014830FA
:100E2000C6008530C500C1247A08C4007908C30013
:100E30007808C2007708C10036257808C1008A30DA
:100E400003178D0000308F00031004300313C2001D
:100E500055254008C2001830C300C1258D30031746
:100E60008D0000308F00031004300313C20055259D
:100E70004108C2001830C300C1253C30C00097268D
:100E80000230C000FA30C9009120C00B422F5A3006
:100E9000C00097260230C000FA30C9009120C00B74
:100EA0004C2F7830C00097260230C000FA30C900BD
:100EB0009120C00B562F5A30C00097260230C00038
:100EC000FA30C9009120C00B602F3C30C000A92629
:100ED0000230C000FA30C9009120C00B6A2F5A308E
:100EE000C000A9260230C000FA30C9009120C00B12
:100EF000742F7830C000A9260230C000FA30C90033
:100F00009120C00B7E2F5A30C000A9260230C000AD
:0E0F1000FA30C9009120C00B882FD52E630047
:02400E003A3F37
:00000001FF
;PIC16F877A
;CRC=45A5  CREATED="13-nov.-24 23:27"
