:1000000012308A00F62A0000FF00030E8301A100CF
:100010000A08A0008A010408A2007708A300780853
:10002000A4007908A5007A08A60003170D08031399
:10003000A70003170F080313A80003170C080313E6
:10004000A90003170E080313AA00831383120B1EC3
:100050002B288B1850288B1E2F280B195328220869
:1000600084002308F7002408F8002508F900260872
:10007000FA00270803178D000313280803178F00C1
:100080000313290803178C0003132A0803178E0093
:10009000031320088A00210E8300FF0E7F0E090043
:1000A0008A110A128D2D8A110A1256280130AD07C5
:1000B0000318AE0A2E08003C03186728FF3A031DF8
:1000C00065282D08813C03186728AE01AD01AE08F4
:1000D000031D73282F082D0203187328831605109B
:1000E0008312051477288316051083120510AE08B5
:1000F000031D832830082D020318832883168510DA
:1001000083128514872883168510831285100B119E
:100110008A110A122F280C004B38202C3A10251770
:1001200032330000CB34202C3A1025173233000133
:100130004B32202C3A102517323300014B38A02CBB
:100140003A10251732330001CB34A02C3A10251772
:10015000323300014B32A02C3A1025173233000104
:10016000D3327438EF346E3A202C3A1025173233DC
:100170000001D3327438EF346E3AA02C3A102517B0
:10018000323300018316081088100811831288107A
:100190000F3083160805F038880083120815000018
:1001A000081400000808F700080E0F39F800780856
:1001B0008316E1008312081000000814DF28E028ED
:1001C00000000808F700080E0F39F80078088316B9
:1001D000E000831208100F30831608058800610EB6
:1001E000F700F030F70577086004F8007808E000C1
:1001F000E01FFC288312C8285E180129831288108A
:1002000083165E1C0629831288148316000083124D
:1002100008110000081083165F0EE0000F30E005A3
:100220006008E100610EF039F7000F308312080515
:1002300077048800000008140230F700F70B1E292D
:1002400021290000081083165F080F39E0006008BC
:10025000E100610EF039F7000F30831208057704D2
:100260008800000008140230F700F70B3529382900
:1002700000000810080083165B0B3F29422940301C
:10028000DC004329DC0101305A02DC075C088038BD
:10029000DD00DE015D08DF008312C2200800DA30D5
:1002A000840083130008031962290630F800F7015F
:1002B000F70B5829F80B57297B30F700F70B5E290D
:1002C000800B5529080083165908073A8312031931
:1002D00073290B3A03197A29063A03198629023A37
:1002E00003198E29952901308316DA00DB00831269
:1002F0003B219C298316DE010130DF008312C220DE
:1003000002308316DA0083124F219C2901308316B4
:10031000DA000230DB0083123B219C298316DE01C8
:100320001030DF008312C2209C2901308316DE00CA
:100330005908DF008312C22008000B088316CC0086
:1003400083128B13831603178C170C140000000004
:100350000313CC1FAE2983128B1783168312031746
:100360000C087F3903190F2A83160313CC0083125C
:1003700003170D0883160313CD00831203170F080C
:1003800083160313CE004C08D90083126321831611
:100390004D08831203178D00831603134E08831232
:1003A00003178F0003130B088316CF0083128B13E0
:1003B000831603178C170C14000000000313CF1FC3
:1003C000E42983128B178316831203170C0D0E0D6D
:1003D0007F3903190F2A83160313CC0083120317E6
:1003E0000D0883160313CD00831203170F0883161D
:1003F0000313CE004C08D9008312632183164D08E5
:10040000831203178D00831603134E0883120317FC
:100410008F008D0A03198F0A03139D2903170313F5
:1004200008000B088316CD0083128B138316031765
:100430008C170C14000000000313CD1F222A831216
:100440008B17831603185B2A831203170C087F3956
:1004500083160313CD00831203170D0883160313AD
:10046000CE00831203170F0883160313CF004D0825
:10047000D9008312632183164E08831203178D005F
:10048000831603134F08831203178F0003130B08FF
:100490008316D00083128B13831603178C170C144A
:1004A000000000000313D01F582A83128B178316F5
:1004B000CC0B5B2A892A831203170C0D0E0D7F3992
:1004C00083160313CD00831203170D08831603133D
:1004D000CE00831203170F0883160313CF004D08B5
:1004E000D9008312632183164E08831203178D00EF
:1004F000831603134F08831203178F008D0A031905
:100500008F0A031083160313CC0B872A892A8312C0
:10051000112A83120800831659080319FC2AE100E6
:100520005D080319FC2AE10703189D2A7F30E102C8
:10053000031CFC2A0319FC2AA12A8130E1070318B5
:10054000FC2A6108F700F801F901FA015A08E500F0
:10055000E5175B08E4005C08E3001830E100E20105
:10056000631CCA2A6008FA07031CBC2AF90A031D87
:10057000BC2AF80A0319E2175F08F907031CC32A0B
:10058000F80A0319E2175E08DB00DB175B08F807BF
:100590000318E217E20DF80CF90CFA0CE50CE40C68
:1005A000E30C0310E10BAF2A0130F7070318FC2A14
:1005B000F81BE12AE50DFA0DF90DF80DF703031903
:1005C000FC2AE51FF22AFA0A031DF22AF90A031D82
:1005D000F22AF80A031DF22AF80CF90CFA0CF70AB1
:1005E0000319FC2A5A08E2005E08E206E21FFA2A12
:1005F000F817002BF813002BF701F801F901FA01A5
:10060000831208008318072BE13084008313F7015D
:10061000F801F901FA018316E101E201E301E401C5
:1006200060085F045E045D040319462B2030E5007A
:100630000310D90DDA0DDB0DDC0DE10DE20DE30D3C
:10064000E40D60086402031D2F2B5F086302031D85
:100650002F2B5E086202031D2F2B5D086102031C15
:10066000402B5D08E1025E08031C5E0FE2025F089A
:10067000031C5F0FE3026008031C600FE402031415
:10068000F70DF80DF90DFA0DE50B182B6108800038
:10069000840A62088000840A63088000840A64086F
:1006A00080008312080004088316D1005008D3008C
:1006B0000319752B4F08DC004E08DB004D08DA00EB
:1006C0004C08D900E001DF012030DE008230DD007F
:1006D00083128B227A088316CF007908CE0078081F
:1006E000CD007708CC00D30B5A2B4F08DC004E0806
:1006F000DB004D08DA004C08D9005908B63CD90097
:10070000FA015A08DD00DA170310DA0CDB0CDC0CF6
:10071000FA0CF90CF80CF70CD90B842BDD1F9B2B72
:10072000F709F809F909FA09F70A0319F80A031988
:10073000F90A0319FA0A7A08CF007908CE00780876
:10074000CD007708CC00CF1FB22BD103D116CC0936
:10075000CD09CE09CF09CC0A0319CD0A0319CE0A57
:100760000319CF0A3B30D8009A30D700CA30D600E0
:10077000D5010A30D30050080319D10A8314CC30B4
:10078000840083134F08DC004E08DB004D08DA00BC
:100790004C08D9005808E0005708DF005608DE0072
:1007A0005508DD00831202237808F708031DEF2B9C
:1007B0008316500A5302031DDF2B8312EF2B5108BF
:1007C0000319F22B0F3953020319E82B03182A2CB3
:1007D000D11B2A2C511BF22B2030242C83122030C9
:1007E0008316D105D11E022CD1125008031DD1034E
:1007F0007708D1002D30D900831263218316510868
:10080000F700D10150085302031D122C7708D100C4
:100810002E30D9008312632183165108F70020304F
:10082000D10500303030D11E242CD1125008031DC8
:10083000D1037708D1002D30D900831263218316AC
:100840005108F700D1013030F7077708D90083123B
:100850006321831683105808DC005708DB00560814
:10086000DA005508D900E001DF01DE010A30DD00C1
:10087000831202237A088316D8007908D7007808F3
:10088000D6007708D500D30BBE2B8312080080302A
:10089000831C4D2C8316D10683128316D601D701F3
:1008A0004D08D5005108D5064C0803193B2DD4003E
:1008B000F70050080319442DD4020319E02C031C3F
:1008C0009E2C5108DA00DA175208D9005308D800D4
:1008D000D7010310DA0CD90CD80CD70CD40B682C28
:1008E000D51F752C5614582D561054105616CF304F
:1008F000840083136D2D5612D51B882C541C932C09
:10090000DA0CD90CD80CD70CF70A0319532D932CF9
:10091000DA1B962C0310D70DD80DD90DDA0DF7037D
:100920000319532D882C5617002D56134D08D5004A
:10093000D51F9C2CDA174C2DDA134C2D5008D400FF
:10094000F7004C08D4024D08DA00DA174E08D90037
:100950004F08D800D7010310DA0CD90CD80CD70CEB
:10096000D40BAA2CD51FB72CD614582DD610541042
:10097000D616D330840083136D2DD612D51BCA2C06
:10098000541CD52CDA0CD90CD80CD70CF70A031947
:10099000532DD52CDA1BD82C0310D70DD80DD90D1B
:1009A000DA0DF7030319532DCA2CD617002DD613D1
:1009B0005108D500D51FDE2CDA174C2DDA134C2D3B
:1009C0005108DA00DA175208D9005308D800D51FA9
:1009D000ED2CDA135615582D5611D7015410CF307F
:1009E000840083136D2DD51B162D4D08D500541C86
:1009F000002DDA0CD90CD80CD70CF70A0319532D9B
:100A0000D71F112DD80A031D112DD90A031D112D31
:100A1000DA0A031D112DDA0CD90CD80CF70A0319C8
:100A2000532D561B952CD61BD72C352D8030DA062E
:100A3000DA1F1E2D582D5108D5002B2D4D08D5003D
:100A4000DA08031D2B2DD908031D2B2DD808031DF3
:100A50002B2DF7014C2DDA1B352D0310D70DD80D9A
:100A6000D90DDA0DF70B2B2D532DD51F392DDA1794
:100A70004C2DDA134C2D5008F7005108DA005208BB
:100A8000D9005308D8004C2D4C08F7004D08DA0067
:100A90004E08D9004F08D8005A08F8005908F90044
:100AA0005808FA008B2DF701F801F901FA018B2D96
:100AB000D701D809D909DA09D709D70A031D662D44
:100AC000D80A031D662DD90A0319DA0A5618742CA0
:100AD000D618B62C5619EC2C1B2D0008D807031C71
:100AE000772DD90A031D772DDA0A031954148403CC
:100AF0000008D907031C7F2DDA0A03195414840354
:100B00000008801F803ADA0703185414561A7B2C09
:100B1000D61ABD2CF32C831208008A1500288A11DE
:100B20008B108A110A122F280C00413C3A1025170D
:100B300032330001C13C3A1025173233000028300F
:100B40008316A5000C30A6000130A7000630A800CF
:100B500083120810881008110F30831608058800CA
:100B60000810881008118312AB018B1BAB178B1375
:100B70000F308316DA0083124F21AB1B8B17013025
:100B80008316A4002408033C031CE72D0330E10076
:100B9000610EF039F7000F308312080577048800E2
:100BA000000008140230F700F70BD42DD72D0000F9
:100BB0000810AB018B1BAB178B1305308316DA00C3
:100BC00083124F21AB1B8B178316A40AC22D023050
:100BD000E100610EF039F7000F3083120805770449
:100BE0008800000008140230F700F70BF52DF82DEF
:100BF00000000810AB018B1BAB178B13053083165D
:100C0000DA0083124F21AB1B8B178316A401240833
:100C1000033C031C212EA530240784008313000805
:100C2000A9008312AB018B1BAB178B138316DE015C
:100C30002908DF008312C220AB1B8B178316A40A7E
:100C4000072E83128A110A16552B0830F80004303B
:100C5000F700F70B292E8711AC112C08831687009B
:100C60000330F700F70B322EAD0D83120712031C71
:100C70003F2E2C162C0883168700432E83122C122D
:100C80002C088316870000008312AC152C088316ED
:100C900087008312871D4A2EF80B272E0430F70099
:100CA000F70B502E8711AC112C088316870000001B
:100CB00083122C162C08831687000330F700F70BDD
:100CC0005F2E0330F700F70B632E8312AC152C0850
:100CD000831687008312871D6B2EF8010330F700FF
:100CE000F70B702E071A78148711AC112C08831695
:100CF0008700831207122C122C0883168700831298
:100D000008002C162C08831687000430F700F70B18
:100D1000872E8312AC152C08831687000330F7004A
:100D2000F70B902E831207122C122C0883168700C3
:100D30000430F700F70B9A2E83128711AC112C08A0
:100D400083168700D030AD008312252683162B082A
:100D5000AD00831225262C162C088316870004303C
:100D6000F700F70BB12E8312AC152C088316870001
:100D70000330F700F70BBA2E8312871DBD2E071222
:100D80002C122C08831687000430F700F70BC62EB0
:100D900083128711AC112C0883168700D130AD0067
:100DA00083122526F70108308316AE007708AF00BE
:100DB00083122C162C08831687000330F700F70BDC
:100DC000DF2E8312AC152C08831687008312871D33
:100DD000E72E071A0314071E0310F80D0430F7005E
:100DE000F70BF02EAC112C088316870083128711A5
:100DF0008316AE0BD82E83122C162C088316870070
:100E00000330F700F70B022F8312071283162F0807
:100E100003190F2F83122C122C0883168700000051
:100E20008312AC152C08831687008312871D162F9A
:100E30000430F700F70B1A2F8711AC112C0883161A
:100E400087000330F700F70B232F831207122C12B1
:100E50002C08831687007808AC0083122C122C080B
:100E60008316870000008312AC152C0883168700B8
:100E70008312871D392F0430F700F70B3D2F402FC9
:100E800000002C162C08831687000430F700F70B9F
:100E9000472F2C08F800831208003B308316AB0064
:100EA0008312812678088316AA003C30AB00831297
:100EB000812678088316AB002A08A5002B08A40019
:100EC0002508AD002408AC008E30F7002D08F8008E
:100ED0002C08F900FA01AD1F722FF809F909F90A77
:100EE0000319F80AF808031D7F2F7908F800F901A3
:100EF0000830F702F808031D7F2FF701882F031031
:100F0000F81B862FF90DF80DF7037F2FAD1FF8138F
:100F10007A08AF007908AE007808AD007708AC0019
:100F20002F08B3002E08B2002D08B1002C08B00025
:100F3000B701B601B5018D30B4008A1583122024A3
:100F40008A117A088316A9007908A8007808A700F2
:100F50007708A6002608F7002708F8002808F900F7
:100F60002908FA0083128A110A165E2B83163908A3
:100F7000C0003D08C006C01FC22F03110310B91BDB
:100F80000314F52F3908C0003C08C1003808C1021D
:100F90000319D02FC01FF52F0308013A8300F52F46
:100FA0003D08C1003908C1020319DC2FC01FF52F0D
:100FB0000308013A8300F52F3E08C1003A08C10238
:100FC0000319E82FC01FF52F0308013A8300F52FFE
:100FD0003F08C1003B08C1020319F42FC01FF52FC1
:0E0FE0000308013A8300F52F03108312080066
:101000008316CA01CB01CB08031DF82B8B3083124A
:1010100003178D0000308F008A1103139D218A155C
:1010200001308316DA00DB008A1183123B218A1516
:1010300083164A08F83E03185929083E8312FC2BF0
:101040008C3003178D0000308F000310063083169C
:101050000313CC008A11831211228A15893084006F
:101060003C088316CF0083123B088316CE00831200
:101070003A088316CD00831239088316CC0002305B
:10108000D0008A11831253238A158316592992306E
:1010900003178D0000308F000310063083160313F2
:1010A000CC008A11831211228A15893084004008ED
:1010B0008316CF0083123F088316CE0083123E08AA
:1010C0008316CD0083123D088316CC000230D00079
:1010D0008A11831253238A158316592998300317CE
:1010E0008D0000308F000310063083160313CC00F0
:1010F0008A11831211228A158930840044088316CC
:10110000CF00831243088316CE0083124208831651
:10111000CD00831241088316CC000230D0008A1122
:10112000831253238A15831659299E3003178D0085
:1011300000308F000310063083160313CC008A1191
:10114000831211228A158930840048088316CF0043
:10115000831247088316CE00831246088316CD00FB
:10116000831245088316CC000230D0008A11831206
:1011700053238A1583165929A43003178D00003094
:101180008F000310063083160313CC008A118312DC
:1011900011228A15893084004C088316CF008312EF
:1011A0004B088316CE0083124A088316CD008312A3
:1011B00049088316CC000230D0008A1183125323D1
:1011C0008A1583165929AA3003178D0000308F0025
:1011D0000310063083160313CC008A1183121122E8
:1011E0008A158930840050088316CF0083124F0877
:1011F0008316CE0083124E088316CD0083124D084D
:101200008316CC000230D0008A11831253238A1532
:1012100083165929B03003178D0000308F0003105A
:101220000C3083160313CC008A11831211228A1505
:101230008930840054088316CF0083125308831624
:10124000CE00831252088316CD00831251088316F4
:10125000CC000230D0008A11831253238A158316E2
:101260005929B93003178D0000308F0003100C305E
:1012700083160313CC008A11831211228A15893038
:10128000840058088316CF00831257088316CE00B7
:10129000831256088316CD00831255088316CC009E
:1012A0000230D0008A11831253238A1583165929DC
:1012B00083168614831286189A2A8316861483123C
:1012C000861C5D2983164A08F83E03189B2A083EAF
:1012D0008312082C83103C088316CF0083123B082E
:1012E0008316CE0083123A088316CD008312390884
:1012F0008316CC00CD30D300CC30D2004C30D1009E
:101300007A30D0008A11831247248A157A08BC00EB
:101310007908BB007808BA007708B90083169B2AC1
:10132000831040088316CF0083123F088316CE0037
:1013300083123E088316CD0083123D088316CC002D
:10134000CD30D300CC30D2004C30D1007B30D00037
:101350008A11831247248A157A08C0007908BF00D1
:101360007808BE007708BD0083169B2A83104408C6
:101370008316CF00831243088316CE0083124208DF
:101380008316CD00831241088316CC000A30D300A7
:10139000D730D2002330D1007830D0008A118312A8
:1013A00047248A157A08C4007908C3007808C20067
:1013B0007708C10083169B2A831048088316CF0044
:1013C000831247088316CE00831246088316CD0089
:1013D000831245088316CC00CD30D300CC30D20028
:1013E0004C30D1007A30D0008A11831247248A15FC
:1013F0007A08C8007908C7007808C6007708C500D1
:1014000083169B2A83104C088316CF0083124B0847
:101410008316CE0083124A088316CD008312490832
:101420008316CC00CD30D300CC30D2004C30D1006C
:101430007B30D0008A11831247248A157A08CC00A9
:101440007908CB007808CA007708C90083169B2A60
:10145000831050088316CF0083124F088316CE00E6
:1014600083124E088316CD0083124D088316CC00DC
:101470000A30D300D730D2002330D1007830D000EA
:101480008A11831247248A157A08D0007908CF0080
:101490007808CE007708CD0083169B2A8310540865
:1014A0008316CF00831253088316CE00831252088E
:1014B0008316CD00831251088316CC00CD30D300A3
:1014C000CC30D2004C30D1007B30D0008A11831256
:1014D00047248A157A08D4007908D3007808D20006
:1014E0007708D10083169B2A831058088316CF00F3
:1014F000831257088316CE00831256088316CD0038
:10150000831255088316CC00CD30D300CC30D200E6
:101510004C30D1007B30D0008A11831247248A15C9
:101520007A08D8007908D7007808D6007708D5005F
:1015300083169B2A8316061583120619DC2B831645
:1015400006158312061D9F2A83164A08F83E0318C3
:10155000DD2B083E8312142C83143C088316CF0025
:1015600083123B088316CE0083123A088316CD00FF
:10157000831239088316CC00CD30D300CC30D20092
:101580004C30D1007A30D0008A11831247248A155A
:101590007A08BC007908BB007808BA007708B9005F
:1015A0008316DD2B831440088316CF0083123F0877
:1015B0008316CE0083123E088316CD0083123D08A9
:1015C0008316CC00CD30D300CC30D2004C30D100CB
:1015D0007B30D0008A11831247248A157A08C00014
:1015E0007908BF007808BE007708BD008316DD2BA0
:1015F000831444088316CF00831243088316CE0059
:10160000831242088316CD00831241088316CC0052
:101610000A30D300D730D2002330D1007830D00048
:101620008A11831247248A157A08C4007908C300F6
:101630007808C2007708C1008316DD2B83144808A0
:101640008316CF00831247088316CE008312460804
:101650008316CD00831245088316CC00CD30D3000D
:10166000CC30D2004C30D1007A30D0008A118312B5
:1016700047248A157A08C8007908C7007808C60088
:101680007708C5008316DD2B83144C088316CF0022
:1016900083124B088316CE0083124A088316CD00AE
:1016A000831249088316CC00CD30D300CC30D20051
:1016B0004C30D1007B30D0008A11831247248A1528
:1016C0007A08CC007908CB007808CA007708C900EE
:1016D0008316DD2B831450088316CF0083124F0826
:1016E0008316CE0083124E088316CD0083124D0858
:1016F0008316CC000A30D300D730D2002330D1007B
:101700007830D0008A11831247248A157A08D000D5
:101710007908CF007808CE007708CD008316DD2B3E
:10172000831454088316CF00831253088316CE0007
:10173000831252088316CD00831251088316CC0001
:10174000CD30D300CC30D2004C30D1007B30D00033
:101750008A11831247248A157A08D4007908D300A5
:101760007808D2007708D1008316DD2B831458083F
:101770008316CF00831257088316CE0083125608B3
:101780008316CD00831255088316CC00CD30D300CC
:10179000CC30D2004C30D1007B30D0008A11831283
:1017A00047248A157A08D8007908D7007808D60027
:1017B0007708D5008316DD2B8316861583128619CC
:1017C000EF2B831686158312861DE12B8316CA0A1A
:1017D0004A08073C0318EE2B0130CB008312C830B7
:1017E0008316DA008A1183124F218A158316032883
:1017F00083128A110A128F2D0A108A100A15820785
:10180000202847286E289528BC28E3280A29312952
:101810000A108A100A1582076A299029B629DC293C
:10182000022A282A4E2A742A0A108A100A158207C8
:10183000AC2AD22AF82A1E2B442B6A2B902BB62BCB
:10184000831630080319E62CBC0034080319E62C73
:10185000BC02031C302C7F30BC070318E62C362C4E
:101860008130BC02031CE62C0319E62C3C08F7006F
:10187000F801F901FA01BB013108BA00BA173208C0
:10188000B9003308B8001930BC003708B802031893
:10189000592C0130B9020318592CBA020318592CDB
:1018A000BB020318592CBB0ABA0AB90A3708B80791
:1018B0008B2C3608B9020318742C0130BA020318B5
:1018C000742CBB020318742CBB0ABA0A3608B90779
:1018D0003708B807031C8B2CB90A031D8B2CBA0AD6
:1018E000031D8B2CBB0A8B2C35088038BA020318D9
:1018F0008A2C0130BB0203188A2CBB0A35088038B9
:10190000BA073608B907031C682CBA0A031D682CED
:10191000BB0A682C7A14BC0B8E2C992C0310B80DC2
:10192000B90DBA0DBB0D0310FA0DF90DF80DBD0D73
:10193000452C3D1CA12C0310F80CF90CFA0CBD0C25
:10194000A42CF7030319E62CBD1BCD2C0310B80DF6
:10195000B90DBA0DBB0D3708B8020318B92C013008
:10196000B9020318B92CBA020318B92CBB02031C24
:10197000DC2C3608B9020318C42C0130BA02031853
:10198000C42CBB02031CDC2C35088038BA020318B7
:10199000CD2C0130BB02031CDC2CFA0A031DDC2C0D
:1019A000F90A031DDC2CF80A031DDC2CF70A0319C5
:1019B000E62CF80CF90CFA0C3108BC003508BC0612
:1019C000BC1FE42CF817EA2CF813EA2CF701F801F5
:1019D000F901FA01831208003D308316AB008A1129
:1019E000831281268A1578088316AA003E30AB0040
:1019F0008A11831281268A1578088316AB002A087B
:101A0000A5002B08A4002508AD002408AC008E30EA
:101A1000F7002D08F8002C08F900FA01AD1F152D6C
:101A2000F809F909F90A0319F80AF808031D222D23
:101A30007908F800F9010830F702F808031D222D93
:101A4000F7012B2D0310F81B292DF90DF80DF703C5
:101A5000222DAD1FF8137A08AF007908AE00780880
:101A6000AD007708AC002F08B3002E08B2002D0897
:101A7000B1002C08B000B701B601B5018D30B4003B
:101A8000831220247A088316A9007908A800780810
:101A9000A7007708A6002608F7002708F8002808FE
:101AA000F9002908FA0083128A110A166A2B831694
:101AB0003708BB003608BA003508B9003408B8004A
:101AC000BF01BE01BD01BC018A118312B6278A1570
:101AD000031C762D83163408F7003508803AF80089
:101AE0003608F9003708FA007F2D83128316340870
:101AF000F7003508F8003608F9003708FA008312B5
:101B000008008314AB018B1BAB178B13580883168B
:101B1000CF00831257088316CE008312560883160F
:101B2000CD00831255088316CC002708D300260861
:101B3000D2002508D1002408D0008A11831247243E
:101B40008A15AB1B8B177A088316AB007908AA009D
:101B50007808A9007708A8002B08B7002A08B60063
:101B60002908B5002808B400831257257A0883167F
:101B7000B7007908B6007808B5007708B4003708D0
:101B8000BB003608BA003508B9003408B800831223
:101B90006C088316BF0083126B088316BE00831285
:101BA0006A088316BD00831269088316BC008A1177
:101BB0008312B6278A15031CE32D8316AB01AA01F5
:101BC000A901A80183128310AB018B1BAB178B13E8
:101BD00068088316CF00831267088316CE0083122D
:101BE00066088316CD00831265088316CC002B0887
:101BF000D3002A08D2002908D1002808D0008A1171
:101C0000831247248A15AB1B8B177A08E8007908E2
:101C1000E7007808E6007708E5008314AB018B1B2A
:101C2000AB178B1383162B08CF002A08CE00290888
:101C3000CD002808CC00831264088316D3008312D9
:101C400063088316D200831262088316D1008312C0
:101C500061088316D0008A11831247248A15AB1BB2
:101C60008B177A088316AF007908AE007808AD00AC
:101C70007708AC008312AB018B1BAB178B134808A2
:101C80008316DC00831247088316DB0083124608A4
:101C90008316DA00831245088316D9002B08E0006A
:101CA0002A08DF002908DE002808DD008A118312D7
:101CB0008B228A15AB1B8B177A088316B70079081D
:101CC000B6007808B5007708B4008312AB018B1B0F
:101CD000AB178B134C088316DC0083124B0883165A
:101CE000DB0083124A088316DA0083124908831640
:101CF000D900831268088316E000831267088316F0
:101D0000DF00831266088316DE00831265088316DF
:101D1000DD008A1183128B228A15AB1B8B1783106F
:101D2000AB018B1BAB178B1383163708CF0036081C
:101D3000CE003508CD003408CC007A08D3007908ED
:101D4000D2007808D1007708D0008A118312472486
:101D50008A15AB1B8B177A088316B7007908B60073
:101D60007808B5007708B4008312AB018B1BAB1762
:101D70008B1350088316DC0083124F088316DB0098
:101D800083124E088316DA0083124D088316D90099
:101D90002F08E0002E08DF002D08DE002C08DD00F3
:101DA0008A1183128B228A15AB1B8B178310AB0110
:101DB0008B1BAB178B1383163708CF003608CE006A
:101DC0003508CD003408CC007A08D3007908D20059
:101DD0007808D1007708D0008A11831247248A1529
:101DE000AB1B8B177A088316B3007908B20078080A
:101DF000B1007708B0002B088312E40083162A088C
:101E00008312E300831629088312E2008316280850
:101E10008312E10083163308BB003208BA00310890
:101E2000B9003008B800BF01BE01BD01BC018A1174
:101E30008312B6278A15031C232F8316B301B20120
:101E4000B101B00183128316BB01BA013430B9006D
:101E50008630B8003308BF003208BE003108BD002C
:101E60003008BC008A118312B6278A15031C402F44
:101E70008316B301B2013430B1008630B000831252
:101E800083163008F7003108F8003208F9003308EB
:101E9000FA0083128A110A16822C8E30F7008316FC
:101EA0002408F7022508F9002608F800F917F708B2
:101EB0000319652F0310F908031D612FF808031992
:101EC000652FF90CF80CF70B5A2FA51F6C2FF8098A
:0C1ED000F909F80A0319F90A8312080046
:102000008316A7012508A600A901A801AB01B430D9
:10201000AA00AD010B30AC00AF013030AE00280893
:102020002602B0002708B1002908031C290FB102BD
:102030002C082E02F7002F08FA002D08031C2D0F84
:10204000FA027708B2007A08B3003108B500300808
:10205000B4003308B7003208B6001030B800F701FA
:10206000FA01B50CB40C031C3B283608F70703181B
:10207000FA0A3708FA07FA0CF70CF90CF80CB80B47
:1020800031287908B1007808B00028082A02F70042
:102090002B08FA002908031C290FFA027708B2005E
:1020A0007A08B3003108B5003008B4003308B7002F
:1020B0003208B600F801F901F701FA013708031DEB
:1020C0006428360803197E281030B8000310B40DB8
:1020D000B50DF70DFA0D37087A02031D7128360881
:1020E0007702031C7A283608F702031CFA03370824
:1020F000FA020314F80DF90DB80B66287908B1003F
:102100007808B0002C083007F8003108FA002D08D4
:1021100003182D0FFA077A08F90078088312B00027
:102120008A110A16A12C8314AB018B1BAB178B13DE
:1021300054088316CF00831253088316CE008312EF
:1021400052088316CD00831251088316CC0027084D
:10215000D3002608D2002508D1002408D0000A1296
:10216000831247240A16AB1B8B177A088316AB0021
:102170007908AA007808A9007708A8002B08B700FA
:102180002A08B6002908B5002808B4000A128A15E2
:10219000831257250A168A117A088316B700790820
:1021A000B6007808B5007708B4003708BB003608D9
:1021B000BA003508B9003408B80083126C088316D9
:1021C000BF0083126B088316BE0083126A08831651
:1021D000BD00831269088316BC000A128312B62759
:1021E0000A16031CF9288316AB01AA01A901A8014C
:1021F00083128310AB018B1BAB178B136008831604
:10220000CF0083125F088316CE0083125E08831608
:10221000CD0083125D088316CC002B08D3002A085A
:10222000D2002908D1002808D0000A1283124724BE
:102230000A16AB1B8B177A08E0007908DF007808D4
:10224000DE007708DD008314AB018B1BAB178B130B
:1022500083162B08CF002A08CE002908CD002808B5
:10226000CC0083125C088316D30083125B088316AC
:10227000D20083125A088316D1008312590883169C
:10228000D0000A12831247240A16AB1B8B177A0858
:102290008316AF007908AE007808AD007708AC006F
:1022A0008312AB018B1BAB178B133C088316DC002E
:1022B00083123B088316DB0083123A088316DA0088
:1022C000831239088316D9002B08E0002A08DF00A2
:1022D0002908DE002808DD000A1283128B220A1664
:1022E000AB1B8B177A088316B7007908B6007808FD
:1022F000B5007708B4008312AB018B1BAB178B13AF
:1023000040088316DC0083123F088316DB0083122B
:102310003E088316DA0083123D088316D900831223
:1023200060088316E00083125F088316DF008312C3
:102330005E088316DE0083125D088316DD000A1234
:1023400083128B220A16AB1B8B178310AB018B1BDE
:10235000AB178B1383163708CF003608CE0035082D
:10236000CD003408CC007A08D3007908D200780870
:10237000D1007708D0000A12831247240A16AB1B3B
:102380008B177A088316B7007908B6007808B5006D
:102390007708B4008312AB018B1BAB178B13440877
:1023A0008316DC00831243088316DB008312420885
:1023B0008316DA00831241088316D9002F08E00043
:1023C0002E08DF002D08DE002C08DD000A12831223
:1023D0008B220A16AB1B8B178310AB018B1BAB1721
:1023E0008B1383163708CF003608CE003508CD0092
:1023F0003408CC007A08D3007908D2007808D100DC
:102400007708D0000A12831247240A16AB1B8B17D9
:102410007A088316B3007908B2007808B10077080B
:10242000B0002B088312DC0083162A088312DB001D
:10243000831629088312DA00831628088312D9002C
:1024400083163308BB003208BA003108B9003008DF
:10245000B800BF01BE01BD01BC010A128312B6273C
:102460000A16031C392A8316B301B201B101B00167
:1024700083128316BB01BA013430B9008630B8002C
:102480003308BF003208BE003108BD003008BC0070
:102490000A128312B6270A16031C562A8316B301A2
:1024A000B2013430B1008630B00083128316300898
:1024B000F7003108F8003208F9003308FA008312F7
:1024C0008A110A16EF2C8316A7012508A600A90178
:1024D000A801AB01B430AA00AD010B30AC00AF01D4
:1024E0003030AE0028082602B0002708B1002908C5
:1024F000031C290FB1022C082E02F7002F08FA0046
:102500002D08031C2D0FFA027708B2007A08B300D9
:102510003108B5003008B4003308B7003208B600FF
:102520001030B800F701FA01B50CB40C031C9E2A58
:102530003608F7070318FA0A3708FA07FA0CF70CF7
:10254000F90CF80CB80B942A7908B1007808B0009F
:1025500028082A02F7002B08FA002908031C290F73
:10256000FA027708B2007A08B3003108B5003008E3
:10257000B4003308B7003208B600F801F901F701DA
:10258000FA013708031DC72A36080319E12A10305B
:10259000B8000310B40DB50DF70DFA0D37087A0227
:1025A000031DD42A36087702031CDD2A3608F702F9
:1025B000031CFA033708FA020314F80DF90DB80BDF
:1025C000C92A7908B1007808B0002C083007F80053
:1025D0003108FA002D0803182D0FFA077A08F900C0
:1025E00078088312AF008A110A160C2D03081F39D0
:1025F0008300FF30AC00AE01AD01CD30BC00CC306B
:10260000BB004C30BA007C30B900CD30C000CC30BB
:10261000BF004C30BE007A30BD000A30C400D73055
:10262000C3002330C2007830C100CD30C800CC30A8
:10263000C7004C30C6007C30C500CD30CC00CC305B
:10264000CB004C30CA007A30C9000A30D000D730F5
:10265000CF002330CE007830CD00D401D301D20199
:10266000D101D801D701D601D501DC01DB01DA01A6
:10267000D901E001DF01DE01DD01E401E301E20156
:10268000E101E801E701E601E501EC01EB01EA0106
:102690008030E90083161F149F141F159F11073007
:1026A0009C0083130A1283129F2D0A160B16C0304A
:1026B0008B04831601130A1283124D2F0A167A080F
:1026C000F0007908EF007808EE007708ED000A12B4
:1026D0008A15EC2C0A168A117A08F4007908F3009E
:1026E0007808F2007708F100943003178D00053068
:1026F0008F000313AB018B1BAB178B130A129D21A9
:102700000A16AB1B8B17AB018B1BAB178B1301305E
:102710008316DA00DB000A1283123B210A16AB1B78
:102720008B17953003178D0005308F0003100313AE
:10273000AB018B1BAB178B1304308316CC000A1232
:10274000831211220A16AB1B8B1789308400AB0150
:102750008B1BAB178B1370088316CF0083126F0887
:102760008316CE0083126E088316CD0083126D0887
:102770008316CC000230D0000A12831253230A16AB
:10278000AB1B8B17AB018B1BAB178B130130831665
:10279000DA000230DB000A1283123B210A16AB1B5F
:1027A0008B179A3003178D0005308F000310031329
:1027B000AB018B1BAB178B1304308316CC000A12B2
:1027C000831211220A16AB1B8B1789308400AB01D0
:1027D0008B1BAB178B1374088316CF007308CE00C6
:1027E0007208CD007108CC000230D0000A128312AA
:1027F00053230A16AB1B8B1774088316B700730894
:10280000B6007208B5007108B4000A128A15831266
:1028100057250A168A117A088316A7007908A60098
:102820007808A5007708A4007008B70083126F0825
:102830008316B60083126E088316B50083126D08E6
:102840008316B4000A128A15831257250A168A11B4
:102850007A088316BB007908BA007808B9007708AF
:10286000B8002708BF002608BE002508BD002408C0
:10287000BC000A128312B6270A16031CA22C740885
:102880008316B7007308B6007208B5007108B4006B
:102890000A128A15831257250A168A117A08831696
:1028A000A7007908A6007808A5007708A40083127D
:1028B0006C088316BB0083126B088316BA00831260
:1028C0006A088316B900831269088316B8002708BE
:1028D000BF002608BE002508BD002408BC000A125F
:1028E0008312B6270A16031CA22C74088316A700AD
:1028F0007308A6007208A5007108A4000A128A15C0
:102900008312812D0A168A117A088316A30079088A
:10291000A2007808A1007708A0002308A7002208D9
:10292000A6002108A5002008A4000A128A15831217
:102930004D270A168A1178088316A400A500831271
:1029400000280C2D70088316B70083126F088316B9
:10295000B60083126E088316B50083126D088316C5
:10296000B4000A128A15831257250A168A117A08AA
:102970008316A7007908A6007808A5007708A400A8
:1029800083126C088316BB0083126B088316BA008F
:1029900083126A088316B900831269088316B80087
:1029A0002708BF002608BE002508BD002408BC007B
:1029B0000A128312B6270A16031C0C2D7008831600
:1029C000A70083126F088316A60083126E08831671
:1029D000A50083126D088316A400831293287A0839
:1029E000FE007908FD007808FC007708FB007E08EF
:1029F0008316A7007D08A6007C08A5007B08A4001C
:102A00000A128A1583124D270A168A11780883162E
:102A1000A400A5008312632A04308316A400831245
:102A2000AB018B1BAB178B13FA308316DA000A123B
:102A300083124F210A16AB1B8B178316A40B0F2D85
:042A40005B2B6300A9
:02400E003A3F37
:00000001FF
;PIC16F877A
;CRC=D27E  CREATED="12-nov.-24 20:43"
