:1000000013308A00A82B0000FF00030E8301A1001B
:100010000A08A0008A010408A2007708A300780853
:10002000A4007908A5007A08A60003170D08031399
:10003000A70003170F080313A80003170C080313E6
:10004000A90003170E080313AA00831383120B1EC3
:100050002B288B1850288B1E2F280B195328220869
:1000600084002308F7002408F8002508F900260872
:10007000FA00270803178D000313280803178F00C1
:100080000313290803178C0003132A0803178E0093
:10009000031320088A00210E8300FF0E7F0E090043
:1000A0008A110A12192D8A110A1256280130AD0739
:1000B0000318AE0A2E08003C03186728FF3A031DF8
:1000C00065282D08813C03186728AE01AD01AE08F4
:1000D000031D73282F082D0203187328831605109B
:1000E0008312051477288316051083120510AE08B5
:1000F000031D832830082D020318832883168510DA
:1001000083128514872883168510831285100B119E
:100110008A110A122F280C004B38202C3A10251770
:1001200032330000CB34202C3A1025173233000133
:100130004B32202C3A102517323300014B38A02CBB
:100140003A10251732330001CB34A02C3A10251772
:10015000323300014B32A02C3A1025173233000104
:10016000D3327438EF346E3A202C3A1025173233DC
:100170000001D3327438EF346E3AA02C3A102517B0
:10018000323300018316081088100811831288107A
:100190000F3083160805F038880083120815000018
:1001A000081400000808F700080E0F39F800780856
:1001B0008316E1008312081000000814DF28E028ED
:1001C00000000808F700080E0F39F80078088316B9
:1001D000E000831208100F30831608058800610EB6
:1001E000F700F030F70577086004F8007808E000C1
:1001F000E01FFC288312C8285E180129831288108A
:1002000083165E1C0629831288148316000083124D
:1002100008110000081083165F0EE0000F30E005A3
:100220006008E100610EF039F7000F308312080515
:1002300077048800000008140230F700F70B1E292D
:1002400021290000081083165F080F39E0006008BC
:10025000E100610EF039F7000F30831208057704D2
:100260008800000008140230F700F70B3529382900
:1002700000000810080083165B0B3F29422940301C
:10028000DC004329DC0101305A02DC075C088038BD
:10029000DD00DE015D08DF008312C2200800DA30D5
:1002A000840083130008031962290630F800F7015F
:1002B000F70B5829F80B57297B30F700F70B5E290D
:1002C000800B5529080083165908073A8312031931
:1002D00073290B3A03197A29063A03198629023A37
:1002E00003198E29952901308316DA00DB00831269
:1002F0003B219C298316DE010130DF008312C220DE
:1003000002308316DA0083124F219C2901308316B4
:10031000DA000230DB0083123B219C298316DE01C8
:100320001030DF008312C2209C2901308316DE00CA
:100330005908DF008312C22008000B088316CD0085
:1003400083128B13831603178C170C140000000004
:100350000313CD1FAE2983128B1783160318E729C9
:10036000831203170C087F3983160313CD00831201
:1003700003170D0883160313CE00831203170F080B
:1003800083160313CF004D08D9008312632183160F
:100390004E08831203178D00831603134F08831230
:1003A00003178F0003130B088316D00083128B13DF
:1003B000831603178C170C14000000000313D01FC2
:1003C000E42983128B178316CC0BE729152A831295
:1003D00003170C0D0E0D7F3983160313CD00831206
:1003E00003170D0883160313CE00831203170F089B
:1003F00083160313CF004D08D9008312632183169F
:100400004E08831203178D00831603134F088312BF
:1004100003178F008D0A03198F0A03108316031325
:10042000CC0B132A152A83129D29831208008316E8
:1004300059080319882AE1005D080319882AE10791
:100440000318292A7F30E102031C882A0319882A0D
:100450002D2A8130E1070318882A6108F700F80186
:10046000F901FA015A08E500E5175B08E4005C08A9
:10047000E3001830E100E201631C562A6008FA0725
:10048000031C482AF90A031D482AF80A0319E2172F
:100490005F08F907031C4F2AF80A0319E2175E08E0
:1004A000DB00DB175B08F8070318E217E20DF80C16
:1004B000F90CFA0CE50CE40CE30C0310E10B3B2AFD
:1004C0000130F7070318882AF81B6D2AE50DFA0D8D
:1004D000F90DF80DF7030319882AE51F7E2AFA0A99
:1004E000031D7E2AF90A031D7E2AF80A031D7E2AAF
:1004F000F80CF90CFA0CF70A0319882A5A08E200DA
:100500005E08E206E21F862AF8178C2AF8138C2A66
:10051000F701F801F901FA01831208008318932A00
:10052000E13084008313F701F801F901FA01831621
:10053000E101E201E301E40160085F045E045D049F
:100540000319D22A2030E5000310D90DDA0DDB0D96
:10055000DC0DE10DE20DE30DE40D60086402031D06
:10056000BB2A5F086302031DBB2A5E086202031DEB
:10057000BB2A5D086102031CCC2A5D08E1025E080B
:10058000031C5E0FE2025F08031C5F0FE3026008BA
:10059000031C600FE4020314F70DF80DF90DFA0DBA
:1005A000E50BA42A61088000840A62088000840A9E
:1005B00063088000840A640880008312080004082D
:1005C0008316D1005008D3000319012B4F08DC001B
:1005D0004E08DB004D08DA004C08D900E001DF01CD
:1005E0002030DE008230DD00831217227A08831665
:1005F000CF007908CE007808CD007708CC00D30B67
:10060000E62A4F08DC004E08DB004D08DA004C08F3
:10061000D9005908B63CD900FA015A08DD00DA17AA
:100620000310DA0CDB0CDC0CFA0CF90CF80CF70CF0
:10063000D90B102BDD1F272BF709F809F909FA0947
:10064000F70A0319F80A0319F90A0319FA0A7A08CA
:10065000CF007908CE007808CD007708CC00CF1FF6
:100660003E2BD103D116CC09CD09CE09CF09CC0A36
:100670000319CD0A0319CE0A0319CF0A3B30D8005B
:100680009A30D700CA30D600D5010A30D3005008BE
:100690000319D10A8314CC30840083134F08DC0083
:1006A0004E08DB004D08DA004C08D9005808E0007D
:1006B0005708DF005608DE005508DD0083128E2241
:1006C0007808F708031D7B2B8316500A5302031D7D
:1006D0006B2B83127B2B510803197E2B0F3953028E
:1006E0000319742B0318B62BD11BB62B511B7E2B71
:1006F0002030B02B831220308316D105D11E8E2BD3
:10070000D1125008031DD1037708D1002D30D90034
:100710008312632183165108F700D1015008530258
:10072000031D9E2B7708D1002E30D9008312632140
:1007300083165108F7002030D10500303030D11E2B
:10074000B02BD1125008031DD1037708D1002D30F2
:10075000D9008312632183165108F700D10130308C
:10076000F7077708D900831263218316831058088E
:10077000DC005708DB005608DA005508D900E00114
:10078000DF01DE010A30DD0083128E227A08831633
:10079000D8007908D7007808D6007708D500D30BA1
:1007A0004A2B831208008030831CD92B8316D10674
:1007B00083128316D601D7014D08D5005108D506FE
:1007C0004C080319C72CD400F70050080319D02C8B
:1007D000D40203196C2C031C2A2C5108DA00DA17F6
:1007E0005208D9005308D800D7010310DA0CD90CED
:1007F000D80CD70CD40BF42BD51F012C5614E42C99
:10080000561054105616CF3084008313F92C56120C
:10081000D51B142C541C1F2CDA0CD90CD80CD70C5B
:10082000F70A0319DF2C1F2CDA1B222C0310D70D1B
:10083000D80DD90DDA0DF7030319DF2C142C561738
:100840008C2C56134D08D500D51F282CDA17D82C20
:10085000DA13D82C5008D400F7004C08D4024D0805
:10086000DA00DA174E08D9004F08D800D701031074
:10087000DA0CD90CD80CD70CD40B362CD51F432C42
:10088000D614E42CD6105410D616D330840083131B
:10089000F92CD612D51B562C541C612CDA0CD90C11
:1008A000D80CD70CF70A0319DF2C612CDA1B642C47
:1008B0000310D70DD80DD90DDA0DF7030319DF2C6E
:1008C000562CD6178C2CD6135108D500D51F6A2C60
:1008D000DA17D82CDA13D82C5108DA00DA175208B4
:1008E000D9005308D800D51F792CDA135615E42CFB
:1008F0005611D7015410CF3084008313F92CD51B27
:10090000A22C4D08D500541C8C2CDA0CD90CD80C18
:10091000D70CF70A0319DF2CD71F9D2CD80A031D0B
:100920009D2CD90A031D9D2CDA0A031D9D2CDA0C7F
:10093000D90CD80CF70A0319DF2C561B212CD61B17
:10094000632CC12C8030DA06DA1FAA2CE42C510863
:10095000D500B72C4D08D500DA08031DB72CD908EF
:10096000031DB72CD808031DB72CF701D82CDA1BB0
:10097000C12C0310D70DD80DD90DDA0DF70BB72CFC
:10098000DF2CD51FC52CDA17D82CDA13D82C500839
:10099000F7005108DA005208D9005308D800D82CC3
:1009A0004C08F7004D08DA004E08D9004F08D8006F
:1009B0005A08F8005908F9005808FA00172DF701ED
:1009C000F801F901FA01172DD701D809D909DA0977
:1009D000D709D70A031DF22CD80A031DF22CD90A15
:1009E0000319DA0A5618002CD618422C5619782CFE
:1009F000A72C0008D807031C032DD90A031D032DBB
:100A0000DA0A0319541484030008D907031C0B2DB8
:100A1000DA0A0319541484030008801F803ADA07A5
:100A200003185414561A072CD61A492C7F2C8312FB
:100A300008008A1500288A118B108A110A122F28A3
:100A40008C20781D2532A020791D2532800B28307E
:100A50008316A5000C30A6000130A7000630A800C0
:100A600083120810881008110F30831608058800BB
:100A70000810881008118312AB018B1BAB178B1366
:100A80000F308316DA0083124F21AB1B8B17013016
:100A90008316A4002408033C031C6F2D0330E100DF
:100AA000610EF039F7000F308312080577048800D3
:100AB000000008140230F700F70B5C2D5F2D0000DA
:100AC0000810AB018B1BAB178B1305308316DA00B4
:100AD00083124F21AB1B8B178316A40A4A2D0230B9
:100AE000E100610EF039F7000F308312080577043A
:100AF0008800000008140230F700F70B7D2D802DD0
:100B000000000810AB018B1BAB178B13053083164D
:100B1000DA0083124F21AB1B8B178316A401240824
:100B2000033C031CA92DA53024078400831300086F
:100B3000A9008312AB018B1BAB178B138316DE014D
:100B40002908DF008312C220AB1B8B178316A40A6F
:100B50008F2D83128A110A16072C0830F8000430F2
:100B6000F700F70BB12D8711AC112C088316870005
:100B70000330F700F70BBA2DAD0D83120712031CDB
:100B8000C72D2C162C0883168700CB2D83122C1210
:100B90002C088316870000008312AC152C088316DE
:100BA00087008312871DD22DF80BAF2D0430F7007C
:100BB000F70BD82D8711AC112C0883168700000085
:100BC00083122C162C08831687000330F700F70BCE
:100BD000E72D0330F700F70BEB2D8312AC152C0833
:100BE000831687008312871DF32DF8010330F70069
:100BF000F70BF82D071A78148711AC112C088316FF
:100C00008700831207122C122C0883168700831288
:100C100008002C162C08831687000430F700F70B09
:100C20000F2E8312AC152C08831687000330F700B3
:100C3000F70B182E831207122C122C08831687002C
:100C40000430F700F70B222E83128711AC112C0809
:100C500083168700D030AD008312AD2583162B0894
:100C6000AD008312AD252C162C08831687000430A6
:100C7000F700F70B392E8312AC152C08831687006A
:100C80000330F700F70B422E8312871D452E071203
:100C90002C122C08831687000430F700F70B4E2E19
:100CA00083128711AC112C0883168700D130AD0058
:100CB0008312AD25F70108308316AE007708AF0028
:100CC00083122C162C08831687000330F700F70BCD
:100CD000672E8312AC152C08831687008312871D9C
:100CE0006F2E071A0314071E0310F80D0430F700C7
:100CF000F70B782EAC112C0883168700831287110E
:100D00008316AE0B602E83122C162C0883168700D8
:100D10000330F700F70B8A2E8312071283162F0871
:100D20000319972E83122C122C08831687000000BB
:100D30008312AC152C08831687008312871D9E2E04
:100D40000430F700F70BA22E8711AC112C08831684
:100D500087000330F700F70BAB2E831207122C121B
:100D60002C08831687007808AC0083122C122C08FC
:100D70008316870000008312AC152C0883168700A9
:100D80008312871DC12E0430F700F70BC52EC82E25
:100D900000002C162C08831687000430F700F70B90
:100DA000CF2E2C08F8008312080083163008031990
:100DB0009B2FBC00340803199B2FBC02031CE52E9B
:100DC0007F30BC0703189B2FEB2E8130BC02031C25
:100DD0009B2F03199B2F3C08F700F801F901FA013A
:100DE000BB013108BA00BA173208B9003308B8009D
:100DF0001930BC003708B80203180E2F0130B902B1
:100E000003180E2FBA0203180E2FBB0203180E2F61
:100E1000BB0ABA0AB90A3708B807402F3608B90220
:100E20000318292F0130BA020318292FBB02031817
:100E3000292FBB0ABA0A3608B9073708B807031CB6
:100E4000402FB90A031D402FBA0A031D402FBB0AC9
:100E5000402F35088038BA0203183F2F0130BB02FB
:100E600003183F2FBB0A35088038BA073608B90780
:100E7000031C1D2FBA0A031D1D2FBB0A1D2F7A1438
:100E8000BC0B432F4E2F0310B80DB90DBA0DBB0D7F
:100E90000310FA0DF90DF80DBD0DFA2E3D1C562F5D
:100EA0000310F80CF90CFA0CBD0C592FF7030319B9
:100EB0009B2FBD1B822F0310B80DB90DBA0DBB0DB2
:100EC0003708B80203186E2F0130B90203186E2FCD
:100ED000BA0203186E2FBB02031C912F3608B90209
:100EE0000318792F0130BA020318792FBB02031CB3
:100EF000912F35088038BA020318822F0130BB02C7
:100F0000031C912FFA0A031D912FF90A031D912F3B
:100F1000F80A031D912FF70A03199B2FF80CF90CFF
:100F2000FA0C3108BC003508BC06BC1F992FF81715
:100F30009F2FF8139F2FF701F801F901FA0183128F
:100F400008008E30F70083162508F7022608F900FE
:100F50002708F800F917F7080319B92F0310F90843
:100F6000031DB52FF8080319B92FF90CF80CF70B6E
:100F7000AE2FA61FC02FF809F909F80A0319F90ABC
:100F80008312080083163708BB003608BA003508FC
:100F9000B9003408B800BF01BE01BD01BC018A150B
:100FA00083121A268A11031CE12F83163408F700D6
:100FB0003508803AF8003608F9003708FA00EA2FB9
:100FC000831283163408F7003508F8003608F90054
:080FD0003708FA008312080043
:101000008316CA01CB01CB08031D6A2C8B308312D7
:1010100003178D0000308F0003130B088316CC00DC
:1010200083128B13831603178C170C140000000017
:101030000313CC1F1E2883128B17831683120317EA
:101040000C087F390319812883160313CC008312FF
:1010500003170D0883160313CD00831203170F081F
:1010600083160313CE004C08D9008A118312632122
:101070008A1583164D08831203178D0083160313F8
:101080004E08831203178F0003130B088316CF003B
:1010900083128B13831603178C170C1400000000A7
:1010A0000313CF1F562883128B178316831203173F
:1010B0000C0D0E0D7F390319812883160313CC0004
:1010C000831203170D0883160313CD008312031731
:1010D0000F0883160313CE004C08D9008A1183121F
:1010E00063218A1583164D08831203178D0083161A
:1010F00003134E08831203178F008D0A03198F0AFA
:101100000C28013083160313DA00DB008A118312E6
:101110003B218A1583164A08F83E0318CB29083E5E
:1011200083126E2C8C3003178D0000308F0003105B
:10113000063083160313CC008A1183129D218A1571
:10114000893084003C088316CF0083123B08831645
:10115000CE0083123A088316CD0083123908831615
:10116000CC000230D0008A118312DF228A15831648
:10117000CB29923003178D0000308F00031006300A
:1011800083160313CC008A1183129D218A1589309E
:10119000840040088316CF0083123F088316CE00D8
:1011A00083123E088316CD0083123D088316CC00BF
:1011B0000230D0008A118312DF228A158316CB29D0
:1011C000983003178D0000308F000310063083160F
:1011D0000313CC008A1183129D218A158930840063
:1011E00044088316CF00831243088316CE0083126F
:1011F00042088316CD00831241088316CC000230CA
:10120000D0008A118312DF228A158316CB299E30E3
:1012100003178D0000308F00031006308316031370
:10122000CC008A1183129D218A15893084004808D8
:101230008316CF00831247088316CE008312460818
:101240008316CD00831245088316CC000230D000EF
:101250008A118312DF228A158316CB29A430031743
:101260008D0000308F000310063083160313CC006E
:101270008A1183129D218A15893084004C088316B7
:10128000CF0083124B088316CE0083124A088316C0
:10129000CD00831249088316CC000230D0008A1199
:1012A0008312DF228A158316CB29AA3003178D00FB
:1012B00000308F000310063083160313CC008A1110
:1012C00083129D218A158930840050088316CF002F
:1012D00083124F088316CE0083124E088316CD006A
:1012E00083124D088316CC000230D0008A1183127D
:1012F000DF228A158316CB29B03003178D0000300A
:101300008F0003100C3083160313CC008A11831254
:101310009D218A158930840054088316CF008312DA
:1013200053088316CE00831252088316CD00831211
:1013300051088316CC000230D0008A118312DF22BC
:101340008A158316CB29B93003178D0000308F0022
:1013500003100C3083160313CC008A1183129D21D5
:101360008A158930840058088316CF0083125708E5
:101370008316CE00831256088316CD0083125508BB
:101380008316CC000230D0008A118312DF228A1526
:101390008316CB2983168614831286180C2B83168A
:1013A00086148312861CCF2983164A08F83E031838
:1013B0000D2B083E83127A2C83103C088316CF0035
:1013C00083123B088316CE0083123A088316CD00A1
:1013D000831239088316CC00CD30D300CC30D20034
:1013E0004C30D1007A30D0008A118312D3238A1571
:1013F0007A08BC007908BB007808BA007708B90001
:1014000083160D2B831040088316CF0083123F08EC
:101410008316CE0083123E088316CD0083123D084A
:101420008316CC00CD30D300CC30D2004C30D1006C
:101430007B30D0008A118312D3238A157A08C0002A
:101440007908BF007808BE007708BD0083160D2B11
:10145000831044088316CF00831243088316CE00FE
:10146000831242088316CD00831241088316CC00F4
:101470000A30D300D730D2002330D1007830D000EA
:101480008A118312D3238A157A08C4007908C3000D
:101490007808C2007708C10083160D2B8310480816
:1014A0008316CF00831247088316CE0083124608A6
:1014B0008316CD00831245088316CC00CD30D300AF
:1014C000CC30D2004C30D1007A30D0008A11831257
:1014D000D3238A157A08C8007908C7007808C6009F
:1014E0007708C50083160D2B83104C088316CF0098
:1014F00083124B088316CE0083124A088316CD0050
:10150000831249088316CC00CD30D300CC30D200F2
:101510004C30D1007B30D0008A118312D3238A153E
:101520007A08CC007908CB007808CA007708C9008F
:1015300083160D2B831050088316CF0083124F089B
:101540008316CE0083124E088316CD0083124D08F9
:101550008316CC000A30D300D730D2002330D1001C
:101560007830D0008A118312D3238A157A08D000EC
:101570007908CF007808CE007708CD0083160D2BB0
:10158000831054088316CF00831253088316CE00AD
:10159000831252088316CD00831251088316CC00A3
:1015A000CD30D300CC30D2004C30D1007B30D000D5
:1015B0008A118312D3238A157A08D4007908D300BC
:1015C0007808D2007708D10083160D2B83105808B5
:1015D0008316CF00831257088316CE008312560855
:1015E0008316CD00831255088316CC00CD30D3006E
:1015F000CC30D2004C30D1007B30D0008A11831225
:10160000D3238A157A08D8007908D7007808D6003D
:101610007708D50083160D2B83160615831206193D
:101620004E2C831606158312061D112B83164A08AD
:10163000F83E03184F2C083E8312862C83143C0876
:101640008316CF0083123B088316CE0083123A081C
:101650008316CD00831239088316CC00CD30D30019
:10166000CC30D2004C30D1007A30D0008A118312B5
:10167000D3238A157A08BC007908BB007808BA0021
:101680007708B90083164F2C831440088316CF00C7
:1016900083123F088316CE0083123E088316CD00C6
:1016A00083123D088316CC00CD30D300CC30D2005D
:1016B0004C30D1007B30D0008A118312D3238A159D
:1016C0007A08C0007908BF007808BE007708BD001E
:1016D00083164F2C831444088316CF0083124308CB
:1016E0008316CE00831242088316CD008312410870
:1016F0008316CC000A30D300D730D2002330D1007B
:101700007830D0008A118312D3238A157A08C40056
:101710007908C3007808C2007708C10083164F2CEF
:10172000831448088316CF00831247088316CE001F
:10173000831246088316CD00831245088316CC0019
:10174000CD30D300CC30D2004C30D1007A30D00034
:101750008A118312D3238A157A08C8007908C70032
:101760007808C6007708C50083164F2C83144C08F0
:101770008316CF0083124B088316CE0083124A08CB
:101780008316CD00831249088316CC00CD30D300D8
:10179000CC30D2004C30D1007B30D0008A11831283
:1017A000D3238A157A08CC007908CB007808CA00C0
:1017B0007708C90083164F2C831450088316CF0076
:1017C00083124F088316CE0083124E088316CD0075
:1017D00083124D088316CC000A30D300D730D200D4
:1017E0002330D1007830D0008A118312D3238A1598
:1017F0007A08D0007908CF007808CE007708CD00AD
:1018000083164F2C831454088316CF008312530879
:101810008316CE00831252088316CD00831251081E
:101820008316CC00CD30D300CC30D2004C30D10068
:101830007B30D0008A118312D3238A157A08D40012
:101840007908D3007808D2007708D10083164F2C8E
:10185000831458088316CF00831257088316CE00CE
:10186000831256088316CD00831255088316CC00C8
:10187000CD30D300CC30D2004C30D1007B30D00002
:101880008A118312D3238A157A08D8007908D700E1
:101890007808D6007708D50083164F2C8316861556
:1018A00083128619612C831686158312861D532C8C
:1018B0008316CA0A4A08073C0318602C0130CB0083
:1018C0008312C8308316DA008A1183124F218A15D9
:1018D0008316032883128A110A121B2D0A108A10FC
:1018E0000A1582079228B928E02807292E295529A8
:1018F0007C29A3290A108A100A158207DC29022AEA
:10190000282A4E2A742A9A2AC02AE62A0A108A10FD
:101910000A1582071E2B442B6A2B902BB62BDC2B2F
:10192000022C282C3B308316AB008A118312092627
:101930008A1578088316AA003C30AB008A118312FE
:1019400009268A1578088316AB002A08A5002B08FB
:10195000A4002508AD002408AC008E30F7002D0847
:10196000F8002C08F900FA01AD1FBB2CF809F909A1
:10197000F90A0319F80AF808031DC82C7908F800B9
:10198000F9010830F702F808031DC82CF701D12C23
:101990000310F81BCF2CF90DF80DF703C82CAD1F61
:1019A000F8137A08AF007908AE007808AD00770820
:1019B000AC002F08B3002E08B2002D08B1002C088F
:1019C000B000B701B601B5018D30B4008A118312A1
:1019D000D5268A157A088316A9007908A800780800
:1019E000A7007708A6002608F7002708F8002808AF
:1019F000F9002908FA0083128A110A16112C3D30C9
:101A00008316AB008A11831209268A15780883167B
:101A1000AA003E30AB008A11831209268A15780885
:101A20008316AB002A08A5002B08A4002508AD00EA
:101A30002408AC008E30F7002D08F8002C08F900BF
:101A4000FA01AD1F282DF809F909F90A0319F80A56
:101A5000F808031D352D7908F800F9010830F70260
:101A6000F808031D352DF7013E2D0310F81B3C2D02
:101A7000F90DF80DF703352DAD1FF8137A08AF00F7
:101A80007908AE007808AD007708AC002F08B300E5
:101A90002E08B2002D08B1002C08B000B701B60125
:101AA000B5018D30B4008A118312D5268A157A08C3
:101AB0008316A9007908A8007808A7007708A6006F
:101AC0002608F7002708F8002808F9002908FA0076
:101AD00083128A110A161E2C20308316271E3030DE
:101AE000A8002608F700F71F7D2DF709F70A7708E9
:101AF000A6002D30A800A717271478082608AC00E8
:101B00006430AD002D08F8012C0203188A2D2C0832
:101B1000F700962DF7010830AE00AC0DF70D2D083B
:101B200077020318F700F80DAE0B8D2D7708A6008D
:101B300030307807A9002608AC000A30AD002D0827
:101B4000F8012C020318A72D2C08F700B32DF7017C
:101B50000830AE00AC0DF70D2D0877020318F70022
:101B6000F80DAE0BAA2D30307707AB003030780778
:101B7000AA002808F700303029020319C32DA71442
:101B8000A71B2715D72D2808A9002030A800303022
:101B90002A020319CF2D2714A71BA714D72D031D25
:101BA0002714031DD72D2908AA002030A9002719C2
:101BB000DE2DA718ED2D2718FC2D0B2E8312AB015F
:101BC0008B1BAB178B1383162808D9008A1183123D
:101BD00063218A15AB1B8B1783168312AB018B1BFA
:101BE000AB178B1383162908D9008A11831263213E
:101BF0008A15AB1B8B1783168312AB018B1BAB179C
:101C00008B1383162A08D9008A11831263218A153F
:101C1000AB1B8B1783168312AB018B1BAB178B137C
:101C200083162B08D9008A11831263218A15AB1BF6
:101C30008B17080083163908C0003D08C006C01F76
:101C4000262E03110310B91B0314592E3908C000A6
:101C50003C08C1003808C1020319342EC01F592E98
:101C60000308013A8300592E3D08C1003908C1021A
:101C70000319402EC01F592E0308013A8300592E24
:101C80003E08C1003A08C10203194C2EC01F592E4C
:101C90000308013A8300592E3F08C1003B08C102E6
:101CA0000319582EC01F592E0308013A8300592EDC
:101CB0000310831208008316A7012508A600A901B6
:101CC000A801AB01B430AA00AD010B30AC00AF01EC
:101CD0003030AE0028082602B0002708B1002908DD
:101CE000031C290FB1022C082E02F7002F08FA005E
:101CF0002D08031C2D0FFA027708B2007A08B300F2
:101D00003108B5003008B4003308B7003208B60017
:101D10001030B800F701FA01B50CB40C031C962E74
:101D20003608F7070318FA0A3708FA07FA0CF70C0F
:101D3000F90CF80CB80B8C2E7908B1007808B000BB
:101D400028082A02F7002B08FA002908031C290F8B
:101D5000FA027708B2007A08B3003108B5003008FB
:101D6000B4003308B7003208B600F801F901F701F2
:101D7000FA013708031DBF2E36080319D92E10307B
:101D8000B8000310B40DB50DF70DFA0D37087A023F
:101D9000031DCC2E36087702031CD52E3608F70219
:101DA000031CFA033708FA020314F80DF90DB80BF7
:101DB000C12E7908B1007808B0002C083007F8006F
:101DC0003108FA002D0803182D0FFA077A08F900D8
:101DD00078088312B0008A110A16802D8316A70195
:101DE0002508A600A901A801AB01B430AA00AD01E5
:101DF0000B30AC00AF013030AE0028082602B00036
:101E00002708B1002908031C290FB1022C082E0253
:101E1000F7002F08FA002D08031C2D0FFA0277088F
:101E2000B2007A08B3003108B5003008B4003308B6
:101E3000B7003208B6001030B800F701FA01B50C4F
:101E4000B40C031C292F3608F7070318FA0A3708C1
:101E5000FA07FA0CF70CF90CF80CB80B1F2F7908DD
:101E6000B1007808B00028082A02F7002B08FA0011
:101E70002908031C290FFA027708B2007A08B30078
:101E80003108B5003008B4003308B7003208B60096
:101E9000F801F901F701FA013708031D522F36083E
:101EA00003196C2F1030B8000310B40DB50DF70DE9
:101EB000FA0D37087A02031D5F2F36087702031CDC
:101EC000682F3608F702031CFA033708FA020314D6
:101ED000F80DF90DB80B542F7908B1007808B0004F
:101EE0002C083007F8003108FA002D0803182D0FD0
:101EF000FA077A08F90078088312AF008A110A16E7
:021F0000022EAF
:102000008314AB018B1BAB178B1358088316CF00BF
:10201000831257088316CE00831256088316CD000C
:10202000831255088316CC002708D3002608D20057
:102030002508D1002408D0000A128312D3230A16DF
:10204000AB1B8B177A088316AB007908AA007808B7
:10205000A9007708A8002B08B7002A08B6002908AD
:10206000B5002808B4000A128312C2270A167A089B
:102070008316B7007908B6007808B5007708B40071
:102080003708BB003608BA003508B9003408B80074
:1020900083126C088316BF0083126B088316BE0080
:1020A00083126A088316BD00831269088316BC0078
:1020B0000A128A1583121A260A168A11031C662828
:1020C0008316AB01AA01A901A80183128310AB01F9
:1020D0008B1BAB178B1368088316CF00831267081E
:1020E0008316CE00831266088316CD00831265081E
:1020F0008316CC002B08D3002A08D2002908D1006F
:102100002808D0000A128312D3230A16AB1B8B17A0
:102110007A08E8007908E7007808E6007708E50023
:102120008314AB018B1BAB178B1383162B08CF00CB
:102130002A08CE002908CD002808CC0083126408A4
:102140008316D300831263088316D20083126208B9
:102150008316D100831261088316D0000A128312FD
:10216000D3230A16AB1B8B177A088316AF007908A6
:10217000AE007808AD007708AC008312AB018B1B72
:10218000AB178B1348088316DC00831247088316AD
:10219000DB00831246088316DA0083124508831693
:1021A000D9002B08E0002A08DF002908DE002808F3
:1021B000DD000A12831217220A16AB1B8B177A084E
:1021C0008316B7007908B6007808B5007708B40020
:1021D0008312AB018B1BAB178B134C088316DC00EF
:1021E00083124B088316DB0083124A088316DA0039
:1021F000831249088316D900831268088316E00009
:10220000831267088316DF00831266088316DE00D8
:10221000831265088316DD000A12831217220A163C
:10222000AB1B8B178310AB018B1BAB178B13831668
:102230003708CF003608CE003508CD003408CC0072
:102240007A08D3007908D2007808D1007708D00046
:102250000A128312D3230A16AB1B8B177A08831634
:10226000B7007908B6007808B5007708B400831283
:10227000AB018B1BAB178B1350088316DC0083124A
:102280004F088316DB0083124E088316DA00831290
:102290004D088316D9002F08E0002E08DF002D0816
:1022A000DE002C08DD000A12831217220A16AB1B6F
:1022B0008B178310AB018B1BAB178B13831637085F
:1022C000CF003608CE003508CD003408CC007A089F
:1022D000D3007908D2007808D1007708D0000A121C
:1022E0008312D3230A16AB1B8B177A088316B3000D
:1022F0007908B2007808B1007708B0002B08831283
:10230000E40083162A088312E30083162908831247
:10231000E200831628088312E10083163308BB000D
:102320003208BA003108B9003008B800BF01BE0158
:10233000BD01BC010A128A1583121A260A168A11D7
:10234000031CA8298316B301B201B101B0018312A5
:102350008316BB01BA013430B9008630B8003308A7
:10236000BF003208BE003108BD003008BC000A12B0
:102370008A1583121A260A168A11031CC729831686
:10238000B301B2013430B1008630B000831283163D
:102390003008F7003108F8003208F9003308FA0075
:1023A00083128A110A16632D8314AB018B1BAB17A2
:1023B0008B1354088316CF00831253088316CE0064
:1023C000831252088316CD00831251088316CC0065
:1023D0002708D3002608D2002508D1002408D00001
:1023E0000A128312D3230A16AB1B8B177A088316A3
:1023F000AB007908AA007808A9007708A8002B0884
:10240000B7002A08B6002908B5002808B4000A1247
:102410008312C2270A167A088316B7007908B60015
:102420007808B5007708B4003708BB003608BA0052
:102430003508B9003408B80083126C088316BF0051
:1024400083126B088316BE0083126A088316BD00D0
:10245000831269088316BC000A128A1583121A2691
:102460000A168A11031C3A2A8316AB01AA01A90194
:10247000A80183128310AB018B1BAB178B13600871
:102480008316CF0083125F088316CE0083125E0886
:102490008316CD0083125D088316CC002B08D30071
:1024A0002A08D2002908D1002808D0000A12831275
:1024B000D3230A16AB1B8B177A08E0007908DF00DC
:1024C0007808DE007708DD008314AB018B1BAB17A7
:1024D0008B1383162B08CF002A08CE002908CD00C5
:1024E0002808CC0083125C088316D30083125B0893
:1024F0008316D20083125A088316D100831259081A
:102500008316D0000A128312D3230A16AB1B8B1733
:102510007A088316AF007908AE007808AD00770816
:10252000AC008312AB018B1BAB178B133C088316DB
:10253000DC0083123B088316DB0083123A08831603
:10254000DA00831239088316D9002B08E0002A0824
:10255000DF002908DE002808DD000A128312172296
:102560000A16AB1B8B177A088316B7007908B600DA
:102570007808B5007708B4008312AB018B1BAB174A
:102580008B1340088316DC0083123F088316DB00A0
:1025900083123E088316DA0083123D088316D900A1
:1025A000831260088316E00083125F088316DF0041
:1025B00083125E088316DE0083125D088316DD0039
:1025C0000A12831217220A16AB1B8B178310AB015A
:1025D0008B1BAB178B1383163708CF003608CE0042
:1025E0003508CD003408CC007A08D3007908D20031
:1025F0007808D1007708D0000A128312D3230A1674
:10260000AB1B8B177A088316B7007908B6007808D9
:10261000B5007708B4008312AB018B1BAB178B138B
:1026200044088316DC00831243088316DB00831200
:1026300042088316DA00831241088316D9002F0856
:10264000E0002E08DF002D08DE002C08DD000A1255
:10265000831217220A16AB1B8B178310AB018B1B3F
:10266000AB178B1383163708CF003608CE0035081A
:10267000CD003408CC007A08D3007908D20078085D
:10268000D1007708D0000A128312D3230A16AB1B9D
:102690008B177A088316B3007908B2007808B10066
:1026A0007708B0002B088312DC0083162A088312F7
:1026B000DB00831629088312DA00831628088312A8
:1026C000D90083163308BB003208BA003108B900BC
:1026D0003008B800BF01BE01BD01BC010A128A1555
:1026E00083121A260A168A11031C7C2B8316B30147
:1026F000B201B101B00183128316BB01BA013430BB
:10270000B9008630B8003308BF003208BE00310877
:10271000BD003008BC000A128A1583121A260A1658
:102720008A11031C9B2B8316B301B2013430B10014
:102730008630B000831283163008F7003108F800A5
:102740003208F9003308FA0083128A110A16E52DBF
:1027500003081F398300FF30AC00AE01AD01CD305E
:10276000BC00CC30BB004C30BA007C30B900CD305E
:10277000C000CC30BF004C30BE007A30BD000A3003
:10278000C400D730C3002330C2007830C100CD3040
:10279000C800CC30C7004C30C6007C30C500CD30FE
:1027A000CC00CC30CB004C30CA007A30C9000A30A3
:1027B000D000D730CF002330CE007830CD00D40108
:1027C000D301D201D101D801D701D601D501DC0155
:1027D000DB01DA01D901E001DF01DE01DD01E40105
:1027E000E301E201E101E801E701E601E501EC01B5
:1027F000EB01EA018030E90083161F149F141F15B6
:102800009F1107309C0083130A128312272D0A168A
:102810000B16C0308B04831601130A128A1583121B
:10282000922C0A168A117A08F0007908EF007808CD
:10283000EE007708ED000A128A15FF2C0A168A119D
:102840007A08F4007908F3007808F2007708F100BC
:10285000AB018B1BAB178B1301308316DA00DB0047
:102860000A1283123B210A16AB1B8B17AB018B1B81
:10287000AB178B1370088316DC0083126F08831666
:10288000DB0083126E088316DA0083126D0883164C
:10289000D900E001DF014830DE008530DD000A129A
:1028A000831217220A16AB1B8B177A088316A8000F
:1028B0007908A7007808A6007708A5000A128312F5
:1028C000A1270A1678088316A4008312AB018B1B7C
:1028D000AB178B1374088316DC007308DB007208D7
:1028E000DA007108D900E001DF014830DE008530F0
:1028F000DD000A12831217220A16AB1B8B177A0807
:102900008316A8007908A7007808A6007708A50014
:102910000A128312A1270A1678088316A500203010
:10292000831203178D0005308F0003100313AB01D2
:102930008B1BAB178B1304308316CC000A12831247
:102940009D210A16AB1B8B1783162408A60018308E
:10295000A7000A128A1583126C250A168A112330E1
:1029600003178D0005308F0003100313AB018B1B81
:10297000AB178B1304308316CC000A1283129D21EF
:102980000A16AB1B8B1783162508A6001830A70064
:102990000A128A1583126C250A168A1102308316D0
:1029A000A4008312AB018B1BAB178B13FA30831679
:1029B000DA000A1283124F210A16AB1B8B178316FB
:1029C000A40BD12C7408B7007308B6007208B500C8
:1029D0007108B4000A128312C2270A167A088316F5
:1029E000A7007908A6007808A5007708A400700859
:1029F000B70083126F088316B60083126E08831621
:102A0000B50083126D088316B4000A128312C22720
:102A10000A167A088316BB007908BA007808B9004C
:102A20007708B8002708BF002608BE002508BD00AB
:102A30002408BC000A128A1583121A260A168A1163
:102A4000031C982D74088316B7007308B60072082B
:102A5000B5007108B4000A128312C2270A167A0858
:102A60008316A7007908A6007808A5007708A400B7
:102A700083126C088316BB0083126B088316BA009E
:102A800083126A088316B900831269088316B80096
:102A90002708BF002608BE002508BD002408BC008A
:102AA0000A128A1583121A260A168A11031C982DF7
:102AB00074088316A7007308A6007208A5007108A1
:102AC000A400831200287A088316A3007908A200C4
:102AD0007808A1007708A0002308A8002208A70012
:102AE0002108A6002008A5000A128312A1270A16B1
:102AF00078088316A400A5000A128A1583125B2E9B
:102B00000A168A1102308316A4008312AB018B1BB4
:102B1000AB178B13FA308316DA000A1283124F2197
:102B20000A16AB1B8B178316A40B852D182E831248
:102B300070088316B70083126F088316B6008312DD
:102B40006E088316B50083126D088316B4000A124E
:102B50008312C2270A167A088316A7007908A600EE
:102B60007808A5007708A40083126C088316BB00C0
:102B700083126B088316BA0083126A088316B900A1
:102B8000831269088316B8002708BF002608BE0014
:102B90002508BD002408BC000A128A1583121A26D3
:102BA0000A168A11031C192E70088316A7008312B7
:102BB0006F088316A60083126E088316A500831281
:102BC0006D088316A4008312D4297A08FE007908C0
:102BD000FD007808FC007708FB007E088316A8003B
:102BE0007D08A7007C08A6007B08A5000A128312B6
:102BF000A1270A1678088316A400A5000A128A15D0
:102C00008312EE2E0A168A1102308316A400831254
:102C1000AB018B1BAB178B13FA308316DA000A1249
:102C200083124F210A16AB1B8B178316A40B072E9A
:102C3000831204308316A4008312AB018B1BAB17E5
:102C40008B13FA308316DA000A1283124F210A1608
:0E2C5000AB1B8B178316A40B1C2E0D2C6300E0
:02400E003A3F37
:00000001FF
;PIC16F877A
;CRC=DD18  CREATED="12-nov.-24 21:02"
