:1000000006308A00B72E0000FF00030E8301A10016
:100010000A08A0008A010408A2007708A300780853
:10002000A4007908A5007A08A60003170D08031399
:10003000A70003170F080313A80003170C080313E6
:10004000A90003170E080313AA00831383128B1E43
:100050002B280B194C28220884002308F7002408B9
:10006000F8002508F9002608FA00270803178D0074
:100070000313280803178F000313290803178C00A4
:1000800003132A0803178E00031320088A00210E89
:100090008300FF0E7F0E09008A110A124F280130DB
:1000A000AC070318AD0A2D08003C03186028FF3A7E
:1000B000031D5E282C08813C03186028AD01AC01AB
:1000C000AD08031D6C282E082C0203186C2883161B
:1000D000051083120514702883160510831205106D
:1000E000AD08031D7C282F082C0203187C288316DA
:1000F000851083128514802883168510831285103D
:100100000B118A110A122B28C2244527D622CE248D
:10011000C42700008C20781D2532A020791D2532AF
:1001200000004B308400831300080319A428063014
:10013000F800F701F70B9A28F80B99287B30F700A5
:10014000F70BA028800B97280800520EF039F70013
:100150000F30080577048800000008140230F7000B
:10016000F70BB028B3280000081008000808F700B3
:10017000080E0F39F80008008316081088100811BF
:10018000831288100F3083160805F0388800831218
:100190000815000008140000B6207808D2000810E6
:1001A00000000814D328D4280000B6207808D10015
:1001B00008100F308316080588008312520EF700CE
:1001C000F030F70577085104F8007808D100D11B0A
:1001D000C2284F1C88104F18881400000811000016
:1001E0000810500ED1000F30D1055108D200A520C3
:1001F00050080F39D100D200A52008002830C500D2
:100200000C30C6000130C7000630C8000810881046
:1002100008110F308316080588000810881008118F
:100220000F308312CB0091200130C4004408033CFE
:10023000031C22290330D200A5200530CB009120D9
:10024000C40A16290230D200A5200530CB00912027
:10025000C4014408033C031C392945304407840089
:1002600083130008C900CF014908D000BC20C40A8C
:1002700029298A110A12C82E0830F8000430F70024
:10028000F70B40298711AB112B0883168700033029
:10029000F700F70B49298312CD0D0712031C5629CD
:1002A0002B162B08831687005A2983122B122B0832
:1002B0008316870000008312AB152B088316870076
:1002C0008312871D6129F80B3E290430F700F70BD4
:1002D00067298711AB112B08831687000000831252
:1002E0002B162B08831687000330F700F70B7629AF
:1002F0000330F700F70B7A298312AB152B0883160E
:1003000087008312871D8229F8010330F700F70B5D
:100310008729071A78148711AB112B0883168700D9
:10032000831207122B122B088316870083120800F2
:100330002B162B08831687000430F700F70B9E2935
:100340008312AB152B08831687000330F700F70BD9
:10035000A729831207122B122B088316870004305B
:10036000F700F70BB12983128711AB112B08831605
:100370008700D0308312CD003C214408CD003C21C1
:100380004508CD003C212B122B0883168700000066
:100390008312AB152B08831687008312871DCE2985
:1003A0000430F700F70BD229D52900002B162B08B3
:1003B000831687000430F700F70BDC29831208004E
:1003C0006B30C400C50198216430CB0091201930F6
:1003D000C4000730C50098216430CB0091208A11F9
:1003E0000A12C92E83160108C73908388100831202
:1003F0008B16C0308B04E63081008A110A12CA2E97
:100400004C0B032A062A4030CD00072ACD010130CB
:100410004B02CD074D088038CE00CF014E08D000EA
:10042000BC2008004A08073A0319202A0B3A03198E
:10043000252A063A03192D2A023A0319332A382AA3
:100440000130CB00CC0000223D2ACF010130D0008A
:10045000BC200230CB0091203D2A0130CB0002307D
:10046000CC0000223D2ACF011030D000BC203D2A14
:100470000130CF004A08D000BC2008000B08C4009F
:100480008B13831603178C170C14000000008312C3
:100490000313C41B8B1703170C087F390319922A07
:1004A0000313C40003170D080313C50003170F0837
:1004B0000313C6004408CA001222450803178D0022
:1004C0000313460803178F0003130B08C7008B1391
:1004D000831603178C170C140000000083120313FB
:1004E000C71B8B1703170C0D0E0D7F390319922AAA
:1004F0000313C40003170D080313C50003170F08E7
:100500000313C6004408CA001222450803178D00D1
:100510000313460803178F008D0A03198F0A03136C
:100520003E2A031703138A110A12D12E2B162B0809
:10053000831687000430F700F70B9C2A8312AB1553
:100540002B08831687000330F700F70BA52A8312C8
:1005500007122B122B08831687000430F700F70BC5
:10056000AF2A83128711AB112B0883168700D03076
:100570008312CD003C214B08CD003C212B162B08CB
:10058000831687000430F700F70BC42A8312AB15DB
:100590002B08831687000330F700F70BCD2A831250
:1005A000871DD02A07122B122B08831687000430D0
:1005B000F700F70BD92A83128711AB112B0883168A
:1005C0008700D1308312CD003C21F7010830CE00E6
:1005D0007708CF002B162B08831687000330F7000F
:1005E000F70BF02A8312AB152B08831687008312B2
:1005F000871DF82A071A0314071E0310F80D04308C
:10060000F700F70B012BAB112B0883168700831221
:100610008711CE0BEA2A2B162B088316870003308E
:10062000F700F70B112B831207124F0803191D2B2C
:100630002B122B088316870083120000AB152B08A2
:10064000831687008312871D232B0430F700F70BD6
:10065000272B8711AB112B08831687000330F70077
:10066000F70B302B831207122B122B0883168700EF
:1006700078088312CC002B122B0883168700000009
:100680008312AB152B08831687008312871D462B18
:100690000430F700F70B4A2B4D2B00002B162B08CC
:1006A000831687000430F700F70B542B83124C0895
:1006B000F80008008E30F7004D08F8004C08F900EB
:1006C000FA01CD1F682BF809F909F90A0319F80A8C
:1006D000F808031D752B7908F800F9010830F702B6
:1006E000F808031D752BF7017E2B0310F81B7C2BDC
:1006F000F90DF80DF703752BCD1FF81308005008FE
:100700000319442CDC0054080319442CDC02031C9C
:100710008E2B7F30DC070318442C942B8130DC02B5
:10072000031C442C0319442C5C08F700F801F90160
:10073000FA01DB015108DA00DA175208D900530830
:10074000D8001930DC005708D8020318B72B013045
:10075000D9020318B72BDA020318B72BDB020318F0
:10076000B72BDB0ADA0AD90A5708D807E92B56084B
:10077000D9020318D22B0130DA020318D22BDB0284
:100780000318D22BDB0ADA0A5608D9075708D8070C
:10079000031CE92BD90A031DE92BDA0A031DE92BF7
:1007A000DB0AE92B55088038DA020318E82B013000
:1007B000DB020318E82BDB0A55088038DA075608F5
:1007C000D907031CC62BDA0A031DC62BDB0AC62B6E
:1007D0007A14DC0BEC2BF72B0310D80DD90DDA0DA6
:1007E000DB0D0310FA0DF90DF80DDD0DA32B5D1CCB
:1007F000FF2B0310F80CF90CFA0CDD0C022CF7039C
:100800000319442CDD1B2B2C0310D80DD90DDA0D48
:10081000DB0D5708D8020318172C0130D902031832
:10082000172CDA020318172CDB02031C3A2C56088B
:10083000D9020318222C0130DA020318222CDB0221
:10084000031C3A2C55088038DA0203182B2C01308F
:10085000DB02031C3A2CFA0A031D3A2CF90A031D89
:100860003A2CF80A031D3A2CF70A0319442CF80C09
:10087000F90CFA0C5108DC005508DC06DC1F422C90
:10088000F817482CF813482CF701F801F901FA0180
:1008900008003B30CB0096227808CA003C30CB00E1
:1008A00096227808CB004A08C5007808C40045089D
:1008B000CD004408CC005A237A08CF007908CE0036
:1008C0007808CD007708CC007A08D3007908D200E8
:1008D0007808D1007708D000D701D601D5018D3036
:1008E000D4007F237A08C9007908C8007808C700B7
:1008F0007708C6004608F7004708F8004808F900DE
:100900004908FA0008003D30CB0096227808CA005A
:100910003E30CB0096227808CB004A08C500780804
:10092000C4004508CD004408CC005A237A08CF0003
:100930007908CE007808CD007708CC007A08D3007B
:100940007908D2007808D1007708D000D701D60105
:10095000D5018D30D4007F237A08C9007908C800FA
:100960007808C7007708C6004608F7004708F8006F
:100970004808F9004908FA000800440803192D2D19
:10098000CC00480803192D2DCC070318CE2C7F303E
:10099000CC02031C2D2D03192D2DD22C8130CC0718
:1009A00003182D2D4C08F700F801F901FA0145084C
:1009B000D000D0174608CF004708CE001830CC0032
:1009C000CD014E1CFB2C4B08FA07031CED2CF90A39
:1009D000031DED2CF80A0319CD174A08F907031C6B
:1009E000F42CF80A0319CD174908C600C6174608A3
:1009F000F8070318CD17CD0DF80CF90CFA0CD00C34
:100A0000CF0CCE0C0310CC0BE02C0130F7070318F1
:100A10002D2DF81B122DD00DFA0DF90DF80DF70341
:100A200003192D2DD01F232DFA0A031D232DF90A9A
:100A3000031D232DF80A031D232DF80CF90CFA0CC5
:100A4000F70A03192D2D4508CD004908CD06CD1F05
:100A50002B2DF817312DF813312DF701F801F9017D
:100A6000FA0108008E30F7004408F7024508F90043
:100A70004608F800F917F7080319492D0310F9087B
:100A8000031D452DF8080319492DF90CF80CF70B37
:100A90003E2DC51F502DF809F909F80A0319F90A66
:100AA00008000B08C5008B13831603178C170C1452
:100AB0000000000083120313C51B8B170318882D39
:100AC00003170C087F390313C50003170D08031320
:100AD000C60003170F080313C7004508CA001222F7
:100AE000460803178D000313470803178F000313ED
:100AF0000B08C8008B13831603178C170C14000007
:100B0000000083120313C81B8B17C40B882DA72D5D
:100B100003170C0D0E0D7F390313C50003170D08C5
:100B20000313C60003170F080313C7004508CA00C4
:100B30001222460803178D000313470803178F007E
:100B40008D0A03198F0A03100313C40B512D0800DB
:100B50004B08F8014A020318B02D4A08F700BC2DD3
:100B6000F7010830CC00CA0DF70D4B0877020318C7
:100B7000F700F80DCC0BB32D08002030451E3030A7
:100B8000C6004408F700C41FCD2DF709F70A7708FF
:100B9000C4002D30C600C51745144408CA0064308F
:100BA000CB00A8257708C40030307807C700440878
:100BB000CA000A30CB00A82530307707C900303092
:100BC0007807C8004608F700303047020319EC2DBB
:100BD000C514C51B4515002E4608C7002030C600A9
:100BE000303048020319F82D4514C51BC514002EDA
:100BF000031D4514031D002E4708C8002030C70000
:100C00004519072EC5180A2E45180D2E102E460818
:100C1000CA0012224708CA0012224808CA0012223B
:100C20004908CA001222080047084502CF004608BA
:100C3000D0004808031C480FD0024B084D02F700B3
:100C40004E08FA004C08031C4C0FFA027708D1003A
:100C50007A08D2005008D4004F08D3005208D600BA
:100C60005108D5001030D700F701FA01D40CD30C8D
:100C7000031C402E5508F7070318FA0A5608FA070E
:100C8000FA0CF70CF90CF80CD70B362E7908D000BB
:100C90007808CF0047084902F7004A08FA004808D8
:100CA000031C480FFA027708D1007A08D2005008D6
:100CB000D4004F08D3005208D6005108D500F801DF
:100CC000F901F701FA015608031D692E55080319A9
:100CD000832E1030D7000310D30DD40DF70DFA0D6D
:100CE00056087A02031D762E55087702031C7F2EC4
:100CF0005508F702031CFA035608FA020314F80D0C
:100D0000F90DD70B6B2E7908D0007808CF004B086F
:100D10007807F8007908FA004C0803184C0FFA0716
:100D20007A08F9000800C6014408C500C801C701D7
:100D3000CA01B430C900CC010B30CB00CE01303039
:100D4000CD0014267808AE000800C6014408C5008E
:100D5000C801C701CA01B430C900CC010B30CB00B7
:100D6000CE013030CD0014267808AF00080003080B
:100D70001F398300FF30AB00AD01AC0183161F1497
:100D80009F141F159F1107309C0083138312FE28A8
:100D9000E029F229843003178D0000308F000313FF
:100DA0003E2A49247A08BB007908BA007808B900BD
:100DB0007708B80083247A08BF007908BE00780855
:100DC000BD007708BC003B08C7003A08C6003908D8
:100DD000C5003808C400CB01CA014830C9008530BD
:100DE000C800BD247A08C7007908C6007808C50085
:100DF0007708C40032257808C2003F08C7003E08C3
:100E0000C6003D08C5003C08C400CB01CA014830FB
:100E1000C9008530C800BD247A08C7007908C6001B
:100E20007808C5007708C40032257808C30001306F
:100E3000CB00CC0000228A3003178D0000308F00D9
:100E4000031004300313C40051254208C4001830B5
:100E5000C500BD258D3003178D0000308F000310B5
:100E600004300313C40051254308C4001830C500E2
:100E7000BD254208023C0318412F5A304207C000EA
:100E8000432F5A30C0004308023C03184B2F5A30FE
:100E90004307C1004D2F5A30C1004008B43C03182D
:100EA000532FB430542F4008C0004108B43C0318FD
:100EB0005B2FB4305C2F4108C1004008C40093266A
:100EC0000230C400FA30CB009120C40B622F4108DD
:100ED000C400A5260230C400FA30CB009120C40B18
:100EE0006C2F4208023C0318A32F4208023C031C4B
:100EF000C0034008C40093263230CB00912049241F
:100F00007A08BB007908BA007808B9007708B800F9
:100F10003B08C7003A08C6003908C5003808C400B5
:100F2000CB01CA014830C9008530C800BD247A0809
:100F3000C7007908C6007808C5007708C4003225C4
:100F40007808C200712F4308023C0318D52F4308CC
:100F5000023C031CC1034108C400A5263230CB006B
:100F6000912083247A08BF007908BE007808BD006C
:100F70007708BC003F08C7003E08C6003D08C50012
:100F80003C08C400CB01CA014830C9008530C80004
:100F9000BD247A08C7007908C6007808C50077081C
:0E0FA000C40032257808C300A32FD12E6300B1
:02400E003A3F37
:00000001FF
;PIC16F877A
;CRC=FCB5  CREATED="18-nov.-24 14:20"
