:1000000008308A00AF280000FF00030E8301A10022
:100010000A08A0008A010408A2007708A300780853
:10002000A4007908A5007A08A60003170D08031399
:10003000A70003170F080313A80003170C080313E6
:10004000A90003170E080313AA00831383128B1E43
:100050002B280B194C28220884002308F7002408B9
:10006000F8002508F9002608FA00270803178D0074
:100070000313280803178F000313290803178C00A4
:1000800003132A0803178E00031320088A00210E89
:100090008300FF0E7F0E09008A110A124F280130DB
:1000A000AC070318AD0A2D08003C03186028FF3A7E
:1000B000031D5E282C08813C03186028AD01AC01AB
:1000C000AD08031D6C282E082C0203186C2883161B
:1000D000051083120514702883160510831205106D
:1000E000AD08031D7C282F082C0203187C288316DA
:1000F000851083128514802883168510831285103D
:100100000B118A110A122B28C2244527D622CE248D
:10011000C42700008C20781D2532A020791D2532AF
:1001200000004D308400831300080319A428063012
:10013000F800F701F70B9A28F80B99287B30F700A5
:10014000F70BA028800B97280800540EF039F70011
:100150000F30080577048800000008140230F7000B
:10016000F70BB028B3280000081008000808F700B3
:10017000080E0F39F80008008316081088100811BF
:10018000831288100F3083160805F0388800831218
:100190000815000008140000B6207808D4000810E4
:1001A00000000814D328D4280000B6207808D30013
:1001B00008100F308316080588008312540EF700CC
:1001C000F030F70577085304F8007808D300D31B04
:1001D000C228511C88105118881400000811000012
:1001E0000810520ED3000F30D3055308D400A520B9
:1001F00052080F39D300D400A52008002830C500CC
:100200000C30C6000130C7000630C8000810881046
:1002100008110F308316080588000810881008118F
:100220000F308312CD0091200130C4004408033CFC
:10023000031C22290330D400A5200530CD009120D5
:10024000C40A16290230D400A5200530CD00912023
:10025000C4014408033C031C392945304407840089
:1002600083130008C900D1014908D200BC20C40A88
:1002700029298A150A12C6280830F8000430F70028
:10028000F70B40298711AB112B0883168700033029
:10029000F700F70B49298312D20D0712031C5629C8
:1002A0002B162B08831687005A2983122B122B0832
:1002B0008316870000008312AB152B088316870076
:1002C0008312871D6129F80B3E290430F700F70BD4
:1002D00067298711AB112B08831687000000831252
:1002E0002B162B08831687000330F700F70B7629AF
:1002F0000330F700F70B7A298312AB152B0883160E
:1003000087008312871D8229F8010330F700F70B5D
:100310008729071A78148711AB112B0883168700D9
:10032000831207122B122B088316870083120800F2
:100330002B162B08831687000430F700F70B9E2935
:100340008312AB152B08831687000330F700F70BD9
:10035000A729831207122B122B088316870004305B
:10036000F700F70BB12983128711AB112B08831605
:100370008700D0308312D2003C214408D2003C21B7
:100380004508D2003C212B122B0883168700000061
:100390008312AB152B08831687008312871DCE2985
:1003A0000430F700F70BD229D52900002B162B08B3
:1003B000831687000430F700F70BDC29831208004E
:1003C0006B30C400C50198216430CD0091201930F4
:1003D000C4000730C50098216430CD0091208A15F3
:1003E0000A12C92883160108C73908388100831208
:1003F0008B16C0308B04E63081008A150A12CC2897
:100400004E0B032A062A4030CF00072ACF010130C5
:100410004D02CF074F088038D000D1015008D200DC
:10042000BC2008004C08073A0319202A0B3A03198C
:10043000252A063A03192D2A023A0319332A382AA3
:100440000130CD00CE0000223D2AD1010130D20082
:10045000BC200230CD0091203D2A0130CD00023079
:10046000CE0000223D2AD1011030D200BC203D2A0E
:100470000130D1004C08D200BC2008000B08C40099
:100480008B13831603178C170C14000000008312C3
:100490000313C41B8B1703170C087F390319922A07
:1004A0000313C40003170D080313C50003170F0837
:1004B0000313C6004408CC001222450803178D0020
:1004C0000313460803178F0003130B08C7008B1391
:1004D000831603178C170C140000000083120313FB
:1004E000C71B8B1703170C0D0E0D7F390319922AAA
:1004F0000313C40003170D080313C50003170F08E7
:100500000313C6004408CC001222450803178D00CF
:100510000313460803178F008D0A03198F0A03136C
:100520003E2A031703138A150A12D5282B162B0807
:10053000831687000430F700F70B9C2A8312AB1553
:100540002B08831687000330F700F70BA52A8312C8
:1005500007122B122B08831687000430F700F70BC5
:10056000AF2A83128711AB112B0883168700D03076
:100570008312D2003C215008D2003C212B162B08BC
:10058000831687000430F700F70BC42A8312AB15DB
:100590002B08831687000330F700F70BCD2A831250
:1005A000871DD02A07122B122B08831687000430D0
:1005B000F700F70BD92A83128711AB112B0883168A
:1005C0008700D1308312D2003C21F7010830D300DC
:1005D0007708D4002B162B08831687000330F7000A
:1005E000F70BF02A8312AB152B08831687008312B2
:1005F000871DF82A071A0314071E0310F80D04308C
:10060000F700F70B012BAB112B0883168700831221
:100610008711D30BEA2A2B162B0883168700033089
:10062000F700F70B112B83120712540803191D2B27
:100630002B122B088316870083120000AB152B08A2
:10064000831687008312871D232B0430F700F70BD6
:10065000272B8711AB112B08831687000330F70077
:10066000F70B302B831207122B122B0883168700EF
:1006700078088312D1002B122B0883168700000004
:100680008312AB152B08831687008312871D462B18
:100690000430F700F70B4A2B4D2B00002B162B08CC
:1006A000831687000430F700F70B542B8312510890
:1006B000F80008008E30F7005208F8005108F900E1
:1006C000FA01D21F682BF809F909F90A0319F80A87
:1006D000F808031D752B7908F800F9010830F702B6
:1006E000F808031D752BF7017E2B0310F81B7C2BDC
:1006F000F90DF80DF703752BD21FF81308005508F4
:100700000319442CE10059080319442CE102031C8D
:100710008E2B7F30E1070318442C942B8130E102AB
:10072000031C442C0319442C6108F700F801F9015B
:10073000FA01E0015608DF00DF175708DE0058080D
:10074000DD001930E1005C08DD020318B72B013031
:10075000DE020318B72BDF020318B72BE0020318E1
:10076000B72BE00ADF0ADE0A5C08DD07E92B5B082D
:10077000DE020318D22B0130DF020318D22BE00275
:100780000318D22BE00ADF0A5B08DE075C08DD07EE
:10079000031CE92BDE0A031DE92BDF0A031DE92BED
:1007A000E00AE92B5A088038DF020318E82B0130F1
:1007B000E0020318E82BE00A5A088038DF075B08DC
:1007C000DE07031CC62BDF0A031DC62BE00AC62B5F
:1007D0007A14E10BEC2BF72B0310DD0DDE0DDF0D92
:1007E000E00D0310FA0DF90DF80DE20DA32B621CBC
:1007F000FF2B0310F80CF90CFA0CE20C022CF70397
:100800000319442CE21B2B2C0310DD0DDE0DDF0D34
:10081000E00D5C08DD020318172C0130DE0203181E
:10082000172CDF020318172CE002031C3A2C5B087C
:10083000DE020318222C0130DF020318222CE00212
:10084000031C3A2C5A088038DF0203182B2C013085
:10085000E002031C3A2CFA0A031D3A2CF90A031D84
:100860003A2CF80A031D3A2CF70A0319442CF80C09
:10087000F90CFA0C5608E1005A08E106E11F422C77
:10088000F817482CF813482CF701F801F901FA0180
:1008900008003B30D00096227808CF003C30D000D2
:1008A00096227808D0004F08CA007808C9004A0884
:1008B000D2004908D1005A237A08D4007908D3001D
:1008C0007808D2007708D1007A08D8007908D700D4
:1008D0007808D6007708D500DC01DB01DA018D301D
:1008E000D9007F237A08CE007908CD007808CC00A3
:1008F0007708CB004B08F7004C08F8004D08F900CA
:100900004E08FA0008003D30D00096227808CF004B
:100910003E30D00096227808D0004F08CA007808F0
:10092000C9004A08D2004908D1005A237A08D400E5
:100930007908D3007808D2007708D1007A08D80067
:100940007908D7007808D6007708D500DC01DB01EC
:10095000DA018D30D9007F237A08CE007908CD00E6
:100960007808CC007708CB004B08F7004C08F8005B
:100970004D08F9004E08FA000800450803192D2D0E
:10098000CD00490803192D2DCD070318CE2C7F303B
:10099000CD02031C2D2D03192D2DD22C8130CD0716
:1009A00003182D2D4D08F700F801F901FA0146084A
:1009B000D100D1174708D0004808CF001830CD002B
:1009C000CE014F1CFB2C4C08FA07031CED2CF90A36
:1009D000031DED2CF80A0319CE174B08F907031C69
:1009E000F42CF80A0319CE174A08C700C71747089E
:1009F000F8070318CE17CE0DF80CF90CFA0CD10C31
:100A0000D00CCF0C0310CD0BE02C0130F7070318EE
:100A10002D2DF81B122DD10DFA0DF90DF80DF70340
:100A200003192D2DD11F232DFA0A031D232DF90A99
:100A3000031D232DF80A031D232DF80CF90CFA0CC5
:100A4000F70A03192D2D4608CE004A08CE06CE1F00
:100A50002B2DF817312DF813312DF701F801F9017D
:100A6000FA0108008E30F7004508F7024608F90041
:100A70004708F800F917F7080319492D0310F9087A
:100A8000031D452DF8080319492DF90CF80CF70B37
:100A90003E2DC61F502DF809F909F80A0319F90A65
:100AA00008000B08C7008B13831603178C170C1450
:100AB0000000000083120313C71B8B170318882D37
:100AC00003170C087F390313C70003170D0803131E
:100AD000C80003170F080313C9004708CC001222EF
:100AE000480803178D000313490803178F000313E9
:100AF0000B08CA008B13831603178C170C14000005
:100B0000000083120313CA1B8B17C60B882DA72D59
:100B100003170C0D0E0D7F390313C70003170D08C3
:100B20000313C80003170F080313C9004708CC00BC
:100B30001222480803178D000313490803178F007A
:100B40008D0A03198F0A03100313C60B512D0800D9
:100B50004D08F8014C020318B02D4C08F700BC2DCD
:100B6000F7010830CE00CC0DF70D4D0877020318C1
:100B7000F700F80DCE0BB32D08002030471E3030A3
:100B8000C8004608F700C61FCD2DF709F70A7708F9
:100B9000C6002D30C800C71747144608CC00643083
:100BA000CD00A8257708C60030307807C900460870
:100BB000CC000A30CD00A82530307707CB0030308C
:100BC0007807CA004808F700303049020319EC2DB5
:100BD000C714C71B4715002E4808C9002030C8009D
:100BE00030304A020319F82D4714C71BC714002ED2
:100BF000031D4714031D002E4908CA002030C900F8
:100C00004719072EC7180A2E47180D2E102E480810
:100C1000CC0012224908CC0012224A08CC00122231
:100C20004B08CC00122208004E08D5005208D50609
:100C3000D51F1F2E03110310CE1B0314522E4E0876
:100C4000D5005108D6004D08D60203192D2ED51F08
:100C5000522E0308013A8300522E5208D6004E0845
:100C6000D6020319392ED51F522E0308013A8300EC
:100C7000522E5308D6004F08D6020319452ED51F11
:100C8000522E0308013A8300522E5408D600500811
:100C9000D6020319512ED51F522E0308013A8300A4
:100CA000522E031008004C084A02D4004B08D5000D
:100CB0004D08031C4D0FD50250085202F70053088F
:100CC000FA005108031C510FFA027708D6007A087F
:100CD000D7005508D9005408D8005708DB0056083B
:100CE000DA001030DC00F701FA01D90CD80C031C33
:100CF0007F2E5A08F7070318FA0A5B08FA07FA0C5E
:100D0000F70CF90CF80CDC0B752E7908D500780877
:100D1000D4004C084E02F7004F08FA004D08031C9F
:100D20004D0FFA027708D6007A08D7005508D90087
:100D30005408D8005708DB005608DA00F801F9011A
:100D4000F701FA015B08031DA82E5A080319C22EE9
:100D50001030DC000310D80DD90DF70DFA0D5B082B
:100D60007A02031DB52E5A087702031CBE2E5A08BC
:100D7000F702031CFA035B08FA020314F80DF90DDD
:100D8000DC0BAA2E7908D5007808D4005008780723
:100D9000F8007908FA0051080318510FFA077A0889
:100DA000F9000800CB014908CA00CD01CC01CF01F0
:100DB000B430CE00D1010B30D000D3013030D2009E
:100DC00053267808AE0008005A30C8004408F700DF
:100DD0004508F8004608F9004708FA00F8137A08B1
:100DE000CC007908CB007808CA007708C9003B0816
:100DF000D0003A08CF003908CE003808CD004C08A2
:100E0000D4004B08D3004A08D2004908D100142668
:100E1000031C7E2FD001CF01CE01CD014708D400A5
:100E20004608D3004508D2004408D1001426031C0C
:100E30001C2F5530C800242F5F30C8004808B43C30
:100E40000318242FB430C8004808C900D226043043
:100E5000C900FA30CD009120C90B292F49247A0806
:100E6000C7007908C6007808C5007708C4004408A0
:100E7000F7004508F8004608F9004708FA00F8139B
:100E80007A08CC007908CB007808CA007708C90036
:100E90004C08D0004B08CF004A08CE004908CD00CE
:100EA0003B08D4003A08D3003908D2003808D100F2
:100EB000142603185D2F031D7D2FD001CF01CE0115
:100EC000CD014708D4004608D3004508D2004408A5
:100ED000D1001426031C6F2F5930C800772F5B30C8
:100EE000C8004808B43C0318772FB430C80048083D
:100EF000C900D2263230CD009120E62E8A150A1282
:100F00005E29CB014908CA00CD01CC01CF01B43024
:100F1000CE00D1010B30D000D3013030D2005326A7
:060F20007808AF00080094
:101000005A30C8004408F7004508F8004608F900BF
:101010004708FA00F8137A08CC007908CB00780862
:10102000CA007708C9003B08D0003A08CF00390849
:10103000CE003808CD004C08D4004B08D3004A0835
:10104000D2004908D1008A1114268A15031CAC2845
:10105000D001CF01CE01CD014708D4004608D3000E
:101060004508D2004408D1008A1114268A15031CB1
:1010700042285F30C8004808B43C03184128B43007
:10108000C80044285530C8004808C9008A11812783
:101090008A150430C900FA30CD008A1191208A15D2
:1010A000C90B4B288A1183248A157A08C70079084E
:1010B000C6007808C5007708C4004408F700450852
:1010C000F8004608F9004708FA00F8137A08CC003F
:1010D0007908CB007808CA007708C9004C08D0000E
:1010E0004B08CF004A08CE004908CD003B08D40089
:1010F0003A08D3003908D2003808D1008A111426E2
:101100008A1503188528031DAB28D001CF01CE0115
:10111000CD014708D4004608D3004508D200440852
:10112000D1008A1114268A15031C9F285B30C80041
:101130004808B43C03189E28B430C800A128593090
:10114000C8004808C9008A1181278A153230CD00AD
:101150008A1191208A1502288A150A126829030823
:101160001F398300FF30AB00AD01AC01BB01BA01F8
:10117000B9018030B80083161F149F141F159F11EA
:1011800007309C0083138A118312FE288A158A1166
:10119000E0298A158A11F2298A15843003178D00F7
:1011A00000308F008A1103133E2A8A158A114924C0
:1011B0008A157A08BF007908BE007808BD00770854
:1011C000BC008A1183248A157A08C3007908C200FA
:1011D0007808C1007708C0000130CD00CE008A1128
:1011E00000228A153F08C8003E08C7003D08C60017
:1011F0003C08C500CC01CB014830CA008530C9008D
:101200008A11BD248A157A08C8007908C7007808B1
:10121000C6007708C5008A1132258A157808C400EF
:101220004308C8004208C7004108C6004008C5007E
:10123000CC01CB014830CA008530C9008A11BD24D9
:101240008A157A08C8007908C7007808C6007708A8
:10125000C5008A1132258A157808C5008A3003171F
:101260008D0000308F00031004300313C6008A1174
:1012700051258A154408C6001830C7008A11BD25BB
:101280008A158D3003178D0000308F000310043055
:101290000313C6008A1151258A154508C600183067
:1012A000C7008A11BD258A153F08C7003E08C60041
:1012B0003D08C5003C08C4008A11E42E8A15430885
:1012C000C7004208C6004108C5004008C400002805
:0E12D000C830CD008A1191208A15D6286300FF
:02400E003A3F37
:00000001FF
;PIC16F877A
;CRC=51F7  CREATED="13-nov.-24 23:13"
