:1000000009308A005F290000413CBA1230173233B0
:10001000A020791D25182E196600413DBA1230170F
:100020003233A023781D25182E196600C73CBA125A
:1000300030173233A0237A1D25182E1966004B3055
:10004000840083130008031932280630F800F701F2
:10005000F70B2828F80B27287B30F700F70B2E2802
:10006000800B25280800520EF039F7000F300805E4
:1000700077048800000008140230F700F70B3E28D0
:1000800041280000081008000808F700080E0F3982
:10009000F8000800831608108810081183128810D1
:1000A0000F3083160805F038880083120815000009
:1000B0000814000044207808D2000810000008143A
:1000C00061286228000044207808D10008100F3011
:1000D0008316080588008312520EF700F030F705EA
:1000E00077085104F8007808D100D11B50284F1C24
:1000F00088104F1888140000081100000810500ED6
:10010000D1000F30D1055108D200332050080F39EB
:10011000D100D200332008002830BE000C30BF00D0
:100120000130C0000630C1000810881008110F30DF
:100130008316080588000810881008110F308312F4
:10014000CB001F200130BD003D08033C031CB0283C
:100150000330D20033200530CB001F20BD0AA42875
:100160000230D20033200530CB001F20BD013D08F6
:10017000033C031CC7283E303D078400831300085E
:10018000C200CF014208D0004A20BD0AB7288A1514
:100190000A126F290830F8000430F700F70BCE2858
:1001A0008711A0112008831687000330F700F70B92
:1001B000D7288312C60D0712031CE4282016200836
:1001C00083168700E82883122012200883168700F0
:1001D00000008312A0152008831687008312871D54
:1001E000EF28F80BCC280430F700F70BF52887111F
:1001F000A011200883168700000083122016200813
:10020000831687000330F700F70B04290330F7004B
:10021000F70B08298312A015200883168700831284
:10022000871D1029F8010330F700F70B1529071A6D
:1002300078148711A01120088316870083120712F3
:100240002012200883168700831208002016200839
:10025000831687000430F700F70B2C298312A015B2
:100260002008831687000330F700F70B3529831227
:10027000071220122008831687000430F700F70BBE
:100280003F2983128711A011200883168700D030E0
:100290008312C600CA203D08C600CA203E08C60018
:1002A000CA20201220088316870000008312A015A0
:1002B0002008831687008312871D5C290430F7000D
:1002C000F70B602963290000201620088316870099
:1002D0000430F700F70B6A29831208006B30BD0069
:1002E000BE0126216430CB001F201930BD0007302D
:1002F000BE0026216430CB001F208A150A12722905
:1003000020162008831687000430F700F70B862993
:100310008312A0152008831687000330F700F70B1F
:100320008F298312071220122008831687000430B9
:10033000F700F70B992983128711A0112008831663
:100340008700D0308312C600CA204408C600CA20E5
:1003500020162008831687000430F700F70BAE291B
:100360008312A0152008831687000330F700F70BCF
:10037000B7298312871DBA29071220122008831675
:1003800087000430F700F70BC32983128711A011EF
:10039000200883168700D1308312C600CA20F701D7
:1003A0000830C7007708C800201620088316870089
:1003B0000330F700F70BDA298312A0152008831603
:1003C00087008312871DE229071A0314071E0310F2
:1003D000F80D0430F700F70BEB29A0112008831665
:1003E000870083128711C70BD42920162008831693
:1003F00087000330F700F70BFB2983120712480828
:100400000319072A20122008831687008312000090
:10041000A0152008831687008312871D0D2A04303B
:10042000F700F70B112A8711A01120088316870007
:100430000330F700F70B1A2A831207122012200844
:100440008316870078088312C500201220088316BF
:10045000870000008312A0152008831687008312EE
:10046000871D302A0430F700F70B342A372A0000A2
:1004700020162008831687000430F700F70B3E2A69
:1004800083124508F80008008E30F7004608F8008F
:100490004508F900FA01C61F522AF809F909F90AB4
:1004A0000319F80AF808031D5F2A7908F800F90112
:1004B0000830F702F808031D5F2AF701682A0310C5
:1004C000F81B662AF90DF80DF7035F2AC61FF8130B
:1004D0000800490803192E2BD5004D0803192E2BAF
:1004E000D502031C782A7F30D50703182E2B7E2ACD
:1004F0008130D502031C2E2B03192E2B5508F70033
:10050000F801F901FA01D4014A08D300D3174B08C6
:10051000D2004C08D1001930D5005008D102031880
:10052000A12A0130D2020318A12AD3020318A12A5A
:10053000D4020318A12AD40AD30AD20A5008D10738
:10054000D32A4F08D2020318BC2A0130D302031861
:10055000BC2AD4020318BC2AD40AD30A4F08D207F3
:100560005008D107031CD32AD20A031DD32AD30A69
:10057000031DD32AD40AD32A4E088038D302031885
:10058000D22A0130D4020318D22AD40A4E08803865
:10059000D3074F08D207031CB02AD30A031DB02A81
:1005A000D40AB02A7A14D50BD62AE12A0310D10D29
:1005B000D20DD30DD40D0310FA0DF90DF80DD60D93
:1005C0008D2A561CE92A0310F80CF90CFA0CD60CEB
:1005D000EC2AF70303192E2BD61B152B0310D10D74
:1005E000D20DD30DD40D5008D1020318012B0130C8
:1005F000D2020318012BD3020318012BD402031CCF
:10060000242B4F08D20203180C2B0130D3020318FD
:100610000C2BD402031C242B4E088038D302031861
:10062000152B0130D402031C242BFA0A031D242BA2
:10063000F90A031D242BF80A031D242BF70A0319BA
:100640002E2BF80CF90CFA0C4A08D5004E08D506EA
:10065000D51F2C2BF817322BF813322BF701F8018A
:10066000F901FA0108003B30C40080217808C3007A
:100670003C30C40080217808C4004308BE007808DC
:10068000BD003E08C6003D08C50044227A08C800E7
:100690007908C7007808C6007708C5007A08CC003A
:1006A0007908CB007808CA007708C900D001CF01CB
:1006B000CE018D30CD0069227A08C2007908C100D0
:1006C0007808C0007708BF003F08F7004008F8002E
:1006D0004108F9004208FA008A150A1275293D30CE
:1006E000C40080217808C3003E30C400802178080F
:1006F000C4004308BE007808BD003E08C6003D089F
:10070000C50044227A08C8007908C7007808C600E6
:100710007708C5007A08CC007908CB007808CA00B1
:100720007708C900D001CF01CE018D30CD006922FC
:100730007A08C2007908C1007808C0007708BF00B5
:100740003F08F7004008F8004108F9004208FA00A5
:100750008A150A1280293F30C40080217808C3001E
:100760004030C40080217808C4004308BE007808E7
:10077000BD003E08C6003D08C50044227A08C800F6
:100780007908C7007808C6007708C5007A08CC0049
:100790007908CB007808CA007708C900D001CF01DA
:1007A000CE018D30CD0069227A08C2007908C100DF
:1007B0007808C0007708BF003F08F7004008F8003D
:1007C0004108F9004208FA008A150A128B294330C1
:1007D000C40080217808C3004430C4008021780818
:1007E000C4004308BE007808BD003E08C6003D08AE
:1007F000C50044227A08C8007908C7007808C600F6
:100800007708C5007A08CC007908CB007808CA00C0
:100810007708C900D001CF010330CE008630CD006B
:1008200069227A08C2007908C1007808C0007708F8
:10083000BF003F08F7004008F8004108F9004208EF
:10084000FA008A150A1296294530C40080217808DA
:10085000C3004630C40080217808C4004308BE00AD
:100860007808BD003E08C6003D08C50044227A084D
:10087000C8007908C7007808C6007708C5007A085C
:10088000CC007908CB007808CA007708C900D001ED
:10089000CF010330CE008630CD0069227A08C20035
:1008A0007908C1007808C0007708BF003F08F7004A
:1008B0004008F8004108F9004208FA008A150A12B7
:1008C000A1294730C40080217808C3004830C40003
:1008D00080217808C4004308BE007808BD003E08A7
:1008E000C6003D08C50044227A08C8007908C70040
:1008F0007808C6007708C5007A08CC007908CB00D4
:100900007808CA007708C900D001CF010330CE00B3
:100910008630CD0069227A08C2007908C1007808C3
:10092000C0007708BF003F08F7004008F800410802
:10093000F9004208FA008A150A12AC294130C400B5
:1009400080217808C3004230C40080217808C400A8
:100950004308BE004408BD003E08C6003D08C5006F
:1009600044227A08CC007908CB007808CA007708BE
:10097000C900D001CF012A30CE008730CD006922D6
:100980007A08C8007908C7007808C6007708C5004B
:10099000CA010408C9004A10831B4A14831048087E
:1009A000CE004708CD004608CC004508CB00B83043
:1009B000D2001E30D1001230D0008430CF00803001
:1009C0008318D006D501D6014C08D4005008D406AF
:1009D0004B080319CF2DD300F7004F080319D82D6A
:1009E000D3020319742D031C322D5008D900D917D6
:1009F0005108D8005208D700D6010310D90CD80CE2
:100A0000D70CD60CD30BFC2CD41F092D5514EC2D70
:100A10005510531055164E3084008313012E551275
:100A2000D41B1C2D531C272DD90CD80CD70CD60C3D
:100A3000F70A0319E72D272DD91B2A2D0310D60DF0
:100A4000D70DD80DD90DF7030319E72D1C2D551718
:100A5000942D55134C08D400D41F302DD917E02DF8
:100A6000D913E02D4F08D300F7004B08D3024C08F0
:100A7000D900D9174D08D8004E08D700D601031069
:100A8000D90CD80CD70CD60CD30B3E2DD41F4B2D24
:100A9000D514EC2DD5105310D51652308400831385
:100AA000012ED512D41B5E2D531C692DD90CD80CE8
:100AB000D70CD60CF70A0319E72D692DD91B6C2D1D
:100AC0000310D60DD70DD80DD90DF7030319E72D57
:100AD0005E2DD517942DD5135008D400D41F722D38
:100AE000D917E02DD913E02D5008D900D917510896
:100AF000D8005208D700D41F812DD9135515EC2DDD
:100B00005511D60153104E3084008313012ED41B8F
:100B1000AA2D4C08D400531C942DD90CD80CD70CFA
:100B2000D60CF70A0319E72DD61FA52DD70A031DEA
:100B3000A52DD80A031DA52DD90A031DA52DD90C55
:100B4000D80CD70CF70A0319E72D551B292DD51BF7
:100B50006B2DC92D8030D906D91FB22DEC2D500830
:100B6000D400BF2D4C08D400D908031DBF2DD808D0
:100B7000031DBF2DD708031DBF2DF701E02DD91B85
:100B8000C92D0310D60DD70DD80DD90DF70BBF2DDC
:100B9000E72DD41FCD2DD917E02DD913E02D4F0807
:100BA000F7005008D9005108D8005208D700E02DAE
:100BB0004B08F7004C08D9004D08D8004E08D70064
:100BC0005908F8005808F9005708FA001F2EF701D5
:100BD000F801F901FA011F2ED601D709D809D90960
:100BE000D609D60A031DFA2DD70A031DFA2DD80AF5
:100BF0000319D90A5518082DD5184A2D5519802DD5
:100C0000AF2D0008D707031C0B2ED80A031D0B2E8F
:100C1000D90A0319531484030008D807031C132EA0
:100C2000D90A0319531484030008801F803AD90796
:100C300003185314551A0F2DD51A512D872D490815
:100C4000840083134A1883177A08C2007908C10008
:100C50007808C0007708BF003F08F7004008F80098
:100C60004108F9004208FA008A150A12B7294C0B0C
:100C70003A2E3D2E4030CD003E2ECD0101304B02AC
:100C8000CD074D088038CE00CF014E08D0004A2055
:100C900008004A08073A0319572E0B3A03195C2E2D
:100CA000063A0319642E023A03196A2E6F2E013098
:100CB000CB00CC003726742ECF010130D0004A2063
:100CC0000230CB001F20742E0130CB000230CC004C
:100CD0003726742ECF011030D0004A20742E0130F8
:100CE000CF004A08D0004A20080083187A2E5230DC
:100CF00084008313F701F801F901FA01D201D3014D
:100D0000D401D501510850044F044E040319B82EE4
:100D10002030D6000310CA0DCB0DCC0DCD0DD20D59
:100D2000D30DD40DD50D51085502031DA12E500829
:100D30005402031DA12E4F085302031DA12E4E087D
:100D40005202031CB22E4E08D2024F08031C4F0F52
:100D5000D3025008031C500FD4025108031C510F3A
:100D6000D5020314F70DF80DF90DFA0DD60B8A2EE6
:100D700052088000840A53088000840A54088000C6
:100D8000840A5508800008000B08BE008B138316E8
:100D900003178C170C140000000083120313BE1BF2
:100DA0008B170318FB2E03170C087F390313BE00A3
:100DB00003170D080313BF0003170F080313C00028
:100DC0003E08CA0049263F0803178D000313400858
:100DD00003178F0003130B08C1008B13831603172F
:100DE0008C170C140000000083120313C11B8B1717
:100DF000BD0BFB2E1A2F03170C0D0E0D7F3903139D
:100E0000BE0003170D080313BF0003170F080313D9
:100E1000C0003E08CA0049263F0803178D0003138F
:100E2000400803178F008D0A03198F0A031003135C
:060E3000BD0BC42E0800FA
:101000000408C2004108C400031992284008CD001A
:101010003F08CC003E08CB003D08CA00D101D001FA
:101020002030CF008230CE004A0803198428D20035
:101030004E0803198428D207031825287F30D202CE
:10104000031C84280319842829288130D207031817
:1010500084285208F700F801F901FA014B08D6007C
:10106000D6174C08D5004D08D4001830D200D30153
:10107000541C52285108FA07031C4428F90A031D7E
:101080004428F80A0319D3175008F907031C4B2802
:10109000F80A0319D3174F08CC00CC174C08F807EF
:1010A0000318D317D30DF80CF90CFA0CD60CD50C89
:1010B000D40C0310D20B37280130F707031884280B
:1010C000F81B6928D60DFA0DF90DF80DF703031971
:1010D0008428D61F7A28FA0A031D7A28F90A031DE4
:1010E0007A28F80A031D7A28F80CF90CFA0CF70A8A
:1010F000031984284B08D3004F08D306D31F822836
:10110000F8178828F8138828F701F801F901FA017F
:101110007A08C0007908BF007808BE007708BD00D3
:10112000C40B06284008CD003F08CC003E08CB0089
:101130003D08CA004A08B63CCA00FA014B08CE0076
:10114000CB170310CB0CCC0CCD0CFA0CF90CF80C13
:10115000F70CCA0BA128CE1FB828F709F809F9091E
:10116000FA09F70A0319F80A0319F90A0319FA0A1E
:101170007A08C0007908BF007808BE007708BD0073
:10118000C01FCF28C203C216BD09BE09BF09C009CE
:10119000BD0A0319BE0A0319BF0A0319C00A3B306E
:1011A000C9009A30C800CA30C700C6010A30C4005E
:1011B00041080319C20A83143D3084008313400898
:1011C000CD003F08CC003E08CB003D08CA004908CE
:1011D000D1004808D0004708CF004608CE008A1149
:1011E00075268A157808F708031D0929410A440263
:1011F00003190929420803190B290F39440203195D
:10120000032903184329C21B4329421B0B29203001
:101210003D292030C205C21E1B29C2124108031DF0
:10122000C2037708C2002D30CA008A1149268A15E8
:101230004208F700C20141084402031D2B29770828
:10124000C2002E30CA008A1149268A154208F700CA
:101250002030C20500303030C21E3D29C212410884
:10126000031DC2037708C2002D30CA008A11492627
:101270008A154208F700C2013030F7077708CA0024
:101280008A1149268A1583104908CD004808CC00E8
:101290004708CB004608CA00D101D001CF010A306F
:1012A000CE008A1175268A157A08C9007908C80007
:1012B0007808C7007708C600C40BDB2808000308BD
:1012C0001F398300FF30A00083161F149F141F15C1
:1012D0009F1107309C0083138A1183128C288A1572
:1012E0008A116E298A158A11332B8A157A08A4006F
:1012F0007908A3007808A2007708A1008A116F2B53
:101300008A157A08A8007908A7007808A600770847
:10131000A5008A11AB2B8A157A08AC007908AB00BE
:101320007808AA007708A9008A11E72B8A157A089D
:10133000B0007908AF007808AE007708AD008A11D8
:10134000242C8A157A08B4007908B3007808B20012
:101350007708B1008A11612C8A157A08B8007908DB
:10136000B7007808B6007708B5008A119E2C8A1558
:101370007A08BC007908BB007808BA007708B90081
:101380000130CB00CC008A1137268A154130CA00C3
:101390008A1149268A157830CA008A1149268A1589
:1013A0003A30CA008A1149268A15C93084002408B7
:1013B000C0002308BF002208BE002108BD00023083
:1013C000C1000020083003178D0000308F0003108B
:1013D00004300313BD008A11C4268A15C930840065
:1013E0002808C0002708BF002608BE002508BD0049
:1013F0000230C10000200130CB000230CC008A1145
:1014000037268A154130CA008A1149268A157A3052
:10141000CA008A1149268A153A30CA008A1149261B
:101420008A15C93084002C08C0002B08BF002A0888
:10143000BE002908BD000230C10000201130031792
:101440008D0000308F00031004300313BD008A119B
:10145000C4268A15C93084003008C0002F08BF0098
:101460002E08BE002D08BD000230C1000020C8308B
:10147000CB008A111F208A150130CB00CC008A11C5
:1014800037268A154730CA008A1149268A157930CD
:10149000CA008A1149268A153A30CA008A1149269B
:1014A0008A15C93084003408C0003308BF003208F0
:1014B000BE003108BD000230C10000201A30031701
:1014C0008D0000308F00031004300313BD008A111B
:1014D000C4268A15C93084003808C0003708BF0008
:1014E0003608BE003508BD000230C10000200130C2
:1014F000CB000230CC008A1137268A155430CA003E
:101500008A1149268A153A30CA008A1149268A1555
:10151000C93084003C08C0003B08BF003A08BE0048
:101520003908BD000230C1000020C830CB008A114C
:081530001F208A1573296300D6
:02400E003A3F37
:00000001FF
;PIC16F877A
;CRC=310E  CREATED="05-oct.-24 20:30"
