:100000000B308A00332B0000FF00030E8301A10098
:100010000A08A0008A010408A2007708A300780853
:10002000A4007908A5007A08A60003170D08031399
:10003000A70003170F080313A80003170C080313E6
:10004000A90003170E080313AA00831383128B1E43
:100050002B280B194C28220884002308F7002408B9
:10006000F8002508F9002608FA00270803178D0074
:100070000313280803178F000313290803178C00A4
:1000800003132A0803178E00031320088A00210E89
:100090008300FF0E7F0E09008A110A124F280130DB
:1000A000AC070318AD0A2D08003C03186028FF3A7E
:1000B000031D5E282C08813C03186028AD01AC01AB
:1000C000AD08031D6C282E082C0203186C2883161B
:1000D000051083120514702883160510831205106D
:1000E000AD08031D7C282F082C0203187C288316DA
:1000F000851083128514802883168510831285103D
:100100000B118A110A122B282021C9224E2B4527B8
:1001100049224F00413CBA1230173233A020791DDA
:1001200025182E196600473CBA1230173233A02327
:10013000791D25182E196600CA3084008313000823
:100140000319AF280630F800F701F70BA528F80BC4
:10015000A4287B30F700F70BAB28800BA2280800FF
:100160008316510EF039F7000F308312080577041B
:100170008800000008140230F700F70BBD28C028E3
:100180000000081008000808F700080E0F39F800F2
:1001900008008316081088100811831288100F3089
:1001A00083160805F038880083120815000008142B
:1001B0000000C32078088316D100831208100000C5
:1001C0000814E228E3280000C32078088316D00032
:1001D000831208100F30831608058800510EF700AF
:1001E000F030F70577085004F8007808D000D01FE9
:1001F000FB288312CF284E180029831288108316FB
:100200004E1C0529831288148316000083120811DE
:100210000000081083164F0ED0000F30D005500894
:10022000D1008312B02083164F080F39D000D100BF
:100230008312B020080028308316BD000C30BE00A9
:100240000130BF000630C00083120810881008116A
:100250000F308316080588000810881008110F3029
:10026000CA0083129C2001308316BC003C08033C6A
:10027000031C46290330D1008312B02005308316B9
:10028000CA0083129C208316BC0A36290230D10092
:100290008312B02005308316CA0083129C20831677
:1002A000BC013C08033C031C6329BD303C078400AF
:1002B00083130008C100CE014108CF008312C9207A
:1002C0008316BC0A512983128A150A12832B8316BE
:1002D0000108C7390838810083128B16C0308B049F
:1002E000E63081008A150A12862B0830F8000430A7
:1002F000F700F70B79298711AB112B0883168700BC
:100300000330F700F70B8229C50D83120712031C77
:100310008F292B162B0883168700932983122B1203
:100320002B088316870000008312AB152B08831659
:1003300087008312871D9A29F80B77290430F7006C
:10034000F70BA0298711AB112B088316870000003B
:1003500083122B162B08831687000330F700F70B48
:10036000AF290330F700F70BB3298312AB152B0825
:10037000831687008312871DBB29F8010330F7001D
:10038000F70BC029071A78148711AB112B088316B5
:100390008700831207122B122B0883168700831203
:1003A00008002B162B08831687000430F700F70B84
:1003B000D7298312AB152B08831687000330F7006B
:1003C000F70BE029831207122B122B0883168700E4
:1003D0000430F700F70BEA2983128711AB112B08C1
:1003E00083168700D030C5008312752183163C0820
:1003F000C5008312752183163D08C500831275213F
:100400002B122B088316870000008312AB152B08D4
:10041000831687008312871D0B2A0430F700F70B21
:100420000F2A122A00002B162B088316870004308F
:10043000F700F70B192A831208006B308316BC00F3
:10044000BD018312D12164308316CA0083129C201F
:1004500019308316BC000730BD008312D1216430EF
:100460008316CA0083129C208A150A12892B8316D0
:100470004B0B3B2A3E2A4030CC003F2ACC010130B6
:100480004A02CC074C088038CD00CE014D08CF0081
:100490008312C920080083164908073A83120319FA
:1004A0005B2A0B3A0319622A063A03196E2A023AAA
:1004B0000319762A7D2A01308316CA00CB008312E5
:1004C0003722842A8316CE010130CF008312C9203F
:1004D00002308316CA0083129C20842A01308316BE
:1004E000CA000230CB0083123722842A8316CE0141
:1004F0001030CF008312C920842A01308316CE0029
:100500004908CF008312C92008000B088316BC00DD
:1005100083128B13831603178C170C140000000032
:100520000313BC1F962A83128B178316831203179B
:100530000C087F390319F72A83160313BC008312B2
:1005400003170D0883160313BD00831203170F084A
:1005500083160313BE003C08C90083124B22831686
:100560003D08831203178D00831603133E08831280
:1005700003178F0003130B088316BF0083128B131E
:10058000831603178C170C14000000000313BF1F01
:10059000CC2A83128B178316831203170C0D0E0DB2
:1005A0007F390319F72A83160313BC00831203173C
:1005B0000D0883160313BD00831203170F0883165B
:1005C0000313BE003C08C90083124B2283163D086A
:1005D000831203178D00831603133E08831203173B
:1005E0008F008D0A03198F0A0313852A031703133B
:1005F0008A150A12922B2B162B08831687000430BB
:10060000F700F70B012B8312AB152B08831687001D
:100610000330F700F70B0A2B831207122B122B085B
:10062000831687000430F700F70B142B8312871111
:10063000AB112B0883168700D030C50083127521BB
:1006400083164308C500831275212B162B088316C9
:1006500087000430F700F70B2B2B8312AB152B0808
:10066000831687000330F700F70B342B8312871DA6
:10067000372B07122B122B08831687000430F70044
:10068000F70B402B83128711AB112B0883168700C1
:10069000D130C50083127521F70108308316C600DA
:1006A0007708C70083122B162B08831687000330A8
:1006B000F700F70B592B8312AB152B088316870015
:1006C0008312871D612B071A0314071E0310F80DF0
:1006D0000430F700F70B6A2BAB112B088316870049
:1006E000831287118316C60B522B83122B162B08ED
:1006F000831687000330F700F70B7C2B8312071259
:10070000831647080319892B83122B122B08831693
:10071000870000008312AB152B0883168700831215
:10072000871D902B0430F700F70B942B8711AB112A
:100730002B08831687000330F700F70B9D2B8312DD
:1007400007122B122B08831687007808C400831227
:100750002B122B088316870000008312AB152B0881
:10076000831687008312871DB32B0430F700F70B25
:10077000B72BBA2B00002B162B08831687000430EA
:10078000F700F70BC12B4408F800831208008E30E5
:10079000F70083164508F8004408F900FA01C51F60
:1007A000D62BF809F909F90A0319F80AF808031D04
:1007B000E32B7908F800F9010830F702F808031D67
:1007C000E32BF701EC2B0310F81BEA2BF90DF80DC6
:1007D000F703E32BC51FF81383120800831648089C
:1007E0000319B42CD4004C080319B42CD402031CF4
:1007F000FE2B7F30D4070318B42C042C8130D40294
:10080000031CB42C0319B42C5408F700F801F901A7
:10081000FA01D3014908D200D2174A08D1004B0887
:10082000D0001930D4004F08D0020318272C013013
:10083000D1020318272CD2020318272CD302031845
:10084000272CD30AD20AD10A4F08D007592C4E08B8
:10085000D1020318422C0130D2020318422CD302D9
:100860000318422CD30AD20A4E08D1074F08D007EA
:10087000031C592CD10A031D592CD20A031D592CD3
:10088000D30A592C4D088038D2020318582C013055
:10089000D3020318582CD30A4D088038D2074E08CB
:1008A000D107031C362CD20A031D362CD30A362C52
:1008B0007A14D40B5C2C672C0310D00DD10DD20D03
:1008C000D30D0310FA0DF90DF80DD50D132C551C91
:1008D0006F2C0310F80CF90CFA0CD50C722CF703E2
:1008E0000319B42CD51B9B2C0310D00DD10DD20DA8
:1008F000D30D4F08D0020318872C0130D102031802
:10090000872CD2020318872CD302031CAA2C4E0872
:10091000D1020318922C0130D2020318922CD30278
:10092000031CAA2C4D088038D20203189B2C0130DE
:10093000D302031CAA2CFA0A031DAA2CF90A031DD0
:10094000AA2CF80A031DAA2CF70A0319B42CF80CD8
:10095000F90CFA0C4908D4004D08D406D41FB22C67
:10096000F817B82CF813B82CF701F801F901FA01BF
:10097000831208003B308316C3008312FB227808E1
:100980008316C2003C30C3008312FB227808831612
:10099000C3004208BD004308BC003D08C5003C0838
:1009A000C4008312C7237A088316C7007908C600DB
:1009B0007808C5007708C4004708CB004608CA007D
:1009C0004508C9004408C800CF01CE01CD018D30D3
:1009D000CC008312EE237A088316C1007908C00088
:1009E0007808BF007708BE003E08F7003F08F8000F
:1009F0004008F9004108FA0083128A150A12A22B56
:100A00003D308316C3008312FB2278088316C20090
:100A10003E30C3008312FB2278088316C3004208CD
:100A2000BD004308BC003D08C5003C08C40083125B
:100A3000C7237A088316C7007908C6007808C5005E
:100A40007708C4004708CB004608CA004508C9001B
:100A50004408C800CF01CE01CD018D30CC008312F7
:100A6000EE237A088316C1007908C0007808BF0019
:100A70007708BE003E08F7003F08F8004008F9007C
:100A80004108FA0083128A150A12AD2B3F308316F3
:100A9000C3008312FB2278088316C2004030C300D3
:100AA0008312FB2278088316C3004208BD00430866
:100AB000BC003D08C5003C08C4008312C7237A0867
:100AC0008316C7007908C6007808C5007708C400F7
:100AD0004708CB004608CA004508C9004408C800BA
:100AE000CF01CE01CD018D30CC008312EE237A08E8
:100AF0008316C1007908C0007808BF007708BE00DF
:100B00003E08F7003F08F8004008F9004108FA00E5
:100B100083128A150A12B82B43308316C30083123E
:100B2000FB2278088316C2004430C3008312FB22E4
:100B300078088316C3004208BD004308BC003D0886
:100B4000C5003C08C4008312C7237A088316C70077
:100B50007908C6007808C5007708C4004708CB00AC
:100B60004608CA004508C9004408C800CF01CE01A4
:100B70000330CD008630CC008312EE237A08831632
:100B8000C1007908C0007808BF007708BE003E08A1
:100B9000F7003F08F8004008F9004108FA00831206
:100BA0008A150A12C32B45308316C3008312FB2219
:100BB00078088316C2004630C3008312FB227808EF
:100BC0008316C3004208BD004308BC003D08C500B1
:100BD0003C08C4008312C7237A088316C70079082B
:100BE000C6007808C5007708C4004708CB0046084F
:100BF000CA004508C9004408C800CF01CE0103302F
:100C0000CD008630CC008312EE237A088316C10013
:100C10007908C0007808BF007708BE003E08F700DA
:100C20003F08F8004008F9004108FA0083128A15CD
:100C30000A12CE2B47308316C3008312FB2278089A
:100C40008316C2004830C3008312FB227808831643
:100C5000C3004208BD004308BC003D08C5003C0875
:100C6000C4008312C7237A088316C7007908C60018
:100C70007808C5007708C4004708CB004608CA00BA
:100C80004508C9004408C800CF01CE010330CD009B
:100C90008630CC008312EE237A088316C1007908CF
:100CA000C0007808BF007708BE003E08F7003F0884
:100CB000F8004008F9004108FA0083128A150A1268
:100CC000D92B8030831C672E8316CF0683128316A0
:100CD000D401D5014B08D3004F08D3064A080319A5
:100CE000552FD200F7004E0803195E2FD2020319C8
:100CF000FA2E031CB82E4F08D800D8175008D7007A
:100D00005108D600D5010310D80CD70CD60CD50C41
:100D1000D20B822ED31F8F2E5414722F54105210C8
:100D20005416CD3084008313872F5412D31BA22E68
:100D3000521CAD2ED80CD70CD60CD50CF70A0319C3
:100D40006D2FAD2ED81BB02E0310D50DD60DD70D9F
:100D5000D80DF70303196D2FA22E54171A2F541311
:100D60004B08D300D31FB62ED817662FD813662F83
:100D70004E08D200F7004A08D2024B08D800D81714
:100D80004C08D7004D08D600D5010310D80CD70C5D
:100D9000D60CD50CD20BC42ED31FD12ED414722F47
:100DA000D4105210D416D13084008313872FD4125C
:100DB000D31BE42E521CEF2ED80CD70CD60CD50C1E
:100DC000F70A03196D2FEF2ED81BF22E0310D50D45
:100DD000D60DD70DD80DF70303196D2FE42ED417B8
:100DE0001A2FD4134F08D300D31FF82ED817662F0D
:100DF000D813662F4F08D800D8175008D7005108CD
:100E0000D600D31F072FD8135415722F5411D501B4
:100E10005210CD3084008313872FD31B302F4B0803
:100E2000D300521C1A2FD80CD70CD60CD50CF70AAD
:100E300003196D2FD51F2B2FD60A031D2B2FD70A71
:100E4000031D2B2FD80A031D2B2FD80CD70CD60C23
:100E5000F70A03196D2F541BAF2ED41BF12E4F2F01
:100E60008030D806D81F382F722F4F08D300452F57
:100E70004B08D300D808031D452FD708031D452F65
:100E8000D608031D452FF701662FD81B4F2F0310DF
:100E9000D50DD60DD70DD80DF70B452F6D2FD31FC0
:100EA000532FD817662FD813662F4E08F7004F0818
:100EB000D8005008D7005108D600662F4A08F7001E
:100EC0004B08D8004C08D7004D08D6005808F80049
:100ED0005708F9005608FA00A52FF701F801F901A3
:100EE000FA01A52FD501D609D709D809D509D50A00
:100EF000031D802FD60A031D802FD70A0319D80A95
:100F000054188E2ED418D02E5419062F352F0008C1
:100F1000D607031C912FD70A031D912FD80A031956
:100F2000521484030008D707031C992FD80A031909
:100F3000521484030008801F803AD8070318521403
:100F4000541A952ED41AD72E0D2F83120800831809
:100F5000AC2FD13084008313F701F801F901FA01B5
:100F60008316D101D201D301D40150084F044E049D
:100F70004D040319EB2F2030D5000310C90DCA0D05
:100F8000CB0DCC0DD10DD20DD30DD40D5008540284
:100F9000031DD42F4F085302031DD42F4E085202B5
:100FA000031DD42F4D085102031CE52F4D08D1021B
:100FB0004E08031C4E0FD2024F08031C4F0FD302E2
:100FC0005008031C500FD4020314F70DF80DF90D4F
:100FD000FA0DD50BBD2F51088000840A52088000FD
:100FE000840A53088000840A540880008312080091
:1010000041308316C3008A118312FB228A157808A7
:101010008316C2004230C3008A118312FB228A1554
:1010200078088316C3004208BD004308BC003D0891
:10103000C5003C08C4008A118312C7238A157A08A8
:101040008316CB007908CA007808C9007708C80061
:10105000CF01CE012A30CD008730CC008A11831217
:10106000EE238A157A088316C7007908C600780827
:10107000C5007708C400C9010408C8004910831BD3
:10108000491483104708CD004608CC004508CB0022
:101090004408CA00B830D1001E30D0001230CF0052
:1010A0008430CE008A11831261268A15831648087F
:1010B00084008313491883177A08C1007908C00097
:1010C0007808BF007708BE003E08F7003F08F80028
:1010D0004008F9004108FA0083128A150A12E32B2E
:1010E000831649080319E128D1004D080319E128A6
:1010F000D107031882287F30D102031CE12803198D
:10110000E12886288130D1070318E1285108F7002B
:10111000F801F901FA014A08D500D5174B08D400A7
:101120004C08D3001830D100D201531CAF2850080E
:10113000FA07031CA128F90A031DA128F80A0319BC
:10114000D2174F08F907031CA828F80A0319D21769
:101150004E08CB00CB174B08F8070318D217D20D57
:10116000F80CF90CFA0CD50CD40CD30C0310D10BE1
:1011700094280130F7070318E128F81BC628D50D7D
:10118000FA0DF90DF80DF7030319E128D51FD7283B
:10119000FA0A031DD728F90A031DD728F80A031DE8
:1011A000D728F80CF90CFA0CF70A0319E1284A08B9
:1011B000D2004E08D206D21FDF28F817E528F81310
:1011C000E528F701F801F901FA0183120800040883
:1011D0008316C1004008C300031909293F08CC0049
:1011E0003E08CB003D08CA003C08C900D001CF0131
:1011F0002030CE008230CD00831270207A08831612
:10120000BF007908BE007808BD007708BC00C30B9A
:10121000EE283F08CC003E08CB003D08CA003C0841
:10122000C9004908B63CC900FA014A08CD00CA17EE
:101230000310CA0CCB0CCC0CFA0CF90CF80CF70C04
:10124000C90B1829CD1F2F29F709F809F909FA093F
:10125000F70A0319F80A0319F90A0319FA0A7A08AE
:10126000BF007908BE007808BD007708BC00BF1F2A
:101270004629C103C116BC09BD09BE09BF09BC0A84
:101280000319BD0A0319BE0A0319BF0A3B30C8007F
:101290009A30C700CA30C600C5010A30C3004008F2
:1012A0000319C10A8314BC30840083133F08CC00A7
:1012B0003E08CB003D08CA003C08C9004808D000E1
:1012C0004708CF004608CE004508CD008A1183129A
:1012D000A7278A157808F708031D85298316400A71
:1012E0004302031D752983128529410803198829A2
:1012F0000F39430203197E290318C829C11BC829C5
:10130000411B88292030C029831220308316C10553
:10131000C11E9A29C1124008031DC1037708C100EC
:101320002D30C9008A1183124B228A158316410879
:10133000F700C10140084302031DAC297708C10032
:101340002E30C9008A1183124B228A158316410858
:10135000F7002030C10500303030C11EC029C11255
:101360004008031DC1037708C1002D30C9008A1150
:1013700083124B228A1583164108F700C1013030D1
:10138000F7077708C9008A1183124B228A15831642
:1013900083104808CC004708CB004608CA0045081F
:1013A000C900D001CF01CE010A30CD008A118312CD
:1013B000A7278A157A088316C8007908C700780815
:1013C000C6007708C500C30B5229831208000B081A
:1013D0008316BD0083128B13831603178C170C140E
:1013E000000000000313BD1FF82983128B1783161A
:1013F0000318332A831203170C087F39831603134B
:10140000BD00831203170D0883160313BE00831259
:1014100003170F0883160313BF003D08C9008A1184
:1014200083124B228A1583163E08831203178D0000
:10143000831603133F08831203178F0003130B084F
:101440008316C00083128B13831603178C170C149A
:10145000000000000313C01F302A83128B1783166D
:10146000BC0B332A632A831203170C0D0E0D7F3930
:1014700083160313BD00831203170D08831603138D
:10148000BE00831203170F0883160313BF003D0825
:10149000C9008A1183124B228A1583163E088312D3
:1014A00003178D00831603133F08831203178F0061
:1014B0008D0A03198F0A031083160313BC0B612ACC
:1014C000632A8312E729831208008E30F7008316FF
:1014D0003C08F7023D08F9003E08F800F917F70844
:1014E00003197D2A0310F908031D792AF808031946
:1014F0007D2AF90CF80CF70B722ABD1F842AF80913
:10150000F909F80A0319F90A8312080083163F083B
:101510003D02C7003E08C8004008031C400FC80237
:1015200043084502F7004608FA004408031C440F2C
:10153000FA027708C9007A08CA004808CC004708B0
:10154000CB004A08CE004908CD001030CF00F7018B
:10155000FA01CC0CCB0C031CB32A4D08F707031877
:10156000FA0A4E08FA07FA0CF70CF90CF80CCF0B34
:10157000A92A7908C8007808C7003F084102F70087
:101580004208FA004008031C400FFA027708C9001D
:101590007A08CA004808CC004708CB004A08CE00A9
:1015A0004908CD00F801F901F701FA014E08031DC1
:1015B000DC2A4D080319F62A1030CF000310CB0D9A
:1015C000CC0DF70DFA0D4E087A02031DE92A4D08DD
:1015D0007702031CF22A4D08F702031CFA034E0897
:1015E000FA020314F80DF90DCF0BDE2A7908C800B2
:1015F0007808C70043084707F8004808FA0044087D
:101600000318440FFA077A08F900831208008316BA
:10161000BE013C08BD00C001BF01C201B430C10021
:10162000C4010B30C300C6013030C50083128622CE
:101630007808AE008A150A12CA2E8316BE013C082D
:10164000BD00C001BF01C201B430C100C4010B30F4
:10165000C300C6013030C500831286227808AF006F
:101660008A150A12D62E03081F398300FF30AB00FB
:10167000AD01AC01D901D801D7017F30D600CD3002
:10168000DD00CC30DC004C30DB007B30DA00CD30CC
:10169000E100CC30E0004C30DF007A30DE00E501C4
:1016A000E401E3017F30E200CD30E900CC30E80016
:1016B0004C30E7007B30E600CD30ED00CC30EC0064
:1016C0004C30EB007A30EA00FE01FD01FC01FB0129
:1016D0008316A301A201A101A001A701A601A501F2
:1016E000A401AB01AA01A901A8011F149F141F1591
:1016F0009F1107309C00831300308800FC30850068
:101700008A1183121B298A158A1167298A158A1161
:101710001D2A8A15843003178D0000308F008A112E
:101720000313852A8A1504308316BC00FA30CA00D8
:101730008A1183129C208A158316BC0B962B8A1162
:101740008312BA2C8A157A08BB007908BA00780887
:10175000B9007708B8008A11002D8A157A08BF00F1
:101760007908BE007808BD007708BC008A11462DB4
:101770008A157A08C3007908C2007808C100770882
:10178000C0008A118C2D8A157A08C7007908C60016
:101790007808C5007708C4008A11D32D8A157A0805
:1017A000CB007908CA007808C9007708C8008A11F8
:1017B0001A2E8A157A08CF007908CE007808CD0055
:1017C0007708CC0000287A08D3007908D20078087E
:1017D000D1007708D00001308316CA00CB008A11EF
:1017E000831237228A1541308316C9008A11831269
:1017F0004B228A1578308316C9008A1183124B2236
:101800008A153A308316C9008A1183124B228A1531
:10181000C93084003B088316BF0083123A08831640
:10182000BE00831239088316BD0083123808831660
:10183000BC000230C0008312E7208E3003178D00F9
:1018400000308F000310043083160313BC00831292
:10185000E721C93084003F088316BF0083123E0889
:101860008316BE0083123D088316BD0083123C0818
:101870008316BC000230C0008312E72001308316BB
:10188000CA000230CB008A11831237228A154730F2
:101890008316C9008A1183124B228A157830831669
:1018A000C9008A1183124B228A153A308316C90067
:1018B0008A1183124B228A15C93084004708831687
:1018C000BF00831246088316BE00831245088316A4
:1018D000BD00831244088316BC000230C00083128E
:1018E000E720973003178D0000308F00031004307D
:1018F00083160313BC008312E721C93084004B0810
:101900008316BF0083124A088316BE00831249085B
:101910008316BD00831248088316BC000230C00045
:101920008312E720C8308316CA008A1183129C20D4
:101930008A1583148316CD01CC01CB01CA01831211
:1019400047088316D100831246088316D0008312FD
:1019500045088316CF00831244088316CE008A11EF
:10196000831261268A157A08F1007908F000780858
:10197000EF007708EE0083148316CD01CC01CB0174
:10198000CA0183124B088316D10083124A088316BA
:10199000D000831249088316CF00831248088316AB
:1019A000CE008A11831261268A157A08F50079081B
:1019B000F4007808F3007708F200831083162708F4
:1019C000CD002608CC002508CB002408CA007108E9
:1019D000D1007008D00083126F088316CF008312E5
:1019E0006E088316CE008A11831261268A157A0842
:1019F0008316A7007908A6007808A5007708A40038
:101A000083102B08CD002A08CC002908CB00280819
:101A1000CA007508D1007408D0007308CF0072089E
:101A2000CE008A11831261268A157A088316AB00CC
:101A30007908AA007808A9007708A800831471081B
:101A4000CD007008CC0083126F088316CB00831280
:101A50006E088316CA007E08D1007D08D0007C087D
:101A6000CF007B08CE008A11831261268A157A087E
:101A70008316B7007908B6007808B5007708B40077
:101A800083147508CD007408CC007308CB0072086D
:101A9000CA002308D1002208D0002108CF00200866
:101AA000CE008A11831261268A157A088316BB003C
:101AB0007908BA007808B9007708B8008312590885
:101AC0008316CC00831258088316CB008312570864
:101AD0008316CA00831256088316C9007108D00005
:101AE0007008CF0083126F088316CE0083126E0831
:101AF0008316CD00831270207A088316BF00790800
:101B0000BE007808BD007708BC0083125D0883160C
:101B1000CC0083125C088316CB0083125B0883160B
:101B2000CA0083125A088316C9002708D000260865
:101B3000CF002508CE002408CD008312702083102A
:101B400083163F08CD003E08CC003D08CB003C0882
:101B5000CA007A08D1007908D0007808CF00770849
:101B6000CE008A11831261268A157A088316BF0077
:101B70007908BE007808BD007708BC0083126108B0
:101B80008316CC00831260088316CB0083125F0893
:101B90008316CA0083125E088316C9003708D00076
:101BA0003608CF003508CE003408CD0083127020EF
:101BB000831083163F08CD003E08CC003D08CB00C3
:101BC0003C08CA007A08D1007908D0007808CF0014
:101BD0007708CE008A11831261268A157A08831647
:101BE000AF007908AE007808AD007708AC0083122A
:101BF00065088316CC00831264088316CB00831219
:101C000063088316CA00831262088316C900750828
:101C1000D0007408CF007308CE007208CD00831284
:101C200070207A088316BF007908BE007808BD00CE
:101C30007708BC00831269088316CC0083126808F9
:101C40008316CB00831267088316CA0083126608C6
:101C50008316C9002B08D0002A08CF002908CE001F
:101C60002808CD0083127020831083163F08CD0012
:101C70003E08CC003D08CB003C08CA007A08D100E1
:101C80007908D0007808CF007708CE008A11831237
:101C900061268A157A088316BF007908BE00780885
:101CA000BD007708BC0083126D088316CC00831238
:101CB0006C088316CB0083126B088316CA0083124C
:101CC0006A088316C9003B08D0003A08CF003908DB
:101CD000CE003808CD0083127020831083163F0891
:101CE000CD003E08CC003D08CB003C08CA007A0875
:101CF000D1007908D0007808CF007708CE008A118B
:101D0000831261268A157A088316B3007908B20017
:101D10007808B1007708B0007108FE007008FD0077
:101D200083126F08FC006E08FB0075088316A30081
:101D30007408A2007308A1007208A0002F08BF0059
:101D40002E08BE002D08BD002C08BC0083126522A1
:101D50005A307807D40083163308BF003208BE001B
:101D60003108BD003008BC008312652278085A3C57
:101D7000D5005408B43C0318BF2EB430D400550825
:101D8000B43C0318C52EB430D5005A308316BC00BD
:101D90008312072BC8308316CA008A1183129C2035
:101DA0008A155A308316BC0083121D2BC830831647
:101DB000CA008A1183129C208A1583169F2B630008
:02400E003A3F37
:00000001FF
;PIC16F877A
;CRC=7C0B  CREATED="11-nov.-24 20:52"
