:100000000A308A004B2A0000FF00030E8301A10082
:100010000A08A0008A010408A2007708A300780853
:10002000A4007908A5007A08A60003170D08031399
:10003000A70003170F080313A80003170C080313E6
:10004000A90003170E080313AA00831383128C3030
:100050008400001D2D280C1958288D308400001CA8
:1000600033280D185B288B1E37280B195E282208B1
:1000700084002308F7002408F8002508F900260862
:10008000FA00270803178D000313280803178F00B1
:100090000313290803178C0003132A0803178E0083
:1000A000031320088A00210E8300FF0E7F0E090033
:1000B0008A110A1261288A110A129C288A110A12CE
:1000C000D728B0189828301D7F288316081383126C
:1000D00008132E08803CF700B430FA002F08031CE8
:1000E0002F0FFA0277081507F80016080318160FE5
:1000F000FA07780895007A08960030119828831638
:10010000081383120817A6302E07F8002F08FA00EC
:100110000E3003180F30FA0778081507F800160894
:100120000318160FFA07780895007A08960030151C
:100130000C118A110A1237283018D328B01DBA289A
:1001400083168813831288132C08803CF700B43080
:10015000FA002D08031C2D0FFA0277081B07F80080
:100160001C0803181C0FFA0778089B007A089C00EB
:10017000B011D3288316881383128817A6302C0752
:10018000F8002D08FA000E3003180F30FA0778082F
:100190001B07F8001C0803181C0FFA0778089B00BF
:1001A0007A089C00B0150D108A110A123728013008
:1001B000B1070318B20A3208003C0318E828FF3AD6
:1001C000031DE6283108813C0318E828B201B1017B
:1001D000B208031DF628330831020318F628AB10C5
:1001E0002B088316870083128714FC28AB102B087A
:1001F0008316870083128710B208031D0A2934086A
:10020000310203180A292B112B0883168700831249
:10021000071510292B112B0883168700831207114D
:100220000B118A110A123728413CBA1230173233A7
:10023000A020791D25182E196600473CBA123017E8
:100240003233A023791D25182E19660067308400EB
:1002500083130008031939290630F800F701F70B5A
:100260002F29F80B2E297B30F700F70B3529800B4F
:100270002C2908006E0EF039F7000F3008057704BE
:100280008800000008140230F700F70B45294829C0
:100290000000081008000808F700080E0F39F800E1
:1002A00008008316081088100811831288100F3078
:1002B00083160805F038880083120815000008141A
:1002C00000004B217808EE0008100000081468298F
:1002D000692900004B217808ED0008100F308316C3
:1002E0000805880083126E0EF700F030F7057708D6
:1002F0006D04F8007808ED00ED1B57296B1C881081
:100300006B18881400000811000008106C0EED0036
:100310000F30ED056D08EE003A216C080F39ED0045
:10032000EE003A2108002830DA000C30DB00013002
:10033000DC000630DD000810881008110F3083162D
:10034000080588000810881008110F308312E70094
:1003500026210130D9005908033C031CB72903307A
:10036000EE003A210530E7002621D90AAB290230F8
:10037000EE003A210530E7002621D9015908033C57
:10038000031CCE295A305907840083130008DE006D
:10039000EB015E08EC005121D90ABE298A150A1228
:1003A000612A83160108C7390838810083128B1629
:1003B000C0308B04E63081008A150A12642A0830A6
:1003C000F8000430F700F70BE3298711AB112B0875
:1003D000831687000330F700F70BEC298312E20D38
:1003E0000712031CF9292B162B0883168700FD29F9
:1003F00083122B122B088316870000008312AB1583
:100400002B08831687008312871D042AF80BE12925
:100410000430F700F70B0A2A8711AB112B0883165B
:100420008700000083122B162B08831687000330E9
:10043000F700F70B192A0330F700F70B1D2A831278
:10044000AB152B08831687008312871D252AF80118
:100450000330F700F70B2A2A071A78148711AB111B
:100460002B0883168700831207122B122B08831682
:100470008700831208002B162B0883168700043090
:10048000F700F70B412A8312AB152B088316870060
:100490000330F700F70B4A2A831207122B122B089E
:1004A000831687000430F700F70B542A8312871154
:1004B000AB112B0883168700D0308312E200DF21B6
:1004C0005908E200DF215A08E200DF212B122B0835
:1004D0008316870000008312AB152B088316870054
:1004E0008312871D712A0430F700F70B752A782ACA
:1004F00000002B162B08831687000430F700F70B3B
:100500007F2A831208006B30D900DA013B22643065
:10051000E70026211930D9000730DA003B22643089
:10052000E70026218A150A12672A2B162B08831644
:1005300087000430F700F70B9B2A8312AB152B08BA
:10054000831687000330F700F70BA42A83120712E3
:100550002B122B08831687000430F700F70BAE2A06
:1005600083128711AB112B0883168700D0308312BA
:10057000E200DF216008E200DF212B162B08831642
:1005800087000430F700F70BC32A8312AB152B0842
:10059000831687000330F700F70BCC2A8312871DE0
:1005A000CF2A07122B122B08831687000430F7007E
:1005B000F70BD82A83128711AB112B0883168700FB
:1005C000D1308312E200DF21F7010830E300770821
:1005D000E4002B162B08831687000330F700F70B77
:1005E000EF2A8312AB152B08831687008312871D11
:1005F000F72A071A0314071E0310F80D0430F7003A
:10060000F70B002BAB112B08831687008312871181
:10061000E30BE92A2B162B08831687000330F7001B
:10062000F70B102B83120712640803191C2B2B12D3
:100630002B088316870083120000AB152B08831646
:1006400087008312871D222B0430F700F70B262B1F
:100650008711AB112B08831687000330F700F70BC7
:100660002F2B831207122B122B0883168700780872
:100670008312E1002B122B088316870000008312DF
:10068000AB152B08831687008312871D452B04307A
:10069000F700F70B492B4C2B00002B162B08831669
:1006A00087000430F700F70B532B83126108F80022
:1006B00008008E30F7006208F8006108F900FA01BE
:1006C000E21F672BF809F909F90A0319F80AF80873
:1006D000031D742B7908F800F9010830F702F808B7
:1006E000031D742BF7017D2B0310F81B7B2BF90DD9
:1006F000F80DF703742BE21FF813080065080319BF
:10070000432CF10069080319432CF102031C8D2BC3
:100710007F30F1070318432C932B8130F102031C27
:10072000432C0319432C7108F700F801F901FA0171
:10073000F0016608EF00EF176708EE006808ED00AB
:100740001930F1006C08ED020318B62B0130EE02EF
:100750000318B62BEF020318B62BF0020318B62BC2
:10076000F00AEF0AEE0A6C08ED07E82B6B08EE02C0
:100770000318D12B0130EF020318D12BF00203181C
:10078000D12BF00AEF0A6B08EE076C08ED07031C8B
:10079000E82BEE0A031DE82BEF0A031DE82BF00AF5
:1007A000E82B6A088038EF020318E72B0130F002CB
:1007B0000318E72BF00A6A088038EF076B08EE078A
:1007C000031CC52BEF0A031DC52BF00AC52B7A1499
:1007D000F10BEB2BF62B0310ED0DEE0DEF0DF00DE5
:1007E0000310FA0DF90DF80DF20DA22B721CFE2B61
:1007F0000310F80CF90CFA0CF20C012CF703031996
:10080000432CF21B2A2C0310ED0DEE0DEF0DF00D15
:100810006C08ED020318162C0130EE020318162C9A
:10082000EF020318162CF002031C392C6B08EE02A1
:100830000318212C0130EF020318212CF002031CB5
:10084000392C6A088038EF0203182A2C0130F00294
:10085000031C392CFA0A031D392CF90A031D392C03
:10086000F80A031D392CF70A0319432CF80CF90C6C
:10087000FA0C6608F1006A08F106F11F412CF8171E
:10088000472CF813472CF701F801F901FA01080089
:100890003B30E00095227808DF003C30E0009522F4
:1008A0007808E0005F08DA007808D9005A08E2000A
:1008B0005908E10059237A08E4007908E300780830
:1008C000E2007708E1007A08E8007908E700780894
:1008D000E6007708E500EC01EB01EA018D30E90064
:1008E0007E237A08DE007908DD007808DC007708CE
:1008F000DB005B08F7005C08F8005D08F9005E08A3
:10090000FA008A150A126A2A3D30E000952278081A
:10091000DF003E30E00095227808E0005F08DA0052
:100920007808D9005A08E2005908E10059237A08EA
:10093000E4007908E3007808E2007708E1007A082B
:10094000E8007908E7007808E6007708E500EC01A0
:10095000EB01EA018D30E9007E237A08DE00790898
:10096000DD007808DC007708DB005B08F7005C0836
:10097000F8005D08F9005E08FA008A150A12752A67
:100980003F30E00095227808DF004030E0009522FB
:100990007808E0005F08DA007808D9005A08E20019
:1009A0005908E10059237A08E4007908E30078083F
:1009B000E2007708E1007A08E8007908E7007808A3
:1009C000E6007708E500EC01EB01EA018D30E90073
:1009D0007E237A08DE007908DD007808DC007708DD
:1009E000DB005B08F7005C08F8005D08F9005E08B2
:1009F000FA008A150A12802A4330E000952278080E
:100A0000DF004430E00095227808E0005F08DA005B
:100A10007808D9005A08E2005908E10059237A08F9
:100A2000E4007908E3007808E2007708E1007A083A
:100A3000E8007908E7007808E6007708E500EC01AF
:100A4000EB010330EA008630E9007E237A08DE00FD
:100A50007908DD007808DC007708DB005B08F70028
:100A60005C08F8005D08F9005E08FA008A150A12B1
:100A70008B2A4530E00095227808DF004630E00000
:100A800095227808E0005F08DA007808D9005A0853
:100A9000E2005908E10059237A08E4007908E300EC
:100AA0007808E2007708E1007A08E8007908E700B2
:100AB0007808E6007708E500EC01EB010330EA0076
:100AC0008630E9007E237A08DE007908DD007808A8
:100AD000DC007708DB005B08F7005C08F8005D08C5
:100AE000F9005E08FA008A150A12962A4730E000DB
:100AF00095227808DF004830E00095227808E00071
:100B00005F08DA007808D9005A08E2005908E100C5
:100B100059237A08E4007908E3007808E2007708AE
:100B2000E1007A08E8007908E7007808E60077082D
:100B3000E500EC01EB010330EA008630E9007E239A
:100B40007A08DE007908DD007808DC007708DB0031
:100B50005B08F7005C08F8005D08F9005E08FA0021
:100B60008A150A12A12A4130E00095227808DF0098
:100B70004230E00095227808E0005F08DA00600863
:100B8000D9005A08E2005908E10059237A08E80020
:100B90007908E7007808E6007708E500EC01EB014A
:100BA0002A30EA008730E9007E237A08E4007908D9
:100BB000E3007808E2007708E100E6010408E500B8
:100BC0006610831B661483106408EA006308E9005A
:100BD0006208E8006108E700B830EE001E30ED0062
:100BE0001230EC008430EB0080308318EC06F10109
:100BF000F2016808F0006C08F00667080319E42E9B
:100C0000EF00F7006B080319ED2EEF020319892E90
:100C1000031C472E6C08F500F5176D08F4006E08EC
:100C2000F300F2010310F50CF40CF30CF20CEF0BD3
:100C3000112EF01F1E2E7114012F71106F107116DE
:100C40006A3084008313162F7112F01B312E6F1C33
:100C50003C2EF50CF40CF30CF20CF70A0319FC2EE5
:100C60003C2EF51B3F2E0310F20DF30DF40DF50D88
:100C7000F7030319FC2E312E7117A92E7113680882
:100C8000F000F01F452EF517F52EF513F52E6B0825
:100C9000EF00F7006708EF026808F500F51769082C
:100CA000F4006A08F300F2010310F50CF40CF30CE5
:100CB000F20CEF0B532EF01F602EF114012FF110E8
:100CC0006F10F1166E3084008313162FF112F01B93
:100CD000732E6F1C7E2EF50CF40CF30CF20CF70A3D
:100CE0000319FC2E7E2EF51B812E0310F20DF30D41
:100CF000F40DF50DF7030319FC2E732EF117A92E31
:100D0000F1136C08F000F01F872EF517F52EF51380
:100D1000F52E6C08F500F5176D08F4006E08F30069
:100D2000F01F962EF5137115012F7111F2016F103E
:100D30006A3084008313162FF01BBF2E6808F00062
:100D40006F1CA92EF50CF40CF30CF20CF70A031926
:100D5000FC2EF21FBA2EF30A031DBA2EF40A031D4D
:100D6000BA2EF50A031DBA2EF50CF40CF30CF70A93
:100D70000319FC2E711B3E2EF11B802EDE2E8030BF
:100D8000F506F51FC72E012F6C08F000D42E680859
:100D9000F000F508031DD42EF408031DD42EF3082B
:100DA000031DD42EF701F52EF51BDE2E0310F20DD8
:100DB000F30DF40DF50DF70BD42EFC2EF01FE22EE3
:100DC000F517F52EF513F52E6B08F7006C08F500F6
:100DD0006D08F4006E08F300F52E6708F700680848
:100DE000F5006908F4006A08F3007508F800740853
:100DF000F9007308FA00342FF701F801F901FA013C
:100E0000342FF201F309F409F509F209F20A031D7E
:100E10000F2FF30A031D0F2FF40A0319F50A711897
:100E20001D2EF1185F2E7119952EC42E0008F307A0
:100E3000031C202FF40A031D202FF50A03196F1439
:100E400084030008F407031C282FF50A03196F1404
:100E500084030008801F803AF50703186F14711A85
:100E6000242EF11A662E9C2E6508840083136618C2
:100E700083177A08DE007908DD007808DC0077083F
:100E8000DB005B08F7005C08F8005D08F9005E080D
:100E9000FA008A150A12AC2A680B4F2F522F4030E5
:100EA000E900532FE90101306702E907690880383A
:100EB000EA00EB016A08EC00512108006608073AD5
:100EC00003196C2F0B3A0319712F063A0319792F66
:100ED000023A03197F2F842F0130E700E8004C27E6
:100EE000892FEB010130EC0051210230E70026216F
:100EF000892F0130E7000230E8004C27892FEB01F1
:100F00001030EC005121892F0130EB006608EC0015
:100F10005121080083188F2F6E3084008313F7014E
:100F2000F801F901FA01EE01EF01F001F1016D089C
:100F30006C046B046A040319CD2F2030F2000310F7
:100F4000E60DE70DE80DE90DEE0DEF0DF00DF10DDD
:100F50006D087102031DB62F6C087002031DB62FB9
:100F60006B086F02031DB62F6A086E02031CC72FA1
:100F70006A08EE026B08031C6B0FEF026C08031C7F
:100F80006C0FF0026D08031C6D0FF1020314F70DD6
:100F9000F80DF90DFA0DF20B9F2F6E088000840AF0
:100FA0006F088000840A70088000840A710880003D
:100FB0000800DB015908DA00DD01DC01DF01B43093
:100FC000DE00E1010B30E000E3013030E2008A1581
:0A0FD000BA218A117808B300080066
:101000000408DE005D08E000031992285C08E9008E
:101010005B08E8005A08E7005908E600ED01EC011A
:101020002030EB008230EA00660803198428EE00C5
:101030006A0803198428EE07031825287F30EE027A
:10104000031C84280319842829288130EE070318FB
:1010500084286E08F700F801F901FA016708F20028
:10106000F2176808F1006908F0001830EE00EF018F
:10107000701C52286D08FA07031C4428F90A031D46
:101080004428F80A0319EF176C08F907031C4B28CA
:10109000F80A0319EF176B08E800E8176808F80763
:1010A0000318EF17EF0DF80CF90CFA0CF20CF10C19
:1010B000F00C0310EE0B37280130F70703188428D3
:1010C000F81B6928F20DFA0DF90DF80DF703031955
:1010D0008428F21F7A28FA0A031D7A28F90A031DC8
:1010E0007A28F80A031D7A28F80CF90CFA0CF70A8A
:1010F000031984286708EF006B08EF06EF1F8228AA
:10110000F8178828F8138828F701F801F901FA017F
:101110007A08DC007908DB007808DA007708D90063
:10112000E00B06285C08E9005B08E8005A08E700C5
:101130005908E6006608B63CE600FA016708EA00CE
:10114000E7170310E70CE80CE90CFA0CF90CF80CA3
:10115000F70CE60BA128EA1FB828F709F809F909E6
:10116000FA09F70A0319F80A0319F90A0319FA0A1E
:101170007A08DC007908DB007808DA007708D90003
:10118000DC1FCF28DE03DE16D909DA09DB09DC090A
:10119000D90A0319DA0A0319DB0A0319DC0A3B30FE
:1011A000E5009A30E400CA30E300E2010A30E000D2
:1011B0005D080319DE0A83145930840083135C0828
:1011C000E9005B08E8005A08E7005908E6006508EE
:1011D000ED006408EC006308EB006208EA008A1185
:1011E0008A278A157808F708031D09295D0A600215
:1011F000031909295E0803190B290F396002031925
:10120000032903184329DE1B43295E1B0B292030C9
:101210003D292030DE05DE1E1B29DE125D08031D80
:10122000DE037708DE002D30E6008A115E278A157E
:101230005E08F700DE015D086002031D2B297708B8
:10124000DE002E30E6008A115E278A155E08F70060
:101250002030DE0500303030DE1E3D29DE125D0814
:10126000031DDE037708DE002D30E6008A115E27BD
:101270008A155E08F700DE013030F7077708E600D0
:101280008A115E278A1583106508E9006408E80062
:101290006308E7006208E600ED01EC01EB010A30AB
:1012A000EA008A118A278A157A08E5007908E4009D
:1012B0007808E3007708E200E00BDB2808000B0861
:1012C000DA008B13831603178C170C140000000030
:1012D00083120313DA1B8B170318982903170C08C2
:1012E0007F390313DA0003170D080313DB0003171C
:1012F0000F080313DC005A08E6008A115E278A15DE
:101300005B0803178D0003135C0803178F0003139A
:101310000B08DD008B13831603178C170C140000C9
:10132000000083120313DD1B8B17D90B9829B929F1
:1013300003170C0D0E0D7F390313DA0003170D0888
:101340000313DB0003170F080313DC005A08E60041
:101350008A115E278A155B0803178D0003135C084A
:1013600003178F008D0A03198F0A03100313D90B7B
:101370005F2908005C085A02E4005B08E5005D088C
:10138000031C5D0FE50260086202F7006308FA00C3
:101390006108031C610FFA027708E6007A08E7008B
:1013A0006508E9006408E8006708EB006608EA00E1
:1013B0001030EC00F701FA01E90CE80C031CE629F7
:1013C0006A08F7070318FA0A6B08FA07FA0CF70C11
:1013D000F90CF80CEC0BDC297908E5007808E4003E
:1013E0005C085E02F7005F08FA005D08031C5D0FF1
:1013F000FA027708E6007A08E7006508E900640861
:10140000E8006708EB006608EA00F801F901F70157
:10141000FA016B08031D0F2A6A080319292A1030E4
:10142000EC000310E80DE90DF70DFA0D6B087A02D8
:10143000031D1C2A6A087702031C252A6A08F70282
:10144000031CFA036B08FA020314F80DF90DEC0BF8
:10145000112A7908E5007808E40060087807F800A8
:101460007908FA0061080318610FFA077A08F90091
:101470000800DB015908DA00DD01DC01DF01B430CE
:10148000DE00E1010B30E000E3013030E200BA2180
:101490007808B400080003081F398300FF30AB0050
:1014A0003014B0143011B011B201B10183161F1401
:1014B0009F141F159F1107309C0083138A118312FC
:1014C00093298A158A11D1298A158A11832A8A15A6
:1014D0008A11482C8A157A08C0007908BF0078085C
:1014E000BE007708BD008A11842C8A157A08C400D2
:1014F0007908C3007808C2007708C1008A11C02C9F
:101500008A157A08C8007908C7007808C6007708E5
:10151000C5008A11FC2C8A157A08CC007908CB000A
:101520007808CA007708C9008A11392D8A157A0807
:10153000D0007908CF007808CE007708CD008A1156
:10154000762D8A157A08D4007908D3007808D2005D
:101550007708D1008A11B32D8A157A08D800790846
:10156000D7007808D6007708D5000130E700E800FA
:101570008A114C278A154130E6008A115E278A15A8
:101580007830E6008A115E278A153A30E6008A1123
:101590005E278A15C93084004008DC003F08DB0064
:1015A0003E08DA003D08D9000230DD000020183086
:1015B00003178D0001308F00031004300313D9008E
:1015C0005F21C93084004408DC004308DB00420886
:1015D000DA004108D9000230DD0000200130E700C8
:1015E0000230E8008A114C278A154730E6008A113C
:1015F0005E278A157830E6008A115E278A153A3010
:10160000E6008A115E278A15C93084004C08DC0088
:101610004B08DB004A08DA004908D9000230DD0037
:101620000020213003178D0001308F00031004309B
:101630000313D9005F21C93084005008DC004F0833
:10164000DB004E08DA004D08D9000230DD00002032
:10165000C830E7008A1126218A15D9018A11D927B5
:101660008A150430D900FA30E7008A1126218A153C
:10167000D90B332B5A30D9008A11D9278A15043057
:10168000D900FA30E7008A1126218A15D90B412B9F
:10169000B430D9008A11D9278A150430D900FA301C
:1016A000E7008A1126218A15D90B4F2BD90139223F
:1016B0000430D900FA30E7008A1126218A15D90BA7
:1016C0005A2B5A30D90039220430D900FA30E700B9
:1016D0008A1126218A15D90B662BB430D9003922FC
:1016E0000430D900FA30E7008A1126218A15D90B77
:0616F000722B682A630062
:02400E003A3F37
:00000001FF
;PIC16F877A
;CRC=1E05  CREATED="05-oct.-24 22:12"
