:1000000009308A00DE290000FF00030E8301A100F1
:100010000A08A0008A010408A2007708A300780853
:10002000A4007908A5007A08A60003170D08031399
:10003000A70003170F080313A80003170C080313E6
:10004000A90003170E080313AA00831383128B1E43
:100050002B280B194C28220884002308F7002408B9
:10006000F8002508F9002608FA00270803178D0074
:100070000313280803178F000313290803178C00A4
:1000800003132A0803178E00031320088A00210E89
:100090008300FF0E7F0E09008A110A124F280130DB
:1000A000AC070318AD0A2D08003C03186028FF3A7E
:1000B000031D5E282C08813C03186028AD01AC01AB
:1000C000AD08031D6C282E082C0203186C2883161B
:1000D000051083120514702883160510831205106D
:1000E000AD08031D7C282F082C0203187C288316DA
:1000F000851083128514802883168510831285103D
:100100000B118A110A122B28413CBA1230173233D4
:10011000A020791D25182E196600473CBA12301709
:100120003233A023791D25182E1966006230840011
:10013000831300080319A9280630F800F701F70B0C
:100140009F28F80B9E287B30F700F70BA528800B23
:100150009C280800690EF039F7000F300805770475
:100160008800000008140230F700F70BB528B82803
:100170000000081008000808F700080E0F39F80002
:1001800008008316081088100811831288100F3099
:1001900083160805F038880083120815000008143B
:1001A0000000BB207808E900081000000814D828D7
:1001B000D9280000BB207808E80008100F3083160B
:1001C000080588008312690EF700F030F7057708FC
:1001D0006804F8007808E800E81BC728661C881047
:1001E000661888140000081100000810670EE80067
:1001F0000F30E8056808E900AA2067080F39E80011
:10020000E900AA2008002830D5000C30D6000130C3
:10021000D7000630D8000810881008110F30831658
:10022000080588000810881008110F308312E200BA
:1002300096200130D4005408033C031C27290330C6
:10024000E900AA200530E2009620D40A1B290230DA
:10025000E900AA200530E2009620D4015408033CAE
:10026000031C3E2955305407840083130008D9002D
:10027000E6015908E700C120D40A2E298A150A127E
:10028000F42983160108C7390838810083128B16B8
:10029000C0308B04E63081008A150A12F729083035
:1002A000F8000430F700F70B53298711AB112B0826
:1002B000831687000330F700F70B5C298312DD0DEE
:1002C0000712031C69292B162B08831687006D293A
:1002D00083122B122B088316870000008312AB15A4
:1002E0002B08831687008312871D7429F80B512968
:1002F0000430F700F70B7A298711AB112B0883160E
:100300008700000083122B162B088316870003300A
:10031000F700F70B89290330F700F70B8D298312BB
:10032000AB152B08831687008312871D9529F801CA
:100330000330F700F70B9A29071A78148711AB11CD
:100340002B0883168700831207122B122B088316A3
:100350008700831208002B162B08831687000430B1
:10036000F700F70BB1298312AB152B088316870012
:100370000330F700F70BBA29831207122B122B0850
:10038000831687000430F700F70BC4298312871106
:10039000AB112B0883168700D0308312DD004F216C
:1003A0005408DD004F215508DD004F212B122B088A
:1003B0008316870000008312AB152B088316870075
:1003C0008312871DE1290430F700F70BE529E8299E
:1003D00000002B162B08831687000430F700F70B5C
:1003E000EF29831208006B30D400D501AB216430B3
:1003F000E20096201930D4000730D500AB216430DC
:10040000E20096208A150A12FA292B162B08831669
:1004100087000430F700F70B0B2A8312AB152B086B
:10042000831687000330F700F70B142A8312071294
:100430002B122B08831687000430F700F70B1E2AB7
:1004400083128711AB112B0883168700D0308312DB
:10045000DD004F215B08DD004F212B162B08831692
:1004600087000430F700F70B332A8312AB152B08F3
:10047000831687000330F700F70B3C2A8312871D91
:100480003F2A07122B122B08831687000430F7002F
:10049000F70B482A83128711AB112B0883168700AC
:1004A000D1308312DD004F21F7010830DE007708DC
:1004B000DF002B162B08831687000330F700F70B9D
:1004C0005F2A8312AB152B08831687008312871DC2
:1004D000672A071A0314071E0310F80D0430F700EB
:1004E000F70B702AAB112B08831687008312871134
:1004F000DE0B592A2B162B08831687000330F700D2
:10050000F70B802A831207125F0803198C2A2B121B
:100510002B088316870083120000AB152B08831667
:1005200087008312871D922A0430F700F70B962A62
:100530008711AB112B08831687000330F700F70BE8
:100540009F2A831207122B122B0883168700780824
:100550008312DC002B122B08831687000000831205
:10056000AB152B08831687008312871DB52A04302C
:10057000F700F70BB92ABC2A00002B162B088316AC
:1005800087000430F700F70BC32A83125C08F800D9
:1005900008008E30F7005D08F8005C08F900FA01E9
:1005A000DD1FD72AF809F909F90A0319F80AF8082A
:1005B000031DE42A7908F800F9010830F702F80869
:1005C000031DE42AF701ED2A0310F81BEB2AF90DAD
:1005D000F80DF703E42ADD1FF8130800600803197B
:1005E000B32BEC0064080319B32BEC02031CFD2AA7
:1005F0007F30EC070318B32B032B8130EC02031C74
:10060000B32B0319B32B6C08F700F801F901FA01B9
:10061000EB016108EA00EA176208E9006308E800F4
:100620001930EC006708E8020318262B0130E902B4
:100630000318262BEA020318262BEB020318262B9D
:10064000EB0AEA0AE90A6708E807582B6608E90294
:100650000318412B0130EA020318412BEB02031867
:10066000412BEB0AEA0A6608E9076708E807031C5A
:10067000582BE90A031D582BEA0A031D582BEB0AD5
:10068000582B65088038EA020318572B0130EB021B
:100690000318572BEB0A65088038EA076608E90754
:1006A000031C352BEA0A031D352BEB0A352B7A1474
:1006B000EC0B5B2B662B0310E80DE90DEA0DEB0D3F
:1006C0000310FA0DF90DF80DED0D122B6D1C6E2BAC
:1006D0000310F80CF90CFA0CED0C712BF70303194D
:1006E000B32BED1B9A2B0310E80DE90DEA0DEB0D72
:1006F0006708E8020318862B0130E9020318862BED
:10070000EA020318862BEB02031CA92B6608E902F8
:100710000318912B0130EA020318912BEB02031C02
:10072000A92B65088038EA0203189A2B0130EB02E6
:10073000031CA92BFA0A031DA92BF90A031DA92BD7
:10074000F80A031DA92BF70A0319B32BF80CF90CAF
:10075000FA0C6108EC006508EC06EC1FB12BF817E9
:10076000B72BF813B72BF701F801F901FA010800CC
:100770003B30DB0005227808DA003C30DB00052244
:100780007808DB005A08D5007808D4005508DD0049
:100790005408DC00C9227A08DF007908DE007808F6
:1007A000DD007708DC007A08E3007908E2007808C9
:1007B000E1007708E000E701E601E5018D30E400A3
:1007C000EE227A08D9007908D8007808D70077088F
:1007D000D6005608F7005708F8005808F9005908DD
:1007E000FA008A150A12FD293D30DB00052278083F
:1007F000DA003E30DB0005227808DB005A08D5001D
:100800007808D4005508DD005408DC00C9227A08B5
:10081000DF007908DE007808DD007708DC007A0860
:10082000E3007908E2007808E1007708E000E701DA
:10083000E601E5018D30E400EE227A08D90079085E
:10084000D8007808D7007708D6005608F700570870
:10085000F8005808F9005908FA008A150A12082AFF
:100860003F30DB0005227808DA004030DB0005224B
:100870007808DB005A08D5007808D4005508DD0058
:100880005408DC00C9227A08DF007908DE00780805
:10089000DD007708DC007A08E3007908E2007808D8
:1008A000E1007708E000E701E601E5018D30E400B2
:1008B000EE227A08D9007908D8007808D70077089E
:1008C000D6005608F7005708F8005808F9005908EC
:1008D000FA008A150A12132A4330DB000522780831
:1008E000DA004430DB0005227808DB005A08D50026
:1008F0007808D4005508DD005408DC00C9227A08C5
:10090000DF007908DE007808DD007708DC007A086F
:10091000E3007908E2007808E1007708E000E701E9
:10092000E6010330E5008630E400EE227A08D900C3
:100930007908D8007808D7007708D6005608F7005D
:100940005708F8005808F9005908FA008A150A12E1
:100950001E2A4530DB0005227808DA004630DB002D
:1009600005227808DB005A08D5007808D40055081D
:10097000DD005408DC00C9227A08DF007908DE00B7
:100980007808DD007708DC007A08E3007908E200E7
:100990007808E1007708E000E701E6010330E500B0
:1009A0008630E400EE227A08D9007908D800780869
:1009B000D7007708D6005608F7005708F8005808FF
:1009C000F9005908FA008A150A12292A4730DB0073
:1009D00005227808DA004830DB0005227808DB00C1
:1009E0005A08D5007808D4005508DD005408DC000A
:1009F000C9227A08DF007908DE007808DD00770870
:100A0000DC007A08E3007908E2007808E100770862
:100A1000E000E701E6010330E5008630E400EE2265
:100A20007A08D9007908D8007808D7007708D60066
:100A30005608F7005708F8005808F9005908FA0056
:100A40008A150A12342A4130DB0005227808DA00C0
:100A50004230DB0005227808DB005A08D5005B082D
:100A6000D4005508DD005408DC00C9227A08E300F0
:100A70007908E2007808E1007708E000E701E60184
:100A80002A30E5008730E400EE227A08DF0079089A
:100A9000DE007808DD007708DC00E1010408E000F2
:100AA0006110831B611483105F08E5005E08E40099
:100AB0005D08E3005C08E200B830E9001E30E800A1
:100AC0001230E7008430E60080308318E706EC013E
:100AD000ED016308EB006708EB0662080319542E6A
:100AE000EA00F700660803195D2EEA020319F92DE2
:100AF000031CB72D6708F000F0176808EF006908BD
:100B0000EE00ED010310F00CEF0CEE0CED0CEA0B17
:100B1000812DEB1F8E2D6C14712E6C106A106C16CB
:100B2000653084008313862E6C12EB1BA12D6A1C8A
:100B3000AC2DF00CEF0CEE0CED0CF70A03196C2E3B
:100B4000AC2DF01BAF2D0310ED0DEE0DEF0DF00DE4
:100B5000F70303196C2EA12D6C17192E6C13630863
:100B6000EB00EB1FB52DF017652EF013652E660810
:100B7000EA00F7006208EA026308F000F017640870
:100B8000EF006508EE00ED010310F00CEF0CEE0C29
:100B9000ED0CEA0BC32DEB1FD02DEC14712EEC10D5
:100BA0006A10EC16693084008313862EEC12EB1B5E
:100BB000E32D6A1CEE2DF00CEF0CEE0CED0CF70A99
:100BC00003196C2EEE2DF01BF12D0310ED0DEE0D23
:100BD000EF0DF00DF70303196C2EE32DEC17192E12
:100BE000EC136708EB00EB1FF72DF017652EF013E1
:100BF000652E6708F000F0176808EF006908EE003E
:100C0000EB1F062EF0136C15712E6C11ED016A109E
:100C1000653084008313862EEB1B2F2E6308EB00B8
:100C20006A1C192EF00CEF0CEE0CED0CF70A0319F0
:100C30006C2EED1F2A2EEE0A031D2A2EEF0A031D2D
:100C40002A2EF00A031D2A2EF00CEF0CEE0CF70AE8
:100C500003196C2E6C1BAE2DEC1BF02D4E2E80302C
:100C6000F006F01F372E712E6708EB00442E630844
:100C7000EB00F008031D442EEF08031D442EEE0880
:100C8000031D442EF701652EF01B4E2E0310ED0DB3
:100C9000EE0DEF0DF00DF70B442E6C2EEB1F522EC8
:100CA000F017652EF013652E6608F7006708F00050
:100CB0006808EF006908EE00652E6208F700630817
:100CC000F0006408EF006508EE007008F8006F0897
:100CD000F9006E08FA00A42EF701F801F901FA01F3
:100CE000A42EED01EE09EF09F009ED09ED0A031D4F
:100CF0007F2EEE0A031D7F2EEF0A0319F00A6C18EF
:100D00008D2DEC18CF2D6C19052E342E0008EE0712
:100D1000031C902EEF0A031D902EF00A03196A148B
:100D200084030008EF07031C982EF00A03196A14C5
:100D300084030008801F803AF00703186A146C1AB5
:100D4000942DEC1AD62D0C2E6008840083136118A4
:100D500083177A08D9007908D8007808D70077086F
:100D6000D6005608F7005708F8005808F900590847
:100D7000FA008A150A123F2A630BBF2EC22E40309A
:100D8000E400C32EE40101306202E4076408803805
:100D9000E500E6016508E700C12008006108073AA0
:100DA0000319DC2E0B3A0319E12E063A0319E92E3A
:100DB000023A0319EF2EF42E0130E200E300BC26C4
:100DC000F92EE6010130E700C1200230E200962052
:100DD000F92E0130E2000230E300BC26F92EE601D4
:100DE0001030E700C120F92E0130E6006108E7006D
:100DF000C12008008318FF2E693084008313F70197
:100E0000F801F901FA01E901EA01EB01EC016808D6
:100E100067046604650403193D2F2030ED000310BC
:100E2000E10DE20DE30DE40DE90DEA0DEB0DEC0D26
:100E300068086C02031D262F67086B02031D262F0E
:100E400066086A02031D262F65086902031C372FF6
:100E50006508E9026608031C660FEA026708031CBE
:100E6000670FEB026808031C680FEC020314F70D10
:100E7000F80DF90DFA0DED0B0F2F69088000840AAB
:100E80006A088000840A6B088000840A6C0880006D
:100E900008000B08D5008B13831603178C170C144E
:100EA0000000000083120313D51B8B170318802F3B
:100EB00003170C087F390313D50003170D0803131C
:100EC000D60003170F080313D7005508E100CE26FC
:100ED000560803178D000313570803178F000313D9
:100EE0000B08D8008B13831603178C170C14000003
:100EF000000083120313D81B8B17D40B802F9F2F56
:100F000003170C0D0E0D7F390313D50003170D08C1
:100F10000313D60003170F080313D7005508E10089
:100F2000CE26560803178D000313570803178F00AA
:100F30008D0A03198F0A03100313D40B492F0800DD
:100F4000D6015408D500D801D701DA01B430D90050
:100F5000DC010B30DB00DE013030DD008A155F2163
:100F60008A117808AE000800D6015408D500D801CF
:100F7000D701DA01B430D900DC010B30DB00DE012F
:100F80003030DD008A155F218A117808AF00080033
:101000000408D9005808DB00031992285708E400A7
:101010005608E3005508E2005408E100E801E70142
:101020002030E6008230E500610803198428E900D9
:10103000650803198428E907031825287F30E90289
:10104000031C84280319842829288130E907031800
:1010500084286908F700F801F901FA016208ED0037
:10106000ED176308EC006408EB001830E900EA01B2
:101070006B1C52286808FA07031C4428F90A031D50
:101080004428F80A0319EA176708F907031C4B28D4
:10109000F80A0319EA176608E300E3176308F8077C
:1010A0000318EA17EA0DF80CF90CFA0CED0CEC0C2D
:1010B000EB0C0310E90B37280130F70703188428DD
:1010C000F81B6928ED0DFA0DF90DF80DF70303195A
:1010D0008428ED1F7A28FA0A031D7A28F90A031DCD
:1010E0007A28F80A031D7A28F80CF90CFA0CF70A8A
:1010F000031984286208EA006608EA06EA1F8228C3
:10110000F8178828F8138828F701F801F901FA017F
:101110007A08D7007908D6007808D5007708D40077
:10112000DB0B06285708E4005608E3005508E200E8
:101130005408E1006108B63CE100FA016208E500EC
:10114000E2170310E20CE30CE40CFA0CF90CF80CB7
:10115000F70CE10BA128E51FB828F709F809F909F0
:10116000FA09F70A0319F80A0319F90A0319FA0A1E
:101170007A08D7007908D6007808D5007708D40017
:10118000D71FCF28D903D916D409D509D609D7092D
:10119000D40A0319D50A0319D60A0319D70A3B3012
:1011A000E0009A30DF00CA30DE00DD010A30DB00EB
:1011B00058080319D90A831454308400831357083C
:1011C000E4005608E3005508E2005408E100600816
:1011D000E8005F08E7005E08E6005D08E5008A11A8
:1011E000FA268A157808F708031D0929580A5B02B0
:1011F00003190929590803190B290F395B0203192F
:10120000032903184329D91B4329591B0B292030D3
:101210003D292030D905D91E1B29D9125808031D94
:10122000D9037708D9002D30E1008A11CE268A151E
:101230005908F700D90158085B02031D2B297708CC
:10124000D9002E30E1008A11CE268A155908F70000
:101250002030D90500303030D91E3D29D912580828
:10126000031DD9037708D9002D30E1008A11CE265D
:101270008A155908F700D9013030F7077708E100DF
:101280008A11CE268A1583106008E4005F08E30007
:101290005E08E2005D08E100E801E701E6010A30CE
:1012A000E5008A11FA268A157A08E0007908DF003D
:1012B0007808DE007708DD00DB0BDB280800570824
:1012C0005502DF005608E0005808031C580FE002E2
:1012D0005B085D02F7005E08FA005C08031C5C0F07
:1012E000FA027708E1007A08E2006008E4005F088B
:1012F000E3006208E6006108E5001030E700F7014E
:10130000FA01E40CE30C031C8B296508F7070318AA
:10131000FA0A6608FA07FA0CF70CF90CF80CE70B56
:1013200081297908E0007808DF0057085902F700A2
:101330005A08FA005808031C580FFA027708E1000F
:101340007A08E2006008E4005F08E3006208E60053
:101350006108E500F801F901F701FA016608031DCB
:10136000B42965080319CE291030E7000310E30DF6
:10137000E40DF70DFA0D66087A02031DC129650810
:101380007702031CCA296508F702031CFA036608E2
:10139000FA020314F80DF90DE70BB6297908E000FD
:1013A0007808DF005B085F07F8006008FA005C0857
:1013B00003185C0FFA077A08F900080003081F39C0
:1013C0008300FF30AB00AD01AC0183161F149F14E6
:1013D0001F159F1107309C00831300308800FC30DC
:1013E00085008A11831203298A158A1141298A15D9
:1013F0008A11F3298A158A11B82B8A157A08BB003D
:101400007908BA007808B9007708B8008A11F42B77
:101410008A157A08BF007908BE007808BD007708F1
:10142000BC008A11302C8A157A08C3007908C200E2
:101430007808C1007708C0008A116C2C8A157A08D8
:10144000C7007908C6007808C5007708C4008A116B
:10145000A92C8A157A08CB007908CA007808C90037
:101460007708C8008A11E62C8A157A08CF00790817
:10147000CE007808CD007708CC008A11232D8A157C
:101480007A08D3007908D2007808D1007708D00014
:101490000130E200E3008A11BC268A154130E100E8
:1014A0008A11CE268A157830E1008A11CE268A1557
:1014B0003A30E1008A11CE268A15C93084003B08F3
:1014C000D7003A08D6003908D5003808D4000230D1
:1014D000D8000020883003178D0000308F000310E3
:1014E00004300313D4008A1149278A15C9308400B7
:1014F0003F08D7003E08D6003D08D5003C08D40080
:101500000230D80000200130E2000230E3008A11EE
:10151000BC268A154730E1008A11CE268A1578301C
:10152000E1008A11CE268A153A30E1008A11CE26D2
:101530008A15C93084004708D7004608D6004508F8
:10154000D5004408D4000230D800002091300317A1
:101550008D0000308F00031004300313D4008A1173
:1015600049278A15C93084004B08D7004A08D6009D
:101570004908D5004808D4000230D8000020C830FF
:10158000E2008A1196208A15D4018A11A0278A15B3
:101590000830D400FA30E2008A1196208A15D40B64
:1015A000CA2A5A30D4008A11A0278A150830D400DC
:1015B000FA30E2008A1196208A15D40BD82AB4306A
:1015C000D4008A11A0278A150830D400FA30E2002E
:1015D0008A1196208A15D40BE62AD4018A11B427E1
:1015E0008A150830D400FA30E2008A1196208A1554
:1015F000D40BF32A5A30D4008A11B4278A15083044
:10160000D400FA30E2008A1196208A15D40B012BFF
:10161000B430D4008A11B4278A150830D400FA30C7
:10162000E2008A1196208A15D40B0F2BFB29630048
:02400E003A3F37
:00000001FF
;PIC16F877A
;CRC=BA4F  CREATED="05-oct.-24 23:03"
