:1000000000308A00C7280000FF00030E8301A10012
:100010000A08A0008A010408A2007708A300780853
:10002000A4007908A5007A08A600831383120B1E8A
:100030001B288B182C28220884002308F70024088A
:10004000F8002508F9002608FA0020088A00210E89
:100050008300FF0E7F0E09008A110A1243283B30ED
:10006000840083130008031942280630F800F701C2
:10007000F70B3828F80B37287B30F700F70B3E28B2
:10008000800B35280800B010311031088316870026
:10009000831207100230BA009630BB002F20BA0B33
:1000A0004C288B108A110A121B2834080739F700D4
:1000B000340CF800F80CF80C1F30F80578083607F7
:1000C0008400831337188317F801F80AF70A6928A0
:1000D000F80DF70B6828B508031971287808800413
:1000E0007428F80978088005080040303207B3000A
:1000F000B4000130B500B701B60155203308B40093
:10010000B501B7018030B60055202F08B300B30AFF
:10011000B30303199528A7018B1BA7178B13FF3077
:10012000BB002F20A71B8B178828A7018B1BA717A5
:100130008B132E08BB002F20A71B8B1740303207D4
:10014000B300B400B501B701B60155203308B400BF
:10015000B501B7018030B60055202F08B300B30AAF
:10016000B3030319BD28A7018B1BA7178B13FF30FF
:10017000BB002F20A71B8B17B028A7018B1BA7172D
:100180008B132E08BB002F20A71B8B17080003081A
:100190001F3983000330AF00E830AE003014B010D8
:1001A000FF30B10083161F149F141F159F110730D5
:1001B0009C0083138312A801A9010B168316011357
:1001C000C03083128B04FF30831686000030880015
:1001D00087008312B1008801FF3086008701301C40
:1001E0004129831686168312861A022983168616DB
:1001F0008312861EF6283110310883168700831279
:100200000714B014B01C4029B01C122983168614A0
:10021000831286181229831686148312861C0B29D2
:10022000B2017520B01C2129831606158312061908
:100230002129831606158312061D19290130B200E3
:100240007520B01C30298316861583128619302933
:10025000831686158312861D28290230B200752068
:10026000B01C3F29831606168312061A3F298316EF
:1002700086148312861C37290330B20075200229A8
:04028000EF28630000
:02400E00323F3F
:00000001FF
;PIC16F877A
;CRC=512F  CREATED="04-sept.-24 13:15"
